{
	"contract/Launchpad.sol": {
		"IDOPool": {
			"abi": [
				{
					"inputs": [
						{
							"internalType": "uint256",
							"name": "_startTime",
							"type": "uint256"
						},
						{
							"internalType": "uint256",
							"name": "_duration",
							"type": "uint256"
						},
						{
							"internalType": "uint256",
							"name": "_totalSupply",
							"type": "uint256"
						},
						{
							"internalType": "address",
							"name": "_IDOTokenAddress",
							"type": "address"
						},
						{
							"internalType": "address",
							"name": "_txnTokenAddress",
							"type": "address"
						},
						{
							"internalType": "uint256",
							"name": "_txnRatio",
							"type": "uint256"
						}
					],
					"stateMutability": "nonpayable",
					"type": "constructor"
				},
				{
					"anonymous": false,
					"inputs": [
						{
							"indexed": true,
							"internalType": "address",
							"name": "previousOwner",
							"type": "address"
						},
						{
							"indexed": true,
							"internalType": "address",
							"name": "newOwner",
							"type": "address"
						}
					],
					"name": "OwnershipTransferred",
					"type": "event"
				},
				{
					"inputs": [
						{
							"internalType": "address",
							"name": "government",
							"type": "address"
						}
					],
					"name": "addGovernment",
					"outputs": [],
					"stateMutability": "nonpayable",
					"type": "function"
				},
				{
					"inputs": [],
					"name": "checkReleaseRules",
					"outputs": [
						{
							"components": [
								{
									"internalType": "uint256",
									"name": "iTime",
									"type": "uint256"
								},
								{
									"internalType": "uint256",
									"name": "ratio",
									"type": "uint256"
								}
							],
							"internalType": "struct IDOPool.ReleaseRule[]",
							"name": "",
							"type": "tuple[]"
						}
					],
					"stateMutability": "view",
					"type": "function"
				},
				{
					"inputs": [],
					"name": "checkSharingRules",
					"outputs": [
						{
							"components": [
								{
									"internalType": "uint256",
									"name": "iType",
									"type": "uint256"
								},
								{
									"internalType": "address",
									"name": "clearAddress",
									"type": "address"
								},
								{
									"internalType": "uint256",
									"name": "ratio",
									"type": "uint256"
								}
							],
							"internalType": "struct IDOPool.SharingRule[]",
							"name": "",
							"type": "tuple[]"
						}
					],
					"stateMutability": "view",
					"type": "function"
				},
				{
					"inputs": [],
					"name": "checkTxnLimit",
					"outputs": [
						{
							"components": [
								{
									"internalType": "uint256",
									"name": "maxTimes",
									"type": "uint256"
								},
								{
									"internalType": "uint256",
									"name": "minAmount",
									"type": "uint256"
								},
								{
									"internalType": "uint256",
									"name": "maxAmount",
									"type": "uint256"
								}
							],
							"internalType": "struct IDOPool.TxnLimit",
							"name": "",
							"type": "tuple"
						}
					],
					"stateMutability": "view",
					"type": "function"
				},
				{
					"inputs": [],
					"name": "checkWhiteListInfo",
					"outputs": [
						{
							"internalType": "address",
							"name": "_contractAddress",
							"type": "address"
						},
						{
							"internalType": "uint256",
							"name": "_expireTime",
							"type": "uint256"
						}
					],
					"stateMutability": "view",
					"type": "function"
				},
				{
					"inputs": [],
					"name": "claimRewards",
					"outputs": [],
					"stateMutability": "nonpayable",
					"type": "function"
				},
				{
					"inputs": [],
					"name": "clear",
					"outputs": [],
					"stateMutability": "nonpayable",
					"type": "function"
				},
				{
					"inputs": [],
					"name": "clearAll",
					"outputs": [],
					"stateMutability": "nonpayable",
					"type": "function"
				},
				{
					"inputs": [
						{
							"internalType": "address",
							"name": "government",
							"type": "address"
						}
					],
					"name": "deletedGovernment",
					"outputs": [],
					"stateMutability": "nonpayable",
					"type": "function"
				},
				{
					"inputs": [
						{
							"internalType": "address",
							"name": "account",
							"type": "address"
						}
					],
					"name": "earned",
					"outputs": [
						{
							"internalType": "uint256",
							"name": "",
							"type": "uint256"
						}
					],
					"stateMutability": "view",
					"type": "function"
				},
				{
					"inputs": [],
					"name": "getAccountsLength",
					"outputs": [
						{
							"internalType": "uint256",
							"name": "",
							"type": "uint256"
						}
					],
					"stateMutability": "view",
					"type": "function"
				},
				{
					"inputs": [
						{
							"internalType": "address",
							"name": "account",
							"type": "address"
						}
					],
					"name": "getBuyRecord",
					"outputs": [
						{
							"components": [
								{
									"internalType": "uint256",
									"name": "buyTimes",
									"type": "uint256"
								},
								{
									"internalType": "uint256",
									"name": "txnAmount",
									"type": "uint256"
								},
								{
									"internalType": "uint256",
									"name": "rewards",
									"type": "uint256"
								},
								{
									"internalType": "uint256",
									"name": "paidRewards",
									"type": "uint256"
								}
							],
							"internalType": "struct IDOPool.BuyRecord",
							"name": "",
							"type": "tuple"
						}
					],
					"stateMutability": "view",
					"type": "function"
				},
				{
					"inputs": [
						{
							"internalType": "uint256",
							"name": "index",
							"type": "uint256"
						}
					],
					"name": "getBuyRecordByIndex",
					"outputs": [
						{
							"components": [
								{
									"internalType": "uint256",
									"name": "buyTimes",
									"type": "uint256"
								},
								{
									"internalType": "uint256",
									"name": "txnAmount",
									"type": "uint256"
								},
								{
									"internalType": "uint256",
									"name": "rewards",
									"type": "uint256"
								},
								{
									"internalType": "uint256",
									"name": "paidRewards",
									"type": "uint256"
								}
							],
							"internalType": "struct IDOPool.BuyRecord",
							"name": "",
							"type": "tuple"
						}
					],
					"stateMutability": "view",
					"type": "function"
				},
				{
					"inputs": [],
					"name": "getClaimOpen",
					"outputs": [
						{
							"internalType": "bool",
							"name": "",
							"type": "bool"
						}
					],
					"stateMutability": "view",
					"type": "function"
				},
				{
					"inputs": [],
					"name": "getEndTime",
					"outputs": [
						{
							"internalType": "uint256",
							"name": "",
							"type": "uint256"
						}
					],
					"stateMutability": "view",
					"type": "function"
				},
				{
					"inputs": [
						{
							"internalType": "uint256",
							"name": "index",
							"type": "uint256"
						}
					],
					"name": "getGovernment",
					"outputs": [
						{
							"internalType": "address",
							"name": "",
							"type": "address"
						}
					],
					"stateMutability": "view",
					"type": "function"
				},
				{
					"inputs": [],
					"name": "getGovernmentLength",
					"outputs": [
						{
							"internalType": "uint256",
							"name": "",
							"type": "uint256"
						}
					],
					"stateMutability": "view",
					"type": "function"
				},
				{
					"inputs": [],
					"name": "getPoolInfo",
					"outputs": [
						{
							"components": [
								{
									"internalType": "address",
									"name": "withdrawToken",
									"type": "address"
								},
								{
									"internalType": "address",
									"name": "exchangeToken",
									"type": "address"
								},
								{
									"internalType": "uint256",
									"name": "ratio",
									"type": "uint256"
								},
								{
									"internalType": "uint256",
									"name": "poolStartTime",
									"type": "uint256"
								},
								{
									"internalType": "uint256",
									"name": "poolEndTime",
									"type": "uint256"
								},
								{
									"internalType": "uint256",
									"name": "total",
									"type": "uint256"
								}
							],
							"internalType": "struct IDOPool.PoolInfo",
							"name": "",
							"type": "tuple"
						}
					],
					"stateMutability": "view",
					"type": "function"
				},
				{
					"inputs": [],
					"name": "getPosition",
					"outputs": [
						{
							"internalType": "uint256",
							"name": "",
							"type": "uint256"
						}
					],
					"stateMutability": "view",
					"type": "function"
				},
				{
					"inputs": [],
					"name": "getSoftCap",
					"outputs": [
						{
							"internalType": "uint256",
							"name": "",
							"type": "uint256"
						}
					],
					"stateMutability": "view",
					"type": "function"
				},
				{
					"inputs": [],
					"name": "getTotalSupply",
					"outputs": [
						{
							"internalType": "uint256",
							"name": "",
							"type": "uint256"
						}
					],
					"stateMutability": "view",
					"type": "function"
				},
				{
					"inputs": [
						{
							"internalType": "uint256",
							"name": "offset",
							"type": "uint256"
						}
					],
					"name": "giveBack",
					"outputs": [],
					"stateMutability": "nonpayable",
					"type": "function"
				},
				{
					"inputs": [
						{
							"internalType": "address",
							"name": "account",
							"type": "address"
						}
					],
					"name": "isGovernment",
					"outputs": [
						{
							"internalType": "bool",
							"name": "",
							"type": "bool"
						}
					],
					"stateMutability": "view",
					"type": "function"
				},
				{
					"inputs": [],
					"name": "owner",
					"outputs": [
						{
							"internalType": "address",
							"name": "",
							"type": "address"
						}
					],
					"stateMutability": "view",
					"type": "function"
				},
				{
					"inputs": [
						{
							"internalType": "uint256",
							"name": "txnAmount",
							"type": "uint256"
						}
					],
					"name": "purchase",
					"outputs": [],
					"stateMutability": "payable",
					"type": "function"
				},
				{
					"inputs": [],
					"name": "renounceOwnership",
					"outputs": [],
					"stateMutability": "nonpayable",
					"type": "function"
				},
				{
					"inputs": [
						{
							"internalType": "uint256",
							"name": "_endTime",
							"type": "uint256"
						}
					],
					"name": "resetEndTime",
					"outputs": [],
					"stateMutability": "nonpayable",
					"type": "function"
				},
				{
					"inputs": [
						{
							"internalType": "uint256",
							"name": "_softCap",
							"type": "uint256"
						}
					],
					"name": "resetSoftCap",
					"outputs": [],
					"stateMutability": "nonpayable",
					"type": "function"
				},
				{
					"inputs": [
						{
							"internalType": "bool",
							"name": "_claimOpen",
							"type": "bool"
						}
					],
					"name": "setClaimOpen",
					"outputs": [],
					"stateMutability": "nonpayable",
					"type": "function"
				},
				{
					"inputs": [
						{
							"internalType": "uint256[]",
							"name": "aryTime",
							"type": "uint256[]"
						},
						{
							"internalType": "uint256[]",
							"name": "aryRatio",
							"type": "uint256[]"
						}
					],
					"name": "setReleaseRules",
					"outputs": [],
					"stateMutability": "nonpayable",
					"type": "function"
				},
				{
					"inputs": [
						{
							"internalType": "address",
							"name": "_seniorWhiteList",
							"type": "address"
						}
					],
					"name": "setSeniorWhiteList",
					"outputs": [],
					"stateMutability": "nonpayable",
					"type": "function"
				},
				{
					"inputs": [
						{
							"internalType": "uint256[]",
							"name": "aryType",
							"type": "uint256[]"
						},
						{
							"internalType": "address[]",
							"name": "aryClearAddress",
							"type": "address[]"
						},
						{
							"internalType": "uint256[]",
							"name": "aryRatio",
							"type": "uint256[]"
						}
					],
					"name": "setSharingRules",
					"outputs": [],
					"stateMutability": "nonpayable",
					"type": "function"
				},
				{
					"inputs": [
						{
							"internalType": "uint256",
							"name": "_maxTimes",
							"type": "uint256"
						},
						{
							"internalType": "uint256",
							"name": "_minAmount",
							"type": "uint256"
						},
						{
							"internalType": "uint256",
							"name": "_maxAmount",
							"type": "uint256"
						}
					],
					"name": "setTxnLimit",
					"outputs": [],
					"stateMutability": "nonpayable",
					"type": "function"
				},
				{
					"inputs": [
						{
							"internalType": "address",
							"name": "_contractAddress",
							"type": "address"
						},
						{
							"internalType": "uint256",
							"name": "_expireTime",
							"type": "uint256"
						}
					],
					"name": "setWhiteListInfo",
					"outputs": [],
					"stateMutability": "nonpayable",
					"type": "function"
				},
				{
					"inputs": [
						{
							"internalType": "address",
							"name": "newOwner",
							"type": "address"
						}
					],
					"name": "transferOwnership",
					"outputs": [],
					"stateMutability": "nonpayable",
					"type": "function"
				},
				{
					"inputs": [
						{
							"internalType": "address",
							"name": "tokenAddress",
							"type": "address"
						},
						{
							"internalType": "address",
							"name": "account",
							"type": "address"
						},
						{
							"internalType": "uint256",
							"name": "amount",
							"type": "uint256"
						}
					],
					"name": "withdraw",
					"outputs": [],
					"stateMutability": "nonpayable",
					"type": "function"
				},
				{
					"inputs": [
						{
							"internalType": "address",
							"name": "account",
							"type": "address"
						},
						{
							"internalType": "uint256",
							"name": "amount",
							"type": "uint256"
						}
					],
					"name": "withdrawBNB",
					"outputs": [],
					"stateMutability": "nonpayable",
					"type": "function"
				}
			],
			"devdoc": {
				"kind": "dev",
				"methods": {
					"owner()": {
						"details": "Returns the address of the current owner."
					},
					"renounceOwnership()": {
						"details": "Leaves the contract without owner. It will not be possible to call `onlyOwner` functions anymore. Can only be called by the current owner. NOTE: Renouncing ownership will leave the contract without an owner, thereby removing any functionality that is only available to the owner."
					},
					"transferOwnership(address)": {
						"details": "Transfers ownership of the contract to a new account (`newOwner`). Can only be called by the current owner."
					}
				},
				"version": 1
			},
			"evm": {
				"assembly": "    /* \"contract/Launchpad.sol\":23135:38306  contract IDOPool is Ownable {... */\n  mstore(0x40, 0x80)\n    /* \"contract/Launchpad.sol\":23580:23581  0 */\n  0x00\n    /* \"contract/Launchpad.sol\":23553:23581  uint256 private position = 0 */\n  0x0d\n  dup2\n  swap1\n  sstore\n    /* \"contract/Launchpad.sol\":23619:23658  uint256 private whiteListExpireTime = 0 */\n  0x11\n  sstore\n    /* \"contract/Launchpad.sol\":23818:23847  bool private claimOpen = true */\n  0x16\n  dup1\n  sload\n  not(0xff)\n  and\n    /* \"contract/Launchpad.sol\":23843:23847  true */\n  0x01\n    /* \"contract/Launchpad.sol\":23818:23847  bool private claimOpen = true */\n  or\n  swap1\n  sstore\n    /* \"contract/Launchpad.sol\":23891:24395  constructor(... */\n  callvalue\n  dup1\n  iszero\n  tag_1\n  jumpi\n  0x00\n  dup1\n  revert\ntag_1:\n  pop\n  mload(0x40)\n  sub(codesize, bytecodeSize)\n  dup1\n  bytecodeSize\n  dup4\n  codecopy\n  dup2\n  add\n  0x40\n  dup2\n  swap1\n  mstore\n  tag_2\n  swap2\n  tag_3\n  jump\t// in\ntag_2:\n    /* \"contract/Launchpad.sol\":13499:13516  address msgSender */\n  0x00\n    /* \"contract/Launchpad.sol\":13541:13559  _owner = msgSender */\n  dup1\n  sload\n  not(sub(shl(0xa0, 0x01), 0x01))\n  and\n    /* \"contract/Launchpad.sol\":929:939  msg.sender */\n  caller\n    /* \"contract/Launchpad.sol\":13541:13559  _owner = msgSender */\n  swap1\n  dup2\n  or\n  dup3\n  sstore\n    /* \"contract/Launchpad.sol\":13574:13617  OwnershipTransferred(address(0), msgSender) */\n  mload(0x40)\n    /* \"contract/Launchpad.sol\":929:939  msg.sender */\n  swap1\n  swap2\n  dup3\n  swap2\n    /* \"contract/Launchpad.sol\":13574:13617  OwnershipTransferred(address(0), msgSender) */\n  0x8be0079c531659141344cd1fd0a4f28419497f9722a3daafe3b4186f6b6457e0\n  swap1\n    /* \"contract/Launchpad.sol\":13499:13516  address msgSender */\n  dup3\n  swap1\n    /* \"contract/Launchpad.sol\":13574:13617  OwnershipTransferred(address(0), msgSender) */\n  log3\n  pop\n    /* \"contract/Launchpad.sol\":24099:24108  startTime */\n  0x03\n    /* \"contract/Launchpad.sol\":24099:24121  startTime = _startTime */\n  dup7\n  swap1\n  sstore\n    /* \"contract/Launchpad.sol\":24141:24163  _startTime + _duration */\n  tag_10\n    /* \"contract/Launchpad.sol\":24154:24163  _duration */\n  dup6\n    /* \"contract/Launchpad.sol\":24111:24121  _startTime */\n  dup8\n    /* \"contract/Launchpad.sol\":24141:24163  _startTime + _duration */\n  tag_11\n  jump\t// in\ntag_10:\n    /* \"contract/Launchpad.sol\":24131:24138  endTime */\n  0x04\n    /* \"contract/Launchpad.sol\":24131:24163  endTime = _startTime + _duration */\n  sstore\n    /* \"contract/Launchpad.sol\":24173:24184  totalSupply */\n  0x05\n    /* \"contract/Launchpad.sol\":24173:24199  totalSupply = _totalSupply */\n  dup5\n  swap1\n  sstore\n    /* \"contract/Launchpad.sol\":24209:24215  _total */\n  0x15\n    /* \"contract/Launchpad.sol\":24209:24230  _total = _totalSupply */\n  swap4\n  swap1\n  swap4\n  sstore\n    /* \"contract/Launchpad.sol\":24240:24255  IDOTokenAddress */\n  0x06\n    /* \"contract/Launchpad.sol\":24240:24274  IDOTokenAddress = _IDOTokenAddress */\n  dup1\n  sload\n  sub(shl(0xa0, 0x01), 0x01)\n  swap4\n  dup5\n  and\n  not(sub(shl(0xa0, 0x01), 0x01))\n  swap2\n  dup3\n  and\n  or\n  swap1\n  swap2\n  sstore\n    /* \"contract/Launchpad.sol\":24284:24299  txnTokenAddress */\n  0x07\n    /* \"contract/Launchpad.sol\":24284:24318  txnTokenAddress = _txnTokenAddress */\n  dup1\n  sload\n  swap3\n  swap1\n  swap4\n  and\n  swap2\n  and\n  or\n  swap1\n  sstore\n    /* \"contract/Launchpad.sol\":24328:24336  txnRatio */\n  0x08\n    /* \"contract/Launchpad.sol\":24328:24348  txnRatio = _txnRatio */\n  sstore\n  pop\n  pop\n    /* \"contract/Launchpad.sol\":24240:24274  IDOTokenAddress = _IDOTokenAddress */\n  0x01\n  0x0e\n    /* \"contract/Launchpad.sol\":24367:24388  buyLimit.maxTimes = 1 */\n  sstore\n    /* \"contract/Launchpad.sol\":23135:38306  contract IDOPool is Ownable {... */\n  jump(tag_15)\n    /* \"#utility.yul\":14:191   */\ntag_14:\n    /* \"#utility.yul\":93:106   */\n  dup1\n  mload\n  sub(shl(0xa0, 0x01), 0x01)\n    /* \"#utility.yul\":135:166   */\n  dup2\n  and\n    /* \"#utility.yul\":125:167   */\n  dup2\n  eq\n    /* \"#utility.yul\":115:185   */\n  tag_17\n  jumpi\n    /* \"#utility.yul\":181:182   */\n  0x00\n    /* \"#utility.yul\":178:179   */\n  dup1\n    /* \"#utility.yul\":171:183   */\n  revert\n    /* \"#utility.yul\":115:185   */\ntag_17:\n    /* \"#utility.yul\":14:191   */\n  swap2\n  swap1\n  pop\n  jump\t// out\n    /* \"#utility.yul\":196:736   */\ntag_3:\n    /* \"#utility.yul\":311:317   */\n  0x00\n    /* \"#utility.yul\":319:325   */\n  dup1\n    /* \"#utility.yul\":327:333   */\n  0x00\n    /* \"#utility.yul\":335:341   */\n  dup1\n    /* \"#utility.yul\":343:349   */\n  0x00\n    /* \"#utility.yul\":351:357   */\n  dup1\n    /* \"#utility.yul\":404:407   */\n  0xc0\n    /* \"#utility.yul\":392:401   */\n  dup8\n    /* \"#utility.yul\":383:390   */\n  dup10\n    /* \"#utility.yul\":379:402   */\n  sub\n    /* \"#utility.yul\":375:408   */\n  slt\n    /* \"#utility.yul\":372:425   */\n  iszero\n  tag_19\n  jumpi\n    /* \"#utility.yul\":421:422   */\n  0x00\n    /* \"#utility.yul\":418:419   */\n  dup1\n    /* \"#utility.yul\":411:423   */\n  revert\n    /* \"#utility.yul\":372:425   */\ntag_19:\n    /* \"#utility.yul\":450:459   */\n  dup7\n    /* \"#utility.yul\":444:460   */\n  mload\n    /* \"#utility.yul\":434:460   */\n  swap6\n  pop\n    /* \"#utility.yul\":500:502   */\n  0x20\n    /* \"#utility.yul\":489:498   */\n  dup8\n    /* \"#utility.yul\":485:503   */\n  add\n    /* \"#utility.yul\":479:504   */\n  mload\n    /* \"#utility.yul\":469:504   */\n  swap5\n  pop\n    /* \"#utility.yul\":544:546   */\n  0x40\n    /* \"#utility.yul\":533:542   */\n  dup8\n    /* \"#utility.yul\":529:547   */\n  add\n    /* \"#utility.yul\":523:548   */\n  mload\n    /* \"#utility.yul\":513:548   */\n  swap4\n  pop\n    /* \"#utility.yul\":567:616   */\n  tag_20\n    /* \"#utility.yul\":612:614   */\n  0x60\n    /* \"#utility.yul\":601:610   */\n  dup9\n    /* \"#utility.yul\":597:615   */\n  add\n    /* \"#utility.yul\":567:616   */\n  tag_14\n  jump\t// in\ntag_20:\n    /* \"#utility.yul\":557:616   */\n  swap3\n  pop\n    /* \"#utility.yul\":635:685   */\n  tag_21\n    /* \"#utility.yul\":680:683   */\n  0x80\n    /* \"#utility.yul\":669:678   */\n  dup9\n    /* \"#utility.yul\":665:684   */\n  add\n    /* \"#utility.yul\":635:685   */\n  tag_14\n  jump\t// in\ntag_21:\n    /* \"#utility.yul\":625:685   */\n  swap2\n  pop\n    /* \"#utility.yul\":725:728   */\n  0xa0\n    /* \"#utility.yul\":714:723   */\n  dup8\n    /* \"#utility.yul\":710:729   */\n  add\n    /* \"#utility.yul\":704:730   */\n  mload\n    /* \"#utility.yul\":694:730   */\n  swap1\n  pop\n    /* \"#utility.yul\":196:736   */\n  swap3\n  swap6\n  pop\n  swap3\n  swap6\n  pop\n  swap3\n  swap6\n  jump\t// out\n    /* \"#utility.yul\":741:966   */\ntag_11:\n    /* \"#utility.yul\":781:784   */\n  0x00\n    /* \"#utility.yul\":812:813   */\n  dup3\n    /* \"#utility.yul\":808:814   */\n  not\n    /* \"#utility.yul\":805:806   */\n  dup3\n    /* \"#utility.yul\":802:815   */\n  gt\n    /* \"#utility.yul\":799:935   */\n  iszero\n  tag_23\n  jumpi\n    /* \"#utility.yul\":857:867   */\n  0x4e487b71\n    /* \"#utility.yul\":852:855   */\n  0xe0\n    /* \"#utility.yul\":848:868   */\n  shl\n    /* \"#utility.yul\":845:846   */\n  0x00\n    /* \"#utility.yul\":838:869   */\n  mstore\n    /* \"#utility.yul\":892:896   */\n  0x11\n    /* \"#utility.yul\":889:890   */\n  0x04\n    /* \"#utility.yul\":882:897   */\n  mstore\n    /* \"#utility.yul\":920:924   */\n  0x24\n    /* \"#utility.yul\":917:918   */\n  0x00\n    /* \"#utility.yul\":910:925   */\n  revert\n    /* \"#utility.yul\":799:935   */\ntag_23:\n  pop\n    /* \"#utility.yul\":951:960   */\n  add\n  swap1\n    /* \"#utility.yul\":741:966   */\n  jump\t// out\ntag_15:\n    /* \"contract/Launchpad.sol\":23135:38306  contract IDOPool is Ownable {... */\n  dataSize(sub_0)\n  dup1\n  dataOffset(sub_0)\n  0x00\n  codecopy\n  0x00\n  return\nstop\n\nsub_0: assembly {\n        /* \"contract/Launchpad.sol\":23135:38306  contract IDOPool is Ownable {... */\n      mstore(0x40, 0x80)\n      jumpi(tag_1, lt(calldatasize, 0x04))\n      shr(0xe0, calldataload(0x00))\n      dup1\n      0x74df25ad\n      gt\n      tag_39\n      jumpi\n      dup1\n      0xc8ad7497\n      gt\n      tag_40\n      jumpi\n      dup1\n      0xd9caed12\n      gt\n      tag_41\n      jumpi\n      dup1\n      0xd9caed12\n      eq\n      tag_34\n      jumpi\n      dup1\n      0xeaefc546\n      eq\n      tag_35\n      jumpi\n      dup1\n      0xebb689a1\n      eq\n      tag_36\n      jumpi\n      dup1\n      0xefef39a1\n      eq\n      tag_37\n      jumpi\n      dup1\n      0xf2fde38b\n      eq\n      tag_38\n      jumpi\n      0x00\n      dup1\n      revert\n    tag_41:\n      dup1\n      0xc8ad7497\n      eq\n      tag_29\n      jumpi\n      dup1\n      0xc9d41698\n      eq\n      tag_30\n      jumpi\n      dup1\n      0xcc26c44e\n      eq\n      tag_31\n      jumpi\n      dup1\n      0xd53890cd\n      eq\n      tag_32\n      jumpi\n      dup1\n      0xd5e46d3c\n      eq\n      tag_33\n      jumpi\n      0x00\n      dup1\n      revert\n    tag_40:\n      dup1\n      0xa623dbe5\n      gt\n      tag_42\n      jumpi\n      dup1\n      0xa623dbe5\n      eq\n      tag_24\n      jumpi\n      dup1\n      0xa97af1f2\n      eq\n      tag_25\n      jumpi\n      dup1\n      0xc4e41b22\n      eq\n      tag_26\n      jumpi\n      dup1\n      0xc69ce8eb\n      eq\n      tag_27\n      jumpi\n      dup1\n      0xc7101837\n      eq\n      tag_28\n      jumpi\n      0x00\n      dup1\n      revert\n    tag_42:\n      dup1\n      0x74df25ad\n      eq\n      tag_20\n      jumpi\n      dup1\n      0x80d87320\n      eq\n      tag_21\n      jumpi\n      dup1\n      0x8da5cb5b\n      eq\n      tag_22\n      jumpi\n      dup1\n      0x9ab8ded1\n      eq\n      tag_23\n      jumpi\n      0x00\n      dup1\n      revert\n    tag_39:\n      dup1\n      0x4d52a512\n      gt\n      tag_43\n      jumpi\n      dup1\n      0x6c2b04fd\n      gt\n      tag_44\n      jumpi\n      dup1\n      0x6c2b04fd\n      eq\n      tag_15\n      jumpi\n      dup1\n      0x6f9ce1f9\n      eq\n      tag_16\n      jumpi\n      dup1\n      0x715018a6\n      eq\n      tag_17\n      jumpi\n      dup1\n      0x7273df66\n      eq\n      tag_18\n      jumpi\n      dup1\n      0x7398ab18\n      eq\n      tag_19\n      jumpi\n      0x00\n      dup1\n      revert\n    tag_44:\n      dup1\n      0x4d52a512\n      eq\n      tag_11\n      jumpi\n      dup1\n      0x52efea6e\n      eq\n      tag_12\n      jumpi\n      dup1\n      0x54d9ba1c\n      eq\n      tag_13\n      jumpi\n      dup1\n      0x60246c88\n      eq\n      tag_14\n      jumpi\n      0x00\n      dup1\n      revert\n    tag_43:\n      dup1\n      0x14f326a1\n      gt\n      tag_45\n      jumpi\n      dup1\n      0x14f326a1\n      eq\n      tag_6\n      jumpi\n      dup1\n      0x1758b09d\n      eq\n      tag_7\n      jumpi\n      dup1\n      0x2483c291\n      eq\n      tag_8\n      jumpi\n      dup1\n      0x372500ab\n      eq\n      tag_9\n      jumpi\n      dup1\n      0x439f5ac2\n      eq\n      tag_10\n      jumpi\n      0x00\n      dup1\n      revert\n    tag_45:\n      dup1\n      0x8cc262\n      eq\n      tag_2\n      jumpi\n      dup1\n      0x04d43fc0\n      eq\n      tag_3\n      jumpi\n      dup1\n      0x0c7fd484\n      eq\n      tag_4\n      jumpi\n      dup1\n      0x0d5847b0\n      eq\n      tag_5\n      jumpi\n    tag_1:\n      0x00\n      dup1\n      revert\n        /* \"contract/Launchpad.sol\":27454:28731  function earned(... */\n    tag_2:\n      callvalue\n      dup1\n      iszero\n      tag_46\n      jumpi\n      0x00\n      dup1\n      revert\n    tag_46:\n      pop\n      tag_47\n      tag_48\n      calldatasize\n      0x04\n      tag_49\n      jump\t// in\n    tag_48:\n      tag_50\n      jump\t// in\n    tag_47:\n      mload(0x40)\n        /* \"#utility.yul\":529:554   */\n      swap1\n      dup2\n      mstore\n        /* \"#utility.yul\":517:519   */\n      0x20\n        /* \"#utility.yul\":502:520   */\n      add\n        /* \"contract/Launchpad.sol\":27454:28731  function earned(... */\n    tag_51:\n      mload(0x40)\n      dup1\n      swap2\n      sub\n      swap1\n      return\n        /* \"contract/Launchpad.sol\":35413:35607  function checkWhiteListInfo() public view returns (address _contractAddress, uint256 _expireTime) {... */\n    tag_3:\n      callvalue\n      dup1\n      iszero\n      tag_53\n      jumpi\n      0x00\n      dup1\n      revert\n    tag_53:\n      pop\n      tag_54\n        /* \"contract/Launchpad.sol\":35540:35557  whiteListContract */\n      sload(0x12)\n        /* \"contract/Launchpad.sol\":35581:35600  whiteListExpireTime */\n      sload(0x11)\n      sub(shl(0xa0, 0x01), 0x01)\n        /* \"contract/Launchpad.sol\":35540:35557  whiteListContract */\n      swap1\n      swap2\n      and\n      swap2\n        /* \"contract/Launchpad.sol\":35413:35607  function checkWhiteListInfo() public view returns (address _contractAddress, uint256 _expireTime) {... */\n      jump\n    tag_54:\n      0x40\n      dup1\n      mload\n      sub(shl(0xa0, 0x01), 0x01)\n        /* \"#utility.yul\":757:789   */\n      swap1\n      swap4\n      and\n        /* \"#utility.yul\":739:790   */\n      dup4\n      mstore\n        /* \"#utility.yul\":821:823   */\n      0x20\n        /* \"#utility.yul\":806:824   */\n      dup4\n      add\n        /* \"#utility.yul\":799:833   */\n      swap2\n      swap1\n      swap2\n      mstore\n        /* \"#utility.yul\":712:730   */\n      add\n        /* \"contract/Launchpad.sol\":35413:35607  function checkWhiteListInfo() public view returns (address _contractAddress, uint256 _expireTime) {... */\n      tag_51\n        /* \"#utility.yul\":565:839   */\n      jump\n        /* \"contract/Launchpad.sol\":25144:25266  function getBuyRecord(address account) public view returns (BuyRecord memory) {... */\n    tag_4:\n      callvalue\n      dup1\n      iszero\n      tag_58\n      jumpi\n      0x00\n      dup1\n      revert\n    tag_58:\n      pop\n      tag_59\n      tag_60\n      calldatasize\n      0x04\n      tag_49\n      jump\t// in\n    tag_60:\n      tag_61\n      jump\t// in\n    tag_59:\n      mload(0x40)\n      tag_51\n      swap2\n      swap1\n        /* \"#utility.yul\":1063:1076   */\n      dup2\n      mload\n        /* \"#utility.yul\":1045:1077   */\n      dup2\n      mstore\n        /* \"#utility.yul\":1133:1137   */\n      0x20\n        /* \"#utility.yul\":1121:1138   */\n      dup1\n      dup4\n      add\n        /* \"#utility.yul\":1115:1139   */\n      mload\n        /* \"#utility.yul\":1093:1113   */\n      swap1\n      dup3\n      add\n        /* \"#utility.yul\":1086:1140   */\n      mstore\n        /* \"#utility.yul\":1196:1200   */\n      0x40\n        /* \"#utility.yul\":1184:1201   */\n      dup1\n      dup4\n      add\n        /* \"#utility.yul\":1178:1202   */\n      mload\n        /* \"#utility.yul\":1156:1176   */\n      swap1\n      dup3\n      add\n        /* \"#utility.yul\":1149:1203   */\n      mstore\n        /* \"#utility.yul\":1259:1263   */\n      0x60\n        /* \"#utility.yul\":1247:1264   */\n      swap2\n      dup3\n      add\n        /* \"#utility.yul\":1241:1265   */\n      mload\n        /* \"#utility.yul\":1219:1239   */\n      swap2\n      dup2\n      add\n        /* \"#utility.yul\":1212:1266   */\n      swap2\n      swap1\n      swap2\n      mstore\n        /* \"#utility.yul\":1032:1035   */\n      0x80\n        /* \"#utility.yul\":1017:1036   */\n      add\n      swap1\n        /* \"#utility.yul\":844:1272   */\n      jump\n        /* \"contract/Launchpad.sol\":33062:34306  function giveBack(uint256 offset) public onlyController {... */\n    tag_5:\n      callvalue\n      dup1\n      iszero\n      tag_64\n      jumpi\n      0x00\n      dup1\n      revert\n    tag_64:\n      pop\n      tag_65\n      tag_66\n      calldatasize\n      0x04\n      tag_67\n      jump\t// in\n    tag_66:\n      tag_68\n      jump\t// in\n    tag_65:\n      stop\n        /* \"contract/Launchpad.sol\":25272:25373  function getAccountsLength() public view returns (uint256) {... */\n    tag_6:\n      callvalue\n      dup1\n      iszero\n      tag_69\n      jumpi\n      0x00\n      dup1\n      revert\n    tag_69:\n      pop\n        /* \"contract/Launchpad.sol\":25348:25359  aryAccounts */\n      0x0c\n        /* \"contract/Launchpad.sol\":25348:25366  aryAccounts.length */\n      sload\n        /* \"contract/Launchpad.sol\":25272:25373  function getAccountsLength() public view returns (uint256) {... */\n      jump(tag_47)\n        /* \"contract/Launchpad.sol\":37762:37873  function resetSoftCap(... */\n    tag_7:\n      callvalue\n      dup1\n      iszero\n      tag_73\n      jumpi\n      0x00\n      dup1\n      revert\n    tag_73:\n      pop\n      tag_65\n      tag_75\n      calldatasize\n      0x04\n      tag_67\n      jump\t// in\n    tag_75:\n      tag_76\n      jump\t// in\n        /* \"contract/Launchpad.sol\":36533:37522  function setSharingRules(... */\n    tag_8:\n      callvalue\n      dup1\n      iszero\n      tag_77\n      jumpi\n      0x00\n      dup1\n      revert\n    tag_77:\n      pop\n      tag_65\n      tag_79\n      calldatasize\n      0x04\n      tag_80\n      jump\t// in\n    tag_79:\n      tag_81\n      jump\t// in\n        /* \"contract/Launchpad.sol\":28737:29453  function claimRewards() public {... */\n    tag_9:\n      callvalue\n      dup1\n      iszero\n      tag_82\n      jumpi\n      0x00\n      dup1\n      revert\n    tag_82:\n      pop\n      tag_65\n      tag_84\n      jump\t// in\n        /* \"contract/Launchpad.sol\":24966:25049  function getEndTime() public view returns (uint256) {... */\n    tag_10:\n      callvalue\n      dup1\n      iszero\n      tag_85\n      jumpi\n      0x00\n      dup1\n      revert\n    tag_85:\n      pop\n        /* \"contract/Launchpad.sol\":25035:25042  endTime */\n      sload(0x04)\n        /* \"contract/Launchpad.sol\":24966:25049  function getEndTime() public view returns (uint256) {... */\n      jump(tag_47)\n        /* \"contract/Launchpad.sol\":25055:25138  function getSoftCap() public view returns (uint256) {... */\n    tag_11:\n      callvalue\n      dup1\n      iszero\n      tag_89\n      jumpi\n      0x00\n      dup1\n      revert\n    tag_89:\n      pop\n        /* \"contract/Launchpad.sol\":25124:25131  softCap */\n      sload(0x0a)\n        /* \"contract/Launchpad.sol\":25055:25138  function getSoftCap() public view returns (uint256) {... */\n      jump(tag_47)\n        /* \"contract/Launchpad.sol\":31534:32772  function clear() public onlyController {... */\n    tag_12:\n      callvalue\n      dup1\n      iszero\n      tag_93\n      jumpi\n      0x00\n      dup1\n      revert\n    tag_93:\n      pop\n      tag_65\n      tag_95\n      jump\t// in\n        /* \"contract/Launchpad.sol\":34695:34955  function setTxnLimit(... */\n    tag_13:\n      callvalue\n      dup1\n      iszero\n      tag_96\n      jumpi\n      0x00\n      dup1\n      revert\n    tag_96:\n      pop\n      tag_65\n      tag_98\n      calldatasize\n      0x04\n      tag_99\n      jump\t// in\n    tag_98:\n      tag_100\n      jump\t// in\n        /* \"contract/Launchpad.sol\":24402:24763  function getPoolInfo() public view returns (PoolInfo memory) {... */\n    tag_14:\n      callvalue\n      dup1\n      iszero\n      tag_101\n      jumpi\n      0x00\n      dup1\n      revert\n    tag_101:\n      pop\n      tag_102\n      tag_103\n      jump\t// in\n    tag_102:\n      mload(0x40)\n      tag_51\n      swap2\n      swap1\n        /* \"#utility.yul\":3507:3520   */\n      dup2\n      mload\n      sub(shl(0xa0, 0x01), 0x01)\n        /* \"#utility.yul\":3503:3525   */\n      swap1\n      dup2\n      and\n        /* \"#utility.yul\":3485:3526   */\n      dup3\n      mstore\n        /* \"#utility.yul\":3586:3590   */\n      0x20\n        /* \"#utility.yul\":3574:3591   */\n      dup1\n      dup5\n      add\n        /* \"#utility.yul\":3568:3592   */\n      mload\n        /* \"#utility.yul\":3564:3597   */\n      swap1\n      swap2\n      and\n        /* \"#utility.yul\":3542:3562   */\n      swap1\n      dup3\n      add\n        /* \"#utility.yul\":3535:3598   */\n      mstore\n        /* \"#utility.yul\":3654:3658   */\n      0x40\n        /* \"#utility.yul\":3642:3659   */\n      dup1\n      dup4\n      add\n        /* \"#utility.yul\":3636:3660   */\n      mload\n        /* \"#utility.yul\":3614:3634   */\n      swap1\n      dup3\n      add\n        /* \"#utility.yul\":3607:3661   */\n      mstore\n        /* \"#utility.yul\":3717:3721   */\n      0x60\n        /* \"#utility.yul\":3705:3722   */\n      dup1\n      dup4\n      add\n        /* \"#utility.yul\":3699:3723   */\n      mload\n        /* \"#utility.yul\":3677:3697   */\n      swap1\n      dup3\n      add\n        /* \"#utility.yul\":3670:3724   */\n      mstore\n        /* \"#utility.yul\":3780:3784   */\n      0x80\n        /* \"#utility.yul\":3768:3785   */\n      dup1\n      dup4\n      add\n        /* \"#utility.yul\":3762:3786   */\n      mload\n        /* \"#utility.yul\":3740:3760   */\n      swap1\n      dup3\n      add\n        /* \"#utility.yul\":3733:3787   */\n      mstore\n        /* \"#utility.yul\":3465:3468   */\n      0xa0\n        /* \"#utility.yul\":3831:3848   */\n      swap2\n      dup3\n      add\n        /* \"#utility.yul\":3825:3849   */\n      mload\n        /* \"#utility.yul\":3803:3823   */\n      swap2\n      dup2\n      add\n        /* \"#utility.yul\":3796:3850   */\n      swap2\n      swap1\n      swap2\n      mstore\n        /* \"#utility.yul\":3434:3437   */\n      0xc0\n        /* \"#utility.yul\":3419:3438   */\n      add\n      swap1\n        /* \"#utility.yul\":3248:3856   */\n      jump\n        /* \"contract/Launchpad.sol\":15218:15336  function isGovernment(address account) public view returns (bool){... */\n    tag_15:\n      callvalue\n      dup1\n      iszero\n      tag_106\n      jumpi\n      0x00\n      dup1\n      revert\n    tag_106:\n      pop\n      tag_107\n      tag_108\n      calldatasize\n      0x04\n      tag_49\n      jump\t// in\n    tag_108:\n      tag_109\n      jump\t// in\n    tag_107:\n      mload(0x40)\n        /* \"#utility.yul\":4026:4040   */\n      swap1\n      iszero\n        /* \"#utility.yul\":4019:4041   */\n      iszero\n        /* \"#utility.yul\":4001:4042   */\n      dup2\n      mstore\n        /* \"#utility.yul\":3989:3991   */\n      0x20\n        /* \"#utility.yul\":3974:3992   */\n      add\n        /* \"contract/Launchpad.sol\":15218:15336  function isGovernment(address account) public view returns (bool){... */\n      tag_51\n        /* \"#utility.yul\":3861:4048   */\n      jump\n        /* \"contract/Launchpad.sol\":25379:25517  function getBuyRecordByIndex(uint256 index) public view returns (BuyRecord memory) {... */\n    tag_16:\n      callvalue\n      dup1\n      iszero\n      tag_112\n      jumpi\n      0x00\n      dup1\n      revert\n    tag_112:\n      pop\n      tag_59\n      tag_114\n      calldatasize\n      0x04\n      tag_67\n      jump\t// in\n    tag_114:\n      tag_115\n      jump\t// in\n        /* \"contract/Launchpad.sol\":14332:14477  function renounceOwnership() public virtual onlyOwner {... */\n    tag_17:\n      callvalue\n      dup1\n      iszero\n      tag_117\n      jumpi\n      0x00\n      dup1\n      revert\n    tag_117:\n      pop\n      tag_65\n      tag_119\n      jump\t// in\n        /* \"contract/Launchpad.sol\":34312:34412  function setClaimOpen(bool _claimOpen) public onlyController {... */\n    tag_18:\n      callvalue\n      dup1\n      iszero\n      tag_120\n      jumpi\n      0x00\n      dup1\n      revert\n    tag_120:\n      pop\n      tag_65\n      tag_122\n      calldatasize\n      0x04\n      tag_123\n      jump\t// in\n    tag_122:\n      tag_124\n      jump\t// in\n        /* \"contract/Launchpad.sol\":34605:34689  function getPosition() public view returns (uint256){... */\n    tag_19:\n      callvalue\n      dup1\n      iszero\n      tag_125\n      jumpi\n      0x00\n      dup1\n      revert\n    tag_125:\n      pop\n        /* \"contract/Launchpad.sol\":34674:34682  position */\n      sload(0x0d)\n        /* \"contract/Launchpad.sol\":34605:34689  function getPosition() public view returns (uint256){... */\n      jump(tag_47)\n        /* \"contract/Launchpad.sol\":37528:37639  function checkSharingRules() public view returns (SharingRule[] memory) {... */\n    tag_20:\n      callvalue\n      dup1\n      iszero\n      tag_129\n      jumpi\n      0x00\n      dup1\n      revert\n    tag_129:\n      pop\n      tag_130\n      tag_131\n      jump\t// in\n    tag_130:\n      mload(0x40)\n      tag_51\n      swap2\n      swap1\n      tag_133\n      jump\t// in\n        /* \"contract/Launchpad.sol\":14872:14976  function addGovernment(address government) public onlyOwner {... */\n    tag_21:\n      callvalue\n      dup1\n      iszero\n      tag_134\n      jumpi\n      0x00\n      dup1\n      revert\n    tag_134:\n      pop\n      tag_65\n      tag_136\n      calldatasize\n      0x04\n      tag_49\n      jump\t// in\n    tag_136:\n      tag_137\n      jump\t// in\n        /* \"contract/Launchpad.sol\":13700:13785  function owner() public view virtual returns (address) {... */\n    tag_22:\n      callvalue\n      dup1\n      iszero\n      tag_138\n      jumpi\n      0x00\n      dup1\n      revert\n    tag_138:\n      pop\n        /* \"contract/Launchpad.sol\":13746:13753  address */\n      0x00\n        /* \"contract/Launchpad.sol\":13772:13778  _owner */\n      sload\n      sub(shl(0xa0, 0x01), 0x01)\n      and\n        /* \"contract/Launchpad.sol\":13700:13785  function owner() public view virtual returns (address) {... */\n    tag_139:\n      mload(0x40)\n      sub(shl(0xa0, 0x01), 0x01)\n        /* \"#utility.yul\":5468:5500   */\n      swap1\n      swap2\n      and\n        /* \"#utility.yul\":5450:5501   */\n      dup2\n      mstore\n        /* \"#utility.yul\":5438:5440   */\n      0x20\n        /* \"#utility.yul\":5423:5441   */\n      add\n        /* \"contract/Launchpad.sol\":13700:13785  function owner() public view virtual returns (address) {... */\n      tag_51\n        /* \"#utility.yul\":5304:5507   */\n      jump\n        /* \"contract/Launchpad.sol\":15342:15447  function getGovernmentLength() public view returns (uint256) {... */\n    tag_23:\n      callvalue\n      dup1\n      iszero\n      tag_143\n      jumpi\n      0x00\n      dup1\n      revert\n    tag_143:\n      pop\n      tag_47\n      tag_145\n      jump\t// in\n        /* \"contract/Launchpad.sol\":37645:37756  function resetEndTime(... */\n    tag_24:\n      callvalue\n      dup1\n      iszero\n      tag_147\n      jumpi\n      0x00\n      dup1\n      revert\n    tag_147:\n      pop\n      tag_65\n      tag_149\n      calldatasize\n      0x04\n      tag_67\n      jump\t// in\n    tag_149:\n      tag_150\n      jump\t// in\n        /* \"contract/Launchpad.sol\":32936:33056  function withdrawBNB(address account,uint256 amount) public onlyOwner {... */\n    tag_25:\n      callvalue\n      dup1\n      iszero\n      tag_151\n      jumpi\n      0x00\n      dup1\n      revert\n    tag_151:\n      pop\n      tag_65\n      tag_153\n      calldatasize\n      0x04\n      tag_154\n      jump\t// in\n    tag_153:\n      tag_155\n      jump\t// in\n        /* \"contract/Launchpad.sol\":34508:34599  function getTotalSupply() public view returns (uint256) {... */\n    tag_26:\n      callvalue\n      dup1\n      iszero\n      tag_156\n      jumpi\n      0x00\n      dup1\n      revert\n    tag_156:\n      pop\n        /* \"contract/Launchpad.sol\":34581:34592  totalSupply */\n      sload(0x05)\n        /* \"contract/Launchpad.sol\":34508:34599  function getTotalSupply() public view returns (uint256) {... */\n      jump(tag_47)\n        /* \"contract/Launchpad.sol\":35613:36410  function setReleaseRules(... */\n    tag_27:\n      callvalue\n      dup1\n      iszero\n      tag_160\n      jumpi\n      0x00\n      dup1\n      revert\n    tag_160:\n      pop\n      tag_65\n      tag_162\n      calldatasize\n      0x04\n      tag_163\n      jump\t// in\n    tag_162:\n      tag_164\n      jump\t// in\n        /* \"contract/Launchpad.sol\":36416:36527  function checkReleaseRules() public view returns (ReleaseRule[] memory) {... */\n    tag_28:\n      callvalue\n      dup1\n      iszero\n      tag_165\n      jumpi\n      0x00\n      dup1\n      revert\n    tag_165:\n      pop\n      tag_166\n      tag_167\n      jump\t// in\n    tag_166:\n      mload(0x40)\n      tag_51\n      swap2\n      swap1\n      tag_169\n      jump\t// in\n        /* \"contract/Launchpad.sol\":35194:35407  function setWhiteListInfo(... */\n    tag_29:\n      callvalue\n      dup1\n      iszero\n      tag_170\n      jumpi\n      0x00\n      dup1\n      revert\n    tag_170:\n      pop\n      tag_65\n      tag_172\n      calldatasize\n      0x04\n      tag_154\n      jump\t// in\n    tag_172:\n      tag_173\n      jump\t// in\n        /* \"contract/Launchpad.sol\":15099:15212  function getGovernment(uint256 index) public view returns (address) {... */\n    tag_30:\n      callvalue\n      dup1\n      iszero\n      tag_174\n      jumpi\n      0x00\n      dup1\n      revert\n    tag_174:\n      pop\n      tag_139\n      tag_176\n      calldatasize\n      0x04\n      tag_67\n      jump\t// in\n    tag_176:\n      tag_177\n      jump\t// in\n        /* \"contract/Launchpad.sol\":34961:35055  function checkTxnLimit() public view returns (TxnLimit memory){... */\n    tag_31:\n      callvalue\n      dup1\n      iszero\n      tag_179\n      jumpi\n      0x00\n      dup1\n      revert\n    tag_179:\n      pop\n      tag_180\n      tag_181\n      jump\t// in\n    tag_180:\n      0x40\n      dup1\n      mload\n        /* \"#utility.yul\":7566:7579   */\n      dup3\n      mload\n        /* \"#utility.yul\":7548:7580   */\n      dup2\n      mstore\n        /* \"#utility.yul\":7636:7640   */\n      0x20\n        /* \"#utility.yul\":7624:7641   */\n      dup1\n      dup5\n      add\n        /* \"#utility.yul\":7618:7642   */\n      mload\n        /* \"#utility.yul\":7596:7616   */\n      swap1\n      dup3\n      add\n        /* \"#utility.yul\":7589:7643   */\n      mstore\n        /* \"#utility.yul\":7687:7704   */\n      swap2\n      dup2\n      add\n        /* \"#utility.yul\":7681:7705   */\n      mload\n        /* \"#utility.yul\":7659:7679   */\n      swap1\n      dup3\n      add\n        /* \"#utility.yul\":7652:7706   */\n      mstore\n        /* \"#utility.yul\":7536:7538   */\n      0x60\n        /* \"#utility.yul\":7521:7539   */\n      add\n        /* \"contract/Launchpad.sol\":34961:35055  function checkTxnLimit() public view returns (TxnLimit memory){... */\n      tag_51\n        /* \"#utility.yul\":7350:7712   */\n      jump\n        /* \"contract/Launchpad.sol\":35061:35188  function setSeniorWhiteList(address _seniorWhiteList) public onlyController {... */\n    tag_32:\n      callvalue\n      dup1\n      iszero\n      tag_184\n      jumpi\n      0x00\n      dup1\n      revert\n    tag_184:\n      pop\n      tag_65\n      tag_186\n      calldatasize\n      0x04\n      tag_49\n      jump\t// in\n    tag_186:\n      tag_187\n      jump\t// in\n        /* \"contract/Launchpad.sol\":14982:15093  function deletedGovernment(address government) public onlyOwner {... */\n    tag_33:\n      callvalue\n      dup1\n      iszero\n      tag_188\n      jumpi\n      0x00\n      dup1\n      revert\n    tag_188:\n      pop\n      tag_65\n      tag_190\n      calldatasize\n      0x04\n      tag_49\n      jump\t// in\n    tag_190:\n      tag_191\n      jump\t// in\n        /* \"contract/Launchpad.sol\":32779:32930  function withdraw(address tokenAddress, address account,uint256 amount) public onlyOwner {... */\n    tag_34:\n      callvalue\n      dup1\n      iszero\n      tag_192\n      jumpi\n      0x00\n      dup1\n      revert\n    tag_192:\n      pop\n      tag_65\n      tag_194\n      calldatasize\n      0x04\n      tag_195\n      jump\t// in\n    tag_194:\n      tag_196\n      jump\t// in\n        /* \"contract/Launchpad.sol\":34418:34502  function getClaimOpen() public view returns (bool) {... */\n    tag_35:\n      callvalue\n      dup1\n      iszero\n      tag_197\n      jumpi\n      0x00\n      dup1\n      revert\n    tag_197:\n      pop\n        /* \"contract/Launchpad.sol\":34486:34495  claimOpen */\n      and(0xff, sload(0x16))\n        /* \"contract/Launchpad.sol\":34418:34502  function getClaimOpen() public view returns (bool) {... */\n      jump(tag_107)\n        /* \"contract/Launchpad.sol\":29459:31528  function clearAll() public onlyController {... */\n    tag_36:\n      callvalue\n      dup1\n      iszero\n      tag_201\n      jumpi\n      0x00\n      dup1\n      revert\n    tag_201:\n      pop\n      tag_65\n      tag_203\n      jump\t// in\n        /* \"contract/Launchpad.sol\":25523:27448  function purchase(... */\n    tag_37:\n      tag_65\n      tag_205\n      calldatasize\n      0x04\n      tag_67\n      jump\t// in\n    tag_205:\n      tag_206\n      jump\t// in\n        /* \"contract/Launchpad.sol\":14626:14866  function transferOwnership(address newOwner) public virtual onlyOwner {... */\n    tag_38:\n      callvalue\n      dup1\n      iszero\n      tag_207\n      jumpi\n      0x00\n      dup1\n      revert\n    tag_207:\n      pop\n      tag_65\n      tag_209\n      calldatasize\n      0x04\n      tag_49\n      jump\t// in\n    tag_209:\n      tag_210\n      jump\t// in\n        /* \"contract/Launchpad.sol\":27454:28731  function earned(... */\n    tag_50:\n        /* \"contract/Launchpad.sol\":27612:27627  txnTokenAddress */\n      sload(0x07)\n        /* \"contract/Launchpad.sol\":27522:27529  uint256 */\n      0x00\n      swap1\n      dup2\n      swap1\n      dup2\n      swap1\n      sub(shl(0xa0, 0x01), 0x01)\n        /* \"contract/Launchpad.sol\":27612:27627  txnTokenAddress */\n      and\n        /* \"contract/Launchpad.sol\":27609:27799  if(txnTokenAddress == address(0)){... */\n      tag_212\n      jumpi\n      pop\n        /* \"contract/Launchpad.sol\":27673:27694  address(this).balance */\n      selfbalance\n        /* \"contract/Launchpad.sol\":27609:27799  if(txnTokenAddress == address(0)){... */\n      jump(tag_213)\n    tag_212:\n        /* \"contract/Launchpad.sol\":27747:27762  txnTokenAddress */\n      sload(0x07)\n        /* \"contract/Launchpad.sol\":27740:27788  IERC20(txnTokenAddress).balanceOf(address(this)) */\n      mload(0x40)\n      shl(0xe0, 0x70a08231)\n      dup2\n      mstore\n        /* \"contract/Launchpad.sol\":27782:27786  this */\n      address\n        /* \"contract/Launchpad.sol\":27740:27788  IERC20(txnTokenAddress).balanceOf(address(this)) */\n      0x04\n      dup3\n      add\n        /* \"#utility.yul\":5450:5501   */\n      mstore\n      sub(shl(0xa0, 0x01), 0x01)\n        /* \"contract/Launchpad.sol\":27747:27762  txnTokenAddress */\n      swap1\n      swap2\n      and\n      swap1\n        /* \"contract/Launchpad.sol\":27740:27773  IERC20(txnTokenAddress).balanceOf */\n      0x70a08231\n      swap1\n        /* \"#utility.yul\":5423:5441   */\n      0x24\n      add\n        /* \"contract/Launchpad.sol\":27740:27788  IERC20(txnTokenAddress).balanceOf(address(this)) */\n      0x20\n      mload(0x40)\n      dup1\n      dup4\n      sub\n      dup2\n      dup7\n      dup1\n      extcodesize\n      iszero\n      dup1\n      iszero\n      tag_215\n      jumpi\n      0x00\n      dup1\n      revert\n    tag_215:\n      pop\n      gas\n      staticcall\n      iszero\n      dup1\n      iszero\n      tag_217\n      jumpi\n      returndatasize\n      0x00\n      dup1\n      returndatacopy\n      revert(0x00, returndatasize)\n    tag_217:\n      pop\n      pop\n      pop\n      pop\n      mload(0x40)\n      returndatasize\n      not(0x1f)\n      0x1f\n      dup3\n      add\n      and\n      dup3\n      add\n      dup1\n      0x40\n      mstore\n      pop\n      dup2\n      add\n      swap1\n      tag_218\n      swap2\n      swap1\n      tag_219\n      jump\t// in\n    tag_218:\n        /* \"contract/Launchpad.sol\":27723:27788  totalTxnAmount = IERC20(txnTokenAddress).balanceOf(address(this)) */\n      swap1\n      pop\n        /* \"contract/Launchpad.sol\":27609:27799  if(txnTokenAddress == address(0)){... */\n    tag_213:\n        /* \"contract/Launchpad.sol\":27840:27847  endTime */\n      sload(0x04)\n        /* \"contract/Launchpad.sol\":27822:27837  block.timestamp */\n      timestamp\n        /* \"contract/Launchpad.sol\":27822:27847  block.timestamp > endTime */\n      gt\n        /* \"contract/Launchpad.sol\":27822:27876  block.timestamp > endTime && totalTxnAmount >= softCap */\n      dup1\n      iszero\n      tag_220\n      jumpi\n      pop\n        /* \"contract/Launchpad.sol\":27869:27876  softCap */\n      sload(0x0a)\n        /* \"contract/Launchpad.sol\":27851:27865  totalTxnAmount */\n      dup2\n        /* \"contract/Launchpad.sol\":27851:27876  totalTxnAmount >= softCap */\n      lt\n      iszero\n        /* \"contract/Launchpad.sol\":27822:27876  block.timestamp > endTime && totalTxnAmount >= softCap */\n    tag_220:\n        /* \"contract/Launchpad.sol\":27818:28694  if (block.timestamp > endTime && totalTxnAmount >= softCap) {... */\n      iszero\n      tag_221\n      jumpi\n      sub(shl(0xa0, 0x01), 0x01)\n        /* \"contract/Launchpad.sol\":27953:27973  mBuyRecords[account] */\n      dup5\n      and\n        /* \"contract/Launchpad.sol\":27892:27909  uint256 calcRatio */\n      0x00\n        /* \"contract/Launchpad.sol\":27953:27973  mBuyRecords[account] */\n      swap1\n      dup2\n      mstore\n        /* \"contract/Launchpad.sol\":27953:27964  mBuyRecords */\n      0x0b\n        /* \"contract/Launchpad.sol\":27953:27973  mBuyRecords[account] */\n      0x20\n      swap1\n      dup2\n      mstore\n      0x40\n      dup1\n      dup4\n      keccak256\n        /* \"contract/Launchpad.sol\":27927:27973  BuyRecord memory record = mBuyRecords[account] */\n      dup2\n      mload\n      0x80\n      dup2\n      add\n      dup4\n      mstore\n      dup2\n      sload\n      dup2\n      mstore\n      0x01\n      dup3\n      add\n      sload\n      swap4\n      dup2\n      add\n      swap4\n      swap1\n      swap4\n      mstore\n      0x02\n      dup2\n      add\n      sload\n      swap2\n      dup4\n      add\n      swap2\n      swap1\n      swap2\n      mstore\n      0x03\n      add\n      sload\n      0x60\n      dup3\n      add\n      mstore\n        /* \"contract/Launchpad.sol\":27991:28006  aryReleaseRules */\n      0x14\n        /* \"contract/Launchpad.sol\":27991:28013  aryReleaseRules.length */\n      sload\n        /* \"contract/Launchpad.sol\":27991:28017  aryReleaseRules.length > 0 */\n      iszero\n        /* \"contract/Launchpad.sol\":27987:28379  if (aryReleaseRules.length > 0) {... */\n      tag_222\n      jumpi\n        /* \"contract/Launchpad.sol\":28042:28053  uint256 idx */\n      0x00\n        /* \"contract/Launchpad.sol\":28037:28310  for (uint256 idx = 0; idx < aryReleaseRules.length; idx++) {... */\n    tag_223:\n        /* \"contract/Launchpad.sol\":28065:28080  aryReleaseRules */\n      0x14\n        /* \"contract/Launchpad.sol\":28065:28087  aryReleaseRules.length */\n      sload\n        /* \"contract/Launchpad.sol\":28059:28087  idx < aryReleaseRules.length */\n      dup2\n      lt\n        /* \"contract/Launchpad.sol\":28037:28310  for (uint256 idx = 0; idx < aryReleaseRules.length; idx++) {... */\n      iszero\n      tag_224\n      jumpi\n        /* \"contract/Launchpad.sol\":28118:28141  ReleaseRule memory rule */\n      0x00\n        /* \"contract/Launchpad.sol\":28144:28159  aryReleaseRules */\n      0x14\n        /* \"contract/Launchpad.sol\":28160:28163  idx */\n      dup3\n        /* \"contract/Launchpad.sol\":28144:28164  aryReleaseRules[idx] */\n      dup2\n      sload\n      dup2\n      lt\n      tag_227\n      jumpi\n      tag_227\n      tag_228\n      jump\t// in\n    tag_227:\n      swap1\n      0x00\n      mstore\n      keccak256(0x00, 0x20)\n      swap1\n      0x02\n      mul\n      add\n        /* \"contract/Launchpad.sol\":28118:28164  ReleaseRule memory rule = aryReleaseRules[idx] */\n      mload(0x40)\n      dup1\n      0x40\n      add\n      0x40\n      mstore\n      swap1\n      dup2\n      0x00\n      dup3\n      add\n      sload\n      dup2\n      mstore\n      0x20\n      add\n      0x01\n      dup3\n      add\n      sload\n      dup2\n      mstore\n      pop\n      pop\n      swap1\n      pop\n        /* \"contract/Launchpad.sol\":28208:28212  rule */\n      dup1\n        /* \"contract/Launchpad.sol\":28208:28218  rule.iTime */\n      0x00\n      add\n      mload\n        /* \"contract/Launchpad.sol\":28190:28205  block.timestamp */\n      timestamp\n        /* \"contract/Launchpad.sol\":28190:28218  block.timestamp > rule.iTime */\n      gt\n        /* \"contract/Launchpad.sol\":28186:28292  if (block.timestamp > rule.iTime) {... */\n      iszero\n      tag_230\n      jumpi\n        /* \"contract/Launchpad.sol\":28259:28269  rule.ratio */\n      0x20\n      dup2\n      add\n      mload\n        /* \"contract/Launchpad.sol\":28246:28269  calcRatio += rule.ratio */\n      tag_231\n      swap1\n      dup6\n      tag_232\n      jump\t// in\n    tag_231:\n      swap4\n      pop\n        /* \"contract/Launchpad.sol\":28186:28292  if (block.timestamp > rule.iTime) {... */\n    tag_230:\n      pop\n        /* \"contract/Launchpad.sol\":28089:28094  idx++ */\n      dup1\n      tag_233\n      dup2\n      tag_234\n      jump\t// in\n    tag_233:\n      swap2\n      pop\n      pop\n        /* \"contract/Launchpad.sol\":28037:28310  for (uint256 idx = 0; idx < aryReleaseRules.length; idx++) {... */\n      jump(tag_223)\n    tag_224:\n      pop\n        /* \"contract/Launchpad.sol\":27987:28379  if (aryReleaseRules.length > 0) {... */\n      jump(tag_235)\n    tag_222:\n        /* \"contract/Launchpad.sol\":28360:28364  1e18 */\n      0x0de0b6b3a7640000\n        /* \"contract/Launchpad.sol\":28348:28364  calcRatio = 1e18 */\n      swap2\n      pop\n        /* \"contract/Launchpad.sol\":27987:28379  if (aryReleaseRules.length > 0) {... */\n    tag_235:\n        /* \"contract/Launchpad.sol\":28410:28524  record.rewards... */\n      tag_236\n        /* \"contract/Launchpad.sol\":28505:28511  record */\n      dup2\n        /* \"contract/Launchpad.sol\":28505:28523  record.paidRewards */\n      0x60\n      add\n      mload\n        /* \"contract/Launchpad.sol\":28410:28483  record.rewards... */\n      tag_237\n        /* \"contract/Launchpad.sol\":28478:28482  1e18 */\n      0x0de0b6b3a7640000\n        /* \"contract/Launchpad.sol\":28410:28456  record.rewards... */\n      tag_238\n        /* \"contract/Launchpad.sol\":28446:28455  calcRatio */\n      dup7\n        /* \"contract/Launchpad.sol\":28410:28416  record */\n      dup7\n        /* \"contract/Launchpad.sol\":28410:28424  record.rewards */\n      0x40\n      add\n      mload\n        /* \"contract/Launchpad.sol\":28410:28445  record.rewards... */\n      tag_239\n      swap1\n        /* \"contract/Launchpad.sol\":28410:28456  record.rewards... */\n      swap2\n      swap1\n      0xffffffff\n      and\n      jump\t// in\n    tag_238:\n        /* \"contract/Launchpad.sol\":28410:28477  record.rewards... */\n      swap1\n      tag_240\n        /* \"contract/Launchpad.sol\":28410:28483  record.rewards... */\n      jump\t// in\n    tag_237:\n        /* \"contract/Launchpad.sol\":28410:28504  record.rewards... */\n      swap1\n      tag_241\n        /* \"contract/Launchpad.sol\":28410:28524  record.rewards... */\n      jump\t// in\n    tag_236:\n        /* \"contract/Launchpad.sol\":28571:28586  IDOTokenAddress */\n      sload(0x06)\n        /* \"contract/Launchpad.sol\":28564:28612  IERC20(IDOTokenAddress).balanceOf(address(this)) */\n      mload(0x40)\n      shl(0xe0, 0x70a08231)\n      dup2\n      mstore\n        /* \"contract/Launchpad.sol\":28606:28610  this */\n      address\n        /* \"contract/Launchpad.sol\":28564:28612  IERC20(IDOTokenAddress).balanceOf(address(this)) */\n      0x04\n      dup3\n      add\n        /* \"#utility.yul\":5450:5501   */\n      mstore\n        /* \"contract/Launchpad.sol\":28393:28524  releaseRewards = record.rewards... */\n      swap2\n      swap6\n      pop\n        /* \"contract/Launchpad.sol\":28539:28561  uint256 surplusRewards */\n      0x00\n      swap2\n      sub(shl(0xa0, 0x01), 0x01)\n        /* \"contract/Launchpad.sol\":28571:28586  IDOTokenAddress */\n      swap1\n      swap2\n      and\n      swap1\n        /* \"contract/Launchpad.sol\":28564:28597  IERC20(IDOTokenAddress).balanceOf */\n      0x70a08231\n      swap1\n        /* \"#utility.yul\":5423:5441   */\n      0x24\n      add\n        /* \"contract/Launchpad.sol\":28564:28612  IERC20(IDOTokenAddress).balanceOf(address(this)) */\n      0x20\n      mload(0x40)\n      dup1\n      dup4\n      sub\n      dup2\n      dup7\n      dup1\n      extcodesize\n      iszero\n      dup1\n      iszero\n      tag_243\n      jumpi\n      0x00\n      dup1\n      revert\n    tag_243:\n      pop\n      gas\n      staticcall\n      iszero\n      dup1\n      iszero\n      tag_245\n      jumpi\n      returndatasize\n      0x00\n      dup1\n      returndatacopy\n      revert(0x00, returndatasize)\n    tag_245:\n      pop\n      pop\n      pop\n      pop\n      mload(0x40)\n      returndatasize\n      not(0x1f)\n      0x1f\n      dup3\n      add\n      and\n      dup3\n      add\n      dup1\n      0x40\n      mstore\n      pop\n      dup2\n      add\n      swap1\n      tag_246\n      swap2\n      swap1\n      tag_219\n      jump\t// in\n    tag_246:\n        /* \"contract/Launchpad.sol\":28539:28612  uint256 surplusRewards = IERC20(IDOTokenAddress).balanceOf(address(this)) */\n      swap1\n      pop\n        /* \"contract/Launchpad.sol\":28643:28683  Math.min(releaseRewards, surplusRewards) */\n      tag_247\n        /* \"contract/Launchpad.sol\":28652:28666  releaseRewards */\n      dup6\n        /* \"contract/Launchpad.sol\":28668:28682  surplusRewards */\n      dup3\n        /* \"contract/Launchpad.sol\":28643:28651  Math.min */\n      tag_248\n        /* \"contract/Launchpad.sol\":28643:28683  Math.min(releaseRewards, surplusRewards) */\n      jump\t// in\n    tag_247:\n        /* \"contract/Launchpad.sol\":28626:28683  releaseRewards = Math.min(releaseRewards, surplusRewards) */\n      swap5\n      pop\n        /* \"contract/Launchpad.sol\":27878:28694  {... */\n      pop\n      pop\n      pop\n        /* \"contract/Launchpad.sol\":27818:28694  if (block.timestamp > endTime && totalTxnAmount >= softCap) {... */\n    tag_221:\n      pop\n        /* \"contract/Launchpad.sol\":28710:28724  releaseRewards */\n      swap3\n        /* \"contract/Launchpad.sol\":27454:28731  function earned(... */\n      swap2\n      pop\n      pop\n      jump\t// out\n        /* \"contract/Launchpad.sol\":25144:25266  function getBuyRecord(address account) public view returns (BuyRecord memory) {... */\n    tag_61:\n        /* \"contract/Launchpad.sol\":25204:25220  BuyRecord memory */\n      tag_250\n      mload(0x40)\n      dup1\n      0x80\n      add\n      0x40\n      mstore\n      dup1\n      0x00\n      dup2\n      mstore\n      0x20\n      add\n      0x00\n      dup2\n      mstore\n      0x20\n      add\n      0x00\n      dup2\n      mstore\n      0x20\n      add\n      0x00\n      dup2\n      mstore\n      pop\n      swap1\n      jump\n    tag_250:\n      pop\n      sub(shl(0xa0, 0x01), 0x01)\n        /* \"contract/Launchpad.sol\":25239:25259  mBuyRecords[account] */\n      and\n      0x00\n      swap1\n      dup2\n      mstore\n        /* \"contract/Launchpad.sol\":25239:25250  mBuyRecords */\n      0x0b\n        /* \"contract/Launchpad.sol\":25239:25259  mBuyRecords[account] */\n      0x20\n      swap1\n      dup2\n      mstore\n      0x40\n      swap2\n      dup3\n      swap1\n      keccak256\n        /* \"contract/Launchpad.sol\":25232:25259  return mBuyRecords[account] */\n      dup3\n      mload\n      0x80\n      dup2\n      add\n      dup5\n      mstore\n      dup2\n      sload\n      dup2\n      mstore\n      0x01\n      dup3\n      add\n      sload\n      swap3\n      dup2\n      add\n      swap3\n      swap1\n      swap3\n      mstore\n      0x02\n      dup2\n      add\n      sload\n      swap3\n      dup3\n      add\n      swap3\n      swap1\n      swap3\n      mstore\n      0x03\n      swap1\n      swap2\n      add\n      sload\n      0x60\n      dup3\n      add\n      mstore\n      swap1\n        /* \"contract/Launchpad.sol\":25144:25266  function getBuyRecord(address account) public view returns (BuyRecord memory) {... */\n      jump\t// out\n        /* \"contract/Launchpad.sol\":33062:34306  function giveBack(uint256 offset) public onlyController {... */\n    tag_68:\n        /* \"contract/Launchpad.sol\":13746:13753  address */\n      0x00\n        /* \"contract/Launchpad.sol\":13772:13778  _owner */\n      sload\n      sub(shl(0xa0, 0x01), 0x01)\n      and\n        /* \"contract/Launchpad.sol\":929:939  msg.sender */\n      caller\n        /* \"contract/Launchpad.sol\":15632:15655  _msgSender() == owner() */\n      eq\n      dup1\n        /* \"contract/Launchpad.sol\":15632:15685  _msgSender() == owner() || isGovernment(_msgSender()) */\n      tag_258\n      jumpi\n      pop\n        /* \"contract/Launchpad.sol\":15659:15685  isGovernment(_msgSender()) */\n      tag_258\n        /* \"contract/Launchpad.sol\":929:939  msg.sender */\n      caller\n        /* \"contract/Launchpad.sol\":15218:15336  function isGovernment(address account) public view returns (bool){... */\n      tag_109\n      jump\t// in\n        /* \"contract/Launchpad.sol\":15659:15685  isGovernment(_msgSender()) */\n    tag_258:\n        /* \"contract/Launchpad.sol\":15624:15727  require(_msgSender() == owner() || isGovernment(_msgSender()), \"Ownable: caller is not the controller\") */\n      tag_260\n      jumpi\n      mload(0x40)\n      shl(0xe5, 0x461bcd)\n      dup2\n      mstore\n      0x04\n      add\n      tag_261\n      swap1\n      tag_262\n      jump\t// in\n    tag_261:\n      mload(0x40)\n      dup1\n      swap2\n      sub\n      swap1\n      revert\n    tag_260:\n        /* \"contract/Launchpad.sol\":33154:33161  endTime */\n      sload(0x04)\n        /* \"contract/Launchpad.sol\":33136:33151  block.timestamp */\n      timestamp\n        /* \"contract/Launchpad.sol\":33136:33161  block.timestamp > endTime */\n      gt\n        /* \"contract/Launchpad.sol\":33128:33186  require(block.timestamp > endTime, \"this pool is not end\") */\n      tag_264\n      jumpi\n      mload(0x40)\n      shl(0xe5, 0x461bcd)\n      dup2\n      mstore\n      0x04\n      add\n      tag_261\n      swap1\n      tag_266\n      jump\t// in\n    tag_264:\n        /* \"contract/Launchpad.sol\":33215:33226  aryAccounts */\n      0x0c\n        /* \"contract/Launchpad.sol\":33215:33233  aryAccounts.length */\n      sload\n        /* \"contract/Launchpad.sol\":33204:33212  position */\n      sload(0x0d)\n        /* \"contract/Launchpad.sol\":33204:33233  position < aryAccounts.length */\n      lt\n        /* \"contract/Launchpad.sol\":33196:33261  require(position < aryAccounts.length, \"all have been give back\") */\n      tag_267\n      jumpi\n      mload(0x40)\n      shl(0xe5, 0x461bcd)\n      dup2\n      mstore\n        /* \"#utility.yul\":9733:9735   */\n      0x20\n        /* \"contract/Launchpad.sol\":33196:33261  require(position < aryAccounts.length, \"all have been give back\") */\n      0x04\n      dup3\n      add\n        /* \"#utility.yul\":9715:9736   */\n      mstore\n        /* \"#utility.yul\":9772:9774   */\n      0x17\n        /* \"#utility.yul\":9752:9770   */\n      0x24\n      dup3\n      add\n        /* \"#utility.yul\":9745:9775   */\n      mstore\n        /* \"#utility.yul\":9811:9836   */\n      0x616c6c2068617665206265656e2067697665206261636b000000000000000000\n        /* \"#utility.yul\":9791:9809   */\n      0x44\n      dup3\n      add\n        /* \"#utility.yul\":9784:9837   */\n      mstore\n        /* \"#utility.yul\":9854:9872   */\n      0x64\n      add\n        /* \"contract/Launchpad.sol\":33196:33261  require(position < aryAccounts.length, \"all have been give back\") */\n      tag_261\n        /* \"#utility.yul\":9531:9878   */\n      jump\n        /* \"contract/Launchpad.sol\":33196:33261  require(position < aryAccounts.length, \"all have been give back\") */\n    tag_267:\n        /* \"contract/Launchpad.sol\":33314:33329  txnTokenAddress */\n      sload(0x07)\n        /* \"contract/Launchpad.sol\":33279:33301  uint256 totalTxnAmount */\n      0x00\n      swap1\n      sub(shl(0xa0, 0x01), 0x01)\n        /* \"contract/Launchpad.sol\":33314:33329  txnTokenAddress */\n      and\n        /* \"contract/Launchpad.sol\":33311:33501  if(txnTokenAddress == address(0)){... */\n      tag_270\n      jumpi\n      pop\n        /* \"contract/Launchpad.sol\":33375:33396  address(this).balance */\n      selfbalance\n        /* \"contract/Launchpad.sol\":33311:33501  if(txnTokenAddress == address(0)){... */\n      jump(tag_271)\n    tag_270:\n        /* \"contract/Launchpad.sol\":33449:33464  txnTokenAddress */\n      sload(0x07)\n        /* \"contract/Launchpad.sol\":33442:33490  IERC20(txnTokenAddress).balanceOf(address(this)) */\n      mload(0x40)\n      shl(0xe0, 0x70a08231)\n      dup2\n      mstore\n        /* \"contract/Launchpad.sol\":33484:33488  this */\n      address\n        /* \"contract/Launchpad.sol\":33442:33490  IERC20(txnTokenAddress).balanceOf(address(this)) */\n      0x04\n      dup3\n      add\n        /* \"#utility.yul\":5450:5501   */\n      mstore\n      sub(shl(0xa0, 0x01), 0x01)\n        /* \"contract/Launchpad.sol\":33449:33464  txnTokenAddress */\n      swap1\n      swap2\n      and\n      swap1\n        /* \"contract/Launchpad.sol\":33442:33475  IERC20(txnTokenAddress).balanceOf */\n      0x70a08231\n      swap1\n        /* \"#utility.yul\":5423:5441   */\n      0x24\n      add\n        /* \"contract/Launchpad.sol\":33442:33490  IERC20(txnTokenAddress).balanceOf(address(this)) */\n      0x20\n      mload(0x40)\n      dup1\n      dup4\n      sub\n      dup2\n      dup7\n      dup1\n      extcodesize\n      iszero\n      dup1\n      iszero\n      tag_273\n      jumpi\n      0x00\n      dup1\n      revert\n    tag_273:\n      pop\n      gas\n      staticcall\n      iszero\n      dup1\n      iszero\n      tag_275\n      jumpi\n      returndatasize\n      0x00\n      dup1\n      returndatacopy\n      revert(0x00, returndatasize)\n    tag_275:\n      pop\n      pop\n      pop\n      pop\n      mload(0x40)\n      returndatasize\n      not(0x1f)\n      0x1f\n      dup3\n      add\n      and\n      dup3\n      add\n      dup1\n      0x40\n      mstore\n      pop\n      dup2\n      add\n      swap1\n      tag_276\n      swap2\n      swap1\n      tag_219\n      jump\t// in\n    tag_276:\n        /* \"contract/Launchpad.sol\":33425:33490  totalTxnAmount = IERC20(txnTokenAddress).balanceOf(address(this)) */\n      swap1\n      pop\n        /* \"contract/Launchpad.sol\":33311:33501  if(txnTokenAddress == address(0)){... */\n    tag_271:\n        /* \"contract/Launchpad.sol\":33535:33542  softCap */\n      sload(0x0a)\n        /* \"contract/Launchpad.sol\":33518:33532  totalTxnAmount */\n      dup2\n        /* \"contract/Launchpad.sol\":33518:33542  totalTxnAmount < softCap */\n      lt\n        /* \"contract/Launchpad.sol\":33510:33572  require(totalTxnAmount < softCap, \"IDO success not give back\") */\n      tag_277\n      jumpi\n      mload(0x40)\n      shl(0xe5, 0x461bcd)\n      dup2\n      mstore\n        /* \"#utility.yul\":10085:10087   */\n      0x20\n        /* \"contract/Launchpad.sol\":33510:33572  require(totalTxnAmount < softCap, \"IDO success not give back\") */\n      0x04\n      dup3\n      add\n        /* \"#utility.yul\":10067:10088   */\n      mstore\n        /* \"#utility.yul\":10124:10126   */\n      0x19\n        /* \"#utility.yul\":10104:10122   */\n      0x24\n      dup3\n      add\n        /* \"#utility.yul\":10097:10127   */\n      mstore\n        /* \"#utility.yul\":10163:10190   */\n      0x49444f2073756363657373206e6f742067697665206261636b00000000000000\n        /* \"#utility.yul\":10143:10161   */\n      0x44\n      dup3\n      add\n        /* \"#utility.yul\":10136:10191   */\n      mstore\n        /* \"#utility.yul\":10208:10226   */\n      0x64\n      add\n        /* \"contract/Launchpad.sol\":33510:33572  require(totalTxnAmount < softCap, \"IDO success not give back\") */\n      tag_261\n        /* \"#utility.yul\":9883:10232   */\n      jump\n        /* \"contract/Launchpad.sol\":33510:33572  require(totalTxnAmount < softCap, \"IDO success not give back\") */\n    tag_277:\n        /* \"contract/Launchpad.sol\":33582:33601  uint256 endPosition */\n      0x00\n        /* \"contract/Launchpad.sol\":33604:33651  Math.min(position + offset, aryAccounts.length) */\n      tag_280\n        /* \"contract/Launchpad.sol\":33624:33630  offset */\n      dup4\n        /* \"contract/Launchpad.sol\":33613:33621  position */\n      sload(0x0d)\n        /* \"contract/Launchpad.sol\":33613:33630  position + offset */\n      tag_281\n      swap2\n      swap1\n      tag_232\n      jump\t// in\n    tag_281:\n        /* \"contract/Launchpad.sol\":33632:33643  aryAccounts */\n      0x0c\n        /* \"contract/Launchpad.sol\":33632:33650  aryAccounts.length */\n      sload\n        /* \"contract/Launchpad.sol\":33604:33612  Math.min */\n      tag_248\n        /* \"contract/Launchpad.sol\":33604:33651  Math.min(position + offset, aryAccounts.length) */\n      jump\t// in\n    tag_280:\n        /* \"contract/Launchpad.sol\":33680:33688  position */\n      sload(0x0d)\n        /* \"contract/Launchpad.sol\":33582:33651  uint256 endPosition = Math.min(position + offset, aryAccounts.length) */\n      swap1\n      swap2\n      pop\n        /* \"contract/Launchpad.sol\":33661:34268  for (uint256 idx = position; idx < endPosition; idx++) {... */\n    tag_282:\n        /* \"contract/Launchpad.sol\":33696:33707  endPosition */\n      dup2\n        /* \"contract/Launchpad.sol\":33690:33693  idx */\n      dup2\n        /* \"contract/Launchpad.sol\":33690:33707  idx < endPosition */\n      lt\n        /* \"contract/Launchpad.sol\":33661:34268  for (uint256 idx = position; idx < endPosition; idx++) {... */\n      iszero\n      tag_283\n      jumpi\n        /* \"contract/Launchpad.sol\":33730:33745  address account */\n      0x00\n        /* \"contract/Launchpad.sol\":33748:33759  aryAccounts */\n      0x0c\n        /* \"contract/Launchpad.sol\":33760:33763  idx */\n      dup3\n        /* \"contract/Launchpad.sol\":33748:33764  aryAccounts[idx] */\n      dup2\n      sload\n      dup2\n      lt\n      tag_286\n      jumpi\n      tag_286\n      tag_228\n      jump\t// in\n    tag_286:\n      0x00\n      swap2\n      dup3\n      mstore\n      0x20\n      dup1\n      dup4\n      keccak256\n      swap1\n      swap2\n      add\n      sload\n      sub(shl(0xa0, 0x01), 0x01)\n      and\n        /* \"contract/Launchpad.sol\":33804:33824  mBuyRecords[account] */\n      dup1\n      dup4\n      mstore\n        /* \"contract/Launchpad.sol\":33804:33815  mBuyRecords */\n      0x0b\n        /* \"contract/Launchpad.sol\":33804:33824  mBuyRecords[account] */\n      dup3\n      mstore\n      0x40\n      dup1\n      dup5\n      keccak256\n        /* \"contract/Launchpad.sol\":33778:33824  BuyRecord memory record = mBuyRecords[account] */\n      dup2\n      mload\n      0x80\n      dup2\n      add\n      dup4\n      mstore\n      dup2\n      sload\n      dup2\n      mstore\n        /* \"contract/Launchpad.sol\":33748:33764  aryAccounts[idx] */\n      0x01\n        /* \"contract/Launchpad.sol\":33778:33824  BuyRecord memory record = mBuyRecords[account] */\n      dup3\n      add\n      sload\n      swap5\n      dup2\n      add\n      dup6\n      swap1\n      mstore\n      0x02\n      dup3\n      add\n      sload\n      swap3\n      dup2\n      add\n      swap3\n      swap1\n      swap3\n      mstore\n      0x03\n      add\n      sload\n      0x60\n      dup3\n      add\n      mstore\n        /* \"contract/Launchpad.sol\":33748:33764  aryAccounts[idx] */\n      swap1\n      swap4\n      pop\n        /* \"contract/Launchpad.sol\":33778:33824  BuyRecord memory record = mBuyRecords[account] */\n      swap2\n        /* \"contract/Launchpad.sol\":33748:33764  aryAccounts[idx] */\n      swap1\n        /* \"contract/Launchpad.sol\":33858:33900  Math.min(record.txnAmount, totalTxnAmount) */\n      tag_288\n      swap1\n        /* \"contract/Launchpad.sol\":33885:33899  totalTxnAmount */\n      dup8\n        /* \"contract/Launchpad.sol\":33858:33866  Math.min */\n      tag_248\n        /* \"contract/Launchpad.sol\":33858:33900  Math.min(record.txnAmount, totalTxnAmount) */\n      jump\t// in\n    tag_288:\n        /* \"contract/Launchpad.sol\":33838:33900  uint256 txnAmount = Math.min(record.txnAmount, totalTxnAmount) */\n      swap1\n      pop\n        /* \"contract/Launchpad.sol\":33918:33931  txnAmount > 0 */\n      dup1\n      iszero\n        /* \"contract/Launchpad.sol\":33914:34198  if (txnAmount > 0) {... */\n      tag_300\n      jumpi\n        /* \"contract/Launchpad.sol\":33954:33969  txnTokenAddress */\n      and(sub(shl(0xa0, 0x01), 0x01), sload(0x07))\n        /* \"contract/Launchpad.sol\":33951:34167  if(txnTokenAddress == address(0)){... */\n      tag_290\n      jumpi\n        /* \"contract/Launchpad.sol\":34006:34042  payable(account).transfer(txnAmount) */\n      mload(0x40)\n      sub(shl(0xa0, 0x01), 0x01)\n        /* \"contract/Launchpad.sol\":34006:34031  payable(account).transfer */\n      dup5\n      and\n      swap1\n        /* \"contract/Launchpad.sol\":34006:34042  payable(account).transfer(txnAmount) */\n      dup3\n      iszero\n      0x08fc\n      mul\n      swap1\n        /* \"contract/Launchpad.sol\":34032:34041  txnAmount */\n      dup4\n      swap1\n        /* \"contract/Launchpad.sol\":34006:34042  payable(account).transfer(txnAmount) */\n      0x00\n      dup2\n      dup2\n      dup2\n        /* \"contract/Launchpad.sol\":34032:34041  txnAmount */\n      dup6\n        /* \"contract/Launchpad.sol\":34006:34031  payable(account).transfer */\n      dup9\n        /* \"contract/Launchpad.sol\":34006:34042  payable(account).transfer(txnAmount) */\n      dup9\n      call\n      swap4\n      pop\n      pop\n      pop\n      pop\n      iszero\n      dup1\n      iszero\n      tag_292\n      jumpi\n      returndatasize\n      0x00\n      dup1\n      returndatacopy\n      revert(0x00, returndatasize)\n    tag_292:\n      pop\n        /* \"contract/Launchpad.sol\":33951:34167  if(txnTokenAddress == address(0)){... */\n      jump(tag_300)\n    tag_290:\n        /* \"contract/Launchpad.sol\":34102:34117  txnTokenAddress */\n      sload(0x07)\n        /* \"contract/Launchpad.sol\":34095:34147  IERC20(txnTokenAddress).transfer(account, txnAmount) */\n      mload(0x40)\n      shl(0xe0, 0xa9059cbb)\n      dup2\n      mstore\n      sub(shl(0xa0, 0x01), 0x01)\n        /* \"#utility.yul\":757:789   */\n      dup6\n      dup2\n      and\n        /* \"contract/Launchpad.sol\":34095:34147  IERC20(txnTokenAddress).transfer(account, txnAmount) */\n      0x04\n      dup4\n      add\n        /* \"#utility.yul\":739:790   */\n      mstore\n        /* \"#utility.yul\":806:824   */\n      0x24\n      dup3\n      add\n        /* \"#utility.yul\":799:833   */\n      dup5\n      swap1\n      mstore\n        /* \"contract/Launchpad.sol\":34102:34117  txnTokenAddress */\n      swap1\n      swap2\n      and\n      swap1\n        /* \"contract/Launchpad.sol\":34095:34127  IERC20(txnTokenAddress).transfer */\n      0xa9059cbb\n      swap1\n        /* \"#utility.yul\":712:730   */\n      0x44\n      add\n        /* \"contract/Launchpad.sol\":34095:34147  IERC20(txnTokenAddress).transfer(account, txnAmount) */\n      0x20\n      mload(0x40)\n      dup1\n      dup4\n      sub\n      dup2\n      0x00\n      dup8\n      dup1\n      extcodesize\n      iszero\n      dup1\n      iszero\n      tag_295\n      jumpi\n      0x00\n      dup1\n      revert\n    tag_295:\n      pop\n      gas\n      call\n      iszero\n      dup1\n      iszero\n      tag_297\n      jumpi\n      returndatasize\n      0x00\n      dup1\n      returndatacopy\n      revert(0x00, returndatasize)\n    tag_297:\n      pop\n      pop\n      pop\n      pop\n      mload(0x40)\n      returndatasize\n      not(0x1f)\n      0x1f\n      dup3\n      add\n      and\n      dup3\n      add\n      dup1\n      0x40\n      mstore\n      pop\n      dup2\n      add\n      swap1\n      tag_298\n      swap2\n      swap1\n      tag_299\n      jump\t// in\n    tag_298:\n        /* \"contract/Launchpad.sol\":34087:34148  require(IERC20(txnTokenAddress).transfer(account, txnAmount)) */\n      tag_300\n      jumpi\n      0x00\n      dup1\n      revert\n    tag_300:\n        /* \"contract/Launchpad.sol\":34228:34257  totalTxnAmount.sub(txnAmount) */\n      tag_301\n        /* \"contract/Launchpad.sol\":34228:34242  totalTxnAmount */\n      dup7\n        /* \"contract/Launchpad.sol\":34247:34256  txnAmount */\n      dup3\n        /* \"contract/Launchpad.sol\":34228:34246  totalTxnAmount.sub */\n      tag_241\n        /* \"contract/Launchpad.sol\":34228:34257  totalTxnAmount.sub(txnAmount) */\n      jump\t// in\n    tag_301:\n        /* \"contract/Launchpad.sol\":34211:34257  totalTxnAmount = totalTxnAmount.sub(txnAmount) */\n      swap6\n      pop\n        /* \"contract/Launchpad.sol\":33716:34268  {... */\n      pop\n      pop\n      pop\n        /* \"contract/Launchpad.sol\":33709:33714  idx++ */\n      dup1\n      dup1\n      tag_302\n      swap1\n      tag_234\n      jump\t// in\n    tag_302:\n      swap2\n      pop\n      pop\n        /* \"contract/Launchpad.sol\":33661:34268  for (uint256 idx = position; idx < endPosition; idx++) {... */\n      jump(tag_282)\n    tag_283:\n      pop\n        /* \"contract/Launchpad.sol\":34277:34285  position */\n      0x0d\n        /* \"contract/Launchpad.sol\":34277:34299  position = endPosition */\n      sstore\n      pop\n      pop\n        /* \"contract/Launchpad.sol\":33062:34306  function giveBack(uint256 offset) public onlyController {... */\n      jump\t// out\n        /* \"contract/Launchpad.sol\":37762:37873  function resetSoftCap(... */\n    tag_76:\n        /* \"contract/Launchpad.sol\":13746:13753  address */\n      0x00\n        /* \"contract/Launchpad.sol\":13772:13778  _owner */\n      sload\n      sub(shl(0xa0, 0x01), 0x01)\n      and\n        /* \"contract/Launchpad.sol\":929:939  msg.sender */\n      caller\n        /* \"contract/Launchpad.sol\":15632:15655  _msgSender() == owner() */\n      eq\n      dup1\n        /* \"contract/Launchpad.sol\":15632:15685  _msgSender() == owner() || isGovernment(_msgSender()) */\n      tag_308\n      jumpi\n      pop\n        /* \"contract/Launchpad.sol\":15659:15685  isGovernment(_msgSender()) */\n      tag_308\n        /* \"contract/Launchpad.sol\":929:939  msg.sender */\n      caller\n        /* \"contract/Launchpad.sol\":15218:15336  function isGovernment(address account) public view returns (bool){... */\n      tag_109\n      jump\t// in\n        /* \"contract/Launchpad.sol\":15659:15685  isGovernment(_msgSender()) */\n    tag_308:\n        /* \"contract/Launchpad.sol\":15624:15727  require(_msgSender() == owner() || isGovernment(_msgSender()), \"Ownable: caller is not the controller\") */\n      tag_310\n      jumpi\n      mload(0x40)\n      shl(0xe5, 0x461bcd)\n      dup2\n      mstore\n      0x04\n      add\n      tag_261\n      swap1\n      tag_262\n      jump\t// in\n    tag_310:\n        /* \"contract/Launchpad.sol\":37848:37855  softCap */\n      0x0a\n        /* \"contract/Launchpad.sol\":37848:37866  softCap = _softCap */\n      sstore\n        /* \"contract/Launchpad.sol\":37762:37873  function resetSoftCap(... */\n      jump\t// out\n        /* \"contract/Launchpad.sol\":36533:37522  function setSharingRules(... */\n    tag_81:\n        /* \"contract/Launchpad.sol\":13746:13753  address */\n      0x00\n        /* \"contract/Launchpad.sol\":13772:13778  _owner */\n      sload\n      sub(shl(0xa0, 0x01), 0x01)\n      and\n        /* \"contract/Launchpad.sol\":929:939  msg.sender */\n      caller\n        /* \"contract/Launchpad.sol\":15632:15655  _msgSender() == owner() */\n      eq\n      dup1\n        /* \"contract/Launchpad.sol\":15632:15685  _msgSender() == owner() || isGovernment(_msgSender()) */\n      tag_317\n      jumpi\n      pop\n        /* \"contract/Launchpad.sol\":15659:15685  isGovernment(_msgSender()) */\n      tag_317\n        /* \"contract/Launchpad.sol\":929:939  msg.sender */\n      caller\n        /* \"contract/Launchpad.sol\":15218:15336  function isGovernment(address account) public view returns (bool){... */\n      tag_109\n      jump\t// in\n        /* \"contract/Launchpad.sol\":15659:15685  isGovernment(_msgSender()) */\n    tag_317:\n        /* \"contract/Launchpad.sol\":15624:15727  require(_msgSender() == owner() || isGovernment(_msgSender()), \"Ownable: caller is not the controller\") */\n      tag_319\n      jumpi\n      mload(0x40)\n      shl(0xe5, 0x461bcd)\n      dup2\n      mstore\n      0x04\n      add\n      tag_261\n      swap1\n      tag_262\n      jump\t// in\n    tag_319:\n        /* \"contract/Launchpad.sol\":36721:36761  aryClearAddress.length == aryType.length */\n      dup3\n      dup6\n      eq\n        /* \"contract/Launchpad.sol\":36713:36786  require(aryClearAddress.length == aryType.length, \"length must be equal\") */\n      tag_322\n      jumpi\n      mload(0x40)\n      shl(0xe5, 0x461bcd)\n      dup2\n      mstore\n      0x04\n      add\n      tag_261\n      swap1\n      tag_324\n      jump\t// in\n    tag_322:\n        /* \"contract/Launchpad.sol\":36804:36845  aryRatio.length == aryClearAddress.length */\n      dup1\n      dup4\n      eq\n        /* \"contract/Launchpad.sol\":36796:36870  require(aryRatio.length == aryClearAddress.length, \"length must be equal\") */\n      tag_325\n      jumpi\n      mload(0x40)\n      shl(0xe5, 0x461bcd)\n      dup2\n      mstore\n      0x04\n      add\n      tag_261\n      swap1\n      tag_324\n      jump\t// in\n    tag_325:\n        /* \"contract/Launchpad.sol\":36900:36907  aryType */\n      dup5\n        /* \"contract/Launchpad.sol\":36880:36897  uint256 aryLength */\n      0x00\n      dup1\n        /* \"contract/Launchpad.sol\":36963:37068  for (uint256 idx = 0; idx < aryLength; idx++) {... */\n    tag_327:\n        /* \"contract/Launchpad.sol\":36991:37000  aryLength */\n      dup3\n        /* \"contract/Launchpad.sol\":36985:36988  idx */\n      dup2\n        /* \"contract/Launchpad.sol\":36985:37000  idx < aryLength */\n      lt\n        /* \"contract/Launchpad.sol\":36963:37068  for (uint256 idx = 0; idx < aryLength; idx++) {... */\n      iszero\n      tag_328\n      jumpi\n        /* \"contract/Launchpad.sol\":37044:37052  aryRatio */\n      dup5\n      dup5\n        /* \"contract/Launchpad.sol\":37053:37056  idx */\n      dup3\n        /* \"contract/Launchpad.sol\":37044:37057  aryRatio[idx] */\n      dup2\n      dup2\n      lt\n      tag_331\n      jumpi\n      tag_331\n      tag_228\n      jump\t// in\n    tag_331:\n      swap1\n      pop\n      0x20\n      mul\n      add\n      calldataload\n        /* \"contract/Launchpad.sol\":37023:37057  totalSharingRatio += aryRatio[idx] */\n      dup3\n      tag_332\n      swap2\n      swap1\n      tag_232\n      jump\t// in\n    tag_332:\n      swap2\n      pop\n        /* \"contract/Launchpad.sol\":37002:37007  idx++ */\n      dup1\n      tag_333\n      dup2\n      tag_234\n      jump\t// in\n    tag_333:\n      swap2\n      pop\n      pop\n        /* \"contract/Launchpad.sol\":36963:37068  for (uint256 idx = 0; idx < aryLength; idx++) {... */\n      jump(tag_327)\n    tag_328:\n      pop\n        /* \"contract/Launchpad.sol\":37085:37102  totalSharingRatio */\n      dup1\n        /* \"contract/Launchpad.sol\":37106:37110  1e18 */\n      0x0de0b6b3a7640000\n        /* \"contract/Launchpad.sol\":37085:37110  totalSharingRatio == 1e18 */\n      eq\n        /* \"contract/Launchpad.sol\":37077:37148  require(totalSharingRatio == 1e18, \"total ratio must be equal to 1e18\") */\n      tag_334\n      jumpi\n      mload(0x40)\n      shl(0xe5, 0x461bcd)\n      dup2\n      mstore\n      0x04\n      add\n      tag_261\n      swap1\n      tag_336\n      jump\t// in\n    tag_334:\n        /* \"contract/Launchpad.sol\":37158:37180  delete arySharingRules */\n      tag_337\n        /* \"contract/Launchpad.sol\":37165:37180  arySharingRules */\n      0x13\n      0x00\n        /* \"contract/Launchpad.sol\":37158:37180  delete arySharingRules */\n      tag_338\n      jump\t// in\n    tag_337:\n        /* \"contract/Launchpad.sol\":37195:37206  uint256 idx */\n      0x00\n        /* \"contract/Launchpad.sol\":37190:37516  for (uint256 idx = 0; idx < aryLength; idx++) {... */\n    tag_339:\n        /* \"contract/Launchpad.sol\":37218:37227  aryLength */\n      dup3\n        /* \"contract/Launchpad.sol\":37212:37215  idx */\n      dup2\n        /* \"contract/Launchpad.sol\":37212:37227  idx < aryLength */\n      lt\n        /* \"contract/Launchpad.sol\":37190:37516  for (uint256 idx = 0; idx < aryLength; idx++) {... */\n      iszero\n      tag_340\n      jumpi\n        /* \"contract/Launchpad.sol\":37250:37274  SharingRule memory _rule */\n      0x00\n        /* \"contract/Launchpad.sol\":37277:37464  SharingRule ({... */\n      mload(0x40)\n      dup1\n      0x60\n      add\n      0x40\n      mstore\n      dup1\n        /* \"contract/Launchpad.sol\":37320:37327  aryType */\n      dup12\n      dup12\n        /* \"contract/Launchpad.sol\":37328:37331  idx */\n      dup6\n        /* \"contract/Launchpad.sol\":37320:37332  aryType[idx] */\n      dup2\n      dup2\n      lt\n      tag_343\n      jumpi\n      tag_343\n      tag_228\n      jump\t// in\n    tag_343:\n      swap1\n      pop\n      0x20\n      mul\n      add\n      calldataload\n        /* \"contract/Launchpad.sol\":37277:37464  SharingRule ({... */\n      dup2\n      mstore\n      0x20\n      add\n        /* \"contract/Launchpad.sol\":37369:37384  aryClearAddress */\n      dup10\n      dup10\n        /* \"contract/Launchpad.sol\":37385:37388  idx */\n      dup6\n        /* \"contract/Launchpad.sol\":37369:37389  aryClearAddress[idx] */\n      dup2\n      dup2\n      lt\n      tag_345\n      jumpi\n      tag_345\n      tag_228\n      jump\t// in\n    tag_345:\n      swap1\n      pop\n      0x20\n      mul\n      add\n      0x20\n      dup2\n      add\n      swap1\n      tag_346\n      swap2\n      swap1\n      tag_49\n      jump\t// in\n    tag_346:\n      sub(shl(0xa0, 0x01), 0x01)\n        /* \"contract/Launchpad.sol\":37277:37464  SharingRule ({... */\n      and\n      dup2\n      mstore\n      0x20\n      add\n        /* \"contract/Launchpad.sol\":37419:37427  aryRatio */\n      dup8\n      dup8\n        /* \"contract/Launchpad.sol\":37428:37431  idx */\n      dup6\n        /* \"contract/Launchpad.sol\":37419:37432  aryRatio[idx] */\n      dup2\n      dup2\n      lt\n      tag_348\n      jumpi\n      tag_348\n      tag_228\n      jump\t// in\n    tag_348:\n      0x20\n      swap1\n      dup2\n      mul\n      swap3\n      swap1\n      swap3\n      add\n      calldataload\n        /* \"contract/Launchpad.sol\":37277:37464  SharingRule ({... */\n      swap1\n      swap3\n      mstore\n        /* \"contract/Launchpad.sol\":37478:37493  arySharingRules */\n      0x13\n        /* \"contract/Launchpad.sol\":37478:37505  arySharingRules.push(_rule) */\n      dup1\n      sload\n      0x01\n      dup2\n      add\n      dup3\n      sstore\n      0x00\n      swap2\n      swap1\n      swap2\n      mstore\n      dup4\n      mload\n      0x66de8ffda797e3de9c05e8fc57b3bf0ec28a930d40b0d285d93c06501cf6a090\n      0x03\n      swap1\n      swap3\n      mul\n      swap2\n      dup3\n      add\n      sstore\n      swap1\n      dup4\n      add\n      mload\n      0x66de8ffda797e3de9c05e8fc57b3bf0ec28a930d40b0d285d93c06501cf6a091\n      dup3\n      add\n      dup1\n      sload\n      not(sub(shl(0xa0, 0x01), 0x01))\n      and\n      sub(shl(0xa0, 0x01), 0x01)\n      swap1\n      swap3\n      and\n      swap2\n      swap1\n      swap2\n      or\n      swap1\n      sstore\n      0x40\n      swap1\n      swap3\n      add\n      mload\n      0x66de8ffda797e3de9c05e8fc57b3bf0ec28a930d40b0d285d93c06501cf6a092\n      swap1\n      swap3\n      add\n      swap2\n      swap1\n      swap2\n      sstore\n      pop\n        /* \"contract/Launchpad.sol\":37229:37234  idx++ */\n      dup2\n      swap1\n      pop\n      tag_350\n      dup2\n      tag_234\n      jump\t// in\n    tag_350:\n      swap2\n      pop\n      pop\n        /* \"contract/Launchpad.sol\":37190:37516  for (uint256 idx = 0; idx < aryLength; idx++) {... */\n      jump(tag_339)\n    tag_340:\n      pop\n        /* \"contract/Launchpad.sol\":36703:37522  {... */\n      pop\n      pop\n        /* \"contract/Launchpad.sol\":36533:37522  function setSharingRules(... */\n      pop\n      pop\n      pop\n      pop\n      pop\n      pop\n      jump\t// out\n        /* \"contract/Launchpad.sol\":28737:29453  function claimRewards() public {... */\n    tag_84:\n        /* \"contract/Launchpad.sol\":28786:28795  claimOpen */\n      and(0xff, sload(0x16))\n        /* \"contract/Launchpad.sol\":28778:28816  require(claimOpen,\"can not claim now\") */\n      tag_352\n      jumpi\n      mload(0x40)\n      shl(0xe5, 0x461bcd)\n      dup2\n      mstore\n        /* \"#utility.yul\":11440:11442   */\n      0x20\n        /* \"contract/Launchpad.sol\":28778:28816  require(claimOpen,\"can not claim now\") */\n      0x04\n      dup3\n      add\n        /* \"#utility.yul\":11422:11443   */\n      mstore\n        /* \"#utility.yul\":11479:11481   */\n      0x11\n        /* \"#utility.yul\":11459:11477   */\n      0x24\n      dup3\n      add\n        /* \"#utility.yul\":11452:11482   */\n      mstore\n      shl(0x78, 0x63616e206e6f7420636c61696d206e6f77)\n        /* \"#utility.yul\":11498:11516   */\n      0x44\n      dup3\n      add\n        /* \"#utility.yul\":11491:11538   */\n      mstore\n        /* \"#utility.yul\":11555:11573   */\n      0x64\n      add\n        /* \"contract/Launchpad.sol\":28778:28816  require(claimOpen,\"can not claim now\") */\n      tag_261\n        /* \"#utility.yul\":11238:11579   */\n      jump\n        /* \"contract/Launchpad.sol\":28778:28816  require(claimOpen,\"can not claim now\") */\n    tag_352:\n        /* \"contract/Launchpad.sol\":28852:28859  endTime */\n      sload(0x04)\n        /* \"contract/Launchpad.sol\":28834:28849  block.timestamp */\n      timestamp\n        /* \"contract/Launchpad.sol\":28834:28859  block.timestamp > endTime */\n      gt\n        /* \"contract/Launchpad.sol\":28826:28884  require(block.timestamp > endTime, \"this pool is not end\") */\n      tag_355\n      jumpi\n      mload(0x40)\n      shl(0xe5, 0x461bcd)\n      dup2\n      mstore\n      0x04\n      add\n      tag_261\n      swap1\n      tag_266\n      jump\t// in\n    tag_355:\n        /* \"contract/Launchpad.sol\":28929:28944  txnTokenAddress */\n      sload(0x07)\n        /* \"contract/Launchpad.sol\":28894:28916  uint256 totalTxnAmount */\n      0x00\n      swap1\n      sub(shl(0xa0, 0x01), 0x01)\n        /* \"contract/Launchpad.sol\":28929:28944  txnTokenAddress */\n      and\n        /* \"contract/Launchpad.sol\":28926:29116  if(txnTokenAddress == address(0)){... */\n      tag_357\n      jumpi\n      pop\n        /* \"contract/Launchpad.sol\":28990:29011  address(this).balance */\n      selfbalance\n        /* \"contract/Launchpad.sol\":28926:29116  if(txnTokenAddress == address(0)){... */\n      jump(tag_358)\n    tag_357:\n        /* \"contract/Launchpad.sol\":29064:29079  txnTokenAddress */\n      sload(0x07)\n        /* \"contract/Launchpad.sol\":29057:29105  IERC20(txnTokenAddress).balanceOf(address(this)) */\n      mload(0x40)\n      shl(0xe0, 0x70a08231)\n      dup2\n      mstore\n        /* \"contract/Launchpad.sol\":29099:29103  this */\n      address\n        /* \"contract/Launchpad.sol\":29057:29105  IERC20(txnTokenAddress).balanceOf(address(this)) */\n      0x04\n      dup3\n      add\n        /* \"#utility.yul\":5450:5501   */\n      mstore\n      sub(shl(0xa0, 0x01), 0x01)\n        /* \"contract/Launchpad.sol\":29064:29079  txnTokenAddress */\n      swap1\n      swap2\n      and\n      swap1\n        /* \"contract/Launchpad.sol\":29057:29090  IERC20(txnTokenAddress).balanceOf */\n      0x70a08231\n      swap1\n        /* \"#utility.yul\":5423:5441   */\n      0x24\n      add\n        /* \"contract/Launchpad.sol\":29057:29105  IERC20(txnTokenAddress).balanceOf(address(this)) */\n      0x20\n      mload(0x40)\n      dup1\n      dup4\n      sub\n      dup2\n      dup7\n      dup1\n      extcodesize\n      iszero\n      dup1\n      iszero\n      tag_360\n      jumpi\n      0x00\n      dup1\n      revert\n    tag_360:\n      pop\n      gas\n      staticcall\n      iszero\n      dup1\n      iszero\n      tag_362\n      jumpi\n      returndatasize\n      0x00\n      dup1\n      returndatacopy\n      revert(0x00, returndatasize)\n    tag_362:\n      pop\n      pop\n      pop\n      pop\n      mload(0x40)\n      returndatasize\n      not(0x1f)\n      0x1f\n      dup3\n      add\n      and\n      dup3\n      add\n      dup1\n      0x40\n      mstore\n      pop\n      dup2\n      add\n      swap1\n      tag_363\n      swap2\n      swap1\n      tag_219\n      jump\t// in\n    tag_363:\n        /* \"contract/Launchpad.sol\":29040:29105  totalTxnAmount = IERC20(txnTokenAddress).balanceOf(address(this)) */\n      swap1\n      pop\n        /* \"contract/Launchpad.sol\":28926:29116  if(txnTokenAddress == address(0)){... */\n    tag_358:\n        /* \"contract/Launchpad.sol\":29152:29159  softCap */\n      sload(0x0a)\n        /* \"contract/Launchpad.sol\":29134:29148  totalTxnAmount */\n      dup2\n        /* \"contract/Launchpad.sol\":29134:29159  totalTxnAmount >= softCap */\n      lt\n      iszero\n        /* \"contract/Launchpad.sol\":29126:29192  require(totalTxnAmount >= softCap, \"IDO txn amount is not enough\") */\n      tag_364\n      jumpi\n      mload(0x40)\n      shl(0xe5, 0x461bcd)\n      dup2\n      mstore\n        /* \"#utility.yul\":11786:11788   */\n      0x20\n        /* \"contract/Launchpad.sol\":29126:29192  require(totalTxnAmount >= softCap, \"IDO txn amount is not enough\") */\n      0x04\n      dup3\n      add\n        /* \"#utility.yul\":11768:11789   */\n      mstore\n        /* \"#utility.yul\":11825:11827   */\n      0x1c\n        /* \"#utility.yul\":11805:11823   */\n      0x24\n      dup3\n      add\n        /* \"#utility.yul\":11798:11828   */\n      mstore\n        /* \"#utility.yul\":11864:11894   */\n      0x49444f2074786e20616d6f756e74206973206e6f7420656e6f75676800000000\n        /* \"#utility.yul\":11844:11862   */\n      0x44\n      dup3\n      add\n        /* \"#utility.yul\":11837:11895   */\n      mstore\n        /* \"#utility.yul\":11912:11930   */\n      0x64\n      add\n        /* \"contract/Launchpad.sol\":29126:29192  require(totalTxnAmount >= softCap, \"IDO txn amount is not enough\") */\n      tag_261\n        /* \"#utility.yul\":11584:11936   */\n      jump\n        /* \"contract/Launchpad.sol\":29126:29192  require(totalTxnAmount >= softCap, \"IDO txn amount is not enough\") */\n    tag_364:\n        /* \"contract/Launchpad.sol\":29202:29221  uint256 trueRewards */\n      0x00\n        /* \"contract/Launchpad.sol\":29224:29242  earned(msg.sender) */\n      tag_367\n        /* \"contract/Launchpad.sol\":29231:29241  msg.sender */\n      caller\n        /* \"contract/Launchpad.sol\":29224:29230  earned */\n      tag_50\n        /* \"contract/Launchpad.sol\":29224:29242  earned(msg.sender) */\n      jump\t// in\n    tag_367:\n        /* \"contract/Launchpad.sol\":29202:29242  uint256 trueRewards = earned(msg.sender) */\n      swap1\n      pop\n        /* \"contract/Launchpad.sol\":29274:29275  0 */\n      0x00\n        /* \"contract/Launchpad.sol\":29260:29271  trueRewards */\n      dup2\n        /* \"contract/Launchpad.sol\":29260:29275  trueRewards > 0 */\n      gt\n        /* \"contract/Launchpad.sol\":29252:29310  require(trueRewards > 0, \"rewards amount can not be zero\") */\n      tag_368\n      jumpi\n      mload(0x40)\n      shl(0xe5, 0x461bcd)\n      dup2\n      mstore\n        /* \"#utility.yul\":12143:12145   */\n      0x20\n        /* \"contract/Launchpad.sol\":29252:29310  require(trueRewards > 0, \"rewards amount can not be zero\") */\n      0x04\n      dup3\n      add\n        /* \"#utility.yul\":12125:12146   */\n      mstore\n        /* \"#utility.yul\":12182:12184   */\n      0x1e\n        /* \"#utility.yul\":12162:12180   */\n      0x24\n      dup3\n      add\n        /* \"#utility.yul\":12155:12185   */\n      mstore\n        /* \"#utility.yul\":12221:12253   */\n      0x7265776172647320616d6f756e742063616e206e6f74206265207a65726f0000\n        /* \"#utility.yul\":12201:12219   */\n      0x44\n      dup3\n      add\n        /* \"#utility.yul\":12194:12254   */\n      mstore\n        /* \"#utility.yul\":12271:12289   */\n      0x64\n      add\n        /* \"contract/Launchpad.sol\":29252:29310  require(trueRewards > 0, \"rewards amount can not be zero\") */\n      tag_261\n        /* \"#utility.yul\":11941:12295   */\n      jump\n        /* \"contract/Launchpad.sol\":29252:29310  require(trueRewards > 0, \"rewards amount can not be zero\") */\n    tag_368:\n        /* \"contract/Launchpad.sol\":29335:29350  IDOTokenAddress */\n      sload(0x06)\n        /* \"contract/Launchpad.sol\":29328:29385  IERC20(IDOTokenAddress).transfer(msg.sender, trueRewards) */\n      mload(0x40)\n      shl(0xe0, 0xa9059cbb)\n      dup2\n      mstore\n        /* \"contract/Launchpad.sol\":29361:29371  msg.sender */\n      caller\n        /* \"contract/Launchpad.sol\":29328:29385  IERC20(IDOTokenAddress).transfer(msg.sender, trueRewards) */\n      0x04\n      dup3\n      add\n        /* \"#utility.yul\":739:790   */\n      mstore\n        /* \"#utility.yul\":806:824   */\n      0x24\n      dup2\n      add\n        /* \"#utility.yul\":799:833   */\n      dup4\n      swap1\n      mstore\n      sub(shl(0xa0, 0x01), 0x01)\n        /* \"contract/Launchpad.sol\":29335:29350  IDOTokenAddress */\n      swap1\n      swap2\n      and\n      swap1\n        /* \"contract/Launchpad.sol\":29328:29360  IERC20(IDOTokenAddress).transfer */\n      0xa9059cbb\n      swap1\n        /* \"#utility.yul\":712:730   */\n      0x44\n      add\n        /* \"contract/Launchpad.sol\":29328:29385  IERC20(IDOTokenAddress).transfer(msg.sender, trueRewards) */\n      0x20\n      mload(0x40)\n      dup1\n      dup4\n      sub\n      dup2\n      0x00\n      dup8\n      dup1\n      extcodesize\n      iszero\n      dup1\n      iszero\n      tag_372\n      jumpi\n      0x00\n      dup1\n      revert\n    tag_372:\n      pop\n      gas\n      call\n      iszero\n      dup1\n      iszero\n      tag_374\n      jumpi\n      returndatasize\n      0x00\n      dup1\n      returndatacopy\n      revert(0x00, returndatasize)\n    tag_374:\n      pop\n      pop\n      pop\n      pop\n      mload(0x40)\n      returndatasize\n      not(0x1f)\n      0x1f\n      dup3\n      add\n      and\n      dup3\n      add\n      dup1\n      0x40\n      mstore\n      pop\n      dup2\n      add\n      swap1\n      tag_375\n      swap2\n      swap1\n      tag_299\n      jump\t// in\n    tag_375:\n        /* \"contract/Launchpad.sol\":29320:29386  require(IERC20(IDOTokenAddress).transfer(msg.sender, trueRewards)) */\n      tag_376\n      jumpi\n      0x00\n      dup1\n      revert\n    tag_376:\n        /* \"contract/Launchpad.sol\":29408:29418  msg.sender */\n      caller\n        /* \"contract/Launchpad.sol\":29396:29419  mBuyRecords[msg.sender] */\n      0x00\n      swap1\n      dup2\n      mstore\n        /* \"contract/Launchpad.sol\":29396:29407  mBuyRecords */\n      0x0b\n        /* \"contract/Launchpad.sol\":29396:29419  mBuyRecords[msg.sender] */\n      0x20\n      mstore\n      0x40\n      dup2\n      keccak256\n        /* \"contract/Launchpad.sol\":29396:29431  mBuyRecords[msg.sender].paidRewards */\n      0x03\n      add\n        /* \"contract/Launchpad.sol\":29396:29446  mBuyRecords[msg.sender].paidRewards += trueRewards */\n      dup1\n      sload\n        /* \"contract/Launchpad.sol\":29435:29446  trueRewards */\n      dup4\n      swap3\n        /* \"contract/Launchpad.sol\":29396:29419  mBuyRecords[msg.sender] */\n      swap1\n        /* \"contract/Launchpad.sol\":29396:29446  mBuyRecords[msg.sender].paidRewards += trueRewards */\n      tag_377\n      swap1\n        /* \"contract/Launchpad.sol\":29435:29446  trueRewards */\n      dup5\n      swap1\n        /* \"contract/Launchpad.sol\":29396:29446  mBuyRecords[msg.sender].paidRewards += trueRewards */\n      tag_232\n      jump\t// in\n    tag_377:\n      swap1\n      swap2\n      sstore\n      pop\n      pop\n      pop\n      pop\n        /* \"contract/Launchpad.sol\":28737:29453  function claimRewards() public {... */\n      jump\t// out\n        /* \"contract/Launchpad.sol\":31534:32772  function clear() public onlyController {... */\n    tag_95:\n        /* \"contract/Launchpad.sol\":13746:13753  address */\n      0x00\n        /* \"contract/Launchpad.sol\":13772:13778  _owner */\n      sload\n      sub(shl(0xa0, 0x01), 0x01)\n      and\n        /* \"contract/Launchpad.sol\":929:939  msg.sender */\n      caller\n        /* \"contract/Launchpad.sol\":15632:15655  _msgSender() == owner() */\n      eq\n      dup1\n        /* \"contract/Launchpad.sol\":15632:15685  _msgSender() == owner() || isGovernment(_msgSender()) */\n      tag_384\n      jumpi\n      pop\n        /* \"contract/Launchpad.sol\":15659:15685  isGovernment(_msgSender()) */\n      tag_384\n        /* \"contract/Launchpad.sol\":929:939  msg.sender */\n      caller\n        /* \"contract/Launchpad.sol\":15218:15336  function isGovernment(address account) public view returns (bool){... */\n      tag_109\n      jump\t// in\n        /* \"contract/Launchpad.sol\":15659:15685  isGovernment(_msgSender()) */\n    tag_384:\n        /* \"contract/Launchpad.sol\":15624:15727  require(_msgSender() == owner() || isGovernment(_msgSender()), \"Ownable: caller is not the controller\") */\n      tag_386\n      jumpi\n      mload(0x40)\n      shl(0xe5, 0x461bcd)\n      dup2\n      mstore\n      0x04\n      add\n      tag_261\n      swap1\n      tag_262\n      jump\t// in\n    tag_386:\n        /* \"contract/Launchpad.sol\":31609:31616  endTime */\n      sload(0x04)\n        /* \"contract/Launchpad.sol\":31591:31606  block.timestamp */\n      timestamp\n        /* \"contract/Launchpad.sol\":31591:31616  block.timestamp > endTime */\n      gt\n        /* \"contract/Launchpad.sol\":31583:31641  require(block.timestamp > endTime, \"this pool is not end\") */\n      tag_389\n      jumpi\n      mload(0x40)\n      shl(0xe5, 0x461bcd)\n      dup2\n      mstore\n      0x04\n      add\n      tag_261\n      swap1\n      tag_266\n      jump\t// in\n    tag_389:\n        /* \"contract/Launchpad.sol\":31659:31674  arySharingRules */\n      0x13\n        /* \"contract/Launchpad.sol\":31659:31681  arySharingRules.length */\n      sload\n        /* \"contract/Launchpad.sol\":31651:31722  require(arySharingRules.length > 0, \"sharing rules must be configured\") */\n      tag_391\n      jumpi\n      mload(0x40)\n      shl(0xe5, 0x461bcd)\n      dup2\n      mstore\n        /* \"#utility.yul\":12502:12504   */\n      0x20\n        /* \"contract/Launchpad.sol\":31651:31722  require(arySharingRules.length > 0, \"sharing rules must be configured\") */\n      0x04\n      dup3\n      add\n        /* \"#utility.yul\":12484:12505   */\n      dup2\n      swap1\n      mstore\n        /* \"#utility.yul\":12521:12539   */\n      0x24\n      dup3\n      add\n        /* \"#utility.yul\":12514:12544   */\n      mstore\n        /* \"#utility.yul\":12580:12614   */\n      0x73686172696e672072756c6573206d75737420626520636f6e66696775726564\n        /* \"#utility.yul\":12560:12578   */\n      0x44\n      dup3\n      add\n        /* \"#utility.yul\":12553:12615   */\n      mstore\n        /* \"#utility.yul\":12632:12650   */\n      0x64\n      add\n        /* \"contract/Launchpad.sol\":31651:31722  require(arySharingRules.length > 0, \"sharing rules must be configured\") */\n      tag_261\n        /* \"#utility.yul\":12300:12656   */\n      jump\n        /* \"contract/Launchpad.sol\":31651:31722  require(arySharingRules.length > 0, \"sharing rules must be configured\") */\n    tag_391:\n        /* \"contract/Launchpad.sol\":31767:31782  txnTokenAddress */\n      sload(0x07)\n        /* \"contract/Launchpad.sol\":31732:31754  uint256 totalTxnAmount */\n      0x00\n      swap1\n      sub(shl(0xa0, 0x01), 0x01)\n        /* \"contract/Launchpad.sol\":31767:31782  txnTokenAddress */\n      and\n        /* \"contract/Launchpad.sol\":31764:31954  if(txnTokenAddress == address(0)){... */\n      tag_394\n      jumpi\n      pop\n        /* \"contract/Launchpad.sol\":31828:31849  address(this).balance */\n      selfbalance\n        /* \"contract/Launchpad.sol\":31764:31954  if(txnTokenAddress == address(0)){... */\n      jump(tag_395)\n    tag_394:\n        /* \"contract/Launchpad.sol\":31902:31917  txnTokenAddress */\n      sload(0x07)\n        /* \"contract/Launchpad.sol\":31895:31943  IERC20(txnTokenAddress).balanceOf(address(this)) */\n      mload(0x40)\n      shl(0xe0, 0x70a08231)\n      dup2\n      mstore\n        /* \"contract/Launchpad.sol\":31937:31941  this */\n      address\n        /* \"contract/Launchpad.sol\":31895:31943  IERC20(txnTokenAddress).balanceOf(address(this)) */\n      0x04\n      dup3\n      add\n        /* \"#utility.yul\":5450:5501   */\n      mstore\n      sub(shl(0xa0, 0x01), 0x01)\n        /* \"contract/Launchpad.sol\":31902:31917  txnTokenAddress */\n      swap1\n      swap2\n      and\n      swap1\n        /* \"contract/Launchpad.sol\":31895:31928  IERC20(txnTokenAddress).balanceOf */\n      0x70a08231\n      swap1\n        /* \"#utility.yul\":5423:5441   */\n      0x24\n      add\n        /* \"contract/Launchpad.sol\":31895:31943  IERC20(txnTokenAddress).balanceOf(address(this)) */\n      0x20\n      mload(0x40)\n      dup1\n      dup4\n      sub\n      dup2\n      dup7\n      dup1\n      extcodesize\n      iszero\n      dup1\n      iszero\n      tag_397\n      jumpi\n      0x00\n      dup1\n      revert\n    tag_397:\n      pop\n      gas\n      staticcall\n      iszero\n      dup1\n      iszero\n      tag_399\n      jumpi\n      returndatasize\n      0x00\n      dup1\n      returndatacopy\n      revert(0x00, returndatasize)\n    tag_399:\n      pop\n      pop\n      pop\n      pop\n      mload(0x40)\n      returndatasize\n      not(0x1f)\n      0x1f\n      dup3\n      add\n      and\n      dup3\n      add\n      dup1\n      0x40\n      mstore\n      pop\n      dup2\n      add\n      swap1\n      tag_400\n      swap2\n      swap1\n      tag_219\n      jump\t// in\n    tag_400:\n        /* \"contract/Launchpad.sol\":31878:31943  totalTxnAmount = IERC20(txnTokenAddress).balanceOf(address(this)) */\n      swap1\n      pop\n        /* \"contract/Launchpad.sol\":31764:31954  if(txnTokenAddress == address(0)){... */\n    tag_395:\n        /* \"contract/Launchpad.sol\":31985:31992  softCap */\n      sload(0x0a)\n        /* \"contract/Launchpad.sol\":31967:31981  totalTxnAmount */\n      dup2\n        /* \"contract/Launchpad.sol\":31967:31992  totalTxnAmount >= softCap */\n      lt\n        /* \"contract/Launchpad.sol\":31963:32766  if (totalTxnAmount >= softCap) {... */\n      tag_401\n      jumpi\n        /* \"contract/Launchpad.sol\":32031:32045  totalTxnAmount */\n      dup1\n        /* \"contract/Launchpad.sol\":32008:32028  uint256 tmpTxnAmount */\n      0x00\n        /* \"contract/Launchpad.sol\":32059:32756  for (uint256 idx = 0; idx < arySharingRules.length; idx++) {... */\n    tag_402:\n        /* \"contract/Launchpad.sol\":32087:32102  arySharingRules */\n      0x13\n        /* \"contract/Launchpad.sol\":32087:32109  arySharingRules.length */\n      sload\n        /* \"contract/Launchpad.sol\":32081:32109  idx < arySharingRules.length */\n      dup2\n      lt\n        /* \"contract/Launchpad.sol\":32059:32756  for (uint256 idx = 0; idx < arySharingRules.length; idx++) {... */\n      iszero\n      tag_403\n      jumpi\n        /* \"contract/Launchpad.sol\":32136:32159  SharingRule memory rule */\n      0x00\n        /* \"contract/Launchpad.sol\":32162:32177  arySharingRules */\n      0x13\n        /* \"contract/Launchpad.sol\":32178:32181  idx */\n      dup3\n        /* \"contract/Launchpad.sol\":32162:32182  arySharingRules[idx] */\n      dup2\n      sload\n      dup2\n      lt\n      tag_406\n      jumpi\n      tag_406\n      tag_228\n      jump\t// in\n    tag_406:\n      0x00\n      swap2\n      dup3\n      mstore\n      0x20\n      dup1\n      dup4\n      keccak256\n        /* \"contract/Launchpad.sol\":32136:32182  SharingRule memory rule = arySharingRules[idx] */\n      0x40\n      dup1\n      mload\n      0x60\n      dup2\n      add\n      dup3\n      mstore\n        /* \"contract/Launchpad.sol\":32162:32182  arySharingRules[idx] */\n      0x03\n      swap1\n      swap5\n      mul\n      swap1\n      swap2\n      add\n        /* \"contract/Launchpad.sol\":32136:32182  SharingRule memory rule = arySharingRules[idx] */\n      dup1\n      sload\n      dup5\n      mstore\n      0x01\n      dup2\n      add\n      sload\n      sub(shl(0xa0, 0x01), 0x01)\n      and\n      swap3\n      dup5\n      add\n      swap3\n      swap1\n      swap3\n      mstore\n      0x02\n      swap1\n      swap2\n      add\n      sload\n      swap1\n      dup3\n      add\n      dup2\n      swap1\n      mstore\n      swap1\n      swap3\n      pop\n        /* \"contract/Launchpad.sol\":32225:32265  totalTxnAmount.mul(rule.ratio).div(1e18) */\n      tag_408\n      swap1\n        /* \"contract/Launchpad.sol\":32260:32264  1e18 */\n      0x0de0b6b3a7640000\n      swap1\n        /* \"contract/Launchpad.sol\":32225:32255  totalTxnAmount.mul(rule.ratio) */\n      tag_238\n      swap1\n        /* \"contract/Launchpad.sol\":32225:32239  totalTxnAmount */\n      dup9\n      swap1\n        /* \"contract/Launchpad.sol\":32225:32243  totalTxnAmount.mul */\n      tag_239\n        /* \"contract/Launchpad.sol\":32225:32255  totalTxnAmount.mul(rule.ratio) */\n      jump\t// in\n        /* \"contract/Launchpad.sol\":32225:32265  totalTxnAmount.mul(rule.ratio).div(1e18) */\n    tag_408:\n        /* \"contract/Launchpad.sol\":32201:32265  uint256 sharingAmount = totalTxnAmount.mul(rule.ratio).div(1e18) */\n      swap1\n      pop\n        /* \"contract/Launchpad.sol\":32299:32336  Math.min(sharingAmount, tmpTxnAmount) */\n      tag_410\n        /* \"contract/Launchpad.sol\":32308:32321  sharingAmount */\n      dup2\n        /* \"contract/Launchpad.sol\":32323:32335  tmpTxnAmount */\n      dup6\n        /* \"contract/Launchpad.sol\":32299:32307  Math.min */\n      tag_248\n        /* \"contract/Launchpad.sol\":32299:32336  Math.min(sharingAmount, tmpTxnAmount) */\n      jump\t// in\n    tag_410:\n        /* \"contract/Launchpad.sol\":32283:32336  sharingAmount = Math.min(sharingAmount, tmpTxnAmount) */\n      swap1\n      pop\n        /* \"contract/Launchpad.sol\":32358:32375  sharingAmount > 0 */\n      dup1\n      iszero\n        /* \"contract/Launchpad.sol\":32354:32677  if (sharingAmount > 0) {... */\n      tag_421\n      jumpi\n        /* \"contract/Launchpad.sol\":32402:32417  txnTokenAddress */\n      and(sub(shl(0xa0, 0x01), 0x01), sload(0x07))\n        /* \"contract/Launchpad.sol\":32399:32659  if(txnTokenAddress == address(0)){... */\n      tag_412\n      jumpi\n        /* \"contract/Launchpad.sol\":32466:32470  rule */\n      dup2\n        /* \"contract/Launchpad.sol\":32466:32483  rule.clearAddress */\n      0x20\n      add\n      mload\n      sub(shl(0xa0, 0x01), 0x01)\n        /* \"contract/Launchpad.sol\":32458:32493  payable(rule.clearAddress).transfer */\n      and\n        /* \"contract/Launchpad.sol\":32458:32508  payable(rule.clearAddress).transfer(sharingAmount) */\n      0x08fc\n        /* \"contract/Launchpad.sol\":32494:32507  sharingAmount */\n      dup3\n        /* \"contract/Launchpad.sol\":32458:32508  payable(rule.clearAddress).transfer(sharingAmount) */\n      swap1\n      dup2\n      iszero\n      mul\n      swap1\n      mload(0x40)\n      0x00\n      mload(0x40)\n      dup1\n      dup4\n      sub\n      dup2\n      dup6\n      dup9\n      dup9\n      call\n      swap4\n      pop\n      pop\n      pop\n      pop\n      iszero\n      dup1\n      iszero\n      tag_414\n      jumpi\n      returndatasize\n      0x00\n      dup1\n      returndatacopy\n      revert(0x00, returndatasize)\n    tag_414:\n      pop\n        /* \"contract/Launchpad.sol\":32399:32659  if(txnTokenAddress == address(0)){... */\n      jump(tag_421)\n    tag_412:\n        /* \"contract/Launchpad.sol\":32576:32591  txnTokenAddress */\n      sload(0x07)\n        /* \"contract/Launchpad.sol\":32602:32619  rule.clearAddress */\n      0x20\n      dup4\n      add\n      mload\n        /* \"contract/Launchpad.sol\":32569:32635  IERC20(txnTokenAddress).transfer(rule.clearAddress, sharingAmount) */\n      mload(0x40)\n      shl(0xe0, 0xa9059cbb)\n      dup2\n      mstore\n      sub(shl(0xa0, 0x01), 0x01)\n        /* \"#utility.yul\":757:789   */\n      swap2\n      dup3\n      and\n        /* \"contract/Launchpad.sol\":32569:32635  IERC20(txnTokenAddress).transfer(rule.clearAddress, sharingAmount) */\n      0x04\n      dup3\n      add\n        /* \"#utility.yul\":739:790   */\n      mstore\n        /* \"#utility.yul\":806:824   */\n      0x24\n      dup2\n      add\n        /* \"#utility.yul\":799:833   */\n      dup5\n      swap1\n      mstore\n        /* \"contract/Launchpad.sol\":32576:32591  txnTokenAddress */\n      swap2\n      and\n      swap1\n        /* \"contract/Launchpad.sol\":32569:32601  IERC20(txnTokenAddress).transfer */\n      0xa9059cbb\n      swap1\n        /* \"#utility.yul\":712:730   */\n      0x44\n      add\n        /* \"contract/Launchpad.sol\":32569:32635  IERC20(txnTokenAddress).transfer(rule.clearAddress, sharingAmount) */\n      0x20\n      mload(0x40)\n      dup1\n      dup4\n      sub\n      dup2\n      0x00\n      dup8\n      dup1\n      extcodesize\n      iszero\n      dup1\n      iszero\n      tag_417\n      jumpi\n      0x00\n      dup1\n      revert\n    tag_417:\n      pop\n      gas\n      call\n      iszero\n      dup1\n      iszero\n      tag_419\n      jumpi\n      returndatasize\n      0x00\n      dup1\n      returndatacopy\n      revert(0x00, returndatasize)\n    tag_419:\n      pop\n      pop\n      pop\n      pop\n      mload(0x40)\n      returndatasize\n      not(0x1f)\n      0x1f\n      dup3\n      add\n      and\n      dup3\n      add\n      dup1\n      0x40\n      mstore\n      pop\n      dup2\n      add\n      swap1\n      tag_420\n      swap2\n      swap1\n      tag_299\n      jump\t// in\n    tag_420:\n        /* \"contract/Launchpad.sol\":32561:32636  require(IERC20(txnTokenAddress).transfer(rule.clearAddress, sharingAmount)) */\n      tag_421\n      jumpi\n      0x00\n      dup1\n      revert\n    tag_421:\n        /* \"contract/Launchpad.sol\":32710:32741  tmpTxnAmount.sub(sharingAmount) */\n      tag_422\n        /* \"contract/Launchpad.sol\":32710:32722  tmpTxnAmount */\n      dup5\n        /* \"contract/Launchpad.sol\":32727:32740  sharingAmount */\n      dup3\n        /* \"contract/Launchpad.sol\":32710:32726  tmpTxnAmount.sub */\n      tag_241\n        /* \"contract/Launchpad.sol\":32710:32741  tmpTxnAmount.sub(sharingAmount) */\n      jump\t// in\n    tag_422:\n        /* \"contract/Launchpad.sol\":32695:32741  tmpTxnAmount = tmpTxnAmount.sub(sharingAmount) */\n      swap4\n      pop\n        /* \"contract/Launchpad.sol\":32118:32756  {... */\n      pop\n      pop\n        /* \"contract/Launchpad.sol\":32111:32116  idx++ */\n      dup1\n      dup1\n      tag_423\n      swap1\n      tag_234\n      jump\t// in\n    tag_423:\n      swap2\n      pop\n      pop\n        /* \"contract/Launchpad.sol\":32059:32756  for (uint256 idx = 0; idx < arySharingRules.length; idx++) {... */\n      jump(tag_402)\n    tag_403:\n      pop\n        /* \"contract/Launchpad.sol\":31994:32766  {... */\n      pop\n        /* \"contract/Launchpad.sol\":31963:32766  if (totalTxnAmount >= softCap) {... */\n    tag_401:\n        /* \"contract/Launchpad.sol\":31573:32772  {... */\n      pop\n        /* \"contract/Launchpad.sol\":31534:32772  function clear() public onlyController {... */\n      jump\t// out\n        /* \"contract/Launchpad.sol\":34695:34955  function setTxnLimit(... */\n    tag_100:\n        /* \"contract/Launchpad.sol\":13746:13753  address */\n      0x00\n        /* \"contract/Launchpad.sol\":13772:13778  _owner */\n      sload\n      sub(shl(0xa0, 0x01), 0x01)\n      and\n        /* \"contract/Launchpad.sol\":929:939  msg.sender */\n      caller\n        /* \"contract/Launchpad.sol\":15632:15655  _msgSender() == owner() */\n      eq\n      dup1\n        /* \"contract/Launchpad.sol\":15632:15685  _msgSender() == owner() || isGovernment(_msgSender()) */\n      tag_428\n      jumpi\n      pop\n        /* \"contract/Launchpad.sol\":15659:15685  isGovernment(_msgSender()) */\n      tag_428\n        /* \"contract/Launchpad.sol\":929:939  msg.sender */\n      caller\n        /* \"contract/Launchpad.sol\":15218:15336  function isGovernment(address account) public view returns (bool){... */\n      tag_109\n      jump\t// in\n        /* \"contract/Launchpad.sol\":15659:15685  isGovernment(_msgSender()) */\n    tag_428:\n        /* \"contract/Launchpad.sol\":15624:15727  require(_msgSender() == owner() || isGovernment(_msgSender()), \"Ownable: caller is not the controller\") */\n      tag_430\n      jumpi\n      mload(0x40)\n      shl(0xe5, 0x461bcd)\n      dup2\n      mstore\n      0x04\n      add\n      tag_261\n      swap1\n      tag_262\n      jump\t// in\n    tag_430:\n        /* \"contract/Launchpad.sol\":34837:34845  buyLimit */\n      0x0e\n        /* \"contract/Launchpad.sol\":34837:34866  buyLimit.maxTimes = _maxTimes */\n      swap3\n      swap1\n      swap3\n      sstore\n        /* \"contract/Launchpad.sol\":34876:34894  buyLimit.minAmount */\n      0x0f\n        /* \"contract/Launchpad.sol\":34876:34907  buyLimit.minAmount = _minAmount */\n      sstore\n        /* \"contract/Launchpad.sol\":34917:34935  buyLimit.maxAmount */\n      0x10\n        /* \"contract/Launchpad.sol\":34917:34948  buyLimit.maxAmount = _maxAmount */\n      sstore\n        /* \"contract/Launchpad.sol\":34695:34955  function setTxnLimit(... */\n      jump\t// out\n        /* \"contract/Launchpad.sol\":24402:24763  function getPoolInfo() public view returns (PoolInfo memory) {... */\n    tag_103:\n        /* \"contract/Launchpad.sol\":24446:24461  PoolInfo memory */\n      tag_433\n      mload(0x40)\n      dup1\n      0xc0\n      add\n      0x40\n      mstore\n      dup1\n      and(sub(shl(0xa0, 0x01), 0x01), 0x00)\n      dup2\n      mstore\n      0x20\n      add\n      and(sub(shl(0xa0, 0x01), 0x01), 0x00)\n      dup2\n      mstore\n      0x20\n      add\n      0x00\n      dup2\n      mstore\n      0x20\n      add\n      0x00\n      dup2\n      mstore\n      0x20\n      add\n      0x00\n      dup2\n      mstore\n      0x20\n      add\n      0x00\n      dup2\n      mstore\n      pop\n      swap1\n      jump\n    tag_433:\n      pop\n        /* \"contract/Launchpad.sol\":24501:24731  PoolInfo({... */\n      0x40\n      dup1\n      mload\n      0xc0\n      dup2\n      add\n      dup3\n      mstore\n        /* \"contract/Launchpad.sol\":24538:24553  IDOTokenAddress */\n      sload(0x06)\n      sub(shl(0xa0, 0x01), 0x01)\n      swap1\n      dup2\n      and\n        /* \"contract/Launchpad.sol\":24501:24731  PoolInfo({... */\n      dup3\n      mstore\n        /* \"contract/Launchpad.sol\":24581:24596  txnTokenAddress */\n      sload(0x07)\n      and\n        /* \"contract/Launchpad.sol\":24501:24731  PoolInfo({... */\n      0x20\n      dup3\n      add\n      mstore\n        /* \"contract/Launchpad.sol\":24616:24624  txnRatio */\n      sload(0x08)\n        /* \"contract/Launchpad.sol\":24501:24731  PoolInfo({... */\n      swap2\n      dup2\n      add\n      swap2\n      swap1\n      swap2\n      mstore\n        /* \"contract/Launchpad.sol\":24652:24661  startTime */\n      sload(0x03)\n        /* \"contract/Launchpad.sol\":24501:24731  PoolInfo({... */\n      0x60\n      dup3\n      add\n      mstore\n        /* \"contract/Launchpad.sol\":24687:24694  endTime */\n      sload(0x04)\n        /* \"contract/Launchpad.sol\":24501:24731  PoolInfo({... */\n      0x80\n      dup3\n      add\n      mstore\n        /* \"contract/Launchpad.sol\":24714:24720  _total */\n      sload(0x15)\n        /* \"contract/Launchpad.sol\":24501:24731  PoolInfo({... */\n      0xa0\n      dup3\n      add\n      mstore\n      swap1\n        /* \"contract/Launchpad.sol\":24402:24763  function getPoolInfo() public view returns (PoolInfo memory) {... */\n      jump\t// out\n        /* \"contract/Launchpad.sol\":15218:15336  function isGovernment(address account) public view returns (bool){... */\n    tag_109:\n        /* \"contract/Launchpad.sol\":15278:15282  bool */\n      0x00\n        /* \"contract/Launchpad.sol\":15300:15329  governments.contains(account) */\n      tag_437\n        /* \"contract/Launchpad.sol\":15300:15311  governments */\n      0x01\n        /* \"contract/Launchpad.sol\":15321:15328  account */\n      dup4\n        /* \"contract/Launchpad.sol\":15300:15320  governments.contains */\n      tag_438\n        /* \"contract/Launchpad.sol\":15300:15329  governments.contains(account) */\n      jump\t// in\n    tag_437:\n        /* \"contract/Launchpad.sol\":15293:15329  return governments.contains(account) */\n      swap3\n        /* \"contract/Launchpad.sol\":15218:15336  function isGovernment(address account) public view returns (bool){... */\n      swap2\n      pop\n      pop\n      jump\t// out\n        /* \"contract/Launchpad.sol\":25379:25517  function getBuyRecordByIndex(uint256 index) public view returns (BuyRecord memory) {... */\n    tag_115:\n        /* \"contract/Launchpad.sol\":25444:25460  BuyRecord memory */\n      tag_439\n      mload(0x40)\n      dup1\n      0x80\n      add\n      0x40\n      mstore\n      dup1\n      0x00\n      dup2\n      mstore\n      0x20\n      add\n      0x00\n      dup2\n      mstore\n      0x20\n      add\n      0x00\n      dup2\n      mstore\n      0x20\n      add\n      0x00\n      dup2\n      mstore\n      pop\n      swap1\n      jump\n    tag_439:\n        /* \"contract/Launchpad.sol\":25479:25490  mBuyRecords */\n      0x0b\n        /* \"contract/Launchpad.sol\":25479:25510  mBuyRecords[aryAccounts[index]] */\n      0x00\n        /* \"contract/Launchpad.sol\":25491:25502  aryAccounts */\n      0x0c\n        /* \"contract/Launchpad.sol\":25503:25508  index */\n      dup5\n        /* \"contract/Launchpad.sol\":25491:25509  aryAccounts[index] */\n      dup2\n      sload\n      dup2\n      lt\n      tag_442\n      jumpi\n      tag_442\n      tag_228\n      jump\t// in\n    tag_442:\n      0x00\n      swap2\n      dup3\n      mstore\n      0x20\n      dup1\n      dup4\n      keccak256\n      swap1\n      swap2\n      add\n      sload\n      sub(shl(0xa0, 0x01), 0x01)\n      and\n        /* \"contract/Launchpad.sol\":25479:25510  mBuyRecords[aryAccounts[index]] */\n      dup4\n      mstore\n      dup3\n      dup2\n      add\n      swap4\n      swap1\n      swap4\n      mstore\n      0x40\n      swap2\n      dup3\n      add\n      swap1\n      keccak256\n        /* \"contract/Launchpad.sol\":25472:25510  return mBuyRecords[aryAccounts[index]] */\n      dup2\n      mload\n      0x80\n      dup2\n      add\n      dup4\n      mstore\n      dup2\n      sload\n      dup2\n      mstore\n        /* \"contract/Launchpad.sol\":25491:25509  aryAccounts[index] */\n      0x01\n        /* \"contract/Launchpad.sol\":25472:25510  return mBuyRecords[aryAccounts[index]] */\n      dup3\n      add\n      sload\n      swap4\n      dup2\n      add\n      swap4\n      swap1\n      swap4\n      mstore\n      0x02\n      dup2\n      add\n      sload\n      swap2\n      dup4\n      add\n      swap2\n      swap1\n      swap2\n      mstore\n      0x03\n      add\n      sload\n      0x60\n      dup3\n      add\n      mstore\n      swap3\n        /* \"contract/Launchpad.sol\":25379:25517  function getBuyRecordByIndex(uint256 index) public view returns (BuyRecord memory) {... */\n      swap2\n      pop\n      pop\n      jump\t// out\n        /* \"contract/Launchpad.sol\":14332:14477  function renounceOwnership() public virtual onlyOwner {... */\n    tag_119:\n        /* \"contract/Launchpad.sol\":13746:13753  address */\n      0x00\n        /* \"contract/Launchpad.sol\":13772:13778  _owner */\n      sload\n      sub(shl(0xa0, 0x01), 0x01)\n      and\n        /* \"contract/Launchpad.sol\":929:939  msg.sender */\n      caller\n        /* \"contract/Launchpad.sol\":13912:13935  owner() == _msgSender() */\n      eq\n        /* \"contract/Launchpad.sol\":13904:13972  require(owner() == _msgSender(), \"Ownable: caller is not the owner\") */\n      tag_447\n      jumpi\n      mload(0x40)\n      shl(0xe5, 0x461bcd)\n      dup2\n      mstore\n      0x04\n      add\n      tag_261\n      swap1\n      tag_449\n      jump\t// in\n    tag_447:\n        /* \"contract/Launchpad.sol\":14438:14439  0 */\n      0x00\n        /* \"contract/Launchpad.sol\":14422:14428  _owner */\n      dup1\n      sload\n        /* \"contract/Launchpad.sol\":14401:14441  OwnershipTransferred(_owner, address(0)) */\n      mload(0x40)\n      sub(shl(0xa0, 0x01), 0x01)\n        /* \"contract/Launchpad.sol\":14422:14428  _owner */\n      swap1\n      swap2\n      and\n      swap1\n        /* \"contract/Launchpad.sol\":14401:14441  OwnershipTransferred(_owner, address(0)) */\n      0x8be0079c531659141344cd1fd0a4f28419497f9722a3daafe3b4186f6b6457e0\n      swap1\n        /* \"contract/Launchpad.sol\":14438:14439  0 */\n      dup4\n      swap1\n        /* \"contract/Launchpad.sol\":14401:14441  OwnershipTransferred(_owner, address(0)) */\n      log3\n        /* \"contract/Launchpad.sol\":14468:14469  0 */\n      0x00\n        /* \"contract/Launchpad.sol\":14451:14470  _owner = address(0) */\n      dup1\n      sload\n      not(sub(shl(0xa0, 0x01), 0x01))\n      and\n      swap1\n      sstore\n        /* \"contract/Launchpad.sol\":14332:14477  function renounceOwnership() public virtual onlyOwner {... */\n      jump\t// out\n        /* \"contract/Launchpad.sol\":34312:34412  function setClaimOpen(bool _claimOpen) public onlyController {... */\n    tag_124:\n        /* \"contract/Launchpad.sol\":13746:13753  address */\n      0x00\n        /* \"contract/Launchpad.sol\":13772:13778  _owner */\n      sload\n      sub(shl(0xa0, 0x01), 0x01)\n      and\n        /* \"contract/Launchpad.sol\":929:939  msg.sender */\n      caller\n        /* \"contract/Launchpad.sol\":15632:15655  _msgSender() == owner() */\n      eq\n      dup1\n        /* \"contract/Launchpad.sol\":15632:15685  _msgSender() == owner() || isGovernment(_msgSender()) */\n      tag_455\n      jumpi\n      pop\n        /* \"contract/Launchpad.sol\":15659:15685  isGovernment(_msgSender()) */\n      tag_455\n        /* \"contract/Launchpad.sol\":929:939  msg.sender */\n      caller\n        /* \"contract/Launchpad.sol\":15218:15336  function isGovernment(address account) public view returns (bool){... */\n      tag_109\n      jump\t// in\n        /* \"contract/Launchpad.sol\":15659:15685  isGovernment(_msgSender()) */\n    tag_455:\n        /* \"contract/Launchpad.sol\":15624:15727  require(_msgSender() == owner() || isGovernment(_msgSender()), \"Ownable: caller is not the controller\") */\n      tag_457\n      jumpi\n      mload(0x40)\n      shl(0xe5, 0x461bcd)\n      dup2\n      mstore\n      0x04\n      add\n      tag_261\n      swap1\n      tag_262\n      jump\t// in\n    tag_457:\n        /* \"contract/Launchpad.sol\":34383:34392  claimOpen */\n      0x16\n        /* \"contract/Launchpad.sol\":34383:34405  claimOpen = _claimOpen */\n      dup1\n      sload\n      not(0xff)\n      and\n      swap2\n      iszero\n      iszero\n      swap2\n      swap1\n      swap2\n      or\n      swap1\n      sstore\n        /* \"contract/Launchpad.sol\":34312:34412  function setClaimOpen(bool _claimOpen) public onlyController {... */\n      jump\t// out\n        /* \"contract/Launchpad.sol\":37528:37639  function checkSharingRules() public view returns (SharingRule[] memory) {... */\n    tag_131:\n        /* \"contract/Launchpad.sol\":37578:37598  SharingRule[] memory */\n      0x60\n        /* \"contract/Launchpad.sol\":37617:37632  arySharingRules */\n      0x13\n        /* \"contract/Launchpad.sol\":37610:37632  return arySharingRules */\n      dup1\n      sload\n      dup1\n      0x20\n      mul\n      0x20\n      add\n      mload(0x40)\n      swap1\n      dup2\n      add\n      0x40\n      mstore\n      dup1\n      swap3\n      swap2\n      swap1\n      dup2\n      dup2\n      mstore\n      0x20\n      add\n      0x00\n      swap1\n    tag_462:\n      dup3\n      dup3\n      lt\n      iszero\n      tag_463\n      jumpi\n      0x00\n      dup5\n      dup2\n      mstore\n      0x20\n      swap1\n      dup2\n      swap1\n      keccak256\n      0x40\n      dup1\n      mload\n      0x60\n      dup2\n      add\n      dup3\n      mstore\n      0x03\n      dup7\n      mul\n      swap1\n      swap3\n      add\n      dup1\n      sload\n      dup4\n      mstore\n      0x01\n      dup1\n      dup3\n      add\n      sload\n      sub(shl(0xa0, 0x01), 0x01)\n      and\n      dup5\n      dup7\n      add\n      mstore\n      0x02\n      swap1\n      swap2\n      add\n      sload\n      swap2\n      dup4\n      add\n      swap2\n      swap1\n      swap2\n      mstore\n      swap1\n      dup4\n      mstore\n      swap1\n      swap3\n      add\n      swap2\n      add\n      jump(tag_462)\n    tag_463:\n      pop\n      pop\n      pop\n      pop\n      swap1\n      pop\n        /* \"contract/Launchpad.sol\":37528:37639  function checkSharingRules() public view returns (SharingRule[] memory) {... */\n      swap1\n      jump\t// out\n        /* \"contract/Launchpad.sol\":14872:14976  function addGovernment(address government) public onlyOwner {... */\n    tag_137:\n        /* \"contract/Launchpad.sol\":13746:13753  address */\n      0x00\n        /* \"contract/Launchpad.sol\":13772:13778  _owner */\n      sload\n      sub(shl(0xa0, 0x01), 0x01)\n      and\n        /* \"contract/Launchpad.sol\":929:939  msg.sender */\n      caller\n        /* \"contract/Launchpad.sol\":13912:13935  owner() == _msgSender() */\n      eq\n        /* \"contract/Launchpad.sol\":13904:13972  require(owner() == _msgSender(), \"Ownable: caller is not the owner\") */\n      tag_468\n      jumpi\n      mload(0x40)\n      shl(0xe5, 0x461bcd)\n      dup2\n      mstore\n      0x04\n      add\n      tag_261\n      swap1\n      tag_449\n      jump\t// in\n    tag_468:\n        /* \"contract/Launchpad.sol\":14942:14969  governments.add(government) */\n      tag_471\n        /* \"contract/Launchpad.sol\":14942:14953  governments */\n      0x01\n        /* \"contract/Launchpad.sol\":14958:14968  government */\n      dup3\n        /* \"contract/Launchpad.sol\":14942:14957  governments.add */\n      tag_472\n        /* \"contract/Launchpad.sol\":14942:14969  governments.add(government) */\n      jump\t// in\n    tag_471:\n      pop\n        /* \"contract/Launchpad.sol\":14872:14976  function addGovernment(address government) public onlyOwner {... */\n      pop\n      jump\t// out\n        /* \"contract/Launchpad.sol\":15342:15447  function getGovernmentLength() public view returns (uint256) {... */\n    tag_145:\n        /* \"contract/Launchpad.sol\":15394:15401  uint256 */\n      0x00\n        /* \"contract/Launchpad.sol\":15420:15440  governments.length() */\n      tag_475\n        /* \"contract/Launchpad.sol\":15420:15431  governments */\n      0x01\n        /* \"contract/Launchpad.sol\":15420:15438  governments.length */\n      tag_476\n        /* \"contract/Launchpad.sol\":15420:15440  governments.length() */\n      jump\t// in\n    tag_475:\n        /* \"contract/Launchpad.sol\":15413:15440  return governments.length() */\n      swap1\n      pop\n        /* \"contract/Launchpad.sol\":15342:15447  function getGovernmentLength() public view returns (uint256) {... */\n      swap1\n      jump\t// out\n        /* \"contract/Launchpad.sol\":37645:37756  function resetEndTime(... */\n    tag_150:\n        /* \"contract/Launchpad.sol\":13746:13753  address */\n      0x00\n        /* \"contract/Launchpad.sol\":13772:13778  _owner */\n      sload\n      sub(shl(0xa0, 0x01), 0x01)\n      and\n        /* \"contract/Launchpad.sol\":929:939  msg.sender */\n      caller\n        /* \"contract/Launchpad.sol\":15632:15655  _msgSender() == owner() */\n      eq\n      dup1\n        /* \"contract/Launchpad.sol\":15632:15685  _msgSender() == owner() || isGovernment(_msgSender()) */\n      tag_481\n      jumpi\n      pop\n        /* \"contract/Launchpad.sol\":15659:15685  isGovernment(_msgSender()) */\n      tag_481\n        /* \"contract/Launchpad.sol\":929:939  msg.sender */\n      caller\n        /* \"contract/Launchpad.sol\":15218:15336  function isGovernment(address account) public view returns (bool){... */\n      tag_109\n      jump\t// in\n        /* \"contract/Launchpad.sol\":15659:15685  isGovernment(_msgSender()) */\n    tag_481:\n        /* \"contract/Launchpad.sol\":15624:15727  require(_msgSender() == owner() || isGovernment(_msgSender()), \"Ownable: caller is not the controller\") */\n      tag_483\n      jumpi\n      mload(0x40)\n      shl(0xe5, 0x461bcd)\n      dup2\n      mstore\n      0x04\n      add\n      tag_261\n      swap1\n      tag_262\n      jump\t// in\n    tag_483:\n        /* \"contract/Launchpad.sol\":37731:37738  endTime */\n      0x04\n        /* \"contract/Launchpad.sol\":37731:37749  endTime = _endTime */\n      sstore\n        /* \"contract/Launchpad.sol\":37645:37756  function resetEndTime(... */\n      jump\t// out\n        /* \"contract/Launchpad.sol\":32936:33056  function withdrawBNB(address account,uint256 amount) public onlyOwner {... */\n    tag_155:\n        /* \"contract/Launchpad.sol\":13746:13753  address */\n      0x00\n        /* \"contract/Launchpad.sol\":13772:13778  _owner */\n      sload\n      sub(shl(0xa0, 0x01), 0x01)\n      and\n        /* \"contract/Launchpad.sol\":929:939  msg.sender */\n      caller\n        /* \"contract/Launchpad.sol\":13912:13935  owner() == _msgSender() */\n      eq\n        /* \"contract/Launchpad.sol\":13904:13972  require(owner() == _msgSender(), \"Ownable: caller is not the owner\") */\n      tag_489\n      jumpi\n      mload(0x40)\n      shl(0xe5, 0x461bcd)\n      dup2\n      mstore\n      0x04\n      add\n      tag_261\n      swap1\n      tag_449\n      jump\t// in\n    tag_489:\n        /* \"contract/Launchpad.sol\":33016:33049  payable(account).transfer(amount) */\n      mload(0x40)\n      sub(shl(0xa0, 0x01), 0x01)\n        /* \"contract/Launchpad.sol\":33016:33041  payable(account).transfer */\n      dup4\n      and\n      swap1\n        /* \"contract/Launchpad.sol\":33016:33049  payable(account).transfer(amount) */\n      dup3\n      iszero\n      0x08fc\n      mul\n      swap1\n        /* \"contract/Launchpad.sol\":33042:33048  amount */\n      dup4\n      swap1\n        /* \"contract/Launchpad.sol\":33016:33049  payable(account).transfer(amount) */\n      0x00\n      dup2\n      dup2\n      dup2\n        /* \"contract/Launchpad.sol\":33042:33048  amount */\n      dup6\n        /* \"contract/Launchpad.sol\":33016:33041  payable(account).transfer */\n      dup9\n        /* \"contract/Launchpad.sol\":33016:33049  payable(account).transfer(amount) */\n      dup9\n      call\n      swap4\n      pop\n      pop\n      pop\n      pop\n      iszero\n      dup1\n      iszero\n      tag_403\n      jumpi\n      returndatasize\n      0x00\n      dup1\n      returndatacopy\n      revert(0x00, returndatasize)\n        /* \"contract/Launchpad.sol\":35613:36410  function setReleaseRules(... */\n    tag_164:\n        /* \"contract/Launchpad.sol\":13746:13753  address */\n      0x00\n        /* \"contract/Launchpad.sol\":13772:13778  _owner */\n      sload\n      sub(shl(0xa0, 0x01), 0x01)\n      and\n        /* \"contract/Launchpad.sol\":929:939  msg.sender */\n      caller\n        /* \"contract/Launchpad.sol\":15632:15655  _msgSender() == owner() */\n      eq\n      dup1\n        /* \"contract/Launchpad.sol\":15632:15685  _msgSender() == owner() || isGovernment(_msgSender()) */\n      tag_499\n      jumpi\n      pop\n        /* \"contract/Launchpad.sol\":15659:15685  isGovernment(_msgSender()) */\n      tag_499\n        /* \"contract/Launchpad.sol\":929:939  msg.sender */\n      caller\n        /* \"contract/Launchpad.sol\":15218:15336  function isGovernment(address account) public view returns (bool){... */\n      tag_109\n      jump\t// in\n        /* \"contract/Launchpad.sol\":15659:15685  isGovernment(_msgSender()) */\n    tag_499:\n        /* \"contract/Launchpad.sol\":15624:15727  require(_msgSender() == owner() || isGovernment(_msgSender()), \"Ownable: caller is not the controller\") */\n      tag_501\n      jumpi\n      mload(0x40)\n      shl(0xe5, 0x461bcd)\n      dup2\n      mstore\n      0x04\n      add\n      tag_261\n      swap1\n      tag_262\n      jump\t// in\n    tag_501:\n        /* \"contract/Launchpad.sol\":35757:35790  aryTime.length == aryRatio.length */\n      dup3\n      dup2\n      eq\n        /* \"contract/Launchpad.sol\":35749:35815  require(aryTime.length == aryRatio.length, \"length must be equal\") */\n      tag_504\n      jumpi\n      mload(0x40)\n      shl(0xe5, 0x461bcd)\n      dup2\n      mstore\n      0x04\n      add\n      tag_261\n      swap1\n      tag_324\n      jump\t// in\n    tag_504:\n        /* \"contract/Launchpad.sol\":35845:35852  aryTime */\n      dup3\n        /* \"contract/Launchpad.sol\":35825:35842  uint256 aryLength */\n      0x00\n      dup1\n        /* \"contract/Launchpad.sol\":35908:36013  for (uint256 idx = 0; idx < aryLength; idx++) {... */\n    tag_506:\n        /* \"contract/Launchpad.sol\":35936:35945  aryLength */\n      dup3\n        /* \"contract/Launchpad.sol\":35930:35933  idx */\n      dup2\n        /* \"contract/Launchpad.sol\":35930:35945  idx < aryLength */\n      lt\n        /* \"contract/Launchpad.sol\":35908:36013  for (uint256 idx = 0; idx < aryLength; idx++) {... */\n      iszero\n      tag_507\n      jumpi\n        /* \"contract/Launchpad.sol\":35989:35997  aryRatio */\n      dup5\n      dup5\n        /* \"contract/Launchpad.sol\":35998:36001  idx */\n      dup3\n        /* \"contract/Launchpad.sol\":35989:36002  aryRatio[idx] */\n      dup2\n      dup2\n      lt\n      tag_510\n      jumpi\n      tag_510\n      tag_228\n      jump\t// in\n    tag_510:\n      swap1\n      pop\n      0x20\n      mul\n      add\n      calldataload\n        /* \"contract/Launchpad.sol\":35968:36002  totalReleaseRatio += aryRatio[idx] */\n      dup3\n      tag_511\n      swap2\n      swap1\n      tag_232\n      jump\t// in\n    tag_511:\n      swap2\n      pop\n        /* \"contract/Launchpad.sol\":35947:35952  idx++ */\n      dup1\n      tag_512\n      dup2\n      tag_234\n      jump\t// in\n    tag_512:\n      swap2\n      pop\n      pop\n        /* \"contract/Launchpad.sol\":35908:36013  for (uint256 idx = 0; idx < aryLength; idx++) {... */\n      jump(tag_506)\n    tag_507:\n      pop\n        /* \"contract/Launchpad.sol\":36030:36047  totalReleaseRatio */\n      dup1\n        /* \"contract/Launchpad.sol\":36051:36055  1e18 */\n      0x0de0b6b3a7640000\n        /* \"contract/Launchpad.sol\":36030:36055  totalReleaseRatio == 1e18 */\n      eq\n        /* \"contract/Launchpad.sol\":36022:36093  require(totalReleaseRatio == 1e18, \"total ratio must be equal to 1e18\") */\n      tag_513\n      jumpi\n      mload(0x40)\n      shl(0xe5, 0x461bcd)\n      dup2\n      mstore\n      0x04\n      add\n      tag_261\n      swap1\n      tag_336\n      jump\t// in\n    tag_513:\n        /* \"contract/Launchpad.sol\":36103:36125  delete aryReleaseRules */\n      tag_515\n        /* \"contract/Launchpad.sol\":36110:36125  aryReleaseRules */\n      0x14\n      0x00\n        /* \"contract/Launchpad.sol\":36103:36125  delete aryReleaseRules */\n      tag_516\n      jump\t// in\n    tag_515:\n        /* \"contract/Launchpad.sol\":36140:36151  uint256 idx */\n      0x00\n        /* \"contract/Launchpad.sol\":36135:36404  for (uint256 idx = 0; idx < aryLength; idx++) {... */\n    tag_517:\n        /* \"contract/Launchpad.sol\":36163:36172  aryLength */\n      dup3\n        /* \"contract/Launchpad.sol\":36157:36160  idx */\n      dup2\n        /* \"contract/Launchpad.sol\":36157:36172  idx < aryLength */\n      lt\n        /* \"contract/Launchpad.sol\":36135:36404  for (uint256 idx = 0; idx < aryLength; idx++) {... */\n      iszero\n      tag_518\n      jumpi\n        /* \"contract/Launchpad.sol\":36195:36219  ReleaseRule memory _rule */\n      0x00\n        /* \"contract/Launchpad.sol\":36222:36352  ReleaseRule ({... */\n      mload(0x40)\n      dup1\n      0x40\n      add\n      0x40\n      mstore\n      dup1\n        /* \"contract/Launchpad.sol\":36265:36272  aryTime */\n      dup10\n      dup10\n        /* \"contract/Launchpad.sol\":36273:36276  idx */\n      dup6\n        /* \"contract/Launchpad.sol\":36265:36277  aryTime[idx] */\n      dup2\n      dup2\n      lt\n      tag_521\n      jumpi\n      tag_521\n      tag_228\n      jump\t// in\n    tag_521:\n      swap1\n      pop\n      0x20\n      mul\n      add\n      calldataload\n        /* \"contract/Launchpad.sol\":36222:36352  ReleaseRule ({... */\n      dup2\n      mstore\n      0x20\n      add\n        /* \"contract/Launchpad.sol\":36307:36315  aryRatio */\n      dup8\n      dup8\n        /* \"contract/Launchpad.sol\":36316:36319  idx */\n      dup6\n        /* \"contract/Launchpad.sol\":36307:36320  aryRatio[idx] */\n      dup2\n      dup2\n      lt\n      tag_523\n      jumpi\n      tag_523\n      tag_228\n      jump\t// in\n    tag_523:\n      0x20\n      swap1\n      dup2\n      mul\n      swap3\n      swap1\n      swap3\n      add\n      calldataload\n        /* \"contract/Launchpad.sol\":36222:36352  ReleaseRule ({... */\n      swap1\n      swap3\n      mstore\n        /* \"contract/Launchpad.sol\":36366:36381  aryReleaseRules */\n      0x14\n        /* \"contract/Launchpad.sol\":36366:36393  aryReleaseRules.push(_rule) */\n      dup1\n      sload\n      0x01\n      dup2\n      add\n      dup3\n      sstore\n      0x00\n      swap2\n      swap1\n      swap2\n      mstore\n      dup4\n      mload\n      0xce6d7b5282bd9a3661ae061feed1dbda4e52ab073b1f9285be6e155d9c38d4ec\n      0x02\n      swap1\n      swap3\n      mul\n      swap2\n      dup3\n      add\n      sstore\n      swap3\n      add\n      mload\n      0xce6d7b5282bd9a3661ae061feed1dbda4e52ab073b1f9285be6e155d9c38d4ed\n      swap1\n      swap3\n      add\n      swap2\n      swap1\n      swap2\n      sstore\n      pop\n        /* \"contract/Launchpad.sol\":36174:36179  idx++ */\n      dup2\n      swap1\n      pop\n      tag_525\n      dup2\n      tag_234\n      jump\t// in\n    tag_525:\n      swap2\n      pop\n      pop\n        /* \"contract/Launchpad.sol\":36135:36404  for (uint256 idx = 0; idx < aryLength; idx++) {... */\n      jump(tag_517)\n    tag_518:\n      pop\n        /* \"contract/Launchpad.sol\":35739:36410  {... */\n      pop\n      pop\n        /* \"contract/Launchpad.sol\":35613:36410  function setReleaseRules(... */\n      pop\n      pop\n      pop\n      pop\n      jump\t// out\n        /* \"contract/Launchpad.sol\":36416:36527  function checkReleaseRules() public view returns (ReleaseRule[] memory) {... */\n    tag_167:\n        /* \"contract/Launchpad.sol\":36466:36486  ReleaseRule[] memory */\n      0x60\n        /* \"contract/Launchpad.sol\":36505:36520  aryReleaseRules */\n      0x14\n        /* \"contract/Launchpad.sol\":36498:36520  return aryReleaseRules */\n      dup1\n      sload\n      dup1\n      0x20\n      mul\n      0x20\n      add\n      mload(0x40)\n      swap1\n      dup2\n      add\n      0x40\n      mstore\n      dup1\n      swap3\n      swap2\n      swap1\n      dup2\n      dup2\n      mstore\n      0x20\n      add\n      0x00\n      swap1\n    tag_527:\n      dup3\n      dup3\n      lt\n      iszero\n      tag_463\n      jumpi\n      dup4\n      dup3\n      swap1\n      0x00\n      mstore\n      keccak256(0x00, 0x20)\n      swap1\n      0x02\n      mul\n      add\n      mload(0x40)\n      dup1\n      0x40\n      add\n      0x40\n      mstore\n      swap1\n      dup2\n      0x00\n      dup3\n      add\n      sload\n      dup2\n      mstore\n      0x20\n      add\n      0x01\n      dup3\n      add\n      sload\n      dup2\n      mstore\n      pop\n      pop\n      dup2\n      mstore\n      0x20\n      add\n      swap1\n      0x01\n      add\n      swap1\n      jump(tag_527)\n        /* \"contract/Launchpad.sol\":35194:35407  function setWhiteListInfo(... */\n    tag_173:\n        /* \"contract/Launchpad.sol\":13746:13753  address */\n      0x00\n        /* \"contract/Launchpad.sol\":13772:13778  _owner */\n      sload\n      sub(shl(0xa0, 0x01), 0x01)\n      and\n        /* \"contract/Launchpad.sol\":929:939  msg.sender */\n      caller\n        /* \"contract/Launchpad.sol\":15632:15655  _msgSender() == owner() */\n      eq\n      dup1\n        /* \"contract/Launchpad.sol\":15632:15685  _msgSender() == owner() || isGovernment(_msgSender()) */\n      tag_534\n      jumpi\n      pop\n        /* \"contract/Launchpad.sol\":15659:15685  isGovernment(_msgSender()) */\n      tag_534\n        /* \"contract/Launchpad.sol\":929:939  msg.sender */\n      caller\n        /* \"contract/Launchpad.sol\":15218:15336  function isGovernment(address account) public view returns (bool){... */\n      tag_109\n      jump\t// in\n        /* \"contract/Launchpad.sol\":15659:15685  isGovernment(_msgSender()) */\n    tag_534:\n        /* \"contract/Launchpad.sol\":15624:15727  require(_msgSender() == owner() || isGovernment(_msgSender()), \"Ownable: caller is not the controller\") */\n      tag_536\n      jumpi\n      mload(0x40)\n      shl(0xe5, 0x461bcd)\n      dup2\n      mstore\n      0x04\n      add\n      tag_261\n      swap1\n      tag_262\n      jump\t// in\n    tag_536:\n        /* \"contract/Launchpad.sol\":35321:35338  whiteListContract */\n      0x12\n        /* \"contract/Launchpad.sol\":35321:35357  whiteListContract = _contractAddress */\n      dup1\n      sload\n      not(sub(shl(0xa0, 0x01), 0x01))\n      and\n      sub(shl(0xa0, 0x01), 0x01)\n      swap4\n      swap1\n      swap4\n      and\n      swap3\n      swap1\n      swap3\n      or\n      swap1\n      swap2\n      sstore\n        /* \"contract/Launchpad.sol\":35367:35386  whiteListExpireTime */\n      0x11\n        /* \"contract/Launchpad.sol\":35367:35400  whiteListExpireTime = _expireTime */\n      sstore\n        /* \"contract/Launchpad.sol\":35194:35407  function setWhiteListInfo(... */\n      jump\t// out\n        /* \"contract/Launchpad.sol\":15099:15212  function getGovernment(uint256 index) public view returns (address) {... */\n    tag_177:\n        /* \"contract/Launchpad.sol\":15158:15165  address */\n      0x00\n        /* \"contract/Launchpad.sol\":15184:15205  governments.at(index) */\n      tag_437\n        /* \"contract/Launchpad.sol\":15184:15195  governments */\n      0x01\n        /* \"contract/Launchpad.sol\":15199:15204  index */\n      dup4\n        /* \"contract/Launchpad.sol\":15184:15198  governments.at */\n      tag_541\n        /* \"contract/Launchpad.sol\":15184:15205  governments.at(index) */\n      jump\t// in\n        /* \"contract/Launchpad.sol\":34961:35055  function checkTxnLimit() public view returns (TxnLimit memory){... */\n    tag_181:\n        /* \"contract/Launchpad.sol\":35007:35022  TxnLimit memory */\n      tag_542\n      mload(0x40)\n      dup1\n      0x60\n      add\n      0x40\n      mstore\n      dup1\n      0x00\n      dup2\n      mstore\n      0x20\n      add\n      0x00\n      dup2\n      mstore\n      0x20\n      add\n      0x00\n      dup2\n      mstore\n      pop\n      swap1\n      jump\n    tag_542:\n      pop\n        /* \"contract/Launchpad.sol\":35033:35048  return buyLimit */\n      0x40\n      dup1\n      mload\n      0x60\n      dup2\n      add\n      dup3\n      mstore\n        /* \"contract/Launchpad.sol\":35040:35048  buyLimit */\n      0x0e\n        /* \"contract/Launchpad.sol\":35033:35048  return buyLimit */\n      sload\n      dup2\n      mstore\n      sload(0x0f)\n      0x20\n      dup3\n      add\n      mstore\n      sload(0x10)\n      swap2\n      dup2\n      add\n      swap2\n      swap1\n      swap2\n      mstore\n      swap1\n        /* \"contract/Launchpad.sol\":34961:35055  function checkTxnLimit() public view returns (TxnLimit memory){... */\n      jump\t// out\n        /* \"contract/Launchpad.sol\":35061:35188  function setSeniorWhiteList(address _seniorWhiteList) public onlyController {... */\n    tag_187:\n        /* \"contract/Launchpad.sol\":13746:13753  address */\n      0x00\n        /* \"contract/Launchpad.sol\":13772:13778  _owner */\n      sload\n      sub(shl(0xa0, 0x01), 0x01)\n      and\n        /* \"contract/Launchpad.sol\":929:939  msg.sender */\n      caller\n        /* \"contract/Launchpad.sol\":15632:15655  _msgSender() == owner() */\n      eq\n      dup1\n        /* \"contract/Launchpad.sol\":15632:15685  _msgSender() == owner() || isGovernment(_msgSender()) */\n      tag_549\n      jumpi\n      pop\n        /* \"contract/Launchpad.sol\":15659:15685  isGovernment(_msgSender()) */\n      tag_549\n        /* \"contract/Launchpad.sol\":929:939  msg.sender */\n      caller\n        /* \"contract/Launchpad.sol\":15218:15336  function isGovernment(address account) public view returns (bool){... */\n      tag_109\n      jump\t// in\n        /* \"contract/Launchpad.sol\":15659:15685  isGovernment(_msgSender()) */\n    tag_549:\n        /* \"contract/Launchpad.sol\":15624:15727  require(_msgSender() == owner() || isGovernment(_msgSender()), \"Ownable: caller is not the controller\") */\n      tag_551\n      jumpi\n      mload(0x40)\n      shl(0xe5, 0x461bcd)\n      dup2\n      mstore\n      0x04\n      add\n      tag_261\n      swap1\n      tag_262\n      jump\t// in\n    tag_551:\n        /* \"contract/Launchpad.sol\":35147:35162  seniorWhiteList */\n      0x16\n        /* \"contract/Launchpad.sol\":35147:35181  seniorWhiteList = _seniorWhiteList */\n      dup1\n      sload\n      sub(shl(0xa0, 0x01), 0x01)\n      swap1\n      swap3\n      and\n      0x0100\n      mul\n      not(sub(shl(0xa8, 0x01), 0x0100))\n      swap1\n      swap3\n      and\n      swap2\n      swap1\n      swap2\n      or\n      swap1\n      sstore\n        /* \"contract/Launchpad.sol\":35061:35188  function setSeniorWhiteList(address _seniorWhiteList) public onlyController {... */\n      jump\t// out\n        /* \"contract/Launchpad.sol\":14982:15093  function deletedGovernment(address government) public onlyOwner {... */\n    tag_191:\n        /* \"contract/Launchpad.sol\":13746:13753  address */\n      0x00\n        /* \"contract/Launchpad.sol\":13772:13778  _owner */\n      sload\n      sub(shl(0xa0, 0x01), 0x01)\n      and\n        /* \"contract/Launchpad.sol\":929:939  msg.sender */\n      caller\n        /* \"contract/Launchpad.sol\":13912:13935  owner() == _msgSender() */\n      eq\n        /* \"contract/Launchpad.sol\":13904:13972  require(owner() == _msgSender(), \"Ownable: caller is not the owner\") */\n      tag_557\n      jumpi\n      mload(0x40)\n      shl(0xe5, 0x461bcd)\n      dup2\n      mstore\n      0x04\n      add\n      tag_261\n      swap1\n      tag_449\n      jump\t// in\n    tag_557:\n        /* \"contract/Launchpad.sol\":15056:15086  governments.remove(government) */\n      tag_471\n        /* \"contract/Launchpad.sol\":15056:15067  governments */\n      0x01\n        /* \"contract/Launchpad.sol\":15075:15085  government */\n      dup3\n        /* \"contract/Launchpad.sol\":15056:15074  governments.remove */\n      tag_561\n        /* \"contract/Launchpad.sol\":15056:15086  governments.remove(government) */\n      jump\t// in\n        /* \"contract/Launchpad.sol\":32779:32930  function withdraw(address tokenAddress, address account,uint256 amount) public onlyOwner {... */\n    tag_196:\n        /* \"contract/Launchpad.sol\":13746:13753  address */\n      0x00\n        /* \"contract/Launchpad.sol\":13772:13778  _owner */\n      sload\n      sub(shl(0xa0, 0x01), 0x01)\n      and\n        /* \"contract/Launchpad.sol\":929:939  msg.sender */\n      caller\n        /* \"contract/Launchpad.sol\":13912:13935  owner() == _msgSender() */\n      eq\n        /* \"contract/Launchpad.sol\":13904:13972  require(owner() == _msgSender(), \"Ownable: caller is not the owner\") */\n      tag_565\n      jumpi\n      mload(0x40)\n      shl(0xe5, 0x461bcd)\n      dup2\n      mstore\n      0x04\n      add\n      tag_261\n      swap1\n      tag_449\n      jump\t// in\n    tag_565:\n        /* \"contract/Launchpad.sol\":32878:32923  IERC20(tokenAddress).transfer(account,amount) */\n      mload(0x40)\n      shl(0xe0, 0xa9059cbb)\n      dup2\n      mstore\n      sub(shl(0xa0, 0x01), 0x01)\n        /* \"#utility.yul\":757:789   */\n      dup4\n      dup2\n      and\n        /* \"contract/Launchpad.sol\":32878:32923  IERC20(tokenAddress).transfer(account,amount) */\n      0x04\n      dup4\n      add\n        /* \"#utility.yul\":739:790   */\n      mstore\n        /* \"#utility.yul\":806:824   */\n      0x24\n      dup3\n      add\n        /* \"#utility.yul\":799:833   */\n      dup4\n      swap1\n      mstore\n        /* \"contract/Launchpad.sol\":32878:32907  IERC20(tokenAddress).transfer */\n      dup5\n      and\n      swap1\n      0xa9059cbb\n      swap1\n        /* \"#utility.yul\":712:730   */\n      0x44\n      add\n        /* \"contract/Launchpad.sol\":32878:32923  IERC20(tokenAddress).transfer(account,amount) */\n      0x20\n      mload(0x40)\n      dup1\n      dup4\n      sub\n      dup2\n      0x00\n      dup8\n      dup1\n      extcodesize\n      iszero\n      dup1\n      iszero\n      tag_569\n      jumpi\n      0x00\n      dup1\n      revert\n    tag_569:\n      pop\n      gas\n      call\n      iszero\n      dup1\n      iszero\n      tag_571\n      jumpi\n      returndatasize\n      0x00\n      dup1\n      returndatacopy\n      revert(0x00, returndatasize)\n    tag_571:\n      pop\n      pop\n      pop\n      pop\n      mload(0x40)\n      returndatasize\n      not(0x1f)\n      0x1f\n      dup3\n      add\n      and\n      dup3\n      add\n      dup1\n      0x40\n      mstore\n      pop\n      dup2\n      add\n      swap1\n      tag_572\n      swap2\n      swap1\n      tag_299\n      jump\t// in\n    tag_572:\n      pop\n        /* \"contract/Launchpad.sol\":32779:32930  function withdraw(address tokenAddress, address account,uint256 amount) public onlyOwner {... */\n      pop\n      pop\n      pop\n      jump\t// out\n        /* \"contract/Launchpad.sol\":29459:31528  function clearAll() public onlyController {... */\n    tag_203:\n        /* \"contract/Launchpad.sol\":13746:13753  address */\n      0x00\n        /* \"contract/Launchpad.sol\":13772:13778  _owner */\n      sload\n      sub(shl(0xa0, 0x01), 0x01)\n      and\n        /* \"contract/Launchpad.sol\":929:939  msg.sender */\n      caller\n        /* \"contract/Launchpad.sol\":15632:15655  _msgSender() == owner() */\n      eq\n      dup1\n        /* \"contract/Launchpad.sol\":15632:15685  _msgSender() == owner() || isGovernment(_msgSender()) */\n      tag_578\n      jumpi\n      pop\n        /* \"contract/Launchpad.sol\":15659:15685  isGovernment(_msgSender()) */\n      tag_578\n        /* \"contract/Launchpad.sol\":929:939  msg.sender */\n      caller\n        /* \"contract/Launchpad.sol\":15218:15336  function isGovernment(address account) public view returns (bool){... */\n      tag_109\n      jump\t// in\n        /* \"contract/Launchpad.sol\":15659:15685  isGovernment(_msgSender()) */\n    tag_578:\n        /* \"contract/Launchpad.sol\":15624:15727  require(_msgSender() == owner() || isGovernment(_msgSender()), \"Ownable: caller is not the controller\") */\n      tag_580\n      jumpi\n      mload(0x40)\n      shl(0xe5, 0x461bcd)\n      dup2\n      mstore\n      0x04\n      add\n      tag_261\n      swap1\n      tag_262\n      jump\t// in\n    tag_580:\n        /* \"contract/Launchpad.sol\":29537:29544  endTime */\n      sload(0x04)\n        /* \"contract/Launchpad.sol\":29519:29534  block.timestamp */\n      timestamp\n        /* \"contract/Launchpad.sol\":29519:29544  block.timestamp > endTime */\n      gt\n        /* \"contract/Launchpad.sol\":29511:29569  require(block.timestamp > endTime, \"this pool is not end\") */\n      tag_583\n      jumpi\n      mload(0x40)\n      shl(0xe5, 0x461bcd)\n      dup2\n      mstore\n      0x04\n      add\n      tag_261\n      swap1\n      tag_266\n      jump\t// in\n    tag_583:\n        /* \"contract/Launchpad.sol\":29587:29602  arySharingRules */\n      0x13\n        /* \"contract/Launchpad.sol\":29587:29609  arySharingRules.length */\n      sload\n        /* \"contract/Launchpad.sol\":29579:29650  require(arySharingRules.length > 0, \"sharing rules must be configured\") */\n      tag_585\n      jumpi\n      mload(0x40)\n      shl(0xe5, 0x461bcd)\n      dup2\n      mstore\n        /* \"#utility.yul\":12502:12504   */\n      0x20\n        /* \"contract/Launchpad.sol\":29579:29650  require(arySharingRules.length > 0, \"sharing rules must be configured\") */\n      0x04\n      dup3\n      add\n        /* \"#utility.yul\":12484:12505   */\n      dup2\n      swap1\n      mstore\n        /* \"#utility.yul\":12521:12539   */\n      0x24\n      dup3\n      add\n        /* \"#utility.yul\":12514:12544   */\n      mstore\n        /* \"#utility.yul\":12580:12614   */\n      0x73686172696e672072756c6573206d75737420626520636f6e66696775726564\n        /* \"#utility.yul\":12560:12578   */\n      0x44\n      dup3\n      add\n        /* \"#utility.yul\":12553:12615   */\n      mstore\n        /* \"#utility.yul\":12632:12650   */\n      0x64\n      add\n        /* \"contract/Launchpad.sol\":29579:29650  require(arySharingRules.length > 0, \"sharing rules must be configured\") */\n      tag_261\n        /* \"#utility.yul\":12300:12656   */\n      jump\n        /* \"contract/Launchpad.sol\":29579:29650  require(arySharingRules.length > 0, \"sharing rules must be configured\") */\n    tag_585:\n        /* \"contract/Launchpad.sol\":29692:29707  IDOTokenAddress */\n      sload(0x06)\n        /* \"contract/Launchpad.sol\":29685:29733  IERC20(IDOTokenAddress).balanceOf(address(this)) */\n      mload(0x40)\n      shl(0xe0, 0x70a08231)\n      dup2\n      mstore\n        /* \"contract/Launchpad.sol\":29727:29731  this */\n      address\n        /* \"contract/Launchpad.sol\":29685:29733  IERC20(IDOTokenAddress).balanceOf(address(this)) */\n      0x04\n      dup3\n      add\n        /* \"#utility.yul\":5450:5501   */\n      mstore\n        /* \"contract/Launchpad.sol\":29660:29682  uint256 surplusRewards */\n      0x00\n      swap2\n      sub(shl(0xa0, 0x01), 0x01)\n        /* \"contract/Launchpad.sol\":29692:29707  IDOTokenAddress */\n      and\n      swap1\n        /* \"contract/Launchpad.sol\":29685:29718  IERC20(IDOTokenAddress).balanceOf */\n      0x70a08231\n      swap1\n        /* \"#utility.yul\":5423:5441   */\n      0x24\n      add\n        /* \"contract/Launchpad.sol\":29685:29733  IERC20(IDOTokenAddress).balanceOf(address(this)) */\n      0x20\n      mload(0x40)\n      dup1\n      dup4\n      sub\n      dup2\n      dup7\n      dup1\n      extcodesize\n      iszero\n      dup1\n      iszero\n      tag_588\n      jumpi\n      0x00\n      dup1\n      revert\n    tag_588:\n      pop\n      gas\n      staticcall\n      iszero\n      dup1\n      iszero\n      tag_590\n      jumpi\n      returndatasize\n      0x00\n      dup1\n      returndatacopy\n      revert(0x00, returndatasize)\n    tag_590:\n      pop\n      pop\n      pop\n      pop\n      mload(0x40)\n      returndatasize\n      not(0x1f)\n      0x1f\n      dup3\n      add\n      and\n      dup3\n      add\n      dup1\n      0x40\n      mstore\n      pop\n      dup2\n      add\n      swap1\n      tag_591\n      swap2\n      swap1\n      tag_219\n      jump\t// in\n    tag_591:\n        /* \"contract/Launchpad.sol\":29778:29793  txnTokenAddress */\n      sload(0x07)\n        /* \"contract/Launchpad.sol\":29660:29733  uint256 surplusRewards = IERC20(IDOTokenAddress).balanceOf(address(this)) */\n      swap1\n      swap2\n      pop\n        /* \"contract/Launchpad.sol\":29743:29765  uint256 totalTxnAmount */\n      0x00\n      swap1\n      sub(shl(0xa0, 0x01), 0x01)\n        /* \"contract/Launchpad.sol\":29778:29793  txnTokenAddress */\n      and\n        /* \"contract/Launchpad.sol\":29775:29965  if(txnTokenAddress == address(0)){... */\n      tag_592\n      jumpi\n      pop\n        /* \"contract/Launchpad.sol\":29839:29860  address(this).balance */\n      selfbalance\n        /* \"contract/Launchpad.sol\":29775:29965  if(txnTokenAddress == address(0)){... */\n      jump(tag_593)\n    tag_592:\n        /* \"contract/Launchpad.sol\":29913:29928  txnTokenAddress */\n      sload(0x07)\n        /* \"contract/Launchpad.sol\":29906:29954  IERC20(txnTokenAddress).balanceOf(address(this)) */\n      mload(0x40)\n      shl(0xe0, 0x70a08231)\n      dup2\n      mstore\n        /* \"contract/Launchpad.sol\":29948:29952  this */\n      address\n        /* \"contract/Launchpad.sol\":29906:29954  IERC20(txnTokenAddress).balanceOf(address(this)) */\n      0x04\n      dup3\n      add\n        /* \"#utility.yul\":5450:5501   */\n      mstore\n      sub(shl(0xa0, 0x01), 0x01)\n        /* \"contract/Launchpad.sol\":29913:29928  txnTokenAddress */\n      swap1\n      swap2\n      and\n      swap1\n        /* \"contract/Launchpad.sol\":29906:29939  IERC20(txnTokenAddress).balanceOf */\n      0x70a08231\n      swap1\n        /* \"#utility.yul\":5423:5441   */\n      0x24\n      add\n        /* \"contract/Launchpad.sol\":29906:29954  IERC20(txnTokenAddress).balanceOf(address(this)) */\n      0x20\n      mload(0x40)\n      dup1\n      dup4\n      sub\n      dup2\n      dup7\n      dup1\n      extcodesize\n      iszero\n      dup1\n      iszero\n      tag_595\n      jumpi\n      0x00\n      dup1\n      revert\n    tag_595:\n      pop\n      gas\n      staticcall\n      iszero\n      dup1\n      iszero\n      tag_597\n      jumpi\n      returndatasize\n      0x00\n      dup1\n      returndatacopy\n      revert(0x00, returndatasize)\n    tag_597:\n      pop\n      pop\n      pop\n      pop\n      mload(0x40)\n      returndatasize\n      not(0x1f)\n      0x1f\n      dup3\n      add\n      and\n      dup3\n      add\n      dup1\n      0x40\n      mstore\n      pop\n      dup2\n      add\n      swap1\n      tag_598\n      swap2\n      swap1\n      tag_219\n      jump\t// in\n    tag_598:\n        /* \"contract/Launchpad.sol\":29889:29954  totalTxnAmount = IERC20(txnTokenAddress).balanceOf(address(this)) */\n      swap1\n      pop\n        /* \"contract/Launchpad.sol\":29775:29965  if(txnTokenAddress == address(0)){... */\n    tag_593:\n        /* \"contract/Launchpad.sol\":29995:30002  softCap */\n      sload(0x0a)\n        /* \"contract/Launchpad.sol\":29978:29992  totalTxnAmount */\n      dup2\n        /* \"contract/Launchpad.sol\":29978:30002  totalTxnAmount < softCap */\n      lt\n        /* \"contract/Launchpad.sol\":29974:31522  if (totalTxnAmount < softCap) {... */\n      iszero\n      tag_599\n      jumpi\n        /* \"contract/Launchpad.sol\":30023:30034  uint256 idx */\n      0x00\n        /* \"contract/Launchpad.sol\":30018:30405  for (uint256 idx = 0; idx < arySharingRules.length; idx++) {... */\n    tag_600:\n        /* \"contract/Launchpad.sol\":30046:30061  arySharingRules */\n      0x13\n        /* \"contract/Launchpad.sol\":30046:30068  arySharingRules.length */\n      sload\n        /* \"contract/Launchpad.sol\":30040:30068  idx < arySharingRules.length */\n      dup2\n      lt\n        /* \"contract/Launchpad.sol\":30018:30405  for (uint256 idx = 0; idx < arySharingRules.length; idx++) {... */\n      iszero\n      tag_403\n      jumpi\n        /* \"contract/Launchpad.sol\":30095:30118  SharingRule memory rule */\n      0x00\n        /* \"contract/Launchpad.sol\":30121:30136  arySharingRules */\n      0x13\n        /* \"contract/Launchpad.sol\":30137:30140  idx */\n      dup3\n        /* \"contract/Launchpad.sol\":30121:30141  arySharingRules[idx] */\n      dup2\n      sload\n      dup2\n      lt\n      tag_604\n      jumpi\n      tag_604\n      tag_228\n      jump\t// in\n    tag_604:\n      0x00\n      swap2\n      dup3\n      mstore\n      0x20\n      swap2\n      dup3\n      swap1\n      keccak256\n        /* \"contract/Launchpad.sol\":30095:30141  SharingRule memory rule = arySharingRules[idx] */\n      0x40\n      dup1\n      mload\n      0x60\n      dup2\n      add\n      dup3\n      mstore\n        /* \"contract/Launchpad.sol\":30121:30141  arySharingRules[idx] */\n      0x03\n      swap1\n      swap4\n      mul\n      swap1\n      swap2\n      add\n        /* \"contract/Launchpad.sol\":30095:30141  SharingRule memory rule = arySharingRules[idx] */\n      dup1\n      sload\n      dup4\n      mstore\n      0x01\n      dup2\n      add\n      sload\n      sub(shl(0xa0, 0x01), 0x01)\n      and\n      swap4\n      dup4\n      add\n      swap4\n      swap1\n      swap4\n      mstore\n      0x02\n      swap1\n      swap3\n      add\n      sload\n      swap2\n      dup2\n      add\n      swap2\n      swap1\n      swap2\n      mstore\n        /* \"contract/Launchpad.sol\":30185:30196  totalSupply */\n      sload(0x05)\n        /* \"contract/Launchpad.sol\":30095:30141  SharingRule memory rule = arySharingRules[idx] */\n      swap1\n      swap2\n      pop\n        /* \"contract/Launchpad.sol\":30176:30213  Math.min(totalSupply, surplusRewards) */\n      tag_606\n      swap1\n        /* \"contract/Launchpad.sol\":30198:30212  surplusRewards */\n      dup6\n        /* \"contract/Launchpad.sol\":30176:30184  Math.min */\n      tag_248\n        /* \"contract/Launchpad.sol\":30176:30213  Math.min(totalSupply, surplusRewards) */\n      jump\t// in\n    tag_606:\n        /* \"contract/Launchpad.sol\":30235:30245  rule.iType */\n      dup2\n      mload\n        /* \"contract/Launchpad.sol\":30159:30213  surplusRewards = Math.min(totalSupply, surplusRewards) */\n      swap1\n      swap5\n      pop\n        /* \"contract/Launchpad.sol\":30249:30250  1 */\n      0x01\n        /* \"contract/Launchpad.sol\":30235:30250  rule.iType == 1 */\n      eq\n        /* \"contract/Launchpad.sol\":30235:30272  rule.iType == 1 && surplusRewards > 0 */\n      dup1\n      iszero\n      tag_607\n      jumpi\n      pop\n        /* \"contract/Launchpad.sol\":30271:30272  0 */\n      0x00\n        /* \"contract/Launchpad.sol\":30254:30268  surplusRewards */\n      dup5\n        /* \"contract/Launchpad.sol\":30254:30272  surplusRewards > 0 */\n      gt\n        /* \"contract/Launchpad.sol\":30235:30272  rule.iType == 1 && surplusRewards > 0 */\n    tag_607:\n        /* \"contract/Launchpad.sol\":30231:30391  if (rule.iType == 1 && surplusRewards > 0) {... */\n      iszero\n      tag_614\n      jumpi\n        /* \"contract/Launchpad.sol\":30311:30326  IDOTokenAddress */\n      sload(0x06)\n        /* \"contract/Launchpad.sol\":30337:30354  rule.clearAddress */\n      0x20\n      dup3\n      add\n      mload\n        /* \"contract/Launchpad.sol\":30304:30371  IERC20(IDOTokenAddress).transfer(rule.clearAddress, surplusRewards) */\n      mload(0x40)\n      shl(0xe0, 0xa9059cbb)\n      dup2\n      mstore\n      sub(shl(0xa0, 0x01), 0x01)\n        /* \"#utility.yul\":757:789   */\n      swap2\n      dup3\n      and\n        /* \"contract/Launchpad.sol\":30304:30371  IERC20(IDOTokenAddress).transfer(rule.clearAddress, surplusRewards) */\n      0x04\n      dup3\n      add\n        /* \"#utility.yul\":739:790   */\n      mstore\n        /* \"#utility.yul\":806:824   */\n      0x24\n      dup2\n      add\n        /* \"#utility.yul\":799:833   */\n      dup8\n      swap1\n      mstore\n        /* \"contract/Launchpad.sol\":30311:30326  IDOTokenAddress */\n      swap2\n      and\n      swap1\n        /* \"contract/Launchpad.sol\":30304:30336  IERC20(IDOTokenAddress).transfer */\n      0xa9059cbb\n      swap1\n        /* \"#utility.yul\":712:730   */\n      0x44\n      add\n        /* \"contract/Launchpad.sol\":30304:30371  IERC20(IDOTokenAddress).transfer(rule.clearAddress, surplusRewards) */\n      0x20\n      mload(0x40)\n      dup1\n      dup4\n      sub\n      dup2\n      0x00\n      dup8\n      dup1\n      extcodesize\n      iszero\n      dup1\n      iszero\n      tag_610\n      jumpi\n      0x00\n      dup1\n      revert\n    tag_610:\n      pop\n      gas\n      call\n      iszero\n      dup1\n      iszero\n      tag_612\n      jumpi\n      returndatasize\n      0x00\n      dup1\n      returndatacopy\n      revert(0x00, returndatasize)\n    tag_612:\n      pop\n      pop\n      pop\n      pop\n      mload(0x40)\n      returndatasize\n      not(0x1f)\n      0x1f\n      dup3\n      add\n      and\n      dup3\n      add\n      dup1\n      0x40\n      mstore\n      pop\n      dup2\n      add\n      swap1\n      tag_613\n      swap2\n      swap1\n      tag_299\n      jump\t// in\n    tag_613:\n        /* \"contract/Launchpad.sol\":30296:30372  require(IERC20(IDOTokenAddress).transfer(rule.clearAddress, surplusRewards)) */\n      tag_614\n      jumpi\n      0x00\n      dup1\n      revert\n    tag_614:\n      pop\n        /* \"contract/Launchpad.sol\":30070:30075  idx++ */\n      dup1\n      tag_615\n      dup2\n      tag_234\n      jump\t// in\n    tag_615:\n      swap2\n      pop\n      pop\n        /* \"contract/Launchpad.sol\":30018:30405  for (uint256 idx = 0; idx < arySharingRules.length; idx++) {... */\n      jump(tag_600)\n        /* \"contract/Launchpad.sol\":29974:31522  if (totalTxnAmount < softCap) {... */\n    tag_599:\n        /* \"contract/Launchpad.sol\":30458:30472  totalTxnAmount */\n      dup1\n        /* \"contract/Launchpad.sol\":30435:30455  uint256 tmpTxnAmount */\n      0x00\n        /* \"contract/Launchpad.sol\":30486:31512  for (uint256 idx = 0; idx < arySharingRules.length; idx++) {... */\n    tag_617:\n        /* \"contract/Launchpad.sol\":30514:30529  arySharingRules */\n      0x13\n        /* \"contract/Launchpad.sol\":30514:30536  arySharingRules.length */\n      sload\n        /* \"contract/Launchpad.sol\":30508:30536  idx < arySharingRules.length */\n      dup2\n      lt\n        /* \"contract/Launchpad.sol\":30486:31512  for (uint256 idx = 0; idx < arySharingRules.length; idx++) {... */\n      iszero\n      tag_572\n      jumpi\n        /* \"contract/Launchpad.sol\":30563:30586  SharingRule memory rule */\n      0x00\n        /* \"contract/Launchpad.sol\":30589:30604  arySharingRules */\n      0x13\n        /* \"contract/Launchpad.sol\":30605:30608  idx */\n      dup3\n        /* \"contract/Launchpad.sol\":30589:30609  arySharingRules[idx] */\n      dup2\n      sload\n      dup2\n      lt\n      tag_621\n      jumpi\n      tag_621\n      tag_228\n      jump\t// in\n    tag_621:\n      0x00\n      swap2\n      dup3\n      mstore\n      0x20\n      swap2\n      dup3\n      swap1\n      keccak256\n        /* \"contract/Launchpad.sol\":30563:30609  SharingRule memory rule = arySharingRules[idx] */\n      0x40\n      dup1\n      mload\n      0x60\n      dup2\n      add\n      dup3\n      mstore\n        /* \"contract/Launchpad.sol\":30589:30609  arySharingRules[idx] */\n      0x03\n      swap1\n      swap4\n      mul\n      swap1\n      swap2\n      add\n        /* \"contract/Launchpad.sol\":30563:30609  SharingRule memory rule = arySharingRules[idx] */\n      dup1\n      sload\n      dup1\n      dup5\n      mstore\n      0x01\n      dup1\n      dup4\n      add\n      sload\n      sub(shl(0xa0, 0x01), 0x01)\n      and\n      swap6\n      dup6\n      add\n      swap6\n      swap1\n      swap6\n      mstore\n      0x02\n      swap1\n      swap2\n      add\n      sload\n      swap2\n      dup4\n      add\n      swap2\n      swap1\n      swap2\n      mstore\n      swap1\n      swap3\n      pop\n        /* \"contract/Launchpad.sol\":30631:30646  rule.iType == 1 */\n      eq\n        /* \"contract/Launchpad.sol\":30627:30918  if (rule.iType == 1) {... */\n      iszero\n      tag_623\n      jumpi\n        /* \"contract/Launchpad.sol\":30670:30691  uint256 revertRewards */\n      0x00\n        /* \"contract/Launchpad.sol\":30694:30731  Math.min(totalSupply, surplusRewards) */\n      tag_624\n        /* \"contract/Launchpad.sol\":30703:30714  totalSupply */\n      sload(0x05)\n        /* \"contract/Launchpad.sol\":30716:30730  surplusRewards */\n      dup8\n        /* \"contract/Launchpad.sol\":30694:30702  Math.min */\n      tag_248\n        /* \"contract/Launchpad.sol\":30694:30731  Math.min(totalSupply, surplusRewards) */\n      jump\t// in\n    tag_624:\n        /* \"contract/Launchpad.sol\":30670:30731  uint256 revertRewards = Math.min(totalSupply, surplusRewards) */\n      swap1\n      pop\n        /* \"contract/Launchpad.sol\":30757:30774  revertRewards > 0 */\n      dup1\n      iszero\n        /* \"contract/Launchpad.sol\":30753:30900  if (revertRewards > 0) {... */\n      tag_631\n      jumpi\n        /* \"contract/Launchpad.sol\":30817:30832  IDOTokenAddress */\n      sload(0x06)\n        /* \"contract/Launchpad.sol\":30843:30860  rule.clearAddress */\n      0x20\n      dup4\n      add\n      mload\n        /* \"contract/Launchpad.sol\":30810:30876  IERC20(IDOTokenAddress).transfer(rule.clearAddress, revertRewards) */\n      mload(0x40)\n      shl(0xe0, 0xa9059cbb)\n      dup2\n      mstore\n      sub(shl(0xa0, 0x01), 0x01)\n        /* \"#utility.yul\":757:789   */\n      swap2\n      dup3\n      and\n        /* \"contract/Launchpad.sol\":30810:30876  IERC20(IDOTokenAddress).transfer(rule.clearAddress, revertRewards) */\n      0x04\n      dup3\n      add\n        /* \"#utility.yul\":739:790   */\n      mstore\n        /* \"#utility.yul\":806:824   */\n      0x24\n      dup2\n      add\n        /* \"#utility.yul\":799:833   */\n      dup5\n      swap1\n      mstore\n        /* \"contract/Launchpad.sol\":30817:30832  IDOTokenAddress */\n      swap2\n      and\n      swap1\n        /* \"contract/Launchpad.sol\":30810:30842  IERC20(IDOTokenAddress).transfer */\n      0xa9059cbb\n      swap1\n        /* \"#utility.yul\":712:730   */\n      0x44\n      add\n        /* \"contract/Launchpad.sol\":30810:30876  IERC20(IDOTokenAddress).transfer(rule.clearAddress, revertRewards) */\n      0x20\n      mload(0x40)\n      dup1\n      dup4\n      sub\n      dup2\n      0x00\n      dup8\n      dup1\n      extcodesize\n      iszero\n      dup1\n      iszero\n      tag_627\n      jumpi\n      0x00\n      dup1\n      revert\n    tag_627:\n      pop\n      gas\n      call\n      iszero\n      dup1\n      iszero\n      tag_629\n      jumpi\n      returndatasize\n      0x00\n      dup1\n      returndatacopy\n      revert(0x00, returndatasize)\n    tag_629:\n      pop\n      pop\n      pop\n      pop\n      mload(0x40)\n      returndatasize\n      not(0x1f)\n      0x1f\n      dup3\n      add\n      and\n      dup3\n      add\n      dup1\n      0x40\n      mstore\n      pop\n      dup2\n      add\n      swap1\n      tag_630\n      swap2\n      swap1\n      tag_299\n      jump\t// in\n    tag_630:\n        /* \"contract/Launchpad.sol\":30802:30877  require(IERC20(IDOTokenAddress).transfer(rule.clearAddress, revertRewards)) */\n      tag_631\n      jumpi\n      0x00\n      dup1\n      revert\n    tag_631:\n        /* \"contract/Launchpad.sol\":30648:30918  {... */\n      pop\n        /* \"contract/Launchpad.sol\":30627:30918  if (rule.iType == 1) {... */\n    tag_623:\n        /* \"contract/Launchpad.sol\":30936:30957  uint256 sharingAmount */\n      0x00\n        /* \"contract/Launchpad.sol\":30960:31000  totalTxnAmount.mul(rule.ratio).div(1e18) */\n      tag_632\n        /* \"contract/Launchpad.sol\":30995:30999  1e18 */\n      0x0de0b6b3a7640000\n        /* \"contract/Launchpad.sol\":30960:30990  totalTxnAmount.mul(rule.ratio) */\n      tag_238\n        /* \"contract/Launchpad.sol\":30979:30983  rule */\n      dup5\n        /* \"contract/Launchpad.sol\":30979:30989  rule.ratio */\n      0x40\n      add\n      mload\n        /* \"contract/Launchpad.sol\":30960:30974  totalTxnAmount */\n      dup9\n        /* \"contract/Launchpad.sol\":30960:30978  totalTxnAmount.mul */\n      tag_239\n      swap1\n        /* \"contract/Launchpad.sol\":30960:30990  totalTxnAmount.mul(rule.ratio) */\n      swap2\n      swap1\n      0xffffffff\n      and\n      jump\t// in\n        /* \"contract/Launchpad.sol\":30960:31000  totalTxnAmount.mul(rule.ratio).div(1e18) */\n    tag_632:\n        /* \"contract/Launchpad.sol\":30936:31000  uint256 sharingAmount = totalTxnAmount.mul(rule.ratio).div(1e18) */\n      swap1\n      pop\n        /* \"contract/Launchpad.sol\":31034:31071  Math.min(sharingAmount, tmpTxnAmount) */\n      tag_634\n        /* \"contract/Launchpad.sol\":31043:31056  sharingAmount */\n      dup2\n        /* \"contract/Launchpad.sol\":31058:31070  tmpTxnAmount */\n      dup6\n        /* \"contract/Launchpad.sol\":31034:31042  Math.min */\n      tag_248\n        /* \"contract/Launchpad.sol\":31034:31071  Math.min(sharingAmount, tmpTxnAmount) */\n      jump\t// in\n    tag_634:\n        /* \"contract/Launchpad.sol\":31018:31071  sharingAmount = Math.min(sharingAmount, tmpTxnAmount) */\n      swap1\n      pop\n        /* \"contract/Launchpad.sol\":31093:31110  sharingAmount > 0 */\n      dup1\n      iszero\n        /* \"contract/Launchpad.sol\":31089:31433  if (sharingAmount > 0) {... */\n      tag_645\n      jumpi\n        /* \"contract/Launchpad.sol\":31137:31152  txnTokenAddress */\n      and(sub(shl(0xa0, 0x01), 0x01), sload(0x07))\n        /* \"contract/Launchpad.sol\":31134:31394  if(txnTokenAddress == address(0)){... */\n      tag_636\n      jumpi\n        /* \"contract/Launchpad.sol\":31201:31205  rule */\n      dup2\n        /* \"contract/Launchpad.sol\":31201:31218  rule.clearAddress */\n      0x20\n      add\n      mload\n      sub(shl(0xa0, 0x01), 0x01)\n        /* \"contract/Launchpad.sol\":31193:31228  payable(rule.clearAddress).transfer */\n      and\n        /* \"contract/Launchpad.sol\":31193:31243  payable(rule.clearAddress).transfer(sharingAmount) */\n      0x08fc\n        /* \"contract/Launchpad.sol\":31229:31242  sharingAmount */\n      dup3\n        /* \"contract/Launchpad.sol\":31193:31243  payable(rule.clearAddress).transfer(sharingAmount) */\n      swap1\n      dup2\n      iszero\n      mul\n      swap1\n      mload(0x40)\n      0x00\n      mload(0x40)\n      dup1\n      dup4\n      sub\n      dup2\n      dup6\n      dup9\n      dup9\n      call\n      swap4\n      pop\n      pop\n      pop\n      pop\n      iszero\n      dup1\n      iszero\n      tag_638\n      jumpi\n      returndatasize\n      0x00\n      dup1\n      returndatacopy\n      revert(0x00, returndatasize)\n    tag_638:\n      pop\n        /* \"contract/Launchpad.sol\":31134:31394  if(txnTokenAddress == address(0)){... */\n      jump(tag_645)\n    tag_636:\n        /* \"contract/Launchpad.sol\":31311:31326  txnTokenAddress */\n      sload(0x07)\n        /* \"contract/Launchpad.sol\":31337:31354  rule.clearAddress */\n      0x20\n      dup4\n      add\n      mload\n        /* \"contract/Launchpad.sol\":31304:31370  IERC20(txnTokenAddress).transfer(rule.clearAddress, sharingAmount) */\n      mload(0x40)\n      shl(0xe0, 0xa9059cbb)\n      dup2\n      mstore\n      sub(shl(0xa0, 0x01), 0x01)\n        /* \"#utility.yul\":757:789   */\n      swap2\n      dup3\n      and\n        /* \"contract/Launchpad.sol\":31304:31370  IERC20(txnTokenAddress).transfer(rule.clearAddress, sharingAmount) */\n      0x04\n      dup3\n      add\n        /* \"#utility.yul\":739:790   */\n      mstore\n        /* \"#utility.yul\":806:824   */\n      0x24\n      dup2\n      add\n        /* \"#utility.yul\":799:833   */\n      dup5\n      swap1\n      mstore\n        /* \"contract/Launchpad.sol\":31311:31326  txnTokenAddress */\n      swap2\n      and\n      swap1\n        /* \"contract/Launchpad.sol\":31304:31336  IERC20(txnTokenAddress).transfer */\n      0xa9059cbb\n      swap1\n        /* \"#utility.yul\":712:730   */\n      0x44\n      add\n        /* \"contract/Launchpad.sol\":31304:31370  IERC20(txnTokenAddress).transfer(rule.clearAddress, sharingAmount) */\n      0x20\n      mload(0x40)\n      dup1\n      dup4\n      sub\n      dup2\n      0x00\n      dup8\n      dup1\n      extcodesize\n      iszero\n      dup1\n      iszero\n      tag_641\n      jumpi\n      0x00\n      dup1\n      revert\n    tag_641:\n      pop\n      gas\n      call\n      iszero\n      dup1\n      iszero\n      tag_643\n      jumpi\n      returndatasize\n      0x00\n      dup1\n      returndatacopy\n      revert(0x00, returndatasize)\n    tag_643:\n      pop\n      pop\n      pop\n      pop\n      mload(0x40)\n      returndatasize\n      not(0x1f)\n      0x1f\n      dup3\n      add\n      and\n      dup3\n      add\n      dup1\n      0x40\n      mstore\n      pop\n      dup2\n      add\n      swap1\n      tag_644\n      swap2\n      swap1\n      tag_299\n      jump\t// in\n    tag_644:\n        /* \"contract/Launchpad.sol\":31296:31371  require(IERC20(txnTokenAddress).transfer(rule.clearAddress, sharingAmount)) */\n      tag_645\n      jumpi\n      0x00\n      dup1\n      revert\n    tag_645:\n        /* \"contract/Launchpad.sol\":31466:31497  tmpTxnAmount.sub(sharingAmount) */\n      tag_646\n        /* \"contract/Launchpad.sol\":31466:31478  tmpTxnAmount */\n      dup5\n        /* \"contract/Launchpad.sol\":31483:31496  sharingAmount */\n      dup3\n        /* \"contract/Launchpad.sol\":31466:31482  tmpTxnAmount.sub */\n      tag_241\n        /* \"contract/Launchpad.sol\":31466:31497  tmpTxnAmount.sub(sharingAmount) */\n      jump\t// in\n    tag_646:\n        /* \"contract/Launchpad.sol\":31451:31497  tmpTxnAmount = tmpTxnAmount.sub(sharingAmount) */\n      swap4\n      pop\n        /* \"contract/Launchpad.sol\":30545:31512  {... */\n      pop\n      pop\n        /* \"contract/Launchpad.sol\":30538:30543  idx++ */\n      dup1\n      dup1\n      tag_647\n      swap1\n      tag_234\n      jump\t// in\n    tag_647:\n      swap2\n      pop\n      pop\n        /* \"contract/Launchpad.sol\":30486:31512  for (uint256 idx = 0; idx < arySharingRules.length; idx++) {... */\n      jump(tag_617)\n        /* \"contract/Launchpad.sol\":25523:27448  function purchase(... */\n    tag_206:\n        /* \"contract/Launchpad.sol\":25626:25635  startTime */\n      sload(0x03)\n        /* \"contract/Launchpad.sol\":25607:25622  block.timestamp */\n      timestamp\n        /* \"contract/Launchpad.sol\":25607:25635  block.timestamp >= startTime */\n      lt\n      iszero\n        /* \"contract/Launchpad.sol\":25599:25662  require(block.timestamp >= startTime, \"this pool is not start\") */\n      tag_649\n      jumpi\n      mload(0x40)\n      shl(0xe5, 0x461bcd)\n      dup2\n      mstore\n        /* \"#utility.yul\":13224:13226   */\n      0x20\n        /* \"contract/Launchpad.sol\":25599:25662  require(block.timestamp >= startTime, \"this pool is not start\") */\n      0x04\n      dup3\n      add\n        /* \"#utility.yul\":13206:13227   */\n      mstore\n        /* \"#utility.yul\":13263:13265   */\n      0x16\n        /* \"#utility.yul\":13243:13261   */\n      0x24\n      dup3\n      add\n        /* \"#utility.yul\":13236:13266   */\n      mstore\n      shl(0x52, 0x1d1a1a5cc81c1bdbdb081a5cc81b9bdd081cdd185c9d)\n        /* \"#utility.yul\":13282:13300   */\n      0x44\n      dup3\n      add\n        /* \"#utility.yul\":13275:13327   */\n      mstore\n        /* \"#utility.yul\":13344:13362   */\n      0x64\n      add\n        /* \"contract/Launchpad.sol\":25599:25662  require(block.timestamp >= startTime, \"this pool is not start\") */\n      tag_261\n        /* \"#utility.yul\":13022:13368   */\n      jump\n        /* \"contract/Launchpad.sol\":25599:25662  require(block.timestamp >= startTime, \"this pool is not start\") */\n    tag_649:\n        /* \"contract/Launchpad.sol\":25699:25706  endTime */\n      sload(0x04)\n        /* \"contract/Launchpad.sol\":25680:25695  block.timestamp */\n      timestamp\n        /* \"contract/Launchpad.sol\":25680:25706  block.timestamp <= endTime */\n      gt\n      iszero\n        /* \"contract/Launchpad.sol\":25672:25727  require(block.timestamp <= endTime, \"this pool is end\") */\n      tag_652\n      jumpi\n      mload(0x40)\n      shl(0xe5, 0x461bcd)\n      dup2\n      mstore\n        /* \"#utility.yul\":13575:13577   */\n      0x20\n        /* \"contract/Launchpad.sol\":25672:25727  require(block.timestamp <= endTime, \"this pool is end\") */\n      0x04\n      dup3\n      add\n        /* \"#utility.yul\":13557:13578   */\n      mstore\n        /* \"#utility.yul\":13614:13616   */\n      0x10\n        /* \"#utility.yul\":13594:13612   */\n      0x24\n      dup3\n      add\n        /* \"#utility.yul\":13587:13617   */\n      mstore\n      shl(0x82, 0x1d1a1a5cc81c1bdbdb081a5cc8195b99)\n        /* \"#utility.yul\":13633:13651   */\n      0x44\n      dup3\n      add\n        /* \"#utility.yul\":13626:13672   */\n      mstore\n        /* \"#utility.yul\":13689:13707   */\n      0x64\n      add\n        /* \"contract/Launchpad.sol\":25672:25727  require(block.timestamp <= endTime, \"this pool is end\") */\n      tag_261\n        /* \"#utility.yul\":13373:13713   */\n      jump\n        /* \"contract/Launchpad.sol\":25672:25727  require(block.timestamp <= endTime, \"this pool is end\") */\n    tag_652:\n        /* \"contract/Launchpad.sol\":25740:25755  txnTokenAddress */\n      and(sub(shl(0xa0, 0x01), 0x01), sload(0x07))\n        /* \"contract/Launchpad.sol\":25737:25826  if(txnTokenAddress == address(0)){... */\n      tag_656\n      jumpi\n        /* \"contract/Launchpad.sol\":25805:25814  txnAmount */\n      dup1\n        /* \"contract/Launchpad.sol\":25792:25801  msg.value */\n      callvalue\n        /* \"contract/Launchpad.sol\":25792:25814  msg.value == txnAmount */\n      eq\n        /* \"contract/Launchpad.sol\":25784:25815  require(msg.value == txnAmount) */\n      tag_656\n      jumpi\n      0x00\n      dup1\n      revert\n    tag_656:\n        /* \"contract/Launchpad.sol\":25838:25853  seniorWhiteList */\n      sload(0x16)\n      0x0100\n      swap1\n      div\n      sub(shl(0xa0, 0x01), 0x01)\n      and\n        /* \"contract/Launchpad.sol\":25838:25867  seniorWhiteList == address(0) */\n      iszero\n      dup1\n        /* \"contract/Launchpad.sol\":25838:25926  seniorWhiteList == address(0) ||  !IWhiteList(seniorWhiteList).isInWhiteList(msg.sender) */\n      tag_657\n      jumpi\n      pop\n        /* \"contract/Launchpad.sol\":25884:25899  seniorWhiteList */\n      sload(0x16)\n        /* \"contract/Launchpad.sol\":25873:25926  IWhiteList(seniorWhiteList).isInWhiteList(msg.sender) */\n      mload(0x40)\n      shl(0xe0, 0x96bfc229)\n      dup2\n      mstore\n        /* \"contract/Launchpad.sol\":25915:25925  msg.sender */\n      caller\n        /* \"contract/Launchpad.sol\":25873:25926  IWhiteList(seniorWhiteList).isInWhiteList(msg.sender) */\n      0x04\n      dup3\n      add\n        /* \"#utility.yul\":5450:5501   */\n      mstore\n        /* \"contract/Launchpad.sol\":25884:25899  seniorWhiteList */\n      0x0100\n      swap1\n      swap2\n      div\n      sub(shl(0xa0, 0x01), 0x01)\n      and\n      swap1\n        /* \"contract/Launchpad.sol\":25873:25914  IWhiteList(seniorWhiteList).isInWhiteList */\n      0x96bfc229\n      swap1\n        /* \"#utility.yul\":5423:5441   */\n      0x24\n      add\n        /* \"contract/Launchpad.sol\":25873:25926  IWhiteList(seniorWhiteList).isInWhiteList(msg.sender) */\n      0x20\n      mload(0x40)\n      dup1\n      dup4\n      sub\n      dup2\n      dup7\n      dup1\n      extcodesize\n      iszero\n      dup1\n      iszero\n      tag_659\n      jumpi\n      0x00\n      dup1\n      revert\n    tag_659:\n      pop\n      gas\n      staticcall\n      iszero\n      dup1\n      iszero\n      tag_661\n      jumpi\n      returndatasize\n      0x00\n      dup1\n      returndatacopy\n      revert(0x00, returndatasize)\n    tag_661:\n      pop\n      pop\n      pop\n      pop\n      mload(0x40)\n      returndatasize\n      not(0x1f)\n      0x1f\n      dup3\n      add\n      and\n      dup3\n      add\n      dup1\n      0x40\n      mstore\n      pop\n      dup2\n      add\n      swap1\n      tag_662\n      swap2\n      swap1\n      tag_299\n      jump\t// in\n    tag_662:\n        /* \"contract/Launchpad.sol\":25872:25926  !IWhiteList(seniorWhiteList).isInWhiteList(msg.sender) */\n      iszero\n        /* \"contract/Launchpad.sol\":25838:25926  seniorWhiteList == address(0) ||  !IWhiteList(seniorWhiteList).isInWhiteList(msg.sender) */\n    tag_657:\n        /* \"contract/Launchpad.sol\":25835:26621  if(seniorWhiteList == address(0) ||  !IWhiteList(seniorWhiteList).isInWhiteList(msg.sender)){... */\n      iszero\n      tag_684\n      jumpi\n        /* \"contract/Launchpad.sol\":25945:25962  whiteListContract */\n      and(sub(shl(0xa0, 0x01), 0x01), sload(0x12))\n        /* \"contract/Launchpad.sol\":25945:25976  whiteListContract != address(0) */\n      iszero\n      dup1\n      iszero\n      swap1\n        /* \"contract/Launchpad.sol\":25945:26047  whiteListContract != address(0) && (whiteListExpireTime == 0 || block.timestamp < whiteListExpireTime) */\n      tag_665\n      jumpi\n      pop\n        /* \"contract/Launchpad.sol\":25981:26000  whiteListExpireTime */\n      sload(0x11)\n        /* \"contract/Launchpad.sol\":25981:26005  whiteListExpireTime == 0 */\n      iszero\n      dup1\n        /* \"contract/Launchpad.sol\":25981:26046  whiteListExpireTime == 0 || block.timestamp < whiteListExpireTime */\n      tag_665\n      jumpi\n      pop\n        /* \"contract/Launchpad.sol\":26027:26046  whiteListExpireTime */\n      sload(0x11)\n        /* \"contract/Launchpad.sol\":26009:26024  block.timestamp */\n      timestamp\n        /* \"contract/Launchpad.sol\":26009:26046  block.timestamp < whiteListExpireTime */\n      lt\n        /* \"contract/Launchpad.sol\":25981:26046  whiteListExpireTime == 0 || block.timestamp < whiteListExpireTime */\n    tag_665:\n        /* \"contract/Launchpad.sol\":25941:26174  if (whiteListContract != address(0) && (whiteListExpireTime == 0 || block.timestamp < whiteListExpireTime)) {... */\n      iszero\n      tag_672\n      jumpi\n        /* \"contract/Launchpad.sol\":26086:26103  whiteListContract */\n      sload(0x12)\n        /* \"contract/Launchpad.sol\":26075:26130  IWhiteList(whiteListContract).isInWhiteList(msg.sender) */\n      mload(0x40)\n      shl(0xe0, 0x96bfc229)\n      dup2\n      mstore\n        /* \"contract/Launchpad.sol\":26119:26129  msg.sender */\n      caller\n        /* \"contract/Launchpad.sol\":26075:26130  IWhiteList(whiteListContract).isInWhiteList(msg.sender) */\n      0x04\n      dup3\n      add\n        /* \"#utility.yul\":5450:5501   */\n      mstore\n      sub(shl(0xa0, 0x01), 0x01)\n        /* \"contract/Launchpad.sol\":26086:26103  whiteListContract */\n      swap1\n      swap2\n      and\n      swap1\n        /* \"contract/Launchpad.sol\":26075:26118  IWhiteList(whiteListContract).isInWhiteList */\n      0x96bfc229\n      swap1\n        /* \"#utility.yul\":5423:5441   */\n      0x24\n      add\n        /* \"contract/Launchpad.sol\":26075:26130  IWhiteList(whiteListContract).isInWhiteList(msg.sender) */\n      0x20\n      mload(0x40)\n      dup1\n      dup4\n      sub\n      dup2\n      dup7\n      dup1\n      extcodesize\n      iszero\n      dup1\n      iszero\n      tag_668\n      jumpi\n      0x00\n      dup1\n      revert\n    tag_668:\n      pop\n      gas\n      staticcall\n      iszero\n      dup1\n      iszero\n      tag_670\n      jumpi\n      returndatasize\n      0x00\n      dup1\n      returndatacopy\n      revert(0x00, returndatasize)\n    tag_670:\n      pop\n      pop\n      pop\n      pop\n      mload(0x40)\n      returndatasize\n      not(0x1f)\n      0x1f\n      dup3\n      add\n      and\n      dup3\n      add\n      dup1\n      0x40\n      mstore\n      pop\n      dup2\n      add\n      swap1\n      tag_671\n      swap2\n      swap1\n      tag_299\n      jump\t// in\n    tag_671:\n        /* \"contract/Launchpad.sol\":26067:26159  require(IWhiteList(whiteListContract).isInWhiteList(msg.sender), \"you is not in white list\") */\n      tag_672\n      jumpi\n      mload(0x40)\n      shl(0xe5, 0x461bcd)\n      dup2\n      mstore\n        /* \"#utility.yul\":13920:13922   */\n      0x20\n        /* \"contract/Launchpad.sol\":26067:26159  require(IWhiteList(whiteListContract).isInWhiteList(msg.sender), \"you is not in white list\") */\n      0x04\n      dup3\n      add\n        /* \"#utility.yul\":13902:13923   */\n      mstore\n        /* \"#utility.yul\":13959:13961   */\n      0x18\n        /* \"#utility.yul\":13939:13957   */\n      0x24\n      dup3\n      add\n        /* \"#utility.yul\":13932:13962   */\n      mstore\n        /* \"#utility.yul\":13998:14024   */\n      0x796f75206973206e6f7420696e207768697465206c6973740000000000000000\n        /* \"#utility.yul\":13978:13996   */\n      0x44\n      dup3\n      add\n        /* \"#utility.yul\":13971:14025   */\n      mstore\n        /* \"#utility.yul\":14042:14060   */\n      0x64\n      add\n        /* \"contract/Launchpad.sol\":26067:26159  require(IWhiteList(whiteListContract).isInWhiteList(msg.sender), \"you is not in white list\") */\n      tag_261\n        /* \"#utility.yul\":13718:14066   */\n      jump\n        /* \"contract/Launchpad.sol\":26067:26159  require(IWhiteList(whiteListContract).isInWhiteList(msg.sender), \"you is not in white list\") */\n    tag_672:\n        /* \"contract/Launchpad.sol\":26191:26209  buyLimit.minAmount */\n      sload(0x0f)\n        /* \"contract/Launchpad.sol\":26191:26213  buyLimit.minAmount > 0 */\n      iszero\n        /* \"contract/Launchpad.sol\":26187:26312  if (buyLimit.minAmount > 0) {... */\n      tag_676\n      jumpi\n        /* \"contract/Launchpad.sol\":26254:26272  buyLimit.minAmount */\n      sload(0x0f)\n        /* \"contract/Launchpad.sol\":26241:26272  txnAmount >= buyLimit.minAmount */\n      dup2\n      lt\n      iszero\n        /* \"contract/Launchpad.sol\":26233:26297  require(txnAmount >= buyLimit.minAmount, \"buy amount too small\") */\n      tag_676\n      jumpi\n      mload(0x40)\n      shl(0xe5, 0x461bcd)\n      dup2\n      mstore\n        /* \"#utility.yul\":14273:14275   */\n      0x20\n        /* \"contract/Launchpad.sol\":26233:26297  require(txnAmount >= buyLimit.minAmount, \"buy amount too small\") */\n      0x04\n      dup3\n      add\n        /* \"#utility.yul\":14255:14276   */\n      mstore\n        /* \"#utility.yul\":14312:14314   */\n      0x14\n        /* \"#utility.yul\":14292:14310   */\n      0x24\n      dup3\n      add\n        /* \"#utility.yul\":14285:14315   */\n      mstore\n      shl(0x62, 0x189d5e48185b5bdd5b9d081d1bdbc81cdb585b1b)\n        /* \"#utility.yul\":14331:14349   */\n      0x44\n      dup3\n      add\n        /* \"#utility.yul\":14324:14374   */\n      mstore\n        /* \"#utility.yul\":14391:14409   */\n      0x64\n      add\n        /* \"contract/Launchpad.sol\":26233:26297  require(txnAmount >= buyLimit.minAmount, \"buy amount too small\") */\n      tag_261\n        /* \"#utility.yul\":14071:14415   */\n      jump\n        /* \"contract/Launchpad.sol\":26233:26297  require(txnAmount >= buyLimit.minAmount, \"buy amount too small\") */\n    tag_676:\n        /* \"contract/Launchpad.sol\":26329:26347  buyLimit.maxAmount */\n      sload(0x10)\n        /* \"contract/Launchpad.sol\":26329:26351  buyLimit.maxAmount > 0 */\n      iszero\n        /* \"contract/Launchpad.sol\":26325:26450  if (buyLimit.maxAmount > 0) {... */\n      tag_680\n      jumpi\n        /* \"contract/Launchpad.sol\":26392:26410  buyLimit.maxAmount */\n      sload(0x10)\n        /* \"contract/Launchpad.sol\":26379:26410  txnAmount <= buyLimit.maxAmount */\n      dup2\n      gt\n      iszero\n        /* \"contract/Launchpad.sol\":26371:26435  require(txnAmount <= buyLimit.maxAmount, \"buy amount too large\") */\n      tag_680\n      jumpi\n      mload(0x40)\n      shl(0xe5, 0x461bcd)\n      dup2\n      mstore\n        /* \"#utility.yul\":14622:14624   */\n      0x20\n        /* \"contract/Launchpad.sol\":26371:26435  require(txnAmount <= buyLimit.maxAmount, \"buy amount too large\") */\n      0x04\n      dup3\n      add\n        /* \"#utility.yul\":14604:14625   */\n      mstore\n        /* \"#utility.yul\":14661:14663   */\n      0x14\n        /* \"#utility.yul\":14641:14659   */\n      0x24\n      dup3\n      add\n        /* \"#utility.yul\":14634:14664   */\n      mstore\n      shl(0x60, 0x62757920616d6f756e7420746f6f206c61726765)\n        /* \"#utility.yul\":14680:14698   */\n      0x44\n      dup3\n      add\n        /* \"#utility.yul\":14673:14723   */\n      mstore\n        /* \"#utility.yul\":14740:14758   */\n      0x64\n      add\n        /* \"contract/Launchpad.sol\":26371:26435  require(txnAmount <= buyLimit.maxAmount, \"buy amount too large\") */\n      tag_261\n        /* \"#utility.yul\":14420:14764   */\n      jump\n        /* \"contract/Launchpad.sol\":26371:26435  require(txnAmount <= buyLimit.maxAmount, \"buy amount too large\") */\n    tag_680:\n        /* \"contract/Launchpad.sol\":26467:26475  buyLimit */\n      0x0e\n        /* \"contract/Launchpad.sol\":26467:26484  buyLimit.maxTimes */\n      sload\n        /* \"contract/Launchpad.sol\":26467:26488  buyLimit.maxTimes > 0 */\n      iszero\n        /* \"contract/Launchpad.sol\":26463:26611  if (buyLimit.maxTimes > 0) {... */\n      tag_684\n      jumpi\n        /* \"contract/Launchpad.sol\":26551:26559  buyLimit */\n      0x0e\n        /* \"contract/Launchpad.sol\":26551:26568  buyLimit.maxTimes */\n      sload\n        /* \"contract/Launchpad.sol\":26528:26538  msg.sender */\n      caller\n        /* \"contract/Launchpad.sol\":26551:26568  buyLimit.maxTimes */\n      0x00\n        /* \"contract/Launchpad.sol\":26516:26539  mBuyRecords[msg.sender] */\n      swap1\n      dup2\n      mstore\n        /* \"contract/Launchpad.sol\":26516:26527  mBuyRecords */\n      0x0b\n        /* \"contract/Launchpad.sol\":26516:26539  mBuyRecords[msg.sender] */\n      0x20\n      mstore\n      0x40\n      swap1\n      keccak256\n        /* \"contract/Launchpad.sol\":26516:26548  mBuyRecords[msg.sender].buyTimes */\n      sload\n        /* \"contract/Launchpad.sol\":26516:26568  mBuyRecords[msg.sender].buyTimes < buyLimit.maxTimes */\n      lt\n        /* \"contract/Launchpad.sol\":26508:26596  require(mBuyRecords[msg.sender].buyTimes < buyLimit.maxTimes, \"buy times is not enough\") */\n      tag_684\n      jumpi\n      mload(0x40)\n      shl(0xe5, 0x461bcd)\n      dup2\n      mstore\n        /* \"#utility.yul\":14971:14973   */\n      0x20\n        /* \"contract/Launchpad.sol\":26508:26596  require(mBuyRecords[msg.sender].buyTimes < buyLimit.maxTimes, \"buy times is not enough\") */\n      0x04\n      dup3\n      add\n        /* \"#utility.yul\":14953:14974   */\n      mstore\n        /* \"#utility.yul\":15010:15012   */\n      0x17\n        /* \"#utility.yul\":14990:15008   */\n      0x24\n      dup3\n      add\n        /* \"#utility.yul\":14983:15013   */\n      mstore\n        /* \"#utility.yul\":15049:15074   */\n      0x6275792074696d6573206973206e6f7420656e6f756768000000000000000000\n        /* \"#utility.yul\":15029:15047   */\n      0x44\n      dup3\n      add\n        /* \"#utility.yul\":15022:15075   */\n      mstore\n        /* \"#utility.yul\":15092:15110   */\n      0x64\n      add\n        /* \"contract/Launchpad.sol\":26508:26596  require(mBuyRecords[msg.sender].buyTimes < buyLimit.maxTimes, \"buy times is not enough\") */\n      tag_261\n        /* \"#utility.yul\":14769:15116   */\n      jump\n        /* \"contract/Launchpad.sol\":26508:26596  require(mBuyRecords[msg.sender].buyTimes < buyLimit.maxTimes, \"buy times is not enough\") */\n    tag_684:\n        /* \"contract/Launchpad.sol\":26641:26656  uint256 rewards */\n      0x00\n        /* \"contract/Launchpad.sol\":26749:26764  txnTokenAddress */\n      and(sub(shl(0xa0, 0x01), 0x01), sload(0x07))\n        /* \"contract/Launchpad.sol\":26749:26778  txnTokenAddress != address(0) */\n      iszero\n        /* \"contract/Launchpad.sol\":26746:27091  if(txnTokenAddress != address(0)){... */\n      tag_690\n      jumpi\n        /* \"contract/Launchpad.sol\":26814:26829  txnTokenAddress */\n      0x07\n      0x00\n      swap1\n      sload\n      swap1\n      0x0100\n      exp\n      swap1\n      div\n      sub(shl(0xa0, 0x01), 0x01)\n      and\n      sub(shl(0xa0, 0x01), 0x01)\n        /* \"contract/Launchpad.sol\":26807:26839  IERC20(txnTokenAddress).decimals */\n      and\n      0x313ce567\n        /* \"contract/Launchpad.sol\":26807:26841  IERC20(txnTokenAddress).decimals() */\n      mload(0x40)\n      dup2\n      0xffffffff\n      and\n      0xe0\n      shl\n      dup2\n      mstore\n      0x04\n      add\n      0x20\n      mload(0x40)\n      dup1\n      dup4\n      sub\n      dup2\n      dup7\n      dup1\n      extcodesize\n      iszero\n      dup1\n      iszero\n      tag_691\n      jumpi\n      0x00\n      dup1\n      revert\n    tag_691:\n      pop\n      gas\n      staticcall\n      iszero\n      dup1\n      iszero\n      tag_693\n      jumpi\n      returndatasize\n      0x00\n      dup1\n      returndatacopy\n      revert(0x00, returndatasize)\n    tag_693:\n      pop\n      pop\n      pop\n      pop\n      mload(0x40)\n      returndatasize\n      not(0x1f)\n      0x1f\n      dup3\n      add\n      and\n      dup3\n      add\n      dup1\n      0x40\n      mstore\n      pop\n      dup2\n      add\n      swap1\n      tag_694\n      swap2\n      swap1\n      tag_695\n      jump\t// in\n    tag_694:\n        /* \"contract/Launchpad.sol\":26793:26841  txnDecimals = IERC20(txnTokenAddress).decimals() */\n      0xff\n      and\n        /* \"contract/Launchpad.sol\":26793:26804  txnDecimals */\n      0x09\n        /* \"contract/Launchpad.sol\":26793:26841  txnDecimals = IERC20(txnTokenAddress).decimals() */\n      dup2\n      swap1\n      sstore\n        /* \"contract/Launchpad.sol\":26865:26909  txnAmount.mul(txnRatio).div(10**txnDecimals) */\n      tag_696\n      swap1\n        /* \"contract/Launchpad.sol\":26893:26908  10**txnDecimals */\n      tag_697\n      swap1\n        /* \"contract/Launchpad.sol\":26893:26895  10 */\n      0x0a\n        /* \"contract/Launchpad.sol\":26893:26908  10**txnDecimals */\n      tag_698\n      jump\t// in\n    tag_697:\n        /* \"contract/Launchpad.sol\":26879:26887  txnRatio */\n      sload(0x08)\n        /* \"contract/Launchpad.sol\":26865:26888  txnAmount.mul(txnRatio) */\n      tag_238\n      swap1\n        /* \"contract/Launchpad.sol\":26865:26874  txnAmount */\n      dup6\n      swap1\n        /* \"contract/Launchpad.sol\":26865:26878  txnAmount.mul */\n      tag_239\n        /* \"contract/Launchpad.sol\":26865:26888  txnAmount.mul(txnRatio) */\n      jump\t// in\n        /* \"contract/Launchpad.sol\":26865:26909  txnAmount.mul(txnRatio).div(10**txnDecimals) */\n    tag_696:\n        /* \"contract/Launchpad.sol\":26938:26953  txnTokenAddress */\n      sload(0x07)\n        /* \"contract/Launchpad.sol\":26931:27005  IERC20(txnTokenAddress).transferFrom(msg.sender, address(this), txnAmount) */\n      mload(0x40)\n      shl(0xe0, 0x23b872dd)\n      dup2\n      mstore\n        /* \"contract/Launchpad.sol\":26968:26978  msg.sender */\n      caller\n        /* \"contract/Launchpad.sol\":26931:27005  IERC20(txnTokenAddress).transferFrom(msg.sender, address(this), txnAmount) */\n      0x04\n      dup3\n      add\n        /* \"#utility.yul\":17368:17402   */\n      mstore\n        /* \"contract/Launchpad.sol\":26988:26992  this */\n      address\n        /* \"#utility.yul\":17418:17436   */\n      0x24\n      dup3\n      add\n        /* \"#utility.yul\":17411:17454   */\n      mstore\n        /* \"#utility.yul\":17470:17488   */\n      0x44\n      dup2\n      add\n        /* \"#utility.yul\":17463:17497   */\n      dup6\n      swap1\n      mstore\n        /* \"contract/Launchpad.sol\":26855:26909  rewards = txnAmount.mul(txnRatio).div(10**txnDecimals) */\n      swap2\n      swap3\n      pop\n      sub(shl(0xa0, 0x01), 0x01)\n        /* \"contract/Launchpad.sol\":26938:26953  txnTokenAddress */\n      and\n      swap1\n        /* \"contract/Launchpad.sol\":26931:26967  IERC20(txnTokenAddress).transferFrom */\n      0x23b872dd\n      swap1\n        /* \"#utility.yul\":17303:17321   */\n      0x64\n      add\n        /* \"contract/Launchpad.sol\":26931:27005  IERC20(txnTokenAddress).transferFrom(msg.sender, address(this), txnAmount) */\n      0x20\n      mload(0x40)\n      dup1\n      dup4\n      sub\n      dup2\n      0x00\n      dup8\n      dup1\n      extcodesize\n      iszero\n      dup1\n      iszero\n      tag_702\n      jumpi\n      0x00\n      dup1\n      revert\n    tag_702:\n      pop\n      gas\n      call\n      iszero\n      dup1\n      iszero\n      tag_704\n      jumpi\n      returndatasize\n      0x00\n      dup1\n      returndatacopy\n      revert(0x00, returndatasize)\n    tag_704:\n      pop\n      pop\n      pop\n      pop\n      mload(0x40)\n      returndatasize\n      not(0x1f)\n      0x1f\n      dup3\n      add\n      and\n      dup3\n      add\n      dup1\n      0x40\n      mstore\n      pop\n      dup2\n      add\n      swap1\n      tag_705\n      swap2\n      swap1\n      tag_299\n      jump\t// in\n    tag_705:\n        /* \"contract/Launchpad.sol\":26923:27006  require(IERC20(txnTokenAddress).transferFrom(msg.sender, address(this), txnAmount)) */\n      tag_706\n      jumpi\n      0x00\n      dup1\n      revert\n    tag_706:\n        /* \"contract/Launchpad.sol\":26746:27091  if(txnTokenAddress != address(0)){... */\n      jump(tag_707)\n    tag_690:\n        /* \"contract/Launchpad.sol\":27045:27080  txnAmount.mul(txnRatio).div(10**18) */\n      tag_708\n        /* \"contract/Launchpad.sol\":27073:27079  10**18 */\n      0x0de0b6b3a7640000\n        /* \"contract/Launchpad.sol\":27045:27068  txnAmount.mul(txnRatio) */\n      tag_238\n        /* \"contract/Launchpad.sol\":27059:27067  txnRatio */\n      sload(0x08)\n        /* \"contract/Launchpad.sol\":27045:27054  txnAmount */\n      dup6\n        /* \"contract/Launchpad.sol\":27045:27058  txnAmount.mul */\n      tag_239\n      swap1\n        /* \"contract/Launchpad.sol\":27045:27068  txnAmount.mul(txnRatio) */\n      swap2\n      swap1\n      0xffffffff\n      and\n      jump\t// in\n        /* \"contract/Launchpad.sol\":27045:27080  txnAmount.mul(txnRatio).div(10**18) */\n    tag_708:\n        /* \"contract/Launchpad.sol\":27035:27080  rewards = txnAmount.mul(txnRatio).div(10**18) */\n      swap1\n      pop\n        /* \"contract/Launchpad.sol\":26746:27091  if(txnTokenAddress != address(0)){... */\n    tag_707:\n        /* \"contract/Launchpad.sol\":27119:27120  0 */\n      0x00\n        /* \"contract/Launchpad.sol\":27109:27116  rewards */\n      dup2\n        /* \"contract/Launchpad.sol\":27109:27120  rewards > 0 */\n      gt\n        /* \"contract/Launchpad.sol\":27101:27148  require(rewards > 0, \"txn amount is too small\") */\n      tag_710\n      jumpi\n      mload(0x40)\n      shl(0xe5, 0x461bcd)\n      dup2\n      mstore\n        /* \"#utility.yul\":17710:17712   */\n      0x20\n        /* \"contract/Launchpad.sol\":27101:27148  require(rewards > 0, \"txn amount is too small\") */\n      0x04\n      dup3\n      add\n        /* \"#utility.yul\":17692:17713   */\n      mstore\n        /* \"#utility.yul\":17749:17751   */\n      0x17\n        /* \"#utility.yul\":17729:17747   */\n      0x24\n      dup3\n      add\n        /* \"#utility.yul\":17722:17752   */\n      mstore\n        /* \"#utility.yul\":17788:17813   */\n      0x74786e20616d6f756e7420697320746f6f20736d616c6c000000000000000000\n        /* \"#utility.yul\":17768:17786   */\n      0x44\n      dup3\n      add\n        /* \"#utility.yul\":17761:17814   */\n      mstore\n        /* \"#utility.yul\":17831:17849   */\n      0x64\n      add\n        /* \"contract/Launchpad.sol\":27101:27148  require(rewards > 0, \"txn amount is too small\") */\n      tag_261\n        /* \"#utility.yul\":17508:17855   */\n      jump\n        /* \"contract/Launchpad.sol\":27101:27148  require(rewards > 0, \"txn amount is too small\") */\n    tag_710:\n        /* \"contract/Launchpad.sol\":27174:27181  rewards */\n      dup1\n        /* \"contract/Launchpad.sol\":27159:27170  totalSupply */\n      0x05\n      0x00\n        /* \"contract/Launchpad.sol\":27159:27181  totalSupply -= rewards */\n      dup3\n      dup3\n      sload\n      tag_713\n      swap2\n      swap1\n      tag_714\n      jump\t// in\n    tag_713:\n      swap1\n      swap2\n      sstore\n      pop\n      pop\n        /* \"contract/Launchpad.sol\":27207:27217  msg.sender */\n      caller\n        /* \"contract/Launchpad.sol\":27195:27218  mBuyRecords[msg.sender] */\n      0x00\n      swap1\n      dup2\n      mstore\n        /* \"contract/Launchpad.sol\":27195:27206  mBuyRecords */\n      0x0b\n        /* \"contract/Launchpad.sol\":27195:27218  mBuyRecords[msg.sender] */\n      0x20\n      mstore\n      0x40\n      swap1\n      keccak256\n        /* \"contract/Launchpad.sol\":27195:27227  mBuyRecords[msg.sender].buyTimes */\n      sload\n        /* \"contract/Launchpad.sol\":27191:27287  if (mBuyRecords[msg.sender].buyTimes == 0) {... */\n      tag_715\n      jumpi\n        /* \"contract/Launchpad.sol\":27248:27259  aryAccounts */\n      0x0c\n        /* \"contract/Launchpad.sol\":27248:27276  aryAccounts.push(msg.sender) */\n      dup1\n      sload\n      0x01\n      dup2\n      add\n      dup3\n      sstore\n      0x00\n      swap2\n      swap1\n      swap2\n      mstore\n      0xdf6966c971051c3d54ec59162606531493a51404a002842f56009d7e5cf4a8c7\n      add\n      dup1\n      sload\n      not(sub(shl(0xa0, 0x01), 0x01))\n      and\n        /* \"contract/Launchpad.sol\":27265:27275  msg.sender */\n      caller\n        /* \"contract/Launchpad.sol\":27248:27276  aryAccounts.push(msg.sender) */\n      or\n      swap1\n      sstore\n        /* \"contract/Launchpad.sol\":27191:27287  if (mBuyRecords[msg.sender].buyTimes == 0) {... */\n    tag_715:\n        /* \"contract/Launchpad.sol\":27308:27318  msg.sender */\n      caller\n        /* \"contract/Launchpad.sol\":27296:27319  mBuyRecords[msg.sender] */\n      0x00\n      swap1\n      dup2\n      mstore\n        /* \"contract/Launchpad.sol\":27296:27307  mBuyRecords */\n      0x0b\n        /* \"contract/Launchpad.sol\":27296:27319  mBuyRecords[msg.sender] */\n      0x20\n      mstore\n      0x40\n      dup2\n      keccak256\n        /* \"contract/Launchpad.sol\":27296:27333  mBuyRecords[msg.sender].buyTimes += 1 */\n      dup1\n      sload\n        /* \"contract/Launchpad.sol\":27332:27333  1 */\n      0x01\n      swap3\n        /* \"contract/Launchpad.sol\":27296:27319  mBuyRecords[msg.sender] */\n      swap1\n        /* \"contract/Launchpad.sol\":27296:27333  mBuyRecords[msg.sender].buyTimes += 1 */\n      tag_717\n      swap1\n        /* \"contract/Launchpad.sol\":27332:27333  1 */\n      dup5\n      swap1\n        /* \"contract/Launchpad.sol\":27296:27333  mBuyRecords[msg.sender].buyTimes += 1 */\n      tag_232\n      jump\t// in\n    tag_717:\n      swap1\n      swap2\n      sstore\n      pop\n      pop\n        /* \"contract/Launchpad.sol\":27355:27365  msg.sender */\n      caller\n        /* \"contract/Launchpad.sol\":27343:27366  mBuyRecords[msg.sender] */\n      0x00\n      swap1\n      dup2\n      mstore\n        /* \"contract/Launchpad.sol\":27343:27354  mBuyRecords */\n      0x0b\n        /* \"contract/Launchpad.sol\":27343:27366  mBuyRecords[msg.sender] */\n      0x20\n      mstore\n      0x40\n      dup2\n      keccak256\n        /* \"contract/Launchpad.sol\":27343:27376  mBuyRecords[msg.sender].txnAmount */\n      0x01\n      add\n        /* \"contract/Launchpad.sol\":27343:27389  mBuyRecords[msg.sender].txnAmount += txnAmount */\n      dup1\n      sload\n        /* \"contract/Launchpad.sol\":27380:27389  txnAmount */\n      dup5\n      swap3\n        /* \"contract/Launchpad.sol\":27343:27366  mBuyRecords[msg.sender] */\n      swap1\n        /* \"contract/Launchpad.sol\":27343:27389  mBuyRecords[msg.sender].txnAmount += txnAmount */\n      tag_718\n      swap1\n        /* \"contract/Launchpad.sol\":27380:27389  txnAmount */\n      dup5\n      swap1\n        /* \"contract/Launchpad.sol\":27343:27389  mBuyRecords[msg.sender].txnAmount += txnAmount */\n      tag_232\n      jump\t// in\n    tag_718:\n      swap1\n      swap2\n      sstore\n      pop\n      pop\n        /* \"contract/Launchpad.sol\":27411:27421  msg.sender */\n      caller\n        /* \"contract/Launchpad.sol\":27399:27422  mBuyRecords[msg.sender] */\n      0x00\n      swap1\n      dup2\n      mstore\n        /* \"contract/Launchpad.sol\":27399:27410  mBuyRecords */\n      0x0b\n        /* \"contract/Launchpad.sol\":27399:27422  mBuyRecords[msg.sender] */\n      0x20\n      mstore\n      0x40\n      dup2\n      keccak256\n        /* \"contract/Launchpad.sol\":27399:27430  mBuyRecords[msg.sender].rewards */\n      0x02\n      add\n        /* \"contract/Launchpad.sol\":27399:27441  mBuyRecords[msg.sender].rewards += rewards */\n      dup1\n      sload\n        /* \"contract/Launchpad.sol\":27434:27441  rewards */\n      dup4\n      swap3\n        /* \"contract/Launchpad.sol\":27399:27422  mBuyRecords[msg.sender] */\n      swap1\n        /* \"contract/Launchpad.sol\":27399:27441  mBuyRecords[msg.sender].rewards += rewards */\n      tag_377\n      swap1\n        /* \"contract/Launchpad.sol\":27434:27441  rewards */\n      dup5\n      swap1\n        /* \"contract/Launchpad.sol\":27399:27441  mBuyRecords[msg.sender].rewards += rewards */\n      tag_232\n      jump\t// in\n        /* \"contract/Launchpad.sol\":14626:14866  function transferOwnership(address newOwner) public virtual onlyOwner {... */\n    tag_210:\n        /* \"contract/Launchpad.sol\":13746:13753  address */\n      0x00\n        /* \"contract/Launchpad.sol\":13772:13778  _owner */\n      sload\n      sub(shl(0xa0, 0x01), 0x01)\n      and\n        /* \"contract/Launchpad.sol\":929:939  msg.sender */\n      caller\n        /* \"contract/Launchpad.sol\":13912:13935  owner() == _msgSender() */\n      eq\n        /* \"contract/Launchpad.sol\":13904:13972  require(owner() == _msgSender(), \"Ownable: caller is not the owner\") */\n      tag_723\n      jumpi\n      mload(0x40)\n      shl(0xe5, 0x461bcd)\n      dup2\n      mstore\n      0x04\n      add\n      tag_261\n      swap1\n      tag_449\n      jump\t// in\n    tag_723:\n      sub(shl(0xa0, 0x01), 0x01)\n        /* \"contract/Launchpad.sol\":14714:14736  newOwner != address(0) */\n      dup2\n      and\n        /* \"contract/Launchpad.sol\":14706:14779  require(newOwner != address(0), \"Ownable: new owner is the zero address\") */\n      tag_726\n      jumpi\n      mload(0x40)\n      shl(0xe5, 0x461bcd)\n      dup2\n      mstore\n        /* \"#utility.yul\":18192:18194   */\n      0x20\n        /* \"contract/Launchpad.sol\":14706:14779  require(newOwner != address(0), \"Ownable: new owner is the zero address\") */\n      0x04\n      dup3\n      add\n        /* \"#utility.yul\":18174:18195   */\n      mstore\n        /* \"#utility.yul\":18231:18233   */\n      0x26\n        /* \"#utility.yul\":18211:18229   */\n      0x24\n      dup3\n      add\n        /* \"#utility.yul\":18204:18234   */\n      mstore\n        /* \"#utility.yul\":18270:18304   */\n      0x4f776e61626c653a206e6577206f776e657220697320746865207a65726f2061\n        /* \"#utility.yul\":18250:18268   */\n      0x44\n      dup3\n      add\n        /* \"#utility.yul\":18243:18305   */\n      mstore\n      shl(0xd0, 0x646472657373)\n        /* \"#utility.yul\":18321:18339   */\n      0x64\n      dup3\n      add\n        /* \"#utility.yul\":18314:18350   */\n      mstore\n        /* \"#utility.yul\":18367:18386   */\n      0x84\n      add\n        /* \"contract/Launchpad.sol\":14706:14779  require(newOwner != address(0), \"Ownable: new owner is the zero address\") */\n      tag_261\n        /* \"#utility.yul\":17990:18392   */\n      jump\n        /* \"contract/Launchpad.sol\":14706:14779  require(newOwner != address(0), \"Ownable: new owner is the zero address\") */\n    tag_726:\n        /* \"contract/Launchpad.sol\":14815:14821  _owner */\n      0x00\n      dup1\n      sload\n        /* \"contract/Launchpad.sol\":14794:14832  OwnershipTransferred(_owner, newOwner) */\n      mload(0x40)\n      sub(shl(0xa0, 0x01), 0x01)\n      dup1\n      dup6\n      and\n      swap4\n        /* \"contract/Launchpad.sol\":14815:14821  _owner */\n      swap3\n      and\n      swap2\n        /* \"contract/Launchpad.sol\":14794:14832  OwnershipTransferred(_owner, newOwner) */\n      0x8be0079c531659141344cd1fd0a4f28419497f9722a3daafe3b4186f6b6457e0\n      swap2\n      log3\n        /* \"contract/Launchpad.sol\":14842:14848  _owner */\n      0x00\n        /* \"contract/Launchpad.sol\":14842:14859  _owner = newOwner */\n      dup1\n      sload\n      not(sub(shl(0xa0, 0x01), 0x01))\n      and\n      sub(shl(0xa0, 0x01), 0x01)\n      swap3\n      swap1\n      swap3\n      and\n      swap2\n      swap1\n      swap2\n      or\n      swap1\n      sstore\n        /* \"contract/Launchpad.sol\":14626:14866  function transferOwnership(address newOwner) public virtual onlyOwner {... */\n      jump\t// out\n        /* \"contract/Launchpad.sol\":18931:19027  function mul(uint256 a, uint256 b) internal pure returns (uint256) {... */\n    tag_239:\n        /* \"contract/Launchpad.sol\":18989:18996  uint256 */\n      0x00\n        /* \"contract/Launchpad.sol\":19015:19020  a * b */\n      tag_730\n        /* \"contract/Launchpad.sol\":19019:19020  b */\n      dup3\n        /* \"contract/Launchpad.sol\":19015:19016  a */\n      dup5\n        /* \"contract/Launchpad.sol\":19015:19020  a * b */\n      tag_731\n      jump\t// in\n    tag_730:\n        /* \"contract/Launchpad.sol\":19008:19020  return a * b */\n      swap4\n        /* \"contract/Launchpad.sol\":18931:19027  function mul(uint256 a, uint256 b) internal pure returns (uint256) {... */\n      swap3\n      pop\n      pop\n      pop\n      jump\t// out\n        /* \"contract/Launchpad.sol\":19316:19412  function div(uint256 a, uint256 b) internal pure returns (uint256) {... */\n    tag_240:\n        /* \"contract/Launchpad.sol\":19374:19381  uint256 */\n      0x00\n        /* \"contract/Launchpad.sol\":19400:19405  a / b */\n      tag_730\n        /* \"contract/Launchpad.sol\":19404:19405  b */\n      dup3\n        /* \"contract/Launchpad.sol\":19400:19401  a */\n      dup5\n        /* \"contract/Launchpad.sol\":19400:19405  a / b */\n      tag_734\n      jump\t// in\n        /* \"contract/Launchpad.sol\":18588:18684  function sub(uint256 a, uint256 b) internal pure returns (uint256) {... */\n    tag_241:\n        /* \"contract/Launchpad.sol\":18646:18653  uint256 */\n      0x00\n        /* \"contract/Launchpad.sol\":18672:18677  a - b */\n      tag_730\n        /* \"contract/Launchpad.sol\":18676:18677  b */\n      dup3\n        /* \"contract/Launchpad.sol\":18672:18673  a */\n      dup5\n        /* \"contract/Launchpad.sol\":18672:18677  a - b */\n      tag_714\n      jump\t// in\n        /* \"contract/Launchpad.sol\":22780:22885  function min(uint256 a, uint256 b) internal pure returns (uint256) {... */\n    tag_248:\n        /* \"contract/Launchpad.sol\":22838:22845  uint256 */\n      0x00\n        /* \"contract/Launchpad.sol\":22868:22869  b */\n      dup2\n        /* \"contract/Launchpad.sol\":22864:22865  a */\n      dup4\n        /* \"contract/Launchpad.sol\":22864:22869  a < b */\n      lt\n        /* \"contract/Launchpad.sol\":22864:22877  a < b ? a : b */\n      tag_738\n      jumpi\n        /* \"contract/Launchpad.sol\":22876:22877  b */\n      dup2\n        /* \"contract/Launchpad.sol\":22864:22877  a < b ? a : b */\n      jump(tag_730)\n    tag_738:\n      pop\n        /* \"contract/Launchpad.sol\":22872:22873  a */\n      swap1\n      swap2\n        /* \"contract/Launchpad.sol\":22780:22885  function min(uint256 a, uint256 b) internal pure returns (uint256) {... */\n      swap1\n      pop\n      jump\t// out\n        /* \"contract/Launchpad.sol\":9097:9262  function contains(AddressSet storage set, address value) internal view returns (bool) {... */\n    tag_438:\n      sub(shl(0xa0, 0x01), 0x01)\n        /* \"contract/Launchpad.sol\":9230:9253  uint256(uint160(value)) */\n      dup2\n      and\n        /* \"contract/Launchpad.sol\":9177:9181  bool */\n      0x00\n        /* \"contract/Launchpad.sol\":4764:4783  set._indexes[value] */\n      swap1\n      dup2\n      mstore\n        /* \"contract/Launchpad.sol\":4764:4776  set._indexes */\n      0x01\n      dup4\n      add\n        /* \"contract/Launchpad.sol\":4764:4783  set._indexes[value] */\n      0x20\n      mstore\n      0x40\n      dup2\n      keccak256\n      sload\n        /* \"contract/Launchpad.sol\":4764:4788  set._indexes[value] != 0 */\n      iszero\n      iszero\n        /* \"contract/Launchpad.sol\":9200:9255  _contains(set._inner, bytes32(uint256(uint160(value)))) */\n      tag_730\n        /* \"contract/Launchpad.sol\":4668:4795  function _contains(Set storage set, bytes32 value) private view returns (bool) {... */\n      jump\n        /* \"contract/Launchpad.sol\":8542:8692  function add(AddressSet storage set, address value) internal returns (bool) {... */\n    tag_472:\n        /* \"contract/Launchpad.sol\":8612:8616  bool */\n      0x00\n        /* \"contract/Launchpad.sol\":8635:8685  _add(set._inner, bytes32(uint256(uint160(value)))) */\n      tag_730\n        /* \"contract/Launchpad.sol\":8640:8643  set */\n      dup4\n      sub(shl(0xa0, 0x01), 0x01)\n        /* \"contract/Launchpad.sol\":8660:8683  uint256(uint160(value)) */\n      dup5\n      and\n        /* \"contract/Launchpad.sol\":8635:8639  _add */\n      tag_746\n        /* \"contract/Launchpad.sol\":8635:8685  _add(set._inner, bytes32(uint256(uint160(value)))) */\n      jump\t// in\n        /* \"contract/Launchpad.sol\":9343:9458  function length(AddressSet storage set) internal view returns (uint256) {... */\n    tag_476:\n        /* \"contract/Launchpad.sol\":9406:9413  uint256 */\n      0x00\n        /* \"contract/Launchpad.sol\":9432:9451  _length(set._inner) */\n      tag_437\n        /* \"contract/Launchpad.sol\":9440:9443  set */\n      dup3\n        /* \"contract/Launchpad.sol\":4958:4976  set._values.length */\n      sload\n      swap1\n        /* \"contract/Launchpad.sol\":4876:4983  function _length(Set storage set) private view returns (uint256) {... */\n      jump\n        /* \"contract/Launchpad.sol\":9800:9956  function at(AddressSet storage set, uint256 index) internal view returns (address) {... */\n    tag_541:\n        /* \"contract/Launchpad.sol\":9874:9881  address */\n      0x00\n        /* \"contract/Launchpad.sol\":9924:9946  _at(set._inner, index) */\n      tag_730\n        /* \"contract/Launchpad.sol\":9928:9931  set */\n      dup4\n        /* \"contract/Launchpad.sol\":9940:9945  index */\n      dup4\n        /* \"contract/Launchpad.sol\":9924:9927  _at */\n      tag_752\n        /* \"contract/Launchpad.sol\":9924:9946  _at(set._inner, index) */\n      jump\t// in\n        /* \"contract/Launchpad.sol\":8860:9016  function remove(AddressSet storage set, address value) internal returns (bool) {... */\n    tag_561:\n        /* \"contract/Launchpad.sol\":8933:8937  bool */\n      0x00\n        /* \"contract/Launchpad.sol\":8956:9009  _remove(set._inner, bytes32(uint256(uint160(value)))) */\n      tag_730\n        /* \"contract/Launchpad.sol\":8964:8967  set */\n      dup4\n      sub(shl(0xa0, 0x01), 0x01)\n        /* \"contract/Launchpad.sol\":8984:9007  uint256(uint160(value)) */\n      dup5\n      and\n        /* \"contract/Launchpad.sol\":8956:8963  _remove */\n      tag_755\n        /* \"contract/Launchpad.sol\":8956:9009  _remove(set._inner, bytes32(uint256(uint160(value)))) */\n      jump\t// in\n        /* \"contract/Launchpad.sol\":2627:3031  function _add(Set storage set, bytes32 value) private returns (bool) {... */\n    tag_746:\n        /* \"contract/Launchpad.sol\":2690:2694  bool */\n      0x00\n        /* \"contract/Launchpad.sol\":4764:4783  set._indexes[value] */\n      dup2\n      dup2\n      mstore\n        /* \"contract/Launchpad.sol\":4764:4776  set._indexes */\n      0x01\n      dup4\n      add\n        /* \"contract/Launchpad.sol\":4764:4783  set._indexes[value] */\n      0x20\n      mstore\n      0x40\n      dup2\n      keccak256\n      sload\n        /* \"contract/Launchpad.sol\":2706:3025  if (!_contains(set, value)) {... */\n      tag_759\n      jumpi\n      pop\n        /* \"contract/Launchpad.sol\":2748:2771  set._values.push(value) */\n      dup2\n      sload\n      0x01\n      dup2\n      dup2\n      add\n      dup5\n      sstore\n        /* \"contract/Launchpad.sol\":2748:2759  set._values */\n      0x00\n        /* \"contract/Launchpad.sol\":2748:2771  set._values.push(value) */\n      dup5\n      dup2\n      mstore\n      0x20\n      dup1\n      dup3\n      keccak256\n      swap1\n      swap4\n      add\n      dup5\n      swap1\n      sstore\n        /* \"contract/Launchpad.sol\":2928:2946  set._values.length */\n      dup5\n      sload\n        /* \"contract/Launchpad.sol\":2906:2925  set._indexes[value] */\n      dup5\n      dup3\n      mstore\n        /* \"contract/Launchpad.sol\":2906:2918  set._indexes */\n      dup3\n      dup7\n      add\n        /* \"contract/Launchpad.sol\":2906:2925  set._indexes[value] */\n      swap1\n      swap4\n      mstore\n      0x40\n      swap1\n      keccak256\n        /* \"contract/Launchpad.sol\":2906:2946  set._indexes[value] = set._values.length */\n      swap2\n      swap1\n      swap2\n      sstore\n        /* \"contract/Launchpad.sol\":2960:2971  return true */\n      jump(tag_437)\n        /* \"contract/Launchpad.sol\":2706:3025  if (!_contains(set, value)) {... */\n    tag_759:\n      pop\n        /* \"contract/Launchpad.sol\":3009:3014  false */\n      0x00\n        /* \"contract/Launchpad.sol\":3002:3014  return false */\n      jump(tag_437)\n        /* \"contract/Launchpad.sol\":5325:5443  function _at(Set storage set, uint256 index) private view returns (bytes32) {... */\n    tag_752:\n        /* \"contract/Launchpad.sol\":5392:5399  bytes32 */\n      0x00\n        /* \"contract/Launchpad.sol\":5418:5421  set */\n      dup3\n        /* \"contract/Launchpad.sol\":5418:5429  set._values */\n      0x00\n      add\n        /* \"contract/Launchpad.sol\":5430:5435  index */\n      dup3\n        /* \"contract/Launchpad.sol\":5418:5436  set._values[index] */\n      dup2\n      sload\n      dup2\n      lt\n      tag_765\n      jumpi\n      tag_765\n      tag_228\n      jump\t// in\n    tag_765:\n      swap1\n      0x00\n      mstore\n      keccak256(0x00, 0x20)\n      add\n      sload\n        /* \"contract/Launchpad.sol\":5411:5436  return set._values[index] */\n      swap1\n      pop\n        /* \"contract/Launchpad.sol\":5325:5443  function _at(Set storage set, uint256 index) private view returns (bytes32) {... */\n      swap3\n      swap2\n      pop\n      pop\n      jump\t// out\n        /* \"contract/Launchpad.sol\":3199:4587  function _remove(Set storage set, bytes32 value) private returns (bool) {... */\n    tag_755:\n        /* \"contract/Launchpad.sol\":3265:3269  bool */\n      0x00\n        /* \"contract/Launchpad.sol\":3402:3421  set._indexes[value] */\n      dup2\n      dup2\n      mstore\n        /* \"contract/Launchpad.sol\":3402:3414  set._indexes */\n      0x01\n      dup4\n      add\n        /* \"contract/Launchpad.sol\":3402:3421  set._indexes[value] */\n      0x20\n      mstore\n      0x40\n      dup2\n      keccak256\n      sload\n        /* \"contract/Launchpad.sol\":3436:3451  valueIndex != 0 */\n      dup1\n      iszero\n        /* \"contract/Launchpad.sol\":3432:4581  if (valueIndex != 0) {... */\n      tag_768\n      jumpi\n        /* \"contract/Launchpad.sol\":3805:3826  uint256 toDeleteIndex */\n      0x00\n        /* \"contract/Launchpad.sol\":3829:3843  valueIndex - 1 */\n      tag_769\n        /* \"contract/Launchpad.sol\":3842:3843  1 */\n      0x01\n        /* \"contract/Launchpad.sol\":3829:3839  valueIndex */\n      dup4\n        /* \"contract/Launchpad.sol\":3829:3843  valueIndex - 1 */\n      tag_714\n      jump\t// in\n    tag_769:\n        /* \"contract/Launchpad.sol\":3877:3895  set._values.length */\n      dup6\n      sload\n        /* \"contract/Launchpad.sol\":3805:3843  uint256 toDeleteIndex = valueIndex - 1 */\n      swap1\n      swap2\n      pop\n        /* \"contract/Launchpad.sol\":3857:3874  uint256 lastIndex */\n      0x00\n      swap1\n        /* \"contract/Launchpad.sol\":3877:3899  set._values.length - 1 */\n      tag_770\n      swap1\n        /* \"contract/Launchpad.sol\":3898:3899  1 */\n      0x01\n      swap1\n        /* \"contract/Launchpad.sol\":3877:3899  set._values.length - 1 */\n      tag_714\n      jump\t// in\n    tag_770:\n        /* \"contract/Launchpad.sol\":3857:3899  uint256 lastIndex = set._values.length - 1 */\n      swap1\n      pop\n        /* \"contract/Launchpad.sol\":3931:3944  toDeleteIndex */\n      dup2\n        /* \"contract/Launchpad.sol\":3918:3927  lastIndex */\n      dup2\n        /* \"contract/Launchpad.sol\":3918:3944  lastIndex != toDeleteIndex */\n      eq\n        /* \"contract/Launchpad.sol\":3914:4312  if (lastIndex != toDeleteIndex) {... */\n      tag_771\n      jumpi\n        /* \"contract/Launchpad.sol\":3964:3981  bytes32 lastvalue */\n      0x00\n        /* \"contract/Launchpad.sol\":3984:3987  set */\n      dup7\n        /* \"contract/Launchpad.sol\":3984:3995  set._values */\n      0x00\n      add\n        /* \"contract/Launchpad.sol\":3996:4005  lastIndex */\n      dup3\n        /* \"contract/Launchpad.sol\":3984:4006  set._values[lastIndex] */\n      dup2\n      sload\n      dup2\n      lt\n      tag_773\n      jumpi\n      tag_773\n      tag_228\n      jump\t// in\n    tag_773:\n      swap1\n      0x00\n      mstore\n      keccak256(0x00, 0x20)\n      add\n      sload\n        /* \"contract/Launchpad.sol\":3964:4006  bytes32 lastvalue = set._values[lastIndex] */\n      swap1\n      pop\n        /* \"contract/Launchpad.sol\":4135:4144  lastvalue */\n      dup1\n        /* \"contract/Launchpad.sol\":4106:4109  set */\n      dup8\n        /* \"contract/Launchpad.sol\":4106:4117  set._values */\n      0x00\n      add\n        /* \"contract/Launchpad.sol\":4118:4131  toDeleteIndex */\n      dup5\n        /* \"contract/Launchpad.sol\":4106:4132  set._values[toDeleteIndex] */\n      dup2\n      sload\n      dup2\n      lt\n      tag_776\n      jumpi\n      tag_776\n      tag_228\n      jump\t// in\n    tag_776:\n      0x00\n      swap2\n      dup3\n      mstore\n      0x20\n      dup1\n      dup4\n      keccak256\n      swap1\n      swap2\n      add\n        /* \"contract/Launchpad.sol\":4106:4144  set._values[toDeleteIndex] = lastvalue */\n      swap3\n      swap1\n      swap3\n      sstore\n        /* \"contract/Launchpad.sol\":4218:4241  set._indexes[lastvalue] */\n      swap2\n      dup3\n      mstore\n        /* \"contract/Launchpad.sol\":4218:4230  set._indexes */\n      0x01\n      dup9\n      add\n        /* \"contract/Launchpad.sol\":4218:4241  set._indexes[lastvalue] */\n      swap1\n      mstore\n      0x40\n      swap1\n      keccak256\n        /* \"contract/Launchpad.sol\":4218:4254  set._indexes[lastvalue] = valueIndex */\n      dup4\n      swap1\n      sstore\n        /* \"contract/Launchpad.sol\":3914:4312  if (lastIndex != toDeleteIndex) {... */\n    tag_771:\n        /* \"contract/Launchpad.sol\":4390:4407  set._values.pop() */\n      dup6\n      sload\n        /* \"contract/Launchpad.sol\":4390:4393  set */\n      dup7\n      swap1\n        /* \"contract/Launchpad.sol\":4390:4407  set._values.pop() */\n      dup1\n      tag_779\n      jumpi\n      tag_779\n      tag_780\n      jump\t// in\n    tag_779:\n      0x01\n      swap1\n      sub\n      dup2\n      dup2\n      swap1\n      0x00\n      mstore\n      keccak256(0x00, 0x20)\n      add\n      0x00\n      swap1\n      sstore\n      swap1\n      sstore\n        /* \"contract/Launchpad.sol\":4482:4485  set */\n      dup6\n        /* \"contract/Launchpad.sol\":4482:4494  set._indexes */\n      0x01\n      add\n        /* \"contract/Launchpad.sol\":4482:4501  set._indexes[value] */\n      0x00\n        /* \"contract/Launchpad.sol\":4495:4500  value */\n      dup7\n        /* \"contract/Launchpad.sol\":4482:4501  set._indexes[value] */\n      dup2\n      mstore\n      0x20\n      add\n      swap1\n      dup2\n      mstore\n      0x20\n      add\n      0x00\n      keccak256\n        /* \"contract/Launchpad.sol\":4475:4501  delete set._indexes[value] */\n      0x00\n      swap1\n      sstore\n        /* \"contract/Launchpad.sol\":4523:4527  true */\n      0x01\n        /* \"contract/Launchpad.sol\":4516:4527  return true */\n      swap4\n      pop\n      pop\n      pop\n      pop\n      jump(tag_437)\n        /* \"contract/Launchpad.sol\":3432:4581  if (valueIndex != 0) {... */\n    tag_768:\n        /* \"contract/Launchpad.sol\":4565:4570  false */\n      0x00\n        /* \"contract/Launchpad.sol\":4558:4570  return false */\n      swap2\n      pop\n      pop\n      jump(tag_437)\n    tag_338:\n      pop\n      dup1\n      sload\n      0x00\n      dup3\n      sstore\n      0x03\n      mul\n      swap1\n      0x00\n      mstore\n      keccak256(0x00, 0x20)\n      swap1\n      dup2\n      add\n      swap1\n      tag_401\n      swap2\n      swap1\n      tag_785\n      jump\t// in\n    tag_516:\n      pop\n      dup1\n      sload\n      0x00\n      dup3\n      sstore\n      0x02\n      mul\n      swap1\n      0x00\n      mstore\n      keccak256(0x00, 0x20)\n      swap1\n      dup2\n      add\n      swap1\n      tag_401\n      swap2\n      swap1\n      tag_788\n      jump\t// in\n    tag_785:\n    tag_789:\n      dup1\n      dup3\n      gt\n      iszero\n      tag_790\n      jumpi\n      0x00\n      dup1\n      dup3\n      sstore\n      0x01\n      dup3\n      add\n      dup1\n      sload\n      not(sub(shl(0xa0, 0x01), 0x01))\n      and\n      swap1\n      sstore\n      0x02\n      dup3\n      add\n      sstore\n      0x03\n      add\n      jump(tag_789)\n    tag_790:\n      pop\n      swap1\n      jump\t// out\n    tag_788:\n    tag_791:\n      dup1\n      dup3\n      gt\n      iszero\n      tag_790\n      jumpi\n      0x00\n      dup1\n      dup3\n      sstore\n      0x01\n      dup3\n      add\n      sstore\n      0x02\n      add\n      jump(tag_791)\n        /* \"#utility.yul\":14:187   */\n    tag_793:\n        /* \"#utility.yul\":82:102   */\n      dup1\n      calldataload\n      sub(shl(0xa0, 0x01), 0x01)\n        /* \"#utility.yul\":131:162   */\n      dup2\n      and\n        /* \"#utility.yul\":121:163   */\n      dup2\n      eq\n        /* \"#utility.yul\":111:181   */\n      tag_801\n      jumpi\n        /* \"#utility.yul\":177:178   */\n      0x00\n        /* \"#utility.yul\":174:175   */\n      dup1\n        /* \"#utility.yul\":167:179   */\n      revert\n        /* \"#utility.yul\":111:181   */\n    tag_801:\n        /* \"#utility.yul\":14:187   */\n      swap2\n      swap1\n      pop\n      jump\t// out\n        /* \"#utility.yul\":192:378   */\n    tag_49:\n        /* \"#utility.yul\":251:257   */\n      0x00\n        /* \"#utility.yul\":304:306   */\n      0x20\n        /* \"#utility.yul\":292:301   */\n      dup3\n        /* \"#utility.yul\":283:290   */\n      dup5\n        /* \"#utility.yul\":279:302   */\n      sub\n        /* \"#utility.yul\":275:307   */\n      slt\n        /* \"#utility.yul\":272:324   */\n      iszero\n      tag_803\n      jumpi\n        /* \"#utility.yul\":320:321   */\n      0x00\n        /* \"#utility.yul\":317:318   */\n      dup1\n        /* \"#utility.yul\":310:322   */\n      revert\n        /* \"#utility.yul\":272:324   */\n    tag_803:\n        /* \"#utility.yul\":343:372   */\n      tag_730\n        /* \"#utility.yul\":362:371   */\n      dup3\n        /* \"#utility.yul\":343:372   */\n      tag_793\n      jump\t// in\n        /* \"#utility.yul\":1277:1457   */\n    tag_67:\n        /* \"#utility.yul\":1336:1342   */\n      0x00\n        /* \"#utility.yul\":1389:1391   */\n      0x20\n        /* \"#utility.yul\":1377:1386   */\n      dup3\n        /* \"#utility.yul\":1368:1375   */\n      dup5\n        /* \"#utility.yul\":1364:1387   */\n      sub\n        /* \"#utility.yul\":1360:1392   */\n      slt\n        /* \"#utility.yul\":1357:1409   */\n      iszero\n      tag_809\n      jumpi\n        /* \"#utility.yul\":1405:1406   */\n      0x00\n        /* \"#utility.yul\":1402:1403   */\n      dup1\n        /* \"#utility.yul\":1395:1407   */\n      revert\n        /* \"#utility.yul\":1357:1409   */\n    tag_809:\n      pop\n        /* \"#utility.yul\":1428:1451   */\n      calldataload\n      swap2\n        /* \"#utility.yul\":1277:1457   */\n      swap1\n      pop\n      jump\t// out\n        /* \"#utility.yul\":1462:1829   */\n    tag_794:\n        /* \"#utility.yul\":1525:1533   */\n      0x00\n        /* \"#utility.yul\":1535:1541   */\n      dup1\n        /* \"#utility.yul\":1589:1592   */\n      dup4\n        /* \"#utility.yul\":1582:1586   */\n      0x1f\n        /* \"#utility.yul\":1574:1580   */\n      dup5\n        /* \"#utility.yul\":1570:1587   */\n      add\n        /* \"#utility.yul\":1566:1593   */\n      slt\n        /* \"#utility.yul\":1556:1611   */\n      tag_811\n      jumpi\n        /* \"#utility.yul\":1607:1608   */\n      0x00\n        /* \"#utility.yul\":1604:1605   */\n      dup1\n        /* \"#utility.yul\":1597:1609   */\n      revert\n        /* \"#utility.yul\":1556:1611   */\n    tag_811:\n      pop\n        /* \"#utility.yul\":1630:1650   */\n      dup2\n      calldataload\n        /* \"#utility.yul\":1673:1691   */\n      0xffffffffffffffff\n        /* \"#utility.yul\":1662:1692   */\n      dup2\n      gt\n        /* \"#utility.yul\":1659:1709   */\n      iszero\n      tag_812\n      jumpi\n        /* \"#utility.yul\":1705:1706   */\n      0x00\n        /* \"#utility.yul\":1702:1703   */\n      dup1\n        /* \"#utility.yul\":1695:1707   */\n      revert\n        /* \"#utility.yul\":1659:1709   */\n    tag_812:\n        /* \"#utility.yul\":1742:1746   */\n      0x20\n        /* \"#utility.yul\":1734:1740   */\n      dup4\n        /* \"#utility.yul\":1730:1747   */\n      add\n        /* \"#utility.yul\":1718:1747   */\n      swap2\n      pop\n        /* \"#utility.yul\":1802:1805   */\n      dup4\n        /* \"#utility.yul\":1795:1799   */\n      0x20\n        /* \"#utility.yul\":1785:1791   */\n      dup3\n        /* \"#utility.yul\":1782:1783   */\n      0x05\n        /* \"#utility.yul\":1778:1792   */\n      shl\n        /* \"#utility.yul\":1770:1776   */\n      dup6\n        /* \"#utility.yul\":1766:1793   */\n      add\n        /* \"#utility.yul\":1762:1800   */\n      add\n        /* \"#utility.yul\":1759:1806   */\n      gt\n        /* \"#utility.yul\":1756:1823   */\n      iszero\n      tag_813\n      jumpi\n        /* \"#utility.yul\":1819:1820   */\n      0x00\n        /* \"#utility.yul\":1816:1817   */\n      dup1\n        /* \"#utility.yul\":1809:1821   */\n      revert\n        /* \"#utility.yul\":1756:1823   */\n    tag_813:\n        /* \"#utility.yul\":1462:1829   */\n      swap3\n      pop\n      swap3\n      swap1\n      pop\n      jump\t// out\n        /* \"#utility.yul\":1834:2922   */\n    tag_80:\n        /* \"#utility.yul\":1992:1998   */\n      0x00\n        /* \"#utility.yul\":2000:2006   */\n      dup1\n        /* \"#utility.yul\":2008:2014   */\n      0x00\n        /* \"#utility.yul\":2016:2022   */\n      dup1\n        /* \"#utility.yul\":2024:2030   */\n      0x00\n        /* \"#utility.yul\":2032:2038   */\n      dup1\n        /* \"#utility.yul\":2085:2087   */\n      0x60\n        /* \"#utility.yul\":2073:2082   */\n      dup8\n        /* \"#utility.yul\":2064:2071   */\n      dup10\n        /* \"#utility.yul\":2060:2083   */\n      sub\n        /* \"#utility.yul\":2056:2088   */\n      slt\n        /* \"#utility.yul\":2053:2105   */\n      iszero\n      tag_815\n      jumpi\n        /* \"#utility.yul\":2101:2102   */\n      0x00\n        /* \"#utility.yul\":2098:2099   */\n      dup1\n        /* \"#utility.yul\":2091:2103   */\n      revert\n        /* \"#utility.yul\":2053:2105   */\n    tag_815:\n        /* \"#utility.yul\":2141:2150   */\n      dup7\n        /* \"#utility.yul\":2128:2151   */\n      calldataload\n        /* \"#utility.yul\":2170:2188   */\n      0xffffffffffffffff\n        /* \"#utility.yul\":2211:2213   */\n      dup1\n        /* \"#utility.yul\":2203:2209   */\n      dup3\n        /* \"#utility.yul\":2200:2214   */\n      gt\n        /* \"#utility.yul\":2197:2231   */\n      iszero\n      tag_816\n      jumpi\n        /* \"#utility.yul\":2227:2228   */\n      0x00\n        /* \"#utility.yul\":2224:2225   */\n      dup1\n        /* \"#utility.yul\":2217:2229   */\n      revert\n        /* \"#utility.yul\":2197:2231   */\n    tag_816:\n        /* \"#utility.yul\":2266:2336   */\n      tag_817\n        /* \"#utility.yul\":2328:2335   */\n      dup11\n        /* \"#utility.yul\":2319:2325   */\n      dup4\n        /* \"#utility.yul\":2308:2317   */\n      dup12\n        /* \"#utility.yul\":2304:2326   */\n      add\n        /* \"#utility.yul\":2266:2336   */\n      tag_794\n      jump\t// in\n    tag_817:\n        /* \"#utility.yul\":2355:2363   */\n      swap1\n      swap9\n      pop\n        /* \"#utility.yul\":2240:2336   */\n      swap7\n      pop\n        /* \"#utility.yul\":2443:2445   */\n      0x20\n        /* \"#utility.yul\":2428:2446   */\n      dup10\n      add\n        /* \"#utility.yul\":2415:2447   */\n      calldataload\n      swap2\n      pop\n        /* \"#utility.yul\":2459:2475   */\n      dup1\n      dup3\n      gt\n        /* \"#utility.yul\":2456:2492   */\n      iszero\n      tag_818\n      jumpi\n        /* \"#utility.yul\":2488:2489   */\n      0x00\n        /* \"#utility.yul\":2485:2486   */\n      dup1\n        /* \"#utility.yul\":2478:2490   */\n      revert\n        /* \"#utility.yul\":2456:2492   */\n    tag_818:\n        /* \"#utility.yul\":2527:2599   */\n      tag_819\n        /* \"#utility.yul\":2591:2598   */\n      dup11\n        /* \"#utility.yul\":2580:2588   */\n      dup4\n        /* \"#utility.yul\":2569:2578   */\n      dup12\n        /* \"#utility.yul\":2565:2589   */\n      add\n        /* \"#utility.yul\":2527:2599   */\n      tag_794\n      jump\t// in\n    tag_819:\n        /* \"#utility.yul\":2618:2626   */\n      swap1\n      swap7\n      pop\n        /* \"#utility.yul\":2501:2599   */\n      swap5\n      pop\n        /* \"#utility.yul\":2706:2708   */\n      0x40\n        /* \"#utility.yul\":2691:2709   */\n      dup10\n      add\n        /* \"#utility.yul\":2678:2710   */\n      calldataload\n      swap2\n      pop\n        /* \"#utility.yul\":2722:2738   */\n      dup1\n      dup3\n      gt\n        /* \"#utility.yul\":2719:2755   */\n      iszero\n      tag_820\n      jumpi\n        /* \"#utility.yul\":2751:2752   */\n      0x00\n        /* \"#utility.yul\":2748:2749   */\n      dup1\n        /* \"#utility.yul\":2741:2753   */\n      revert\n        /* \"#utility.yul\":2719:2755   */\n    tag_820:\n      pop\n        /* \"#utility.yul\":2790:2862   */\n      tag_821\n        /* \"#utility.yul\":2854:2861   */\n      dup10\n        /* \"#utility.yul\":2843:2851   */\n      dup3\n        /* \"#utility.yul\":2832:2841   */\n      dup11\n        /* \"#utility.yul\":2828:2852   */\n      add\n        /* \"#utility.yul\":2790:2862   */\n      tag_794\n      jump\t// in\n    tag_821:\n        /* \"#utility.yul\":1834:2922   */\n      swap8\n      swap11\n      swap7\n      swap10\n      pop\n      swap5\n      swap8\n      pop\n      swap3\n      swap6\n        /* \"#utility.yul\":2881:2889   */\n      swap4\n      swap5\n        /* \"#utility.yul\":1834:2922   */\n      swap3\n      pop\n      pop\n      pop\n      jump\t// out\n        /* \"#utility.yul\":2927:3243   */\n    tag_99:\n        /* \"#utility.yul\":3004:3010   */\n      0x00\n        /* \"#utility.yul\":3012:3018   */\n      dup1\n        /* \"#utility.yul\":3020:3026   */\n      0x00\n        /* \"#utility.yul\":3073:3075   */\n      0x60\n        /* \"#utility.yul\":3061:3070   */\n      dup5\n        /* \"#utility.yul\":3052:3059   */\n      dup7\n        /* \"#utility.yul\":3048:3071   */\n      sub\n        /* \"#utility.yul\":3044:3076   */\n      slt\n        /* \"#utility.yul\":3041:3093   */\n      iszero\n      tag_823\n      jumpi\n        /* \"#utility.yul\":3089:3090   */\n      0x00\n        /* \"#utility.yul\":3086:3087   */\n      dup1\n        /* \"#utility.yul\":3079:3091   */\n      revert\n        /* \"#utility.yul\":3041:3093   */\n    tag_823:\n      pop\n      pop\n        /* \"#utility.yul\":3112:3135   */\n      dup2\n      calldataload\n      swap4\n        /* \"#utility.yul\":3182:3184   */\n      0x20\n        /* \"#utility.yul\":3167:3185   */\n      dup4\n      add\n        /* \"#utility.yul\":3154:3186   */\n      calldataload\n      swap4\n      pop\n        /* \"#utility.yul\":3233:3235   */\n      0x40\n        /* \"#utility.yul\":3218:3236   */\n      swap1\n      swap3\n      add\n        /* \"#utility.yul\":3205:3237   */\n      calldataload\n      swap2\n        /* \"#utility.yul\":2927:3243   */\n      swap1\n      pop\n      jump\t// out\n        /* \"#utility.yul\":4053:4171   */\n    tag_795:\n        /* \"#utility.yul\":4139:4144   */\n      dup1\n        /* \"#utility.yul\":4132:4145   */\n      iszero\n        /* \"#utility.yul\":4125:4146   */\n      iszero\n        /* \"#utility.yul\":4118:4123   */\n      dup2\n        /* \"#utility.yul\":4115:4147   */\n      eq\n        /* \"#utility.yul\":4105:4165   */\n      tag_401\n      jumpi\n        /* \"#utility.yul\":4161:4162   */\n      0x00\n        /* \"#utility.yul\":4158:4159   */\n      dup1\n        /* \"#utility.yul\":4151:4163   */\n      revert\n        /* \"#utility.yul\":4176:4417   */\n    tag_123:\n        /* \"#utility.yul\":4232:4238   */\n      0x00\n        /* \"#utility.yul\":4285:4287   */\n      0x20\n        /* \"#utility.yul\":4273:4282   */\n      dup3\n        /* \"#utility.yul\":4264:4271   */\n      dup5\n        /* \"#utility.yul\":4260:4283   */\n      sub\n        /* \"#utility.yul\":4256:4288   */\n      slt\n        /* \"#utility.yul\":4253:4305   */\n      iszero\n      tag_829\n      jumpi\n        /* \"#utility.yul\":4301:4302   */\n      0x00\n        /* \"#utility.yul\":4298:4299   */\n      dup1\n        /* \"#utility.yul\":4291:4303   */\n      revert\n        /* \"#utility.yul\":4253:4305   */\n    tag_829:\n        /* \"#utility.yul\":4340:4349   */\n      dup2\n        /* \"#utility.yul\":4327:4350   */\n      calldataload\n        /* \"#utility.yul\":4359:4387   */\n      tag_730\n        /* \"#utility.yul\":4381:4386   */\n      dup2\n        /* \"#utility.yul\":4359:4387   */\n      tag_795\n      jump\t// in\n        /* \"#utility.yul\":4422:5299   */\n    tag_133:\n        /* \"#utility.yul\":4651:4653   */\n      0x20\n        /* \"#utility.yul\":4703:4724   */\n      dup1\n      dup3\n      mstore\n        /* \"#utility.yul\":4773:4786   */\n      dup3\n      mload\n        /* \"#utility.yul\":4676:4694   */\n      dup3\n      dup3\n      add\n        /* \"#utility.yul\":4795:4817   */\n      dup2\n      swap1\n      mstore\n        /* \"#utility.yul\":4622:4626   */\n      0x00\n      swap2\n        /* \"#utility.yul\":4651:4653   */\n      swap1\n        /* \"#utility.yul\":4836:4838   */\n      0x40\n      swap1\n        /* \"#utility.yul\":4854:4872   */\n      dup2\n      dup6\n      add\n      swap1\n        /* \"#utility.yul\":4895:4910   */\n      dup7\n      dup5\n      add\n        /* \"#utility.yul\":4622:4626   */\n      dup6\n        /* \"#utility.yul\":4938:5273   */\n    tag_832:\n        /* \"#utility.yul\":4952:4958   */\n      dup3\n        /* \"#utility.yul\":4949:4950   */\n      dup2\n        /* \"#utility.yul\":4946:4959   */\n      lt\n        /* \"#utility.yul\":4938:5273   */\n      iszero\n      tag_834\n      jumpi\n        /* \"#utility.yul\":5011:5024   */\n      dup2\n      mload\n        /* \"#utility.yul\":5049:5058   */\n      dup1\n      mload\n        /* \"#utility.yul\":5037:5059   */\n      dup6\n      mstore\n        /* \"#utility.yul\":5103:5114   */\n      dup7\n      dup2\n      add\n        /* \"#utility.yul\":5097:5115   */\n      mload\n      sub(shl(0xa0, 0x01), 0x01)\n        /* \"#utility.yul\":5093:5137   */\n      and\n        /* \"#utility.yul\":5079:5091   */\n      dup8\n      dup7\n      add\n        /* \"#utility.yul\":5072:5138   */\n      mstore\n        /* \"#utility.yul\":5178:5189   */\n      dup6\n      add\n        /* \"#utility.yul\":5172:5190   */\n      mload\n        /* \"#utility.yul\":5158:5170   */\n      dup6\n      dup6\n      add\n        /* \"#utility.yul\":5151:5191   */\n      mstore\n        /* \"#utility.yul\":5220:5224   */\n      0x60\n        /* \"#utility.yul\":5211:5225   */\n      swap1\n      swap4\n      add\n      swap3\n        /* \"#utility.yul\":5248:5263   */\n      swap1\n      dup6\n      add\n      swap1\n        /* \"#utility.yul\":5134:5135   */\n      0x01\n        /* \"#utility.yul\":4967:4976   */\n      add\n        /* \"#utility.yul\":4938:5273   */\n      jump(tag_832)\n    tag_834:\n      pop\n        /* \"#utility.yul\":5290:5293   */\n      swap2\n      swap8\n        /* \"#utility.yul\":4422:5299   */\n      swap7\n      pop\n      pop\n      pop\n      pop\n      pop\n      pop\n      pop\n      jump\t// out\n        /* \"#utility.yul\":5512:5766   */\n    tag_154:\n        /* \"#utility.yul\":5580:5586   */\n      0x00\n        /* \"#utility.yul\":5588:5594   */\n      dup1\n        /* \"#utility.yul\":5641:5643   */\n      0x40\n        /* \"#utility.yul\":5629:5638   */\n      dup4\n        /* \"#utility.yul\":5620:5627   */\n      dup6\n        /* \"#utility.yul\":5616:5639   */\n      sub\n        /* \"#utility.yul\":5612:5644   */\n      slt\n        /* \"#utility.yul\":5609:5661   */\n      iszero\n      tag_837\n      jumpi\n        /* \"#utility.yul\":5657:5658   */\n      0x00\n        /* \"#utility.yul\":5654:5655   */\n      dup1\n        /* \"#utility.yul\":5647:5659   */\n      revert\n        /* \"#utility.yul\":5609:5661   */\n    tag_837:\n        /* \"#utility.yul\":5680:5709   */\n      tag_838\n        /* \"#utility.yul\":5699:5708   */\n      dup4\n        /* \"#utility.yul\":5680:5709   */\n      tag_793\n      jump\t// in\n    tag_838:\n        /* \"#utility.yul\":5670:5709   */\n      swap5\n        /* \"#utility.yul\":5756:5758   */\n      0x20\n        /* \"#utility.yul\":5741:5759   */\n      swap4\n      swap1\n      swap4\n      add\n        /* \"#utility.yul\":5728:5760   */\n      calldataload\n      swap4\n      pop\n      pop\n      pop\n        /* \"#utility.yul\":5512:5766   */\n      jump\t// out\n        /* \"#utility.yul\":5771:6544   */\n    tag_163:\n        /* \"#utility.yul\":5893:5899   */\n      0x00\n        /* \"#utility.yul\":5901:5907   */\n      dup1\n        /* \"#utility.yul\":5909:5915   */\n      0x00\n        /* \"#utility.yul\":5917:5923   */\n      dup1\n        /* \"#utility.yul\":5970:5972   */\n      0x40\n        /* \"#utility.yul\":5958:5967   */\n      dup6\n        /* \"#utility.yul\":5949:5956   */\n      dup8\n        /* \"#utility.yul\":5945:5968   */\n      sub\n        /* \"#utility.yul\":5941:5973   */\n      slt\n        /* \"#utility.yul\":5938:5990   */\n      iszero\n      tag_840\n      jumpi\n        /* \"#utility.yul\":5986:5987   */\n      0x00\n        /* \"#utility.yul\":5983:5984   */\n      dup1\n        /* \"#utility.yul\":5976:5988   */\n      revert\n        /* \"#utility.yul\":5938:5990   */\n    tag_840:\n        /* \"#utility.yul\":6026:6035   */\n      dup5\n        /* \"#utility.yul\":6013:6036   */\n      calldataload\n        /* \"#utility.yul\":6055:6073   */\n      0xffffffffffffffff\n        /* \"#utility.yul\":6096:6098   */\n      dup1\n        /* \"#utility.yul\":6088:6094   */\n      dup3\n        /* \"#utility.yul\":6085:6099   */\n      gt\n        /* \"#utility.yul\":6082:6116   */\n      iszero\n      tag_841\n      jumpi\n        /* \"#utility.yul\":6112:6113   */\n      0x00\n        /* \"#utility.yul\":6109:6110   */\n      dup1\n        /* \"#utility.yul\":6102:6114   */\n      revert\n        /* \"#utility.yul\":6082:6116   */\n    tag_841:\n        /* \"#utility.yul\":6151:6221   */\n      tag_842\n        /* \"#utility.yul\":6213:6220   */\n      dup9\n        /* \"#utility.yul\":6204:6210   */\n      dup4\n        /* \"#utility.yul\":6193:6202   */\n      dup10\n        /* \"#utility.yul\":6189:6211   */\n      add\n        /* \"#utility.yul\":6151:6221   */\n      tag_794\n      jump\t// in\n    tag_842:\n        /* \"#utility.yul\":6240:6248   */\n      swap1\n      swap7\n      pop\n        /* \"#utility.yul\":6125:6221   */\n      swap5\n      pop\n        /* \"#utility.yul\":6328:6330   */\n      0x20\n        /* \"#utility.yul\":6313:6331   */\n      dup8\n      add\n        /* \"#utility.yul\":6300:6332   */\n      calldataload\n      swap2\n      pop\n        /* \"#utility.yul\":6344:6360   */\n      dup1\n      dup3\n      gt\n        /* \"#utility.yul\":6341:6377   */\n      iszero\n      tag_843\n      jumpi\n        /* \"#utility.yul\":6373:6374   */\n      0x00\n        /* \"#utility.yul\":6370:6371   */\n      dup1\n        /* \"#utility.yul\":6363:6375   */\n      revert\n        /* \"#utility.yul\":6341:6377   */\n    tag_843:\n      pop\n        /* \"#utility.yul\":6412:6484   */\n      tag_844\n        /* \"#utility.yul\":6476:6483   */\n      dup8\n        /* \"#utility.yul\":6465:6473   */\n      dup3\n        /* \"#utility.yul\":6454:6463   */\n      dup9\n        /* \"#utility.yul\":6450:6474   */\n      add\n        /* \"#utility.yul\":6412:6484   */\n      tag_794\n      jump\t// in\n    tag_844:\n        /* \"#utility.yul\":5771:6544   */\n      swap6\n      swap9\n      swap5\n      swap8\n      pop\n        /* \"#utility.yul\":6503:6511   */\n      swap6\n      pop\n      pop\n      pop\n      pop\n        /* \"#utility.yul\":5771:6544   */\n      jump\t// out\n        /* \"#utility.yul\":6549:7345   */\n    tag_169:\n        /* \"#utility.yul\":6778:6780   */\n      0x20\n        /* \"#utility.yul\":6830:6851   */\n      dup1\n      dup3\n      mstore\n        /* \"#utility.yul\":6900:6913   */\n      dup3\n      mload\n        /* \"#utility.yul\":6803:6821   */\n      dup3\n      dup3\n      add\n        /* \"#utility.yul\":6922:6944   */\n      dup2\n      swap1\n      mstore\n        /* \"#utility.yul\":6749:6753   */\n      0x00\n      swap2\n        /* \"#utility.yul\":6778:6780   */\n      swap1\n        /* \"#utility.yul\":6963:6965   */\n      0x40\n      swap1\n        /* \"#utility.yul\":6981:6999   */\n      dup2\n      dup6\n      add\n      swap1\n        /* \"#utility.yul\":7022:7037   */\n      dup7\n      dup5\n      add\n        /* \"#utility.yul\":6749:6753   */\n      dup6\n        /* \"#utility.yul\":7065:7319   */\n    tag_846:\n        /* \"#utility.yul\":7079:7085   */\n      dup3\n        /* \"#utility.yul\":7076:7077   */\n      dup2\n        /* \"#utility.yul\":7073:7086   */\n      lt\n        /* \"#utility.yul\":7065:7319   */\n      iszero\n      tag_834\n      jumpi\n        /* \"#utility.yul\":7138:7151   */\n      dup2\n      mload\n        /* \"#utility.yul\":7176:7185   */\n      dup1\n      mload\n        /* \"#utility.yul\":7164:7186   */\n      dup6\n      mstore\n        /* \"#utility.yul\":7226:7237   */\n      dup7\n      add\n        /* \"#utility.yul\":7220:7238   */\n      mload\n        /* \"#utility.yul\":7206:7218   */\n      dup7\n      dup6\n      add\n        /* \"#utility.yul\":7199:7239   */\n      mstore\n        /* \"#utility.yul\":7259:7271   */\n      swap3\n      dup5\n      add\n      swap3\n        /* \"#utility.yul\":7294:7309   */\n      swap1\n      dup6\n      add\n      swap1\n        /* \"#utility.yul\":7101:7102   */\n      0x01\n        /* \"#utility.yul\":7094:7103   */\n      add\n        /* \"#utility.yul\":7065:7319   */\n      jump(tag_846)\n        /* \"#utility.yul\":7717:8045   */\n    tag_195:\n        /* \"#utility.yul\":7794:7800   */\n      0x00\n        /* \"#utility.yul\":7802:7808   */\n      dup1\n        /* \"#utility.yul\":7810:7816   */\n      0x00\n        /* \"#utility.yul\":7863:7865   */\n      0x60\n        /* \"#utility.yul\":7851:7860   */\n      dup5\n        /* \"#utility.yul\":7842:7849   */\n      dup7\n        /* \"#utility.yul\":7838:7861   */\n      sub\n        /* \"#utility.yul\":7834:7866   */\n      slt\n        /* \"#utility.yul\":7831:7883   */\n      iszero\n      tag_851\n      jumpi\n        /* \"#utility.yul\":7879:7880   */\n      0x00\n        /* \"#utility.yul\":7876:7877   */\n      dup1\n        /* \"#utility.yul\":7869:7881   */\n      revert\n        /* \"#utility.yul\":7831:7883   */\n    tag_851:\n        /* \"#utility.yul\":7902:7931   */\n      tag_852\n        /* \"#utility.yul\":7921:7930   */\n      dup5\n        /* \"#utility.yul\":7902:7931   */\n      tag_793\n      jump\t// in\n    tag_852:\n        /* \"#utility.yul\":7892:7931   */\n      swap3\n      pop\n        /* \"#utility.yul\":7950:7988   */\n      tag_853\n        /* \"#utility.yul\":7984:7986   */\n      0x20\n        /* \"#utility.yul\":7973:7982   */\n      dup6\n        /* \"#utility.yul\":7969:7987   */\n      add\n        /* \"#utility.yul\":7950:7988   */\n      tag_793\n      jump\t// in\n    tag_853:\n        /* \"#utility.yul\":7940:7988   */\n      swap2\n      pop\n        /* \"#utility.yul\":8035:8037   */\n      0x40\n        /* \"#utility.yul\":8024:8033   */\n      dup5\n        /* \"#utility.yul\":8020:8038   */\n      add\n        /* \"#utility.yul\":8007:8039   */\n      calldataload\n        /* \"#utility.yul\":7997:8039   */\n      swap1\n      pop\n        /* \"#utility.yul\":7717:8045   */\n      swap3\n      pop\n      swap3\n      pop\n      swap3\n      jump\t// out\n        /* \"#utility.yul\":8050:8234   */\n    tag_219:\n        /* \"#utility.yul\":8120:8126   */\n      0x00\n        /* \"#utility.yul\":8173:8175   */\n      0x20\n        /* \"#utility.yul\":8161:8170   */\n      dup3\n        /* \"#utility.yul\":8152:8159   */\n      dup5\n        /* \"#utility.yul\":8148:8171   */\n      sub\n        /* \"#utility.yul\":8144:8176   */\n      slt\n        /* \"#utility.yul\":8141:8193   */\n      iszero\n      tag_855\n      jumpi\n        /* \"#utility.yul\":8189:8190   */\n      0x00\n        /* \"#utility.yul\":8186:8187   */\n      dup1\n        /* \"#utility.yul\":8179:8191   */\n      revert\n        /* \"#utility.yul\":8141:8193   */\n    tag_855:\n      pop\n        /* \"#utility.yul\":8212:8228   */\n      mload\n      swap2\n        /* \"#utility.yul\":8050:8234   */\n      swap1\n      pop\n      jump\t// out\n        /* \"#utility.yul\":8239:8366   */\n    tag_228:\n        /* \"#utility.yul\":8300:8310   */\n      0x4e487b71\n        /* \"#utility.yul\":8295:8298   */\n      0xe0\n        /* \"#utility.yul\":8291:8311   */\n      shl\n        /* \"#utility.yul\":8288:8289   */\n      0x00\n        /* \"#utility.yul\":8281:8312   */\n      mstore\n        /* \"#utility.yul\":8331:8335   */\n      0x32\n        /* \"#utility.yul\":8328:8329   */\n      0x04\n        /* \"#utility.yul\":8321:8336   */\n      mstore\n        /* \"#utility.yul\":8355:8359   */\n      0x24\n        /* \"#utility.yul\":8352:8353   */\n      0x00\n        /* \"#utility.yul\":8345:8360   */\n      revert\n        /* \"#utility.yul\":8371:8498   */\n    tag_796:\n        /* \"#utility.yul\":8432:8442   */\n      0x4e487b71\n        /* \"#utility.yul\":8427:8430   */\n      0xe0\n        /* \"#utility.yul\":8423:8443   */\n      shl\n        /* \"#utility.yul\":8420:8421   */\n      0x00\n        /* \"#utility.yul\":8413:8444   */\n      mstore\n        /* \"#utility.yul\":8463:8467   */\n      0x11\n        /* \"#utility.yul\":8460:8461   */\n      0x04\n        /* \"#utility.yul\":8453:8468   */\n      mstore\n        /* \"#utility.yul\":8487:8491   */\n      0x24\n        /* \"#utility.yul\":8484:8485   */\n      0x00\n        /* \"#utility.yul\":8477:8492   */\n      revert\n        /* \"#utility.yul\":8503:8631   */\n    tag_232:\n        /* \"#utility.yul\":8543:8546   */\n      0x00\n        /* \"#utility.yul\":8574:8575   */\n      dup3\n        /* \"#utility.yul\":8570:8576   */\n      not\n        /* \"#utility.yul\":8567:8568   */\n      dup3\n        /* \"#utility.yul\":8564:8577   */\n      gt\n        /* \"#utility.yul\":8561:8600   */\n      iszero\n      tag_860\n      jumpi\n        /* \"#utility.yul\":8580:8598   */\n      tag_860\n      tag_796\n      jump\t// in\n    tag_860:\n      pop\n        /* \"#utility.yul\":8616:8625   */\n      add\n      swap1\n        /* \"#utility.yul\":8503:8631   */\n      jump\t// out\n        /* \"#utility.yul\":8636:8771   */\n    tag_234:\n        /* \"#utility.yul\":8675:8678   */\n      0x00\n      not(0x00)\n        /* \"#utility.yul\":8696:8713   */\n      dup3\n      eq\n        /* \"#utility.yul\":8693:8736   */\n      iszero\n      tag_863\n      jumpi\n        /* \"#utility.yul\":8716:8734   */\n      tag_863\n      tag_796\n      jump\t// in\n    tag_863:\n      pop\n        /* \"#utility.yul\":8763:8764   */\n      0x01\n        /* \"#utility.yul\":8752:8765   */\n      add\n      swap1\n        /* \"#utility.yul\":8636:8771   */\n      jump\t// out\n        /* \"#utility.yul\":8776:9177   */\n    tag_262:\n        /* \"#utility.yul\":8978:8980   */\n      0x20\n        /* \"#utility.yul\":8960:8981   */\n      dup1\n      dup3\n      mstore\n        /* \"#utility.yul\":9017:9019   */\n      0x25\n        /* \"#utility.yul\":8997:9015   */\n      swap1\n      dup3\n      add\n        /* \"#utility.yul\":8990:9020   */\n      mstore\n        /* \"#utility.yul\":9056:9090   */\n      0x4f776e61626c653a2063616c6c6572206973206e6f742074686520636f6e7472\n        /* \"#utility.yul\":9051:9053   */\n      0x40\n        /* \"#utility.yul\":9036:9054   */\n      dup3\n      add\n        /* \"#utility.yul\":9029:9091   */\n      mstore\n      shl(0xd9, 0x37b63632b9)\n        /* \"#utility.yul\":9122:9124   */\n      0x60\n        /* \"#utility.yul\":9107:9125   */\n      dup3\n      add\n        /* \"#utility.yul\":9100:9135   */\n      mstore\n        /* \"#utility.yul\":9167:9170   */\n      0x80\n        /* \"#utility.yul\":9152:9171   */\n      add\n      swap1\n        /* \"#utility.yul\":8776:9177   */\n      jump\t// out\n        /* \"#utility.yul\":9182:9526   */\n    tag_266:\n        /* \"#utility.yul\":9384:9386   */\n      0x20\n        /* \"#utility.yul\":9366:9387   */\n      dup1\n      dup3\n      mstore\n        /* \"#utility.yul\":9423:9425   */\n      0x14\n        /* \"#utility.yul\":9403:9421   */\n      swap1\n      dup3\n      add\n        /* \"#utility.yul\":9396:9426   */\n      mstore\n      shl(0x62, 0x1d1a1a5cc81c1bdbdb081a5cc81b9bdd08195b99)\n        /* \"#utility.yul\":9457:9459   */\n      0x40\n        /* \"#utility.yul\":9442:9460   */\n      dup3\n      add\n        /* \"#utility.yul\":9435:9485   */\n      mstore\n        /* \"#utility.yul\":9517:9519   */\n      0x60\n        /* \"#utility.yul\":9502:9520   */\n      add\n      swap1\n        /* \"#utility.yul\":9182:9526   */\n      jump\t// out\n        /* \"#utility.yul\":10237:10482   */\n    tag_299:\n        /* \"#utility.yul\":10304:10310   */\n      0x00\n        /* \"#utility.yul\":10357:10359   */\n      0x20\n        /* \"#utility.yul\":10345:10354   */\n      dup3\n        /* \"#utility.yul\":10336:10343   */\n      dup5\n        /* \"#utility.yul\":10332:10355   */\n      sub\n        /* \"#utility.yul\":10328:10360   */\n      slt\n        /* \"#utility.yul\":10325:10377   */\n      iszero\n      tag_869\n      jumpi\n        /* \"#utility.yul\":10373:10374   */\n      0x00\n        /* \"#utility.yul\":10370:10371   */\n      dup1\n        /* \"#utility.yul\":10363:10375   */\n      revert\n        /* \"#utility.yul\":10325:10377   */\n    tag_869:\n        /* \"#utility.yul\":10405:10414   */\n      dup2\n        /* \"#utility.yul\":10399:10415   */\n      mload\n        /* \"#utility.yul\":10424:10452   */\n      tag_730\n        /* \"#utility.yul\":10446:10451   */\n      dup2\n        /* \"#utility.yul\":10424:10452   */\n      tag_795\n      jump\t// in\n        /* \"#utility.yul\":10487:10831   */\n    tag_324:\n        /* \"#utility.yul\":10689:10691   */\n      0x20\n        /* \"#utility.yul\":10671:10692   */\n      dup1\n      dup3\n      mstore\n        /* \"#utility.yul\":10728:10730   */\n      0x14\n        /* \"#utility.yul\":10708:10726   */\n      swap1\n      dup3\n      add\n        /* \"#utility.yul\":10701:10731   */\n      mstore\n      shl(0x62, 0x1b195b99dd1a081b5d5cdd08189948195c5d585b)\n        /* \"#utility.yul\":10762:10764   */\n      0x40\n        /* \"#utility.yul\":10747:10765   */\n      dup3\n      add\n        /* \"#utility.yul\":10740:10790   */\n      mstore\n        /* \"#utility.yul\":10822:10824   */\n      0x60\n        /* \"#utility.yul\":10807:10825   */\n      add\n      swap1\n        /* \"#utility.yul\":10487:10831   */\n      jump\t// out\n        /* \"#utility.yul\":10836:11233   */\n    tag_336:\n        /* \"#utility.yul\":11038:11040   */\n      0x20\n        /* \"#utility.yul\":11020:11041   */\n      dup1\n      dup3\n      mstore\n        /* \"#utility.yul\":11077:11079   */\n      0x21\n        /* \"#utility.yul\":11057:11075   */\n      swap1\n      dup3\n      add\n        /* \"#utility.yul\":11050:11080   */\n      mstore\n        /* \"#utility.yul\":11116:11150   */\n      0x746f74616c20726174696f206d75737420626520657175616c20746f20316531\n        /* \"#utility.yul\":11111:11113   */\n      0x40\n        /* \"#utility.yul\":11096:11114   */\n      dup3\n      add\n        /* \"#utility.yul\":11089:11151   */\n      mstore\n      shl(0xfb, 0x07)\n        /* \"#utility.yul\":11182:11184   */\n      0x60\n        /* \"#utility.yul\":11167:11185   */\n      dup3\n      add\n        /* \"#utility.yul\":11160:11191   */\n      mstore\n        /* \"#utility.yul\":11223:11226   */\n      0x80\n        /* \"#utility.yul\":11208:11227   */\n      add\n      swap1\n        /* \"#utility.yul\":10836:11233   */\n      jump\t// out\n        /* \"#utility.yul\":12661:13017   */\n    tag_449:\n        /* \"#utility.yul\":12863:12865   */\n      0x20\n        /* \"#utility.yul\":12845:12866   */\n      dup1\n      dup3\n      mstore\n        /* \"#utility.yul\":12882:12900   */\n      dup2\n      dup2\n      add\n        /* \"#utility.yul\":12875:12905   */\n      mstore\n        /* \"#utility.yul\":12941:12975   */\n      0x4f776e61626c653a2063616c6c6572206973206e6f7420746865206f776e6572\n        /* \"#utility.yul\":12936:12938   */\n      0x40\n        /* \"#utility.yul\":12921:12939   */\n      dup3\n      add\n        /* \"#utility.yul\":12914:12976   */\n      mstore\n        /* \"#utility.yul\":13008:13010   */\n      0x60\n        /* \"#utility.yul\":12993:13011   */\n      add\n      swap1\n        /* \"#utility.yul\":12661:13017   */\n      jump\t// out\n        /* \"#utility.yul\":15476:15749   */\n    tag_695:\n        /* \"#utility.yul\":15544:15550   */\n      0x00\n        /* \"#utility.yul\":15597:15599   */\n      0x20\n        /* \"#utility.yul\":15585:15594   */\n      dup3\n        /* \"#utility.yul\":15576:15583   */\n      dup5\n        /* \"#utility.yul\":15572:15595   */\n      sub\n        /* \"#utility.yul\":15568:15600   */\n      slt\n        /* \"#utility.yul\":15565:15617   */\n      iszero\n      tag_886\n      jumpi\n        /* \"#utility.yul\":15613:15614   */\n      0x00\n        /* \"#utility.yul\":15610:15611   */\n      dup1\n        /* \"#utility.yul\":15603:15615   */\n      revert\n        /* \"#utility.yul\":15565:15617   */\n    tag_886:\n        /* \"#utility.yul\":15645:15654   */\n      dup2\n        /* \"#utility.yul\":15639:15655   */\n      mload\n        /* \"#utility.yul\":15695:15699   */\n      0xff\n        /* \"#utility.yul\":15688:15693   */\n      dup2\n        /* \"#utility.yul\":15684:15700   */\n      and\n        /* \"#utility.yul\":15677:15682   */\n      dup2\n        /* \"#utility.yul\":15674:15701   */\n      eq\n        /* \"#utility.yul\":15664:15719   */\n      tag_730\n      jumpi\n        /* \"#utility.yul\":15715:15716   */\n      0x00\n        /* \"#utility.yul\":15712:15713   */\n      dup1\n        /* \"#utility.yul\":15705:15717   */\n      revert\n        /* \"#utility.yul\":15754:16176   */\n    tag_797:\n        /* \"#utility.yul\":15843:15844   */\n      0x01\n        /* \"#utility.yul\":15886:15891   */\n      dup2\n        /* \"#utility.yul\":15843:15844   */\n      dup2\n        /* \"#utility.yul\":15900:16170   */\n    tag_889:\n        /* \"#utility.yul\":15921:15928   */\n      dup1\n        /* \"#utility.yul\":15911:15919   */\n      dup6\n        /* \"#utility.yul\":15908:15929   */\n      gt\n        /* \"#utility.yul\":15900:16170   */\n      iszero\n      tag_891\n      jumpi\n        /* \"#utility.yul\":15980:15984   */\n      dup2\n        /* \"#utility.yul\":15976:15977   */\n      0x00\n        /* \"#utility.yul\":15972:15978   */\n      not\n        /* \"#utility.yul\":15968:15985   */\n      div\n        /* \"#utility.yul\":15962:15966   */\n      dup3\n        /* \"#utility.yul\":15959:15986   */\n      gt\n        /* \"#utility.yul\":15956:16009   */\n      iszero\n      tag_893\n      jumpi\n        /* \"#utility.yul\":15989:16007   */\n      tag_893\n      tag_796\n      jump\t// in\n    tag_893:\n        /* \"#utility.yul\":16039:16046   */\n      dup1\n        /* \"#utility.yul\":16029:16037   */\n      dup6\n        /* \"#utility.yul\":16025:16047   */\n      and\n        /* \"#utility.yul\":16022:16077   */\n      iszero\n      tag_894\n      jumpi\n        /* \"#utility.yul\":16059:16075   */\n      swap2\n      dup2\n      mul\n      swap2\n        /* \"#utility.yul\":16022:16077   */\n    tag_894:\n        /* \"#utility.yul\":16138:16160   */\n      swap4\n      dup5\n      shr\n      swap4\n        /* \"#utility.yul\":16098:16113   */\n      swap1\n      dup1\n      mul\n      swap1\n        /* \"#utility.yul\":15900:16170   */\n      jump(tag_889)\n    tag_891:\n        /* \"#utility.yul\":15904:15907   */\n      pop\n        /* \"#utility.yul\":15754:16176   */\n      swap3\n      pop\n      swap3\n      swap1\n      pop\n      jump\t// out\n        /* \"#utility.yul\":16181:16987   */\n    tag_798:\n        /* \"#utility.yul\":16230:16235   */\n      0x00\n        /* \"#utility.yul\":16260:16268   */\n      dup3\n        /* \"#utility.yul\":16250:16330   */\n      tag_896\n      jumpi\n      pop\n        /* \"#utility.yul\":16301:16302   */\n      0x01\n        /* \"#utility.yul\":16315:16320   */\n      jump(tag_437)\n        /* \"#utility.yul\":16250:16330   */\n    tag_896:\n        /* \"#utility.yul\":16349:16353   */\n      dup2\n        /* \"#utility.yul\":16339:16415   */\n      tag_897\n      jumpi\n      pop\n        /* \"#utility.yul\":16386:16387   */\n      0x00\n        /* \"#utility.yul\":16400:16405   */\n      jump(tag_437)\n        /* \"#utility.yul\":16339:16415   */\n    tag_897:\n        /* \"#utility.yul\":16431:16435   */\n      dup2\n        /* \"#utility.yul\":16449:16450   */\n      0x01\n        /* \"#utility.yul\":16444:16503   */\n      dup2\n      eq\n      tag_899\n      jumpi\n        /* \"#utility.yul\":16517:16518   */\n      0x02\n        /* \"#utility.yul\":16512:16642   */\n      dup2\n      eq\n      tag_900\n      jumpi\n        /* \"#utility.yul\":16424:16642   */\n      jump(tag_898)\n        /* \"#utility.yul\":16444:16503   */\n    tag_899:\n        /* \"#utility.yul\":16474:16475   */\n      0x01\n        /* \"#utility.yul\":16465:16475   */\n      swap2\n      pop\n        /* \"#utility.yul\":16488:16493   */\n      pop\n      jump(tag_437)\n        /* \"#utility.yul\":16512:16642   */\n    tag_900:\n        /* \"#utility.yul\":16549:16552   */\n      0xff\n        /* \"#utility.yul\":16539:16547   */\n      dup5\n        /* \"#utility.yul\":16536:16553   */\n      gt\n        /* \"#utility.yul\":16533:16576   */\n      iszero\n      tag_902\n      jumpi\n        /* \"#utility.yul\":16556:16574   */\n      tag_902\n      tag_796\n      jump\t// in\n    tag_902:\n      pop\n      pop\n        /* \"#utility.yul\":16612:16613   */\n      0x01\n        /* \"#utility.yul\":16598:16614   */\n      dup3\n      shl\n        /* \"#utility.yul\":16627:16632   */\n      jump(tag_437)\n        /* \"#utility.yul\":16424:16642   */\n    tag_898:\n      pop\n        /* \"#utility.yul\":16726:16728   */\n      0x20\n        /* \"#utility.yul\":16716:16724   */\n      dup4\n        /* \"#utility.yul\":16713:16729   */\n      lt\n        /* \"#utility.yul\":16707:16710   */\n      0x0133\n        /* \"#utility.yul\":16701:16705   */\n      dup4\n        /* \"#utility.yul\":16698:16711   */\n      lt\n        /* \"#utility.yul\":16694:16730   */\n      and\n        /* \"#utility.yul\":16688:16690   */\n      0x4e\n        /* \"#utility.yul\":16678:16686   */\n      dup5\n        /* \"#utility.yul\":16675:16691   */\n      lt\n        /* \"#utility.yul\":16670:16672   */\n      0x0b\n        /* \"#utility.yul\":16664:16668   */\n      dup5\n        /* \"#utility.yul\":16661:16673   */\n      lt\n        /* \"#utility.yul\":16657:16692   */\n      and\n        /* \"#utility.yul\":16654:16731   */\n      or\n        /* \"#utility.yul\":16651:16810   */\n      iszero\n      tag_903\n      jumpi\n      pop\n        /* \"#utility.yul\":16763:16782   */\n      dup2\n      dup2\n      exp\n        /* \"#utility.yul\":16795:16800   */\n      jump(tag_437)\n        /* \"#utility.yul\":16651:16810   */\n    tag_903:\n        /* \"#utility.yul\":16842:16876   */\n      tag_904\n        /* \"#utility.yul\":16867:16875   */\n      dup4\n        /* \"#utility.yul\":16861:16865   */\n      dup4\n        /* \"#utility.yul\":16842:16876   */\n      tag_797\n      jump\t// in\n    tag_904:\n        /* \"#utility.yul\":16912:16918   */\n      dup1\n        /* \"#utility.yul\":16908:16909   */\n      0x00\n        /* \"#utility.yul\":16904:16910   */\n      not\n        /* \"#utility.yul\":16900:16919   */\n      div\n        /* \"#utility.yul\":16891:16898   */\n      dup3\n        /* \"#utility.yul\":16888:16920   */\n      gt\n        /* \"#utility.yul\":16885:16943   */\n      iszero\n      tag_906\n      jumpi\n        /* \"#utility.yul\":16923:16941   */\n      tag_906\n      tag_796\n      jump\t// in\n    tag_906:\n        /* \"#utility.yul\":16961:16981   */\n      mul\n      swap4\n        /* \"#utility.yul\":16181:16987   */\n      swap3\n      pop\n      pop\n      pop\n      jump\t// out\n        /* \"#utility.yul\":16992:17123   */\n    tag_698:\n        /* \"#utility.yul\":17052:17057   */\n      0x00\n        /* \"#utility.yul\":17081:17117   */\n      tag_730\n        /* \"#utility.yul\":17108:17116   */\n      dup4\n        /* \"#utility.yul\":17102:17106   */\n      dup4\n        /* \"#utility.yul\":17081:17117   */\n      tag_798\n      jump\t// in\n        /* \"#utility.yul\":17860:17985   */\n    tag_714:\n        /* \"#utility.yul\":17900:17904   */\n      0x00\n        /* \"#utility.yul\":17928:17929   */\n      dup3\n        /* \"#utility.yul\":17925:17926   */\n      dup3\n        /* \"#utility.yul\":17922:17930   */\n      lt\n        /* \"#utility.yul\":17919:17953   */\n      iszero\n      tag_913\n      jumpi\n        /* \"#utility.yul\":17933:17951   */\n      tag_913\n      tag_796\n      jump\t// in\n    tag_913:\n      pop\n        /* \"#utility.yul\":17970:17979   */\n      sub\n      swap1\n        /* \"#utility.yul\":17860:17985   */\n      jump\t// out\n        /* \"#utility.yul\":18397:18565   */\n    tag_731:\n        /* \"#utility.yul\":18437:18444   */\n      0x00\n        /* \"#utility.yul\":18503:18504   */\n      dup2\n        /* \"#utility.yul\":18499:18500   */\n      0x00\n        /* \"#utility.yul\":18495:18501   */\n      not\n        /* \"#utility.yul\":18491:18505   */\n      div\n        /* \"#utility.yul\":18488:18489   */\n      dup4\n        /* \"#utility.yul\":18485:18506   */\n      gt\n        /* \"#utility.yul\":18480:18481   */\n      dup3\n        /* \"#utility.yul\":18473:18482   */\n      iszero\n        /* \"#utility.yul\":18466:18483   */\n      iszero\n        /* \"#utility.yul\":18462:18507   */\n      and\n        /* \"#utility.yul\":18459:18530   */\n      iszero\n      tag_917\n      jumpi\n        /* \"#utility.yul\":18510:18528   */\n      tag_917\n      tag_796\n      jump\t// in\n    tag_917:\n      pop\n        /* \"#utility.yul\":18550:18559   */\n      mul\n      swap1\n        /* \"#utility.yul\":18397:18565   */\n      jump\t// out\n        /* \"#utility.yul\":18570:18787   */\n    tag_734:\n        /* \"#utility.yul\":18610:18611   */\n      0x00\n        /* \"#utility.yul\":18636:18637   */\n      dup3\n        /* \"#utility.yul\":18626:18758   */\n      tag_919\n      jumpi\n        /* \"#utility.yul\":18680:18690   */\n      0x4e487b71\n        /* \"#utility.yul\":18675:18678   */\n      0xe0\n        /* \"#utility.yul\":18671:18691   */\n      shl\n        /* \"#utility.yul\":18668:18669   */\n      0x00\n        /* \"#utility.yul\":18661:18692   */\n      mstore\n        /* \"#utility.yul\":18715:18719   */\n      0x12\n        /* \"#utility.yul\":18712:18713   */\n      0x04\n        /* \"#utility.yul\":18705:18720   */\n      mstore\n        /* \"#utility.yul\":18743:18747   */\n      0x24\n        /* \"#utility.yul\":18740:18741   */\n      0x00\n        /* \"#utility.yul\":18733:18748   */\n      revert\n        /* \"#utility.yul\":18626:18758   */\n    tag_919:\n      pop\n        /* \"#utility.yul\":18772:18781   */\n      div\n      swap1\n        /* \"#utility.yul\":18570:18787   */\n      jump\t// out\n        /* \"#utility.yul\":18792:18919   */\n    tag_780:\n        /* \"#utility.yul\":18853:18863   */\n      0x4e487b71\n        /* \"#utility.yul\":18848:18851   */\n      0xe0\n        /* \"#utility.yul\":18844:18864   */\n      shl\n        /* \"#utility.yul\":18841:18842   */\n      0x00\n        /* \"#utility.yul\":18834:18865   */\n      mstore\n        /* \"#utility.yul\":18884:18888   */\n      0x31\n        /* \"#utility.yul\":18881:18882   */\n      0x04\n        /* \"#utility.yul\":18874:18889   */\n      mstore\n        /* \"#utility.yul\":18908:18912   */\n      0x24\n        /* \"#utility.yul\":18905:18906   */\n      0x00\n        /* \"#utility.yul\":18898:18913   */\n      revert\n\n    auxdata: 0xa264697066735822122003146ac2491441c6060c3cc1dad09cf54d8b552f5b7dcaacad9d6572acd68f1564736f6c63430008090033\n}\n",
				"bytecode": {
					"linkReferences": {},
					"object": "60806040526000600d8190556011556016805460ff191660011790553480156200002857600080fd5b50604051620033c0380380620033c08339810160408190526200004b9162000104565b600080546001600160a01b031916339081178255604051909182917f8be0079c531659141344cd1fd0a4f28419497f9722a3daafe3b4186f6b6457e0908290a35060038690556200009d858762000161565b6004556005849055601593909355600680546001600160a01b039384166001600160a01b0319918216179091556007805492909316911617905560085550506001600e5562000188565b80516001600160a01b0381168114620000ff57600080fd5b919050565b60008060008060008060c087890312156200011e57600080fd5b8651955060208701519450604087015193506200013e60608801620000e7565b92506200014e60808801620000e7565b915060a087015190509295509295509295565b600082198211156200018357634e487b7160e01b600052601160045260246000fd5b500190565b61322880620001986000396000f3fe6080604052600436106102195760003560e01c806374df25ad11610123578063c8ad7497116100ab578063d9caed121161006f578063d9caed12146106ad578063eaefc546146106cd578063ebb689a1146106e5578063efef39a1146106fa578063f2fde38b1461070d57600080fd5b8063c8ad7497146105f6578063c9d4169814610616578063cc26c44e14610636578063d53890cd1461066d578063d5e46d3c1461068d57600080fd5b8063a623dbe5116100f2578063a623dbe51461055f578063a97af1f21461057f578063c4e41b221461059f578063c69ce8eb146105b4578063c7101837146105d457600080fd5b806374df25ad146104d657806380d87320146104f85780638da5cb5b146105185780639ab8ded11461054a57600080fd5b80634d52a512116101a65780636c2b04fd116101755780636c2b04fd1461043c5780636f9ce1f91461046c578063715018a61461048c5780637273df66146104a15780637398ab18146104c157600080fd5b80634d52a5121461038857806352efea6e1461039d57806354d9ba1c146103b257806360246c88146103d257600080fd5b806314f326a1116101ed57806314f326a1146103095780631758b09d1461031e5780632483c2911461033e578063372500ab1461035e578063439f5ac21461037357600080fd5b80628cc2621461021e57806304d43fc0146102515780630c7fd484146102945780630d5847b0146102e7575b600080fd5b34801561022a57600080fd5b5061023e610239366004612bde565b61072d565b6040519081526020015b60405180910390f35b34801561025d57600080fd5b506102756012546011546001600160a01b0390911691565b604080516001600160a01b039093168352602083019190915201610248565b3480156102a057600080fd5b506102b46102af366004612bde565b610996565b60405161024891908151815260208083015190820152604080830151908201526060918201519181019190915260800190565b3480156102f357600080fd5b50610307610302366004612bf9565b610a0f565b005b34801561031557600080fd5b50600c5461023e565b34801561032a57600080fd5b50610307610339366004612bf9565b610d58565b34801561034a57600080fd5b50610307610359366004612c5e565b610d96565b34801561036a57600080fd5b50610307610fde565b34801561037f57600080fd5b5060045461023e565b34801561039457600080fd5b50600a5461023e565b3480156103a957600080fd5b50610307611244565b3480156103be57600080fd5b506103076103cd366004612cf8565b61152f565b3480156103de57600080fd5b506103e7611576565b604051610248919081516001600160a01b0390811682526020808401519091169082015260408083015190820152606080830151908201526080808301519082015260a0918201519181019190915260c00190565b34801561044857600080fd5b5061045c610457366004612bde565b61160a565b6040519015158152602001610248565b34801561047857600080fd5b506102b4610487366004612bf9565b61161d565b34801561049857600080fd5b506103076116b9565b3480156104ad57600080fd5b506103076104bc366004612d32565b61172d565b3480156104cd57600080fd5b50600d5461023e565b3480156104e257600080fd5b506104eb611779565b6040516102489190612d4f565b34801561050457600080fd5b50610307610513366004612bde565b6117fb565b34801561052457600080fd5b506000546001600160a01b03165b6040516001600160a01b039091168152602001610248565b34801561055657600080fd5b5061023e611834565b34801561056b57600080fd5b5061030761057a366004612bf9565b611845565b34801561058b57600080fd5b5061030761059a366004612db1565b611883565b3480156105ab57600080fd5b5060055461023e565b3480156105c057600080fd5b506103076105cf366004612ddb565b6118e3565b3480156105e057600080fd5b506105e9611a8e565b6040516102489190612e47565b34801561060257600080fd5b50610307610611366004612db1565b611af8565b34801561062257600080fd5b50610532610631366004612bf9565b611b57565b34801561064257600080fd5b5061064b611b64565b6040805182518152602080840151908201529181015190820152606001610248565b34801561067957600080fd5b50610307610688366004612bde565b611bad565b34801561069957600080fd5b506103076106a8366004612bde565b611c0e565b3480156106b957600080fd5b506103076106c8366004612e89565b611c43565b3480156106d957600080fd5b5060165460ff1661045c565b3480156106f157600080fd5b50610307611cf5565b610307610708366004612bf9565b61224f565b34801561071957600080fd5b50610307610728366004612bde565b61283b565b600754600090819081906001600160a01b031661074b5750476107c9565b6007546040516370a0823160e01b81523060048201526001600160a01b03909116906370a082319060240160206040518083038186803b15801561078e57600080fd5b505afa1580156107a2573d6000803e3d6000fd5b505050506040513d601f19601f820116820180604052508101906107c69190612ec5565b90505b600454421180156107dc5750600a548110155b1561098f576001600160a01b0384166000908152600b60209081526040808320815160808101835281548152600182015493810193909352600281015491830191909152600301546060820152601454156108b95760005b6014548110156108b35760006014828154811061085357610853612ede565b906000526020600020906002020160405180604001604052908160008201548152602001600182015481525050905080600001514211156108a057602081015161089d9085612f0a565b93505b50806108ab81612f22565b915050610834565b506108c5565b670de0b6b3a764000091505b6108fc81606001516108f6670de0b6b3a76400006108f086866040015161292590919063ffffffff16565b90612938565b90612944565b6006546040516370a0823160e01b81523060048201529195506000916001600160a01b03909116906370a082319060240160206040518083038186803b15801561094557600080fd5b505afa158015610959573d6000803e3d6000fd5b505050506040513d601f19601f8201168201806040525081019061097d9190612ec5565b90506109898582612950565b94505050505b5092915050565b6109c16040518060800160405280600081526020016000815260200160008152602001600081525090565b506001600160a01b03166000908152600b6020908152604091829020825160808101845281548152600182015492810192909252600281015492820192909252600390910154606082015290565b6000546001600160a01b0316331480610a2c5750610a2c3361160a565b610a515760405162461bcd60e51b8152600401610a4890612f3d565b60405180910390fd5b6004544211610a725760405162461bcd60e51b8152600401610a4890612f82565b600c54600d5410610ac55760405162461bcd60e51b815260206004820152601760248201527f616c6c2068617665206265656e2067697665206261636b0000000000000000006044820152606401610a48565b6007546000906001600160a01b0316610adf575047610b5d565b6007546040516370a0823160e01b81523060048201526001600160a01b03909116906370a082319060240160206040518083038186803b158015610b2257600080fd5b505afa158015610b36573d6000803e3d6000fd5b505050506040513d601f19601f82011682018060405250810190610b5a9190612ec5565b90505b600a548110610bae5760405162461bcd60e51b815260206004820152601960248201527f49444f2073756363657373206e6f742067697665206261636b000000000000006044820152606401610a48565b6000610bc983600d54610bc19190612f0a565b600c54612950565b600d549091505b81811015610d50576000600c8281548110610bed57610bed612ede565b60009182526020808320909101546001600160a01b0316808352600b8252604080842081516080810183528154815260018201549481018590526002820154928101929092526003015460608201529093509190610c4b9087612950565b90508015610d2e576007546001600160a01b0316610c9f576040516001600160a01b0384169082156108fc029083906000818181858888f19350505050158015610c99573d6000803e3d6000fd5b50610d2e565b60075460405163a9059cbb60e01b81526001600160a01b038581166004830152602482018490529091169063a9059cbb90604401602060405180830381600087803b158015610ced57600080fd5b505af1158015610d01573d6000803e3d6000fd5b505050506040513d601f19601f82011682018060405250810190610d259190612fb0565b610d2e57600080fd5b610d388682612944565b95505050508080610d4890612f22565b915050610bd0565b50600d555050565b6000546001600160a01b0316331480610d755750610d753361160a565b610d915760405162461bcd60e51b8152600401610a4890612f3d565b600a55565b6000546001600160a01b0316331480610db35750610db33361160a565b610dcf5760405162461bcd60e51b8152600401610a4890612f3d565b828514610dee5760405162461bcd60e51b8152600401610a4890612fcd565b808314610e0d5760405162461bcd60e51b8152600401610a4890612fcd565b846000805b82811015610e5257848482818110610e2c57610e2c612ede565b9050602002013582610e3e9190612f0a565b915080610e4a81612f22565b915050610e12565b5080670de0b6b3a764000014610e7a5760405162461bcd60e51b8152600401610a4890612ffb565b610e8660136000612b34565b60005b82811015610fd357600060405180606001604052808b8b85818110610eb057610eb0612ede565b905060200201358152602001898985818110610ece57610ece612ede565b9050602002016020810190610ee39190612bde565b6001600160a01b03168152602001878785818110610f0357610f03612ede565b602090810292909201359092526013805460018101825560009190915283517f66de8ffda797e3de9c05e8fc57b3bf0ec28a930d40b0d285d93c06501cf6a090600390920291820155908301517f66de8ffda797e3de9c05e8fc57b3bf0ec28a930d40b0d285d93c06501cf6a091820180546001600160a01b0319166001600160a01b039092169190911790556040909201517f66de8ffda797e3de9c05e8fc57b3bf0ec28a930d40b0d285d93c06501cf6a0929092019190915550819050610fcb81612f22565b915050610e89565b505050505050505050565b60165460ff166110245760405162461bcd60e51b815260206004820152601160248201527063616e206e6f7420636c61696d206e6f7760781b6044820152606401610a48565b60045442116110455760405162461bcd60e51b8152600401610a4890612f82565b6007546000906001600160a01b031661105f5750476110dd565b6007546040516370a0823160e01b81523060048201526001600160a01b03909116906370a082319060240160206040518083038186803b1580156110a257600080fd5b505afa1580156110b6573d6000803e3d6000fd5b505050506040513d601f19601f820116820180604052508101906110da9190612ec5565b90505b600a5481101561112f5760405162461bcd60e51b815260206004820152601c60248201527f49444f2074786e20616d6f756e74206973206e6f7420656e6f756768000000006044820152606401610a48565b600061113a3361072d565b90506000811161118c5760405162461bcd60e51b815260206004820152601e60248201527f7265776172647320616d6f756e742063616e206e6f74206265207a65726f00006044820152606401610a48565b60065460405163a9059cbb60e01b8152336004820152602481018390526001600160a01b039091169063a9059cbb90604401602060405180830381600087803b1580156111d857600080fd5b505af11580156111ec573d6000803e3d6000fd5b505050506040513d601f19601f820116820180604052508101906112109190612fb0565b61121957600080fd5b336000908152600b60205260408120600301805483929061123b908490612f0a565b90915550505050565b6000546001600160a01b031633148061126157506112613361160a565b61127d5760405162461bcd60e51b8152600401610a4890612f3d565b600454421161129e5760405162461bcd60e51b8152600401610a4890612f82565b6013546112ed5760405162461bcd60e51b815260206004820181905260248201527f73686172696e672072756c6573206d75737420626520636f6e666967757265646044820152606401610a48565b6007546000906001600160a01b0316611307575047611385565b6007546040516370a0823160e01b81523060048201526001600160a01b03909116906370a082319060240160206040518083038186803b15801561134a57600080fd5b505afa15801561135e573d6000803e3d6000fd5b505050506040513d601f19601f820116820180604052508101906113829190612ec5565b90505b600a54811061152c578060005b601354811015611529576000601382815481106113b1576113b1612ede565b600091825260208083206040805160608101825260039094029091018054845260018101546001600160a01b03169284019290925260029091015490820181905290925061140e90670de0b6b3a7640000906108f0908890612925565b905061141a8185612950565b90508015611508576007546001600160a01b03166114755781602001516001600160a01b03166108fc829081150290604051600060405180830381858888f1935050505015801561146f573d6000803e3d6000fd5b50611508565b600754602083015160405163a9059cbb60e01b81526001600160a01b0391821660048201526024810184905291169063a9059cbb90604401602060405180830381600087803b1580156114c757600080fd5b505af11580156114db573d6000803e3d6000fd5b505050506040513d601f19601f820116820180604052508101906114ff9190612fb0565b61150857600080fd5b6115128482612944565b93505050808061152190612f22565b915050611392565b50505b50565b6000546001600160a01b031633148061154c575061154c3361160a565b6115685760405162461bcd60e51b8152600401610a4890612f3d565b600e92909255600f55601055565b6115c16040518060c0016040528060006001600160a01b0316815260200160006001600160a01b03168152602001600081526020016000815260200160008152602001600081525090565b506040805160c0810182526006546001600160a01b039081168252600754166020820152600854918101919091526003546060820152600454608082015260155460a082015290565b6000611617600183612966565b92915050565b6116486040518060800160405280600081526020016000815260200160008152602001600081525090565b600b6000600c848154811061165f5761165f612ede565b60009182526020808320909101546001600160a01b03168352828101939093526040918201902081516080810183528154815260018201549381019390935260028101549183019190915260030154606082015292915050565b6000546001600160a01b031633146116e35760405162461bcd60e51b8152600401610a489061303c565b600080546040516001600160a01b03909116907f8be0079c531659141344cd1fd0a4f28419497f9722a3daafe3b4186f6b6457e0908390a3600080546001600160a01b0319169055565b6000546001600160a01b031633148061174a575061174a3361160a565b6117665760405162461bcd60e51b8152600401610a4890612f3d565b6016805460ff1916911515919091179055565b60606013805480602002602001604051908101604052809291908181526020016000905b828210156117f25760008481526020908190206040805160608101825260038602909201805483526001808201546001600160a01b03168486015260029091015491830191909152908352909201910161179d565b50505050905090565b6000546001600160a01b031633146118255760405162461bcd60e51b8152600401610a489061303c565b611830600182612988565b5050565b6000611840600161299d565b905090565b6000546001600160a01b031633148061186257506118623361160a565b61187e5760405162461bcd60e51b8152600401610a4890612f3d565b600455565b6000546001600160a01b031633146118ad5760405162461bcd60e51b8152600401610a489061303c565b6040516001600160a01b0383169082156108fc029083906000818181858888f19350505050158015611529573d6000803e3d6000fd5b6000546001600160a01b031633148061190057506119003361160a565b61191c5760405162461bcd60e51b8152600401610a4890612f3d565b82811461193b5760405162461bcd60e51b8152600401610a4890612fcd565b826000805b828110156119805784848281811061195a5761195a612ede565b905060200201358261196c9190612f0a565b91508061197881612f22565b915050611940565b5080670de0b6b3a7640000146119a85760405162461bcd60e51b8152600401610a4890612ffb565b6119b460146000612b55565b60005b82811015611a8557600060405180604001604052808989858181106119de576119de612ede565b9050602002013581526020018787858181106119fc576119fc612ede565b602090810292909201359092526014805460018101825560009190915283517fce6d7b5282bd9a3661ae061feed1dbda4e52ab073b1f9285be6e155d9c38d4ec6002909202918201559201517fce6d7b5282bd9a3661ae061feed1dbda4e52ab073b1f9285be6e155d9c38d4ed9092019190915550819050611a7d81612f22565b9150506119b7565b50505050505050565b60606014805480602002602001604051908101604052809291908181526020016000905b828210156117f257838290600052602060002090600202016040518060400160405290816000820154815260200160018201548152505081526020019060010190611ab2565b6000546001600160a01b0316331480611b155750611b153361160a565b611b315760405162461bcd60e51b8152600401610a4890612f3d565b601280546001600160a01b0319166001600160a01b039390931692909217909155601155565b60006116176001836129a7565b611b8860405180606001604052806000815260200160008152602001600081525090565b5060408051606081018252600e548152600f5460208201526010549181019190915290565b6000546001600160a01b0316331480611bca5750611bca3361160a565b611be65760405162461bcd60e51b8152600401610a4890612f3d565b601680546001600160a01b0390921661010002610100600160a81b0319909216919091179055565b6000546001600160a01b03163314611c385760405162461bcd60e51b8152600401610a489061303c565b6118306001826129b3565b6000546001600160a01b03163314611c6d5760405162461bcd60e51b8152600401610a489061303c565b60405163a9059cbb60e01b81526001600160a01b0383811660048301526024820183905284169063a9059cbb90604401602060405180830381600087803b158015611cb757600080fd5b505af1158015611ccb573d6000803e3d6000fd5b505050506040513d601f19601f82011682018060405250810190611cef9190612fb0565b50505050565b6000546001600160a01b0316331480611d125750611d123361160a565b611d2e5760405162461bcd60e51b8152600401610a4890612f3d565b6004544211611d4f5760405162461bcd60e51b8152600401610a4890612f82565b601354611d9e5760405162461bcd60e51b815260206004820181905260248201527f73686172696e672072756c6573206d75737420626520636f6e666967757265646044820152606401610a48565b6006546040516370a0823160e01b81523060048201526000916001600160a01b0316906370a082319060240160206040518083038186803b158015611de257600080fd5b505afa158015611df6573d6000803e3d6000fd5b505050506040513d601f19601f82011682018060405250810190611e1a9190612ec5565b6007549091506000906001600160a01b0316611e37575047611eb5565b6007546040516370a0823160e01b81523060048201526001600160a01b03909116906370a082319060240160206040518083038186803b158015611e7a57600080fd5b505afa158015611e8e573d6000803e3d6000fd5b505050506040513d601f19601f82011682018060405250810190611eb29190612ec5565b90505b600a54811015611ff35760005b60135481101561152957600060138281548110611ee157611ee1612ede565b60009182526020918290206040805160608101825260039093029091018054835260018101546001600160a01b03169383019390935260029092015491810191909152600554909150611f349085612950565b81519094506001148015611f485750600084115b15611fe057600654602082015160405163a9059cbb60e01b81526001600160a01b0391821660048201526024810187905291169063a9059cbb90604401602060405180830381600087803b158015611f9f57600080fd5b505af1158015611fb3573d6000803e3d6000fd5b505050506040513d601f19601f82011682018060405250810190611fd79190612fb0565b611fe057600080fd5b5080611feb81612f22565b915050611ec2565b8060005b601354811015611cef5760006013828154811061201657612016612ede565b600091825260209182902060408051606081018252600390930290910180548084526001808301546001600160a01b03169585019590955260029091015491830191909152909250141561210f57600061207260055487612950565b9050801561210d57600654602083015160405163a9059cbb60e01b81526001600160a01b0391821660048201526024810184905291169063a9059cbb90604401602060405180830381600087803b1580156120cc57600080fd5b505af11580156120e0573d6000803e3d6000fd5b505050506040513d601f19601f820116820180604052508101906121049190612fb0565b61210d57600080fd5b505b6000612134670de0b6b3a76400006108f084604001518861292590919063ffffffff16565b90506121408185612950565b9050801561222e576007546001600160a01b031661219b5781602001516001600160a01b03166108fc829081150290604051600060405180830381858888f19350505050158015612195573d6000803e3d6000fd5b5061222e565b600754602083015160405163a9059cbb60e01b81526001600160a01b0391821660048201526024810184905291169063a9059cbb90604401602060405180830381600087803b1580156121ed57600080fd5b505af1158015612201573d6000803e3d6000fd5b505050506040513d601f19601f820116820180604052508101906122259190612fb0565b61222e57600080fd5b6122388482612944565b93505050808061224790612f22565b915050611ff7565b60035442101561229a5760405162461bcd60e51b81526020600482015260166024820152751d1a1a5cc81c1bdbdb081a5cc81b9bdd081cdd185c9d60521b6044820152606401610a48565b6004544211156122df5760405162461bcd60e51b815260206004820152601060248201526f1d1a1a5cc81c1bdbdb081a5cc8195b9960821b6044820152606401610a48565b6007546001600160a01b03166122fb578034146122fb57600080fd5b60165461010090046001600160a01b0316158061239457506016546040516396bfc22960e01b81523360048201526101009091046001600160a01b0316906396bfc2299060240160206040518083038186803b15801561235a57600080fd5b505afa15801561236e573d6000803e3d6000fd5b505050506040513d601f19601f820116820180604052508101906123929190612fb0565b155b15612594576012546001600160a01b0316158015906123be575060115415806123be575060115442105b1561248a576012546040516396bfc22960e01b81523360048201526001600160a01b03909116906396bfc2299060240160206040518083038186803b15801561240657600080fd5b505afa15801561241a573d6000803e3d6000fd5b505050506040513d601f19601f8201168201806040525081019061243e9190612fb0565b61248a5760405162461bcd60e51b815260206004820152601860248201527f796f75206973206e6f7420696e207768697465206c69737400000000000000006044820152606401610a48565b600f54156124db57600f548110156124db5760405162461bcd60e51b8152602060048201526014602482015273189d5e48185b5bdd5b9d081d1bdbc81cdb585b1b60621b6044820152606401610a48565b6010541561252c5760105481111561252c5760405162461bcd60e51b815260206004820152601460248201527362757920616d6f756e7420746f6f206c6172676560601b6044820152606401610a48565b600e541561259457600e54336000908152600b6020526040902054106125945760405162461bcd60e51b815260206004820152601760248201527f6275792074696d6573206973206e6f7420656e6f7567680000000000000000006044820152606401610a48565b60006007546001600160a01b0316156126eb57600760009054906101000a90046001600160a01b03166001600160a01b031663313ce5676040518163ffffffff1660e01b815260040160206040518083038186803b1580156125f557600080fd5b505afa158015612609573d6000803e3d6000fd5b505050506040513d601f19601f8201168201806040525081019061262d9190613071565b60ff1660098190556126529061264490600a613178565b6008546108f0908590612925565b6007546040516323b872dd60e01b8152336004820152306024820152604481018590529192506001600160a01b0316906323b872dd90606401602060405180830381600087803b1580156126a557600080fd5b505af11580156126b9573d6000803e3d6000fd5b505050506040513d601f19601f820116820180604052508101906126dd9190612fb0565b6126e657600080fd5b61270f565b61270c670de0b6b3a76400006108f06008548561292590919063ffffffff16565b90505b6000811161275f5760405162461bcd60e51b815260206004820152601760248201527f74786e20616d6f756e7420697320746f6f20736d616c6c0000000000000000006044820152606401610a48565b80600560008282546127719190613184565b9091555050336000908152600b60205260409020546127cd57600c80546001810182556000919091527fdf6966c971051c3d54ec59162606531493a51404a002842f56009d7e5cf4a8c70180546001600160a01b031916331790555b336000908152600b602052604081208054600192906127ed908490612f0a565b9091555050336000908152600b602052604081206001018054849290612814908490612f0a565b9091555050336000908152600b60205260408120600201805483929061123b908490612f0a565b6000546001600160a01b031633146128655760405162461bcd60e51b8152600401610a489061303c565b6001600160a01b0381166128ca5760405162461bcd60e51b815260206004820152602660248201527f4f776e61626c653a206e6577206f776e657220697320746865207a65726f206160448201526564647265737360d01b6064820152608401610a48565b600080546040516001600160a01b03808516939216917f8be0079c531659141344cd1fd0a4f28419497f9722a3daafe3b4186f6b6457e091a3600080546001600160a01b0319166001600160a01b0392909216919091179055565b6000612931828461319b565b9392505050565b600061293182846131ba565b60006129318284613184565b600081831061295f5781612931565b5090919050565b6001600160a01b03811660009081526001830160205260408120541515612931565b6000612931836001600160a01b0384166129c8565b6000611617825490565b60006129318383612a17565b6000612931836001600160a01b038416612a41565b6000818152600183016020526040812054612a0f57508154600181810184556000848152602080822090930184905584548482528286019093526040902091909155611617565b506000611617565b6000826000018281548110612a2e57612a2e612ede565b9060005260206000200154905092915050565b60008181526001830160205260408120548015612b2a576000612a65600183613184565b8554909150600090612a7990600190613184565b9050818114612ade576000866000018281548110612a9957612a99612ede565b9060005260206000200154905080876000018481548110612abc57612abc612ede565b6000918252602080832090910192909255918252600188019052604090208390555b8554869080612aef57612aef6131dc565b600190038181906000526020600020016000905590558560010160008681526020019081526020016000206000905560019350505050611617565b6000915050611617565b508054600082556003029060005260206000209081019061152c9190612b76565b508054600082556002029060005260206000209081019061152c9190612ba7565b5b80821115612ba35760008082556001820180546001600160a01b03191690556002820155600301612b77565b5090565b5b80821115612ba35760008082556001820155600201612ba8565b80356001600160a01b0381168114612bd957600080fd5b919050565b600060208284031215612bf057600080fd5b61293182612bc2565b600060208284031215612c0b57600080fd5b5035919050565b60008083601f840112612c2457600080fd5b50813567ffffffffffffffff811115612c3c57600080fd5b6020830191508360208260051b8501011115612c5757600080fd5b9250929050565b60008060008060008060608789031215612c7757600080fd5b863567ffffffffffffffff80821115612c8f57600080fd5b612c9b8a838b01612c12565b90985096506020890135915080821115612cb457600080fd5b612cc08a838b01612c12565b90965094506040890135915080821115612cd957600080fd5b50612ce689828a01612c12565b979a9699509497509295939492505050565b600080600060608486031215612d0d57600080fd5b505081359360208301359350604090920135919050565b801515811461152c57600080fd5b600060208284031215612d4457600080fd5b813561293181612d24565b602080825282518282018190526000919060409081850190868401855b82811015612da457815180518552868101516001600160a01b0316878601528501518585015260609093019290850190600101612d6c565b5091979650505050505050565b60008060408385031215612dc457600080fd5b612dcd83612bc2565b946020939093013593505050565b60008060008060408587031215612df157600080fd5b843567ffffffffffffffff80821115612e0957600080fd5b612e1588838901612c12565b90965094506020870135915080821115612e2e57600080fd5b50612e3b87828801612c12565b95989497509550505050565b602080825282518282018190526000919060409081850190868401855b82811015612da457815180518552860151868501529284019290850190600101612e64565b600080600060608486031215612e9e57600080fd5b612ea784612bc2565b9250612eb560208501612bc2565b9150604084013590509250925092565b600060208284031215612ed757600080fd5b5051919050565b634e487b7160e01b600052603260045260246000fd5b634e487b7160e01b600052601160045260246000fd5b60008219821115612f1d57612f1d612ef4565b500190565b6000600019821415612f3657612f36612ef4565b5060010190565b60208082526025908201527f4f776e61626c653a2063616c6c6572206973206e6f742074686520636f6e747260408201526437b63632b960d91b606082015260800190565b6020808252601490820152731d1a1a5cc81c1bdbdb081a5cc81b9bdd08195b9960621b604082015260600190565b600060208284031215612fc257600080fd5b815161293181612d24565b6020808252601490820152731b195b99dd1a081b5d5cdd08189948195c5d585b60621b604082015260600190565b60208082526021908201527f746f74616c20726174696f206d75737420626520657175616c20746f203165316040820152600760fb1b606082015260800190565b6020808252818101527f4f776e61626c653a2063616c6c6572206973206e6f7420746865206f776e6572604082015260600190565b60006020828403121561308357600080fd5b815160ff8116811461293157600080fd5b600181815b808511156130cf5781600019048211156130b5576130b5612ef4565b808516156130c257918102915b93841c9390800290613099565b509250929050565b6000826130e657506001611617565b816130f357506000611617565b816001811461310957600281146131135761312f565b6001915050611617565b60ff84111561312457613124612ef4565b50506001821b611617565b5060208310610133831016604e8410600b8410161715613152575081810a611617565b61315c8383613094565b806000190482111561317057613170612ef4565b029392505050565b600061293183836130d7565b60008282101561319657613196612ef4565b500390565b60008160001904831182151516156131b5576131b5612ef4565b500290565b6000826131d757634e487b7160e01b600052601260045260246000fd5b500490565b634e487b7160e01b600052603160045260246000fdfea264697066735822122003146ac2491441c6060c3cc1dad09cf54d8b552f5b7dcaacad9d6572acd68f1564736f6c63430008090033",
					"opcodes": "PUSH1 0x80 PUSH1 0x40 MSTORE PUSH1 0x0 PUSH1 0xD DUP2 SWAP1 SSTORE PUSH1 0x11 SSTORE PUSH1 0x16 DUP1 SLOAD PUSH1 0xFF NOT AND PUSH1 0x1 OR SWAP1 SSTORE CALLVALUE DUP1 ISZERO PUSH3 0x28 JUMPI PUSH1 0x0 DUP1 REVERT JUMPDEST POP PUSH1 0x40 MLOAD PUSH3 0x33C0 CODESIZE SUB DUP1 PUSH3 0x33C0 DUP4 CODECOPY DUP2 ADD PUSH1 0x40 DUP2 SWAP1 MSTORE PUSH3 0x4B SWAP2 PUSH3 0x104 JUMP JUMPDEST PUSH1 0x0 DUP1 SLOAD PUSH1 0x1 PUSH1 0x1 PUSH1 0xA0 SHL SUB NOT AND CALLER SWAP1 DUP2 OR DUP3 SSTORE PUSH1 0x40 MLOAD SWAP1 SWAP2 DUP3 SWAP2 PUSH32 0x8BE0079C531659141344CD1FD0A4F28419497F9722A3DAAFE3B4186F6B6457E0 SWAP1 DUP3 SWAP1 LOG3 POP PUSH1 0x3 DUP7 SWAP1 SSTORE PUSH3 0x9D DUP6 DUP8 PUSH3 0x161 JUMP JUMPDEST PUSH1 0x4 SSTORE PUSH1 0x5 DUP5 SWAP1 SSTORE PUSH1 0x15 SWAP4 SWAP1 SWAP4 SSTORE PUSH1 0x6 DUP1 SLOAD PUSH1 0x1 PUSH1 0x1 PUSH1 0xA0 SHL SUB SWAP4 DUP5 AND PUSH1 0x1 PUSH1 0x1 PUSH1 0xA0 SHL SUB NOT SWAP2 DUP3 AND OR SWAP1 SWAP2 SSTORE PUSH1 0x7 DUP1 SLOAD SWAP3 SWAP1 SWAP4 AND SWAP2 AND OR SWAP1 SSTORE PUSH1 0x8 SSTORE POP POP PUSH1 0x1 PUSH1 0xE SSTORE PUSH3 0x188 JUMP JUMPDEST DUP1 MLOAD PUSH1 0x1 PUSH1 0x1 PUSH1 0xA0 SHL SUB DUP2 AND DUP2 EQ PUSH3 0xFF JUMPI PUSH1 0x0 DUP1 REVERT JUMPDEST SWAP2 SWAP1 POP JUMP JUMPDEST PUSH1 0x0 DUP1 PUSH1 0x0 DUP1 PUSH1 0x0 DUP1 PUSH1 0xC0 DUP8 DUP10 SUB SLT ISZERO PUSH3 0x11E JUMPI PUSH1 0x0 DUP1 REVERT JUMPDEST DUP7 MLOAD SWAP6 POP PUSH1 0x20 DUP8 ADD MLOAD SWAP5 POP PUSH1 0x40 DUP8 ADD MLOAD SWAP4 POP PUSH3 0x13E PUSH1 0x60 DUP9 ADD PUSH3 0xE7 JUMP JUMPDEST SWAP3 POP PUSH3 0x14E PUSH1 0x80 DUP9 ADD PUSH3 0xE7 JUMP JUMPDEST SWAP2 POP PUSH1 0xA0 DUP8 ADD MLOAD SWAP1 POP SWAP3 SWAP6 POP SWAP3 SWAP6 POP SWAP3 SWAP6 JUMP JUMPDEST PUSH1 0x0 DUP3 NOT DUP3 GT ISZERO PUSH3 0x183 JUMPI PUSH4 0x4E487B71 PUSH1 0xE0 SHL PUSH1 0x0 MSTORE PUSH1 0x11 PUSH1 0x4 MSTORE PUSH1 0x24 PUSH1 0x0 REVERT JUMPDEST POP ADD SWAP1 JUMP JUMPDEST PUSH2 0x3228 DUP1 PUSH3 0x198 PUSH1 0x0 CODECOPY PUSH1 0x0 RETURN INVALID PUSH1 0x80 PUSH1 0x40 MSTORE PUSH1 0x4 CALLDATASIZE LT PUSH2 0x219 JUMPI PUSH1 0x0 CALLDATALOAD PUSH1 0xE0 SHR DUP1 PUSH4 0x74DF25AD GT PUSH2 0x123 JUMPI DUP1 PUSH4 0xC8AD7497 GT PUSH2 0xAB JUMPI DUP1 PUSH4 0xD9CAED12 GT PUSH2 0x6F JUMPI DUP1 PUSH4 0xD9CAED12 EQ PUSH2 0x6AD JUMPI DUP1 PUSH4 0xEAEFC546 EQ PUSH2 0x6CD JUMPI DUP1 PUSH4 0xEBB689A1 EQ PUSH2 0x6E5 JUMPI DUP1 PUSH4 0xEFEF39A1 EQ PUSH2 0x6FA JUMPI DUP1 PUSH4 0xF2FDE38B EQ PUSH2 0x70D JUMPI PUSH1 0x0 DUP1 REVERT JUMPDEST DUP1 PUSH4 0xC8AD7497 EQ PUSH2 0x5F6 JUMPI DUP1 PUSH4 0xC9D41698 EQ PUSH2 0x616 JUMPI DUP1 PUSH4 0xCC26C44E EQ PUSH2 0x636 JUMPI DUP1 PUSH4 0xD53890CD EQ PUSH2 0x66D JUMPI DUP1 PUSH4 0xD5E46D3C EQ PUSH2 0x68D JUMPI PUSH1 0x0 DUP1 REVERT JUMPDEST DUP1 PUSH4 0xA623DBE5 GT PUSH2 0xF2 JUMPI DUP1 PUSH4 0xA623DBE5 EQ PUSH2 0x55F JUMPI DUP1 PUSH4 0xA97AF1F2 EQ PUSH2 0x57F JUMPI DUP1 PUSH4 0xC4E41B22 EQ PUSH2 0x59F JUMPI DUP1 PUSH4 0xC69CE8EB EQ PUSH2 0x5B4 JUMPI DUP1 PUSH4 0xC7101837 EQ PUSH2 0x5D4 JUMPI PUSH1 0x0 DUP1 REVERT JUMPDEST DUP1 PUSH4 0x74DF25AD EQ PUSH2 0x4D6 JUMPI DUP1 PUSH4 0x80D87320 EQ PUSH2 0x4F8 JUMPI DUP1 PUSH4 0x8DA5CB5B EQ PUSH2 0x518 JUMPI DUP1 PUSH4 0x9AB8DED1 EQ PUSH2 0x54A JUMPI PUSH1 0x0 DUP1 REVERT JUMPDEST DUP1 PUSH4 0x4D52A512 GT PUSH2 0x1A6 JUMPI DUP1 PUSH4 0x6C2B04FD GT PUSH2 0x175 JUMPI DUP1 PUSH4 0x6C2B04FD EQ PUSH2 0x43C JUMPI DUP1 PUSH4 0x6F9CE1F9 EQ PUSH2 0x46C JUMPI DUP1 PUSH4 0x715018A6 EQ PUSH2 0x48C JUMPI DUP1 PUSH4 0x7273DF66 EQ PUSH2 0x4A1 JUMPI DUP1 PUSH4 0x7398AB18 EQ PUSH2 0x4C1 JUMPI PUSH1 0x0 DUP1 REVERT JUMPDEST DUP1 PUSH4 0x4D52A512 EQ PUSH2 0x388 JUMPI DUP1 PUSH4 0x52EFEA6E EQ PUSH2 0x39D JUMPI DUP1 PUSH4 0x54D9BA1C EQ PUSH2 0x3B2 JUMPI DUP1 PUSH4 0x60246C88 EQ PUSH2 0x3D2 JUMPI PUSH1 0x0 DUP1 REVERT JUMPDEST DUP1 PUSH4 0x14F326A1 GT PUSH2 0x1ED JUMPI DUP1 PUSH4 0x14F326A1 EQ PUSH2 0x309 JUMPI DUP1 PUSH4 0x1758B09D EQ PUSH2 0x31E JUMPI DUP1 PUSH4 0x2483C291 EQ PUSH2 0x33E JUMPI DUP1 PUSH4 0x372500AB EQ PUSH2 0x35E JUMPI DUP1 PUSH4 0x439F5AC2 EQ PUSH2 0x373 JUMPI PUSH1 0x0 DUP1 REVERT JUMPDEST DUP1 PUSH3 0x8CC262 EQ PUSH2 0x21E JUMPI DUP1 PUSH4 0x4D43FC0 EQ PUSH2 0x251 JUMPI DUP1 PUSH4 0xC7FD484 EQ PUSH2 0x294 JUMPI DUP1 PUSH4 0xD5847B0 EQ PUSH2 0x2E7 JUMPI JUMPDEST PUSH1 0x0 DUP1 REVERT JUMPDEST CALLVALUE DUP1 ISZERO PUSH2 0x22A JUMPI PUSH1 0x0 DUP1 REVERT JUMPDEST POP PUSH2 0x23E PUSH2 0x239 CALLDATASIZE PUSH1 0x4 PUSH2 0x2BDE JUMP JUMPDEST PUSH2 0x72D JUMP JUMPDEST PUSH1 0x40 MLOAD SWAP1 DUP2 MSTORE PUSH1 0x20 ADD JUMPDEST PUSH1 0x40 MLOAD DUP1 SWAP2 SUB SWAP1 RETURN JUMPDEST CALLVALUE DUP1 ISZERO PUSH2 0x25D JUMPI PUSH1 0x0 DUP1 REVERT JUMPDEST POP PUSH2 0x275 PUSH1 0x12 SLOAD PUSH1 0x11 SLOAD PUSH1 0x1 PUSH1 0x1 PUSH1 0xA0 SHL SUB SWAP1 SWAP2 AND SWAP2 JUMP JUMPDEST PUSH1 0x40 DUP1 MLOAD PUSH1 0x1 PUSH1 0x1 PUSH1 0xA0 SHL SUB SWAP1 SWAP4 AND DUP4 MSTORE PUSH1 0x20 DUP4 ADD SWAP2 SWAP1 SWAP2 MSTORE ADD PUSH2 0x248 JUMP JUMPDEST CALLVALUE DUP1 ISZERO PUSH2 0x2A0 JUMPI PUSH1 0x0 DUP1 REVERT JUMPDEST POP PUSH2 0x2B4 PUSH2 0x2AF CALLDATASIZE PUSH1 0x4 PUSH2 0x2BDE JUMP JUMPDEST PUSH2 0x996 JUMP JUMPDEST PUSH1 0x40 MLOAD PUSH2 0x248 SWAP2 SWAP1 DUP2 MLOAD DUP2 MSTORE PUSH1 0x20 DUP1 DUP4 ADD MLOAD SWAP1 DUP3 ADD MSTORE PUSH1 0x40 DUP1 DUP4 ADD MLOAD SWAP1 DUP3 ADD MSTORE PUSH1 0x60 SWAP2 DUP3 ADD MLOAD SWAP2 DUP2 ADD SWAP2 SWAP1 SWAP2 MSTORE PUSH1 0x80 ADD SWAP1 JUMP JUMPDEST CALLVALUE DUP1 ISZERO PUSH2 0x2F3 JUMPI PUSH1 0x0 DUP1 REVERT JUMPDEST POP PUSH2 0x307 PUSH2 0x302 CALLDATASIZE PUSH1 0x4 PUSH2 0x2BF9 JUMP JUMPDEST PUSH2 0xA0F JUMP JUMPDEST STOP JUMPDEST CALLVALUE DUP1 ISZERO PUSH2 0x315 JUMPI PUSH1 0x0 DUP1 REVERT JUMPDEST POP PUSH1 0xC SLOAD PUSH2 0x23E JUMP JUMPDEST CALLVALUE DUP1 ISZERO PUSH2 0x32A JUMPI PUSH1 0x0 DUP1 REVERT JUMPDEST POP PUSH2 0x307 PUSH2 0x339 CALLDATASIZE PUSH1 0x4 PUSH2 0x2BF9 JUMP JUMPDEST PUSH2 0xD58 JUMP JUMPDEST CALLVALUE DUP1 ISZERO PUSH2 0x34A JUMPI PUSH1 0x0 DUP1 REVERT JUMPDEST POP PUSH2 0x307 PUSH2 0x359 CALLDATASIZE PUSH1 0x4 PUSH2 0x2C5E JUMP JUMPDEST PUSH2 0xD96 JUMP JUMPDEST CALLVALUE DUP1 ISZERO PUSH2 0x36A JUMPI PUSH1 0x0 DUP1 REVERT JUMPDEST POP PUSH2 0x307 PUSH2 0xFDE JUMP JUMPDEST CALLVALUE DUP1 ISZERO PUSH2 0x37F JUMPI PUSH1 0x0 DUP1 REVERT JUMPDEST POP PUSH1 0x4 SLOAD PUSH2 0x23E JUMP JUMPDEST CALLVALUE DUP1 ISZERO PUSH2 0x394 JUMPI PUSH1 0x0 DUP1 REVERT JUMPDEST POP PUSH1 0xA SLOAD PUSH2 0x23E JUMP JUMPDEST CALLVALUE DUP1 ISZERO PUSH2 0x3A9 JUMPI PUSH1 0x0 DUP1 REVERT JUMPDEST POP PUSH2 0x307 PUSH2 0x1244 JUMP JUMPDEST CALLVALUE DUP1 ISZERO PUSH2 0x3BE JUMPI PUSH1 0x0 DUP1 REVERT JUMPDEST POP PUSH2 0x307 PUSH2 0x3CD CALLDATASIZE PUSH1 0x4 PUSH2 0x2CF8 JUMP JUMPDEST PUSH2 0x152F JUMP JUMPDEST CALLVALUE DUP1 ISZERO PUSH2 0x3DE JUMPI PUSH1 0x0 DUP1 REVERT JUMPDEST POP PUSH2 0x3E7 PUSH2 0x1576 JUMP JUMPDEST PUSH1 0x40 MLOAD PUSH2 0x248 SWAP2 SWAP1 DUP2 MLOAD PUSH1 0x1 PUSH1 0x1 PUSH1 0xA0 SHL SUB SWAP1 DUP2 AND DUP3 MSTORE PUSH1 0x20 DUP1 DUP5 ADD MLOAD SWAP1 SWAP2 AND SWAP1 DUP3 ADD MSTORE PUSH1 0x40 DUP1 DUP4 ADD MLOAD SWAP1 DUP3 ADD MSTORE PUSH1 0x60 DUP1 DUP4 ADD MLOAD SWAP1 DUP3 ADD MSTORE PUSH1 0x80 DUP1 DUP4 ADD MLOAD SWAP1 DUP3 ADD MSTORE PUSH1 0xA0 SWAP2 DUP3 ADD MLOAD SWAP2 DUP2 ADD SWAP2 SWAP1 SWAP2 MSTORE PUSH1 0xC0 ADD SWAP1 JUMP JUMPDEST CALLVALUE DUP1 ISZERO PUSH2 0x448 JUMPI PUSH1 0x0 DUP1 REVERT JUMPDEST POP PUSH2 0x45C PUSH2 0x457 CALLDATASIZE PUSH1 0x4 PUSH2 0x2BDE JUMP JUMPDEST PUSH2 0x160A JUMP JUMPDEST PUSH1 0x40 MLOAD SWAP1 ISZERO ISZERO DUP2 MSTORE PUSH1 0x20 ADD PUSH2 0x248 JUMP JUMPDEST CALLVALUE DUP1 ISZERO PUSH2 0x478 JUMPI PUSH1 0x0 DUP1 REVERT JUMPDEST POP PUSH2 0x2B4 PUSH2 0x487 CALLDATASIZE PUSH1 0x4 PUSH2 0x2BF9 JUMP JUMPDEST PUSH2 0x161D JUMP JUMPDEST CALLVALUE DUP1 ISZERO PUSH2 0x498 JUMPI PUSH1 0x0 DUP1 REVERT JUMPDEST POP PUSH2 0x307 PUSH2 0x16B9 JUMP JUMPDEST CALLVALUE DUP1 ISZERO PUSH2 0x4AD JUMPI PUSH1 0x0 DUP1 REVERT JUMPDEST POP PUSH2 0x307 PUSH2 0x4BC CALLDATASIZE PUSH1 0x4 PUSH2 0x2D32 JUMP JUMPDEST PUSH2 0x172D JUMP JUMPDEST CALLVALUE DUP1 ISZERO PUSH2 0x4CD JUMPI PUSH1 0x0 DUP1 REVERT JUMPDEST POP PUSH1 0xD SLOAD PUSH2 0x23E JUMP JUMPDEST CALLVALUE DUP1 ISZERO PUSH2 0x4E2 JUMPI PUSH1 0x0 DUP1 REVERT JUMPDEST POP PUSH2 0x4EB PUSH2 0x1779 JUMP JUMPDEST PUSH1 0x40 MLOAD PUSH2 0x248 SWAP2 SWAP1 PUSH2 0x2D4F JUMP JUMPDEST CALLVALUE DUP1 ISZERO PUSH2 0x504 JUMPI PUSH1 0x0 DUP1 REVERT JUMPDEST POP PUSH2 0x307 PUSH2 0x513 CALLDATASIZE PUSH1 0x4 PUSH2 0x2BDE JUMP JUMPDEST PUSH2 0x17FB JUMP JUMPDEST CALLVALUE DUP1 ISZERO PUSH2 0x524 JUMPI PUSH1 0x0 DUP1 REVERT JUMPDEST POP PUSH1 0x0 SLOAD PUSH1 0x1 PUSH1 0x1 PUSH1 0xA0 SHL SUB AND JUMPDEST PUSH1 0x40 MLOAD PUSH1 0x1 PUSH1 0x1 PUSH1 0xA0 SHL SUB SWAP1 SWAP2 AND DUP2 MSTORE PUSH1 0x20 ADD PUSH2 0x248 JUMP JUMPDEST CALLVALUE DUP1 ISZERO PUSH2 0x556 JUMPI PUSH1 0x0 DUP1 REVERT JUMPDEST POP PUSH2 0x23E PUSH2 0x1834 JUMP JUMPDEST CALLVALUE DUP1 ISZERO PUSH2 0x56B JUMPI PUSH1 0x0 DUP1 REVERT JUMPDEST POP PUSH2 0x307 PUSH2 0x57A CALLDATASIZE PUSH1 0x4 PUSH2 0x2BF9 JUMP JUMPDEST PUSH2 0x1845 JUMP JUMPDEST CALLVALUE DUP1 ISZERO PUSH2 0x58B JUMPI PUSH1 0x0 DUP1 REVERT JUMPDEST POP PUSH2 0x307 PUSH2 0x59A CALLDATASIZE PUSH1 0x4 PUSH2 0x2DB1 JUMP JUMPDEST PUSH2 0x1883 JUMP JUMPDEST CALLVALUE DUP1 ISZERO PUSH2 0x5AB JUMPI PUSH1 0x0 DUP1 REVERT JUMPDEST POP PUSH1 0x5 SLOAD PUSH2 0x23E JUMP JUMPDEST CALLVALUE DUP1 ISZERO PUSH2 0x5C0 JUMPI PUSH1 0x0 DUP1 REVERT JUMPDEST POP PUSH2 0x307 PUSH2 0x5CF CALLDATASIZE PUSH1 0x4 PUSH2 0x2DDB JUMP JUMPDEST PUSH2 0x18E3 JUMP JUMPDEST CALLVALUE DUP1 ISZERO PUSH2 0x5E0 JUMPI PUSH1 0x0 DUP1 REVERT JUMPDEST POP PUSH2 0x5E9 PUSH2 0x1A8E JUMP JUMPDEST PUSH1 0x40 MLOAD PUSH2 0x248 SWAP2 SWAP1 PUSH2 0x2E47 JUMP JUMPDEST CALLVALUE DUP1 ISZERO PUSH2 0x602 JUMPI PUSH1 0x0 DUP1 REVERT JUMPDEST POP PUSH2 0x307 PUSH2 0x611 CALLDATASIZE PUSH1 0x4 PUSH2 0x2DB1 JUMP JUMPDEST PUSH2 0x1AF8 JUMP JUMPDEST CALLVALUE DUP1 ISZERO PUSH2 0x622 JUMPI PUSH1 0x0 DUP1 REVERT JUMPDEST POP PUSH2 0x532 PUSH2 0x631 CALLDATASIZE PUSH1 0x4 PUSH2 0x2BF9 JUMP JUMPDEST PUSH2 0x1B57 JUMP JUMPDEST CALLVALUE DUP1 ISZERO PUSH2 0x642 JUMPI PUSH1 0x0 DUP1 REVERT JUMPDEST POP PUSH2 0x64B PUSH2 0x1B64 JUMP JUMPDEST PUSH1 0x40 DUP1 MLOAD DUP3 MLOAD DUP2 MSTORE PUSH1 0x20 DUP1 DUP5 ADD MLOAD SWAP1 DUP3 ADD MSTORE SWAP2 DUP2 ADD MLOAD SWAP1 DUP3 ADD MSTORE PUSH1 0x60 ADD PUSH2 0x248 JUMP JUMPDEST CALLVALUE DUP1 ISZERO PUSH2 0x679 JUMPI PUSH1 0x0 DUP1 REVERT JUMPDEST POP PUSH2 0x307 PUSH2 0x688 CALLDATASIZE PUSH1 0x4 PUSH2 0x2BDE JUMP JUMPDEST PUSH2 0x1BAD JUMP JUMPDEST CALLVALUE DUP1 ISZERO PUSH2 0x699 JUMPI PUSH1 0x0 DUP1 REVERT JUMPDEST POP PUSH2 0x307 PUSH2 0x6A8 CALLDATASIZE PUSH1 0x4 PUSH2 0x2BDE JUMP JUMPDEST PUSH2 0x1C0E JUMP JUMPDEST CALLVALUE DUP1 ISZERO PUSH2 0x6B9 JUMPI PUSH1 0x0 DUP1 REVERT JUMPDEST POP PUSH2 0x307 PUSH2 0x6C8 CALLDATASIZE PUSH1 0x4 PUSH2 0x2E89 JUMP JUMPDEST PUSH2 0x1C43 JUMP JUMPDEST CALLVALUE DUP1 ISZERO PUSH2 0x6D9 JUMPI PUSH1 0x0 DUP1 REVERT JUMPDEST POP PUSH1 0x16 SLOAD PUSH1 0xFF AND PUSH2 0x45C JUMP JUMPDEST CALLVALUE DUP1 ISZERO PUSH2 0x6F1 JUMPI PUSH1 0x0 DUP1 REVERT JUMPDEST POP PUSH2 0x307 PUSH2 0x1CF5 JUMP JUMPDEST PUSH2 0x307 PUSH2 0x708 CALLDATASIZE PUSH1 0x4 PUSH2 0x2BF9 JUMP JUMPDEST PUSH2 0x224F JUMP JUMPDEST CALLVALUE DUP1 ISZERO PUSH2 0x719 JUMPI PUSH1 0x0 DUP1 REVERT JUMPDEST POP PUSH2 0x307 PUSH2 0x728 CALLDATASIZE PUSH1 0x4 PUSH2 0x2BDE JUMP JUMPDEST PUSH2 0x283B JUMP JUMPDEST PUSH1 0x7 SLOAD PUSH1 0x0 SWAP1 DUP2 SWAP1 DUP2 SWAP1 PUSH1 0x1 PUSH1 0x1 PUSH1 0xA0 SHL SUB AND PUSH2 0x74B JUMPI POP SELFBALANCE PUSH2 0x7C9 JUMP JUMPDEST PUSH1 0x7 SLOAD PUSH1 0x40 MLOAD PUSH4 0x70A08231 PUSH1 0xE0 SHL DUP2 MSTORE ADDRESS PUSH1 0x4 DUP3 ADD MSTORE PUSH1 0x1 PUSH1 0x1 PUSH1 0xA0 SHL SUB SWAP1 SWAP2 AND SWAP1 PUSH4 0x70A08231 SWAP1 PUSH1 0x24 ADD PUSH1 0x20 PUSH1 0x40 MLOAD DUP1 DUP4 SUB DUP2 DUP7 DUP1 EXTCODESIZE ISZERO DUP1 ISZERO PUSH2 0x78E JUMPI PUSH1 0x0 DUP1 REVERT JUMPDEST POP GAS STATICCALL ISZERO DUP1 ISZERO PUSH2 0x7A2 JUMPI RETURNDATASIZE PUSH1 0x0 DUP1 RETURNDATACOPY RETURNDATASIZE PUSH1 0x0 REVERT JUMPDEST POP POP POP POP PUSH1 0x40 MLOAD RETURNDATASIZE PUSH1 0x1F NOT PUSH1 0x1F DUP3 ADD AND DUP3 ADD DUP1 PUSH1 0x40 MSTORE POP DUP2 ADD SWAP1 PUSH2 0x7C6 SWAP2 SWAP1 PUSH2 0x2EC5 JUMP JUMPDEST SWAP1 POP JUMPDEST PUSH1 0x4 SLOAD TIMESTAMP GT DUP1 ISZERO PUSH2 0x7DC JUMPI POP PUSH1 0xA SLOAD DUP2 LT ISZERO JUMPDEST ISZERO PUSH2 0x98F JUMPI PUSH1 0x1 PUSH1 0x1 PUSH1 0xA0 SHL SUB DUP5 AND PUSH1 0x0 SWAP1 DUP2 MSTORE PUSH1 0xB PUSH1 0x20 SWAP1 DUP2 MSTORE PUSH1 0x40 DUP1 DUP4 KECCAK256 DUP2 MLOAD PUSH1 0x80 DUP2 ADD DUP4 MSTORE DUP2 SLOAD DUP2 MSTORE PUSH1 0x1 DUP3 ADD SLOAD SWAP4 DUP2 ADD SWAP4 SWAP1 SWAP4 MSTORE PUSH1 0x2 DUP2 ADD SLOAD SWAP2 DUP4 ADD SWAP2 SWAP1 SWAP2 MSTORE PUSH1 0x3 ADD SLOAD PUSH1 0x60 DUP3 ADD MSTORE PUSH1 0x14 SLOAD ISZERO PUSH2 0x8B9 JUMPI PUSH1 0x0 JUMPDEST PUSH1 0x14 SLOAD DUP2 LT ISZERO PUSH2 0x8B3 JUMPI PUSH1 0x0 PUSH1 0x14 DUP3 DUP2 SLOAD DUP2 LT PUSH2 0x853 JUMPI PUSH2 0x853 PUSH2 0x2EDE JUMP JUMPDEST SWAP1 PUSH1 0x0 MSTORE PUSH1 0x20 PUSH1 0x0 KECCAK256 SWAP1 PUSH1 0x2 MUL ADD PUSH1 0x40 MLOAD DUP1 PUSH1 0x40 ADD PUSH1 0x40 MSTORE SWAP1 DUP2 PUSH1 0x0 DUP3 ADD SLOAD DUP2 MSTORE PUSH1 0x20 ADD PUSH1 0x1 DUP3 ADD SLOAD DUP2 MSTORE POP POP SWAP1 POP DUP1 PUSH1 0x0 ADD MLOAD TIMESTAMP GT ISZERO PUSH2 0x8A0 JUMPI PUSH1 0x20 DUP2 ADD MLOAD PUSH2 0x89D SWAP1 DUP6 PUSH2 0x2F0A JUMP JUMPDEST SWAP4 POP JUMPDEST POP DUP1 PUSH2 0x8AB DUP2 PUSH2 0x2F22 JUMP JUMPDEST SWAP2 POP POP PUSH2 0x834 JUMP JUMPDEST POP PUSH2 0x8C5 JUMP JUMPDEST PUSH8 0xDE0B6B3A7640000 SWAP2 POP JUMPDEST PUSH2 0x8FC DUP2 PUSH1 0x60 ADD MLOAD PUSH2 0x8F6 PUSH8 0xDE0B6B3A7640000 PUSH2 0x8F0 DUP7 DUP7 PUSH1 0x40 ADD MLOAD PUSH2 0x2925 SWAP1 SWAP2 SWAP1 PUSH4 0xFFFFFFFF AND JUMP JUMPDEST SWAP1 PUSH2 0x2938 JUMP JUMPDEST SWAP1 PUSH2 0x2944 JUMP JUMPDEST PUSH1 0x6 SLOAD PUSH1 0x40 MLOAD PUSH4 0x70A08231 PUSH1 0xE0 SHL DUP2 MSTORE ADDRESS PUSH1 0x4 DUP3 ADD MSTORE SWAP2 SWAP6 POP PUSH1 0x0 SWAP2 PUSH1 0x1 PUSH1 0x1 PUSH1 0xA0 SHL SUB SWAP1 SWAP2 AND SWAP1 PUSH4 0x70A08231 SWAP1 PUSH1 0x24 ADD PUSH1 0x20 PUSH1 0x40 MLOAD DUP1 DUP4 SUB DUP2 DUP7 DUP1 EXTCODESIZE ISZERO DUP1 ISZERO PUSH2 0x945 JUMPI PUSH1 0x0 DUP1 REVERT JUMPDEST POP GAS STATICCALL ISZERO DUP1 ISZERO PUSH2 0x959 JUMPI RETURNDATASIZE PUSH1 0x0 DUP1 RETURNDATACOPY RETURNDATASIZE PUSH1 0x0 REVERT JUMPDEST POP POP POP POP PUSH1 0x40 MLOAD RETURNDATASIZE PUSH1 0x1F NOT PUSH1 0x1F DUP3 ADD AND DUP3 ADD DUP1 PUSH1 0x40 MSTORE POP DUP2 ADD SWAP1 PUSH2 0x97D SWAP2 SWAP1 PUSH2 0x2EC5 JUMP JUMPDEST SWAP1 POP PUSH2 0x989 DUP6 DUP3 PUSH2 0x2950 JUMP JUMPDEST SWAP5 POP POP POP POP JUMPDEST POP SWAP3 SWAP2 POP POP JUMP JUMPDEST PUSH2 0x9C1 PUSH1 0x40 MLOAD DUP1 PUSH1 0x80 ADD PUSH1 0x40 MSTORE DUP1 PUSH1 0x0 DUP2 MSTORE PUSH1 0x20 ADD PUSH1 0x0 DUP2 MSTORE PUSH1 0x20 ADD PUSH1 0x0 DUP2 MSTORE PUSH1 0x20 ADD PUSH1 0x0 DUP2 MSTORE POP SWAP1 JUMP JUMPDEST POP PUSH1 0x1 PUSH1 0x1 PUSH1 0xA0 SHL SUB AND PUSH1 0x0 SWAP1 DUP2 MSTORE PUSH1 0xB PUSH1 0x20 SWAP1 DUP2 MSTORE PUSH1 0x40 SWAP2 DUP3 SWAP1 KECCAK256 DUP3 MLOAD PUSH1 0x80 DUP2 ADD DUP5 MSTORE DUP2 SLOAD DUP2 MSTORE PUSH1 0x1 DUP3 ADD SLOAD SWAP3 DUP2 ADD SWAP3 SWAP1 SWAP3 MSTORE PUSH1 0x2 DUP2 ADD SLOAD SWAP3 DUP3 ADD SWAP3 SWAP1 SWAP3 MSTORE PUSH1 0x3 SWAP1 SWAP2 ADD SLOAD PUSH1 0x60 DUP3 ADD MSTORE SWAP1 JUMP JUMPDEST PUSH1 0x0 SLOAD PUSH1 0x1 PUSH1 0x1 PUSH1 0xA0 SHL SUB AND CALLER EQ DUP1 PUSH2 0xA2C JUMPI POP PUSH2 0xA2C CALLER PUSH2 0x160A JUMP JUMPDEST PUSH2 0xA51 JUMPI PUSH1 0x40 MLOAD PUSH3 0x461BCD PUSH1 0xE5 SHL DUP2 MSTORE PUSH1 0x4 ADD PUSH2 0xA48 SWAP1 PUSH2 0x2F3D JUMP JUMPDEST PUSH1 0x40 MLOAD DUP1 SWAP2 SUB SWAP1 REVERT JUMPDEST PUSH1 0x4 SLOAD TIMESTAMP GT PUSH2 0xA72 JUMPI PUSH1 0x40 MLOAD PUSH3 0x461BCD PUSH1 0xE5 SHL DUP2 MSTORE PUSH1 0x4 ADD PUSH2 0xA48 SWAP1 PUSH2 0x2F82 JUMP JUMPDEST PUSH1 0xC SLOAD PUSH1 0xD SLOAD LT PUSH2 0xAC5 JUMPI PUSH1 0x40 MLOAD PUSH3 0x461BCD PUSH1 0xE5 SHL DUP2 MSTORE PUSH1 0x20 PUSH1 0x4 DUP3 ADD MSTORE PUSH1 0x17 PUSH1 0x24 DUP3 ADD MSTORE PUSH32 0x616C6C2068617665206265656E2067697665206261636B000000000000000000 PUSH1 0x44 DUP3 ADD MSTORE PUSH1 0x64 ADD PUSH2 0xA48 JUMP JUMPDEST PUSH1 0x7 SLOAD PUSH1 0x0 SWAP1 PUSH1 0x1 PUSH1 0x1 PUSH1 0xA0 SHL SUB AND PUSH2 0xADF JUMPI POP SELFBALANCE PUSH2 0xB5D JUMP JUMPDEST PUSH1 0x7 SLOAD PUSH1 0x40 MLOAD PUSH4 0x70A08231 PUSH1 0xE0 SHL DUP2 MSTORE ADDRESS PUSH1 0x4 DUP3 ADD MSTORE PUSH1 0x1 PUSH1 0x1 PUSH1 0xA0 SHL SUB SWAP1 SWAP2 AND SWAP1 PUSH4 0x70A08231 SWAP1 PUSH1 0x24 ADD PUSH1 0x20 PUSH1 0x40 MLOAD DUP1 DUP4 SUB DUP2 DUP7 DUP1 EXTCODESIZE ISZERO DUP1 ISZERO PUSH2 0xB22 JUMPI PUSH1 0x0 DUP1 REVERT JUMPDEST POP GAS STATICCALL ISZERO DUP1 ISZERO PUSH2 0xB36 JUMPI RETURNDATASIZE PUSH1 0x0 DUP1 RETURNDATACOPY RETURNDATASIZE PUSH1 0x0 REVERT JUMPDEST POP POP POP POP PUSH1 0x40 MLOAD RETURNDATASIZE PUSH1 0x1F NOT PUSH1 0x1F DUP3 ADD AND DUP3 ADD DUP1 PUSH1 0x40 MSTORE POP DUP2 ADD SWAP1 PUSH2 0xB5A SWAP2 SWAP1 PUSH2 0x2EC5 JUMP JUMPDEST SWAP1 POP JUMPDEST PUSH1 0xA SLOAD DUP2 LT PUSH2 0xBAE JUMPI PUSH1 0x40 MLOAD PUSH3 0x461BCD PUSH1 0xE5 SHL DUP2 MSTORE PUSH1 0x20 PUSH1 0x4 DUP3 ADD MSTORE PUSH1 0x19 PUSH1 0x24 DUP3 ADD MSTORE PUSH32 0x49444F2073756363657373206E6F742067697665206261636B00000000000000 PUSH1 0x44 DUP3 ADD MSTORE PUSH1 0x64 ADD PUSH2 0xA48 JUMP JUMPDEST PUSH1 0x0 PUSH2 0xBC9 DUP4 PUSH1 0xD SLOAD PUSH2 0xBC1 SWAP2 SWAP1 PUSH2 0x2F0A JUMP JUMPDEST PUSH1 0xC SLOAD PUSH2 0x2950 JUMP JUMPDEST PUSH1 0xD SLOAD SWAP1 SWAP2 POP JUMPDEST DUP2 DUP2 LT ISZERO PUSH2 0xD50 JUMPI PUSH1 0x0 PUSH1 0xC DUP3 DUP2 SLOAD DUP2 LT PUSH2 0xBED JUMPI PUSH2 0xBED PUSH2 0x2EDE JUMP JUMPDEST PUSH1 0x0 SWAP2 DUP3 MSTORE PUSH1 0x20 DUP1 DUP4 KECCAK256 SWAP1 SWAP2 ADD SLOAD PUSH1 0x1 PUSH1 0x1 PUSH1 0xA0 SHL SUB AND DUP1 DUP4 MSTORE PUSH1 0xB DUP3 MSTORE PUSH1 0x40 DUP1 DUP5 KECCAK256 DUP2 MLOAD PUSH1 0x80 DUP2 ADD DUP4 MSTORE DUP2 SLOAD DUP2 MSTORE PUSH1 0x1 DUP3 ADD SLOAD SWAP5 DUP2 ADD DUP6 SWAP1 MSTORE PUSH1 0x2 DUP3 ADD SLOAD SWAP3 DUP2 ADD SWAP3 SWAP1 SWAP3 MSTORE PUSH1 0x3 ADD SLOAD PUSH1 0x60 DUP3 ADD MSTORE SWAP1 SWAP4 POP SWAP2 SWAP1 PUSH2 0xC4B SWAP1 DUP8 PUSH2 0x2950 JUMP JUMPDEST SWAP1 POP DUP1 ISZERO PUSH2 0xD2E JUMPI PUSH1 0x7 SLOAD PUSH1 0x1 PUSH1 0x1 PUSH1 0xA0 SHL SUB AND PUSH2 0xC9F JUMPI PUSH1 0x40 MLOAD PUSH1 0x1 PUSH1 0x1 PUSH1 0xA0 SHL SUB DUP5 AND SWAP1 DUP3 ISZERO PUSH2 0x8FC MUL SWAP1 DUP4 SWAP1 PUSH1 0x0 DUP2 DUP2 DUP2 DUP6 DUP9 DUP9 CALL SWAP4 POP POP POP POP ISZERO DUP1 ISZERO PUSH2 0xC99 JUMPI RETURNDATASIZE PUSH1 0x0 DUP1 RETURNDATACOPY RETURNDATASIZE PUSH1 0x0 REVERT JUMPDEST POP PUSH2 0xD2E JUMP JUMPDEST PUSH1 0x7 SLOAD PUSH1 0x40 MLOAD PUSH4 0xA9059CBB PUSH1 0xE0 SHL DUP2 MSTORE PUSH1 0x1 PUSH1 0x1 PUSH1 0xA0 SHL SUB DUP6 DUP2 AND PUSH1 0x4 DUP4 ADD MSTORE PUSH1 0x24 DUP3 ADD DUP5 SWAP1 MSTORE SWAP1 SWAP2 AND SWAP1 PUSH4 0xA9059CBB SWAP1 PUSH1 0x44 ADD PUSH1 0x20 PUSH1 0x40 MLOAD DUP1 DUP4 SUB DUP2 PUSH1 0x0 DUP8 DUP1 EXTCODESIZE ISZERO DUP1 ISZERO PUSH2 0xCED JUMPI PUSH1 0x0 DUP1 REVERT JUMPDEST POP GAS CALL ISZERO DUP1 ISZERO PUSH2 0xD01 JUMPI RETURNDATASIZE PUSH1 0x0 DUP1 RETURNDATACOPY RETURNDATASIZE PUSH1 0x0 REVERT JUMPDEST POP POP POP POP PUSH1 0x40 MLOAD RETURNDATASIZE PUSH1 0x1F NOT PUSH1 0x1F DUP3 ADD AND DUP3 ADD DUP1 PUSH1 0x40 MSTORE POP DUP2 ADD SWAP1 PUSH2 0xD25 SWAP2 SWAP1 PUSH2 0x2FB0 JUMP JUMPDEST PUSH2 0xD2E JUMPI PUSH1 0x0 DUP1 REVERT JUMPDEST PUSH2 0xD38 DUP7 DUP3 PUSH2 0x2944 JUMP JUMPDEST SWAP6 POP POP POP POP DUP1 DUP1 PUSH2 0xD48 SWAP1 PUSH2 0x2F22 JUMP JUMPDEST SWAP2 POP POP PUSH2 0xBD0 JUMP JUMPDEST POP PUSH1 0xD SSTORE POP POP JUMP JUMPDEST PUSH1 0x0 SLOAD PUSH1 0x1 PUSH1 0x1 PUSH1 0xA0 SHL SUB AND CALLER EQ DUP1 PUSH2 0xD75 JUMPI POP PUSH2 0xD75 CALLER PUSH2 0x160A JUMP JUMPDEST PUSH2 0xD91 JUMPI PUSH1 0x40 MLOAD PUSH3 0x461BCD PUSH1 0xE5 SHL DUP2 MSTORE PUSH1 0x4 ADD PUSH2 0xA48 SWAP1 PUSH2 0x2F3D JUMP JUMPDEST PUSH1 0xA SSTORE JUMP JUMPDEST PUSH1 0x0 SLOAD PUSH1 0x1 PUSH1 0x1 PUSH1 0xA0 SHL SUB AND CALLER EQ DUP1 PUSH2 0xDB3 JUMPI POP PUSH2 0xDB3 CALLER PUSH2 0x160A JUMP JUMPDEST PUSH2 0xDCF JUMPI PUSH1 0x40 MLOAD PUSH3 0x461BCD PUSH1 0xE5 SHL DUP2 MSTORE PUSH1 0x4 ADD PUSH2 0xA48 SWAP1 PUSH2 0x2F3D JUMP JUMPDEST DUP3 DUP6 EQ PUSH2 0xDEE JUMPI PUSH1 0x40 MLOAD PUSH3 0x461BCD PUSH1 0xE5 SHL DUP2 MSTORE PUSH1 0x4 ADD PUSH2 0xA48 SWAP1 PUSH2 0x2FCD JUMP JUMPDEST DUP1 DUP4 EQ PUSH2 0xE0D JUMPI PUSH1 0x40 MLOAD PUSH3 0x461BCD PUSH1 0xE5 SHL DUP2 MSTORE PUSH1 0x4 ADD PUSH2 0xA48 SWAP1 PUSH2 0x2FCD JUMP JUMPDEST DUP5 PUSH1 0x0 DUP1 JUMPDEST DUP3 DUP2 LT ISZERO PUSH2 0xE52 JUMPI DUP5 DUP5 DUP3 DUP2 DUP2 LT PUSH2 0xE2C JUMPI PUSH2 0xE2C PUSH2 0x2EDE JUMP JUMPDEST SWAP1 POP PUSH1 0x20 MUL ADD CALLDATALOAD DUP3 PUSH2 0xE3E SWAP2 SWAP1 PUSH2 0x2F0A JUMP JUMPDEST SWAP2 POP DUP1 PUSH2 0xE4A DUP2 PUSH2 0x2F22 JUMP JUMPDEST SWAP2 POP POP PUSH2 0xE12 JUMP JUMPDEST POP DUP1 PUSH8 0xDE0B6B3A7640000 EQ PUSH2 0xE7A JUMPI PUSH1 0x40 MLOAD PUSH3 0x461BCD PUSH1 0xE5 SHL DUP2 MSTORE PUSH1 0x4 ADD PUSH2 0xA48 SWAP1 PUSH2 0x2FFB JUMP JUMPDEST PUSH2 0xE86 PUSH1 0x13 PUSH1 0x0 PUSH2 0x2B34 JUMP JUMPDEST PUSH1 0x0 JUMPDEST DUP3 DUP2 LT ISZERO PUSH2 0xFD3 JUMPI PUSH1 0x0 PUSH1 0x40 MLOAD DUP1 PUSH1 0x60 ADD PUSH1 0x40 MSTORE DUP1 DUP12 DUP12 DUP6 DUP2 DUP2 LT PUSH2 0xEB0 JUMPI PUSH2 0xEB0 PUSH2 0x2EDE JUMP JUMPDEST SWAP1 POP PUSH1 0x20 MUL ADD CALLDATALOAD DUP2 MSTORE PUSH1 0x20 ADD DUP10 DUP10 DUP6 DUP2 DUP2 LT PUSH2 0xECE JUMPI PUSH2 0xECE PUSH2 0x2EDE JUMP JUMPDEST SWAP1 POP PUSH1 0x20 MUL ADD PUSH1 0x20 DUP2 ADD SWAP1 PUSH2 0xEE3 SWAP2 SWAP1 PUSH2 0x2BDE JUMP JUMPDEST PUSH1 0x1 PUSH1 0x1 PUSH1 0xA0 SHL SUB AND DUP2 MSTORE PUSH1 0x20 ADD DUP8 DUP8 DUP6 DUP2 DUP2 LT PUSH2 0xF03 JUMPI PUSH2 0xF03 PUSH2 0x2EDE JUMP JUMPDEST PUSH1 0x20 SWAP1 DUP2 MUL SWAP3 SWAP1 SWAP3 ADD CALLDATALOAD SWAP1 SWAP3 MSTORE PUSH1 0x13 DUP1 SLOAD PUSH1 0x1 DUP2 ADD DUP3 SSTORE PUSH1 0x0 SWAP2 SWAP1 SWAP2 MSTORE DUP4 MLOAD PUSH32 0x66DE8FFDA797E3DE9C05E8FC57B3BF0EC28A930D40B0D285D93C06501CF6A090 PUSH1 0x3 SWAP1 SWAP3 MUL SWAP2 DUP3 ADD SSTORE SWAP1 DUP4 ADD MLOAD PUSH32 0x66DE8FFDA797E3DE9C05E8FC57B3BF0EC28A930D40B0D285D93C06501CF6A091 DUP3 ADD DUP1 SLOAD PUSH1 0x1 PUSH1 0x1 PUSH1 0xA0 SHL SUB NOT AND PUSH1 0x1 PUSH1 0x1 PUSH1 0xA0 SHL SUB SWAP1 SWAP3 AND SWAP2 SWAP1 SWAP2 OR SWAP1 SSTORE PUSH1 0x40 SWAP1 SWAP3 ADD MLOAD PUSH32 0x66DE8FFDA797E3DE9C05E8FC57B3BF0EC28A930D40B0D285D93C06501CF6A092 SWAP1 SWAP3 ADD SWAP2 SWAP1 SWAP2 SSTORE POP DUP2 SWAP1 POP PUSH2 0xFCB DUP2 PUSH2 0x2F22 JUMP JUMPDEST SWAP2 POP POP PUSH2 0xE89 JUMP JUMPDEST POP POP POP POP POP POP POP POP POP JUMP JUMPDEST PUSH1 0x16 SLOAD PUSH1 0xFF AND PUSH2 0x1024 JUMPI PUSH1 0x40 MLOAD PUSH3 0x461BCD PUSH1 0xE5 SHL DUP2 MSTORE PUSH1 0x20 PUSH1 0x4 DUP3 ADD MSTORE PUSH1 0x11 PUSH1 0x24 DUP3 ADD MSTORE PUSH17 0x63616E206E6F7420636C61696D206E6F77 PUSH1 0x78 SHL PUSH1 0x44 DUP3 ADD MSTORE PUSH1 0x64 ADD PUSH2 0xA48 JUMP JUMPDEST PUSH1 0x4 SLOAD TIMESTAMP GT PUSH2 0x1045 JUMPI PUSH1 0x40 MLOAD PUSH3 0x461BCD PUSH1 0xE5 SHL DUP2 MSTORE PUSH1 0x4 ADD PUSH2 0xA48 SWAP1 PUSH2 0x2F82 JUMP JUMPDEST PUSH1 0x7 SLOAD PUSH1 0x0 SWAP1 PUSH1 0x1 PUSH1 0x1 PUSH1 0xA0 SHL SUB AND PUSH2 0x105F JUMPI POP SELFBALANCE PUSH2 0x10DD JUMP JUMPDEST PUSH1 0x7 SLOAD PUSH1 0x40 MLOAD PUSH4 0x70A08231 PUSH1 0xE0 SHL DUP2 MSTORE ADDRESS PUSH1 0x4 DUP3 ADD MSTORE PUSH1 0x1 PUSH1 0x1 PUSH1 0xA0 SHL SUB SWAP1 SWAP2 AND SWAP1 PUSH4 0x70A08231 SWAP1 PUSH1 0x24 ADD PUSH1 0x20 PUSH1 0x40 MLOAD DUP1 DUP4 SUB DUP2 DUP7 DUP1 EXTCODESIZE ISZERO DUP1 ISZERO PUSH2 0x10A2 JUMPI PUSH1 0x0 DUP1 REVERT JUMPDEST POP GAS STATICCALL ISZERO DUP1 ISZERO PUSH2 0x10B6 JUMPI RETURNDATASIZE PUSH1 0x0 DUP1 RETURNDATACOPY RETURNDATASIZE PUSH1 0x0 REVERT JUMPDEST POP POP POP POP PUSH1 0x40 MLOAD RETURNDATASIZE PUSH1 0x1F NOT PUSH1 0x1F DUP3 ADD AND DUP3 ADD DUP1 PUSH1 0x40 MSTORE POP DUP2 ADD SWAP1 PUSH2 0x10DA SWAP2 SWAP1 PUSH2 0x2EC5 JUMP JUMPDEST SWAP1 POP JUMPDEST PUSH1 0xA SLOAD DUP2 LT ISZERO PUSH2 0x112F JUMPI PUSH1 0x40 MLOAD PUSH3 0x461BCD PUSH1 0xE5 SHL DUP2 MSTORE PUSH1 0x20 PUSH1 0x4 DUP3 ADD MSTORE PUSH1 0x1C PUSH1 0x24 DUP3 ADD MSTORE PUSH32 0x49444F2074786E20616D6F756E74206973206E6F7420656E6F75676800000000 PUSH1 0x44 DUP3 ADD MSTORE PUSH1 0x64 ADD PUSH2 0xA48 JUMP JUMPDEST PUSH1 0x0 PUSH2 0x113A CALLER PUSH2 0x72D JUMP JUMPDEST SWAP1 POP PUSH1 0x0 DUP2 GT PUSH2 0x118C JUMPI PUSH1 0x40 MLOAD PUSH3 0x461BCD PUSH1 0xE5 SHL DUP2 MSTORE PUSH1 0x20 PUSH1 0x4 DUP3 ADD MSTORE PUSH1 0x1E PUSH1 0x24 DUP3 ADD MSTORE PUSH32 0x7265776172647320616D6F756E742063616E206E6F74206265207A65726F0000 PUSH1 0x44 DUP3 ADD MSTORE PUSH1 0x64 ADD PUSH2 0xA48 JUMP JUMPDEST PUSH1 0x6 SLOAD PUSH1 0x40 MLOAD PUSH4 0xA9059CBB PUSH1 0xE0 SHL DUP2 MSTORE CALLER PUSH1 0x4 DUP3 ADD MSTORE PUSH1 0x24 DUP2 ADD DUP4 SWAP1 MSTORE PUSH1 0x1 PUSH1 0x1 PUSH1 0xA0 SHL SUB SWAP1 SWAP2 AND SWAP1 PUSH4 0xA9059CBB SWAP1 PUSH1 0x44 ADD PUSH1 0x20 PUSH1 0x40 MLOAD DUP1 DUP4 SUB DUP2 PUSH1 0x0 DUP8 DUP1 EXTCODESIZE ISZERO DUP1 ISZERO PUSH2 0x11D8 JUMPI PUSH1 0x0 DUP1 REVERT JUMPDEST POP GAS CALL ISZERO DUP1 ISZERO PUSH2 0x11EC JUMPI RETURNDATASIZE PUSH1 0x0 DUP1 RETURNDATACOPY RETURNDATASIZE PUSH1 0x0 REVERT JUMPDEST POP POP POP POP PUSH1 0x40 MLOAD RETURNDATASIZE PUSH1 0x1F NOT PUSH1 0x1F DUP3 ADD AND DUP3 ADD DUP1 PUSH1 0x40 MSTORE POP DUP2 ADD SWAP1 PUSH2 0x1210 SWAP2 SWAP1 PUSH2 0x2FB0 JUMP JUMPDEST PUSH2 0x1219 JUMPI PUSH1 0x0 DUP1 REVERT JUMPDEST CALLER PUSH1 0x0 SWAP1 DUP2 MSTORE PUSH1 0xB PUSH1 0x20 MSTORE PUSH1 0x40 DUP2 KECCAK256 PUSH1 0x3 ADD DUP1 SLOAD DUP4 SWAP3 SWAP1 PUSH2 0x123B SWAP1 DUP5 SWAP1 PUSH2 0x2F0A JUMP JUMPDEST SWAP1 SWAP2 SSTORE POP POP POP POP JUMP JUMPDEST PUSH1 0x0 SLOAD PUSH1 0x1 PUSH1 0x1 PUSH1 0xA0 SHL SUB AND CALLER EQ DUP1 PUSH2 0x1261 JUMPI POP PUSH2 0x1261 CALLER PUSH2 0x160A JUMP JUMPDEST PUSH2 0x127D JUMPI PUSH1 0x40 MLOAD PUSH3 0x461BCD PUSH1 0xE5 SHL DUP2 MSTORE PUSH1 0x4 ADD PUSH2 0xA48 SWAP1 PUSH2 0x2F3D JUMP JUMPDEST PUSH1 0x4 SLOAD TIMESTAMP GT PUSH2 0x129E JUMPI PUSH1 0x40 MLOAD PUSH3 0x461BCD PUSH1 0xE5 SHL DUP2 MSTORE PUSH1 0x4 ADD PUSH2 0xA48 SWAP1 PUSH2 0x2F82 JUMP JUMPDEST PUSH1 0x13 SLOAD PUSH2 0x12ED JUMPI PUSH1 0x40 MLOAD PUSH3 0x461BCD PUSH1 0xE5 SHL DUP2 MSTORE PUSH1 0x20 PUSH1 0x4 DUP3 ADD DUP2 SWAP1 MSTORE PUSH1 0x24 DUP3 ADD MSTORE PUSH32 0x73686172696E672072756C6573206D75737420626520636F6E66696775726564 PUSH1 0x44 DUP3 ADD MSTORE PUSH1 0x64 ADD PUSH2 0xA48 JUMP JUMPDEST PUSH1 0x7 SLOAD PUSH1 0x0 SWAP1 PUSH1 0x1 PUSH1 0x1 PUSH1 0xA0 SHL SUB AND PUSH2 0x1307 JUMPI POP SELFBALANCE PUSH2 0x1385 JUMP JUMPDEST PUSH1 0x7 SLOAD PUSH1 0x40 MLOAD PUSH4 0x70A08231 PUSH1 0xE0 SHL DUP2 MSTORE ADDRESS PUSH1 0x4 DUP3 ADD MSTORE PUSH1 0x1 PUSH1 0x1 PUSH1 0xA0 SHL SUB SWAP1 SWAP2 AND SWAP1 PUSH4 0x70A08231 SWAP1 PUSH1 0x24 ADD PUSH1 0x20 PUSH1 0x40 MLOAD DUP1 DUP4 SUB DUP2 DUP7 DUP1 EXTCODESIZE ISZERO DUP1 ISZERO PUSH2 0x134A JUMPI PUSH1 0x0 DUP1 REVERT JUMPDEST POP GAS STATICCALL ISZERO DUP1 ISZERO PUSH2 0x135E JUMPI RETURNDATASIZE PUSH1 0x0 DUP1 RETURNDATACOPY RETURNDATASIZE PUSH1 0x0 REVERT JUMPDEST POP POP POP POP PUSH1 0x40 MLOAD RETURNDATASIZE PUSH1 0x1F NOT PUSH1 0x1F DUP3 ADD AND DUP3 ADD DUP1 PUSH1 0x40 MSTORE POP DUP2 ADD SWAP1 PUSH2 0x1382 SWAP2 SWAP1 PUSH2 0x2EC5 JUMP JUMPDEST SWAP1 POP JUMPDEST PUSH1 0xA SLOAD DUP2 LT PUSH2 0x152C JUMPI DUP1 PUSH1 0x0 JUMPDEST PUSH1 0x13 SLOAD DUP2 LT ISZERO PUSH2 0x1529 JUMPI PUSH1 0x0 PUSH1 0x13 DUP3 DUP2 SLOAD DUP2 LT PUSH2 0x13B1 JUMPI PUSH2 0x13B1 PUSH2 0x2EDE JUMP JUMPDEST PUSH1 0x0 SWAP2 DUP3 MSTORE PUSH1 0x20 DUP1 DUP4 KECCAK256 PUSH1 0x40 DUP1 MLOAD PUSH1 0x60 DUP2 ADD DUP3 MSTORE PUSH1 0x3 SWAP1 SWAP5 MUL SWAP1 SWAP2 ADD DUP1 SLOAD DUP5 MSTORE PUSH1 0x1 DUP2 ADD SLOAD PUSH1 0x1 PUSH1 0x1 PUSH1 0xA0 SHL SUB AND SWAP3 DUP5 ADD SWAP3 SWAP1 SWAP3 MSTORE PUSH1 0x2 SWAP1 SWAP2 ADD SLOAD SWAP1 DUP3 ADD DUP2 SWAP1 MSTORE SWAP1 SWAP3 POP PUSH2 0x140E SWAP1 PUSH8 0xDE0B6B3A7640000 SWAP1 PUSH2 0x8F0 SWAP1 DUP9 SWAP1 PUSH2 0x2925 JUMP JUMPDEST SWAP1 POP PUSH2 0x141A DUP2 DUP6 PUSH2 0x2950 JUMP JUMPDEST SWAP1 POP DUP1 ISZERO PUSH2 0x1508 JUMPI PUSH1 0x7 SLOAD PUSH1 0x1 PUSH1 0x1 PUSH1 0xA0 SHL SUB AND PUSH2 0x1475 JUMPI DUP2 PUSH1 0x20 ADD MLOAD PUSH1 0x1 PUSH1 0x1 PUSH1 0xA0 SHL SUB AND PUSH2 0x8FC DUP3 SWAP1 DUP2 ISZERO MUL SWAP1 PUSH1 0x40 MLOAD PUSH1 0x0 PUSH1 0x40 MLOAD DUP1 DUP4 SUB DUP2 DUP6 DUP9 DUP9 CALL SWAP4 POP POP POP POP ISZERO DUP1 ISZERO PUSH2 0x146F JUMPI RETURNDATASIZE PUSH1 0x0 DUP1 RETURNDATACOPY RETURNDATASIZE PUSH1 0x0 REVERT JUMPDEST POP PUSH2 0x1508 JUMP JUMPDEST PUSH1 0x7 SLOAD PUSH1 0x20 DUP4 ADD MLOAD PUSH1 0x40 MLOAD PUSH4 0xA9059CBB PUSH1 0xE0 SHL DUP2 MSTORE PUSH1 0x1 PUSH1 0x1 PUSH1 0xA0 SHL SUB SWAP2 DUP3 AND PUSH1 0x4 DUP3 ADD MSTORE PUSH1 0x24 DUP2 ADD DUP5 SWAP1 MSTORE SWAP2 AND SWAP1 PUSH4 0xA9059CBB SWAP1 PUSH1 0x44 ADD PUSH1 0x20 PUSH1 0x40 MLOAD DUP1 DUP4 SUB DUP2 PUSH1 0x0 DUP8 DUP1 EXTCODESIZE ISZERO DUP1 ISZERO PUSH2 0x14C7 JUMPI PUSH1 0x0 DUP1 REVERT JUMPDEST POP GAS CALL ISZERO DUP1 ISZERO PUSH2 0x14DB JUMPI RETURNDATASIZE PUSH1 0x0 DUP1 RETURNDATACOPY RETURNDATASIZE PUSH1 0x0 REVERT JUMPDEST POP POP POP POP PUSH1 0x40 MLOAD RETURNDATASIZE PUSH1 0x1F NOT PUSH1 0x1F DUP3 ADD AND DUP3 ADD DUP1 PUSH1 0x40 MSTORE POP DUP2 ADD SWAP1 PUSH2 0x14FF SWAP2 SWAP1 PUSH2 0x2FB0 JUMP JUMPDEST PUSH2 0x1508 JUMPI PUSH1 0x0 DUP1 REVERT JUMPDEST PUSH2 0x1512 DUP5 DUP3 PUSH2 0x2944 JUMP JUMPDEST SWAP4 POP POP POP DUP1 DUP1 PUSH2 0x1521 SWAP1 PUSH2 0x2F22 JUMP JUMPDEST SWAP2 POP POP PUSH2 0x1392 JUMP JUMPDEST POP POP JUMPDEST POP JUMP JUMPDEST PUSH1 0x0 SLOAD PUSH1 0x1 PUSH1 0x1 PUSH1 0xA0 SHL SUB AND CALLER EQ DUP1 PUSH2 0x154C JUMPI POP PUSH2 0x154C CALLER PUSH2 0x160A JUMP JUMPDEST PUSH2 0x1568 JUMPI PUSH1 0x40 MLOAD PUSH3 0x461BCD PUSH1 0xE5 SHL DUP2 MSTORE PUSH1 0x4 ADD PUSH2 0xA48 SWAP1 PUSH2 0x2F3D JUMP JUMPDEST PUSH1 0xE SWAP3 SWAP1 SWAP3 SSTORE PUSH1 0xF SSTORE PUSH1 0x10 SSTORE JUMP JUMPDEST PUSH2 0x15C1 PUSH1 0x40 MLOAD DUP1 PUSH1 0xC0 ADD PUSH1 0x40 MSTORE DUP1 PUSH1 0x0 PUSH1 0x1 PUSH1 0x1 PUSH1 0xA0 SHL SUB AND DUP2 MSTORE PUSH1 0x20 ADD PUSH1 0x0 PUSH1 0x1 PUSH1 0x1 PUSH1 0xA0 SHL SUB AND DUP2 MSTORE PUSH1 0x20 ADD PUSH1 0x0 DUP2 MSTORE PUSH1 0x20 ADD PUSH1 0x0 DUP2 MSTORE PUSH1 0x20 ADD PUSH1 0x0 DUP2 MSTORE PUSH1 0x20 ADD PUSH1 0x0 DUP2 MSTORE POP SWAP1 JUMP JUMPDEST POP PUSH1 0x40 DUP1 MLOAD PUSH1 0xC0 DUP2 ADD DUP3 MSTORE PUSH1 0x6 SLOAD PUSH1 0x1 PUSH1 0x1 PUSH1 0xA0 SHL SUB SWAP1 DUP2 AND DUP3 MSTORE PUSH1 0x7 SLOAD AND PUSH1 0x20 DUP3 ADD MSTORE PUSH1 0x8 SLOAD SWAP2 DUP2 ADD SWAP2 SWAP1 SWAP2 MSTORE PUSH1 0x3 SLOAD PUSH1 0x60 DUP3 ADD MSTORE PUSH1 0x4 SLOAD PUSH1 0x80 DUP3 ADD MSTORE PUSH1 0x15 SLOAD PUSH1 0xA0 DUP3 ADD MSTORE SWAP1 JUMP JUMPDEST PUSH1 0x0 PUSH2 0x1617 PUSH1 0x1 DUP4 PUSH2 0x2966 JUMP JUMPDEST SWAP3 SWAP2 POP POP JUMP JUMPDEST PUSH2 0x1648 PUSH1 0x40 MLOAD DUP1 PUSH1 0x80 ADD PUSH1 0x40 MSTORE DUP1 PUSH1 0x0 DUP2 MSTORE PUSH1 0x20 ADD PUSH1 0x0 DUP2 MSTORE PUSH1 0x20 ADD PUSH1 0x0 DUP2 MSTORE PUSH1 0x20 ADD PUSH1 0x0 DUP2 MSTORE POP SWAP1 JUMP JUMPDEST PUSH1 0xB PUSH1 0x0 PUSH1 0xC DUP5 DUP2 SLOAD DUP2 LT PUSH2 0x165F JUMPI PUSH2 0x165F PUSH2 0x2EDE JUMP JUMPDEST PUSH1 0x0 SWAP2 DUP3 MSTORE PUSH1 0x20 DUP1 DUP4 KECCAK256 SWAP1 SWAP2 ADD SLOAD PUSH1 0x1 PUSH1 0x1 PUSH1 0xA0 SHL SUB AND DUP4 MSTORE DUP3 DUP2 ADD SWAP4 SWAP1 SWAP4 MSTORE PUSH1 0x40 SWAP2 DUP3 ADD SWAP1 KECCAK256 DUP2 MLOAD PUSH1 0x80 DUP2 ADD DUP4 MSTORE DUP2 SLOAD DUP2 MSTORE PUSH1 0x1 DUP3 ADD SLOAD SWAP4 DUP2 ADD SWAP4 SWAP1 SWAP4 MSTORE PUSH1 0x2 DUP2 ADD SLOAD SWAP2 DUP4 ADD SWAP2 SWAP1 SWAP2 MSTORE PUSH1 0x3 ADD SLOAD PUSH1 0x60 DUP3 ADD MSTORE SWAP3 SWAP2 POP POP JUMP JUMPDEST PUSH1 0x0 SLOAD PUSH1 0x1 PUSH1 0x1 PUSH1 0xA0 SHL SUB AND CALLER EQ PUSH2 0x16E3 JUMPI PUSH1 0x40 MLOAD PUSH3 0x461BCD PUSH1 0xE5 SHL DUP2 MSTORE PUSH1 0x4 ADD PUSH2 0xA48 SWAP1 PUSH2 0x303C JUMP JUMPDEST PUSH1 0x0 DUP1 SLOAD PUSH1 0x40 MLOAD PUSH1 0x1 PUSH1 0x1 PUSH1 0xA0 SHL SUB SWAP1 SWAP2 AND SWAP1 PUSH32 0x8BE0079C531659141344CD1FD0A4F28419497F9722A3DAAFE3B4186F6B6457E0 SWAP1 DUP4 SWAP1 LOG3 PUSH1 0x0 DUP1 SLOAD PUSH1 0x1 PUSH1 0x1 PUSH1 0xA0 SHL SUB NOT AND SWAP1 SSTORE JUMP JUMPDEST PUSH1 0x0 SLOAD PUSH1 0x1 PUSH1 0x1 PUSH1 0xA0 SHL SUB AND CALLER EQ DUP1 PUSH2 0x174A JUMPI POP PUSH2 0x174A CALLER PUSH2 0x160A JUMP JUMPDEST PUSH2 0x1766 JUMPI PUSH1 0x40 MLOAD PUSH3 0x461BCD PUSH1 0xE5 SHL DUP2 MSTORE PUSH1 0x4 ADD PUSH2 0xA48 SWAP1 PUSH2 0x2F3D JUMP JUMPDEST PUSH1 0x16 DUP1 SLOAD PUSH1 0xFF NOT AND SWAP2 ISZERO ISZERO SWAP2 SWAP1 SWAP2 OR SWAP1 SSTORE JUMP JUMPDEST PUSH1 0x60 PUSH1 0x13 DUP1 SLOAD DUP1 PUSH1 0x20 MUL PUSH1 0x20 ADD PUSH1 0x40 MLOAD SWAP1 DUP2 ADD PUSH1 0x40 MSTORE DUP1 SWAP3 SWAP2 SWAP1 DUP2 DUP2 MSTORE PUSH1 0x20 ADD PUSH1 0x0 SWAP1 JUMPDEST DUP3 DUP3 LT ISZERO PUSH2 0x17F2 JUMPI PUSH1 0x0 DUP5 DUP2 MSTORE PUSH1 0x20 SWAP1 DUP2 SWAP1 KECCAK256 PUSH1 0x40 DUP1 MLOAD PUSH1 0x60 DUP2 ADD DUP3 MSTORE PUSH1 0x3 DUP7 MUL SWAP1 SWAP3 ADD DUP1 SLOAD DUP4 MSTORE PUSH1 0x1 DUP1 DUP3 ADD SLOAD PUSH1 0x1 PUSH1 0x1 PUSH1 0xA0 SHL SUB AND DUP5 DUP7 ADD MSTORE PUSH1 0x2 SWAP1 SWAP2 ADD SLOAD SWAP2 DUP4 ADD SWAP2 SWAP1 SWAP2 MSTORE SWAP1 DUP4 MSTORE SWAP1 SWAP3 ADD SWAP2 ADD PUSH2 0x179D JUMP JUMPDEST POP POP POP POP SWAP1 POP SWAP1 JUMP JUMPDEST PUSH1 0x0 SLOAD PUSH1 0x1 PUSH1 0x1 PUSH1 0xA0 SHL SUB AND CALLER EQ PUSH2 0x1825 JUMPI PUSH1 0x40 MLOAD PUSH3 0x461BCD PUSH1 0xE5 SHL DUP2 MSTORE PUSH1 0x4 ADD PUSH2 0xA48 SWAP1 PUSH2 0x303C JUMP JUMPDEST PUSH2 0x1830 PUSH1 0x1 DUP3 PUSH2 0x2988 JUMP JUMPDEST POP POP JUMP JUMPDEST PUSH1 0x0 PUSH2 0x1840 PUSH1 0x1 PUSH2 0x299D JUMP JUMPDEST SWAP1 POP SWAP1 JUMP JUMPDEST PUSH1 0x0 SLOAD PUSH1 0x1 PUSH1 0x1 PUSH1 0xA0 SHL SUB AND CALLER EQ DUP1 PUSH2 0x1862 JUMPI POP PUSH2 0x1862 CALLER PUSH2 0x160A JUMP JUMPDEST PUSH2 0x187E JUMPI PUSH1 0x40 MLOAD PUSH3 0x461BCD PUSH1 0xE5 SHL DUP2 MSTORE PUSH1 0x4 ADD PUSH2 0xA48 SWAP1 PUSH2 0x2F3D JUMP JUMPDEST PUSH1 0x4 SSTORE JUMP JUMPDEST PUSH1 0x0 SLOAD PUSH1 0x1 PUSH1 0x1 PUSH1 0xA0 SHL SUB AND CALLER EQ PUSH2 0x18AD JUMPI PUSH1 0x40 MLOAD PUSH3 0x461BCD PUSH1 0xE5 SHL DUP2 MSTORE PUSH1 0x4 ADD PUSH2 0xA48 SWAP1 PUSH2 0x303C JUMP JUMPDEST PUSH1 0x40 MLOAD PUSH1 0x1 PUSH1 0x1 PUSH1 0xA0 SHL SUB DUP4 AND SWAP1 DUP3 ISZERO PUSH2 0x8FC MUL SWAP1 DUP4 SWAP1 PUSH1 0x0 DUP2 DUP2 DUP2 DUP6 DUP9 DUP9 CALL SWAP4 POP POP POP POP ISZERO DUP1 ISZERO PUSH2 0x1529 JUMPI RETURNDATASIZE PUSH1 0x0 DUP1 RETURNDATACOPY RETURNDATASIZE PUSH1 0x0 REVERT JUMPDEST PUSH1 0x0 SLOAD PUSH1 0x1 PUSH1 0x1 PUSH1 0xA0 SHL SUB AND CALLER EQ DUP1 PUSH2 0x1900 JUMPI POP PUSH2 0x1900 CALLER PUSH2 0x160A JUMP JUMPDEST PUSH2 0x191C JUMPI PUSH1 0x40 MLOAD PUSH3 0x461BCD PUSH1 0xE5 SHL DUP2 MSTORE PUSH1 0x4 ADD PUSH2 0xA48 SWAP1 PUSH2 0x2F3D JUMP JUMPDEST DUP3 DUP2 EQ PUSH2 0x193B JUMPI PUSH1 0x40 MLOAD PUSH3 0x461BCD PUSH1 0xE5 SHL DUP2 MSTORE PUSH1 0x4 ADD PUSH2 0xA48 SWAP1 PUSH2 0x2FCD JUMP JUMPDEST DUP3 PUSH1 0x0 DUP1 JUMPDEST DUP3 DUP2 LT ISZERO PUSH2 0x1980 JUMPI DUP5 DUP5 DUP3 DUP2 DUP2 LT PUSH2 0x195A JUMPI PUSH2 0x195A PUSH2 0x2EDE JUMP JUMPDEST SWAP1 POP PUSH1 0x20 MUL ADD CALLDATALOAD DUP3 PUSH2 0x196C SWAP2 SWAP1 PUSH2 0x2F0A JUMP JUMPDEST SWAP2 POP DUP1 PUSH2 0x1978 DUP2 PUSH2 0x2F22 JUMP JUMPDEST SWAP2 POP POP PUSH2 0x1940 JUMP JUMPDEST POP DUP1 PUSH8 0xDE0B6B3A7640000 EQ PUSH2 0x19A8 JUMPI PUSH1 0x40 MLOAD PUSH3 0x461BCD PUSH1 0xE5 SHL DUP2 MSTORE PUSH1 0x4 ADD PUSH2 0xA48 SWAP1 PUSH2 0x2FFB JUMP JUMPDEST PUSH2 0x19B4 PUSH1 0x14 PUSH1 0x0 PUSH2 0x2B55 JUMP JUMPDEST PUSH1 0x0 JUMPDEST DUP3 DUP2 LT ISZERO PUSH2 0x1A85 JUMPI PUSH1 0x0 PUSH1 0x40 MLOAD DUP1 PUSH1 0x40 ADD PUSH1 0x40 MSTORE DUP1 DUP10 DUP10 DUP6 DUP2 DUP2 LT PUSH2 0x19DE JUMPI PUSH2 0x19DE PUSH2 0x2EDE JUMP JUMPDEST SWAP1 POP PUSH1 0x20 MUL ADD CALLDATALOAD DUP2 MSTORE PUSH1 0x20 ADD DUP8 DUP8 DUP6 DUP2 DUP2 LT PUSH2 0x19FC JUMPI PUSH2 0x19FC PUSH2 0x2EDE JUMP JUMPDEST PUSH1 0x20 SWAP1 DUP2 MUL SWAP3 SWAP1 SWAP3 ADD CALLDATALOAD SWAP1 SWAP3 MSTORE PUSH1 0x14 DUP1 SLOAD PUSH1 0x1 DUP2 ADD DUP3 SSTORE PUSH1 0x0 SWAP2 SWAP1 SWAP2 MSTORE DUP4 MLOAD PUSH32 0xCE6D7B5282BD9A3661AE061FEED1DBDA4E52AB073B1F9285BE6E155D9C38D4EC PUSH1 0x2 SWAP1 SWAP3 MUL SWAP2 DUP3 ADD SSTORE SWAP3 ADD MLOAD PUSH32 0xCE6D7B5282BD9A3661AE061FEED1DBDA4E52AB073B1F9285BE6E155D9C38D4ED SWAP1 SWAP3 ADD SWAP2 SWAP1 SWAP2 SSTORE POP DUP2 SWAP1 POP PUSH2 0x1A7D DUP2 PUSH2 0x2F22 JUMP JUMPDEST SWAP2 POP POP PUSH2 0x19B7 JUMP JUMPDEST POP POP POP POP POP POP POP JUMP JUMPDEST PUSH1 0x60 PUSH1 0x14 DUP1 SLOAD DUP1 PUSH1 0x20 MUL PUSH1 0x20 ADD PUSH1 0x40 MLOAD SWAP1 DUP2 ADD PUSH1 0x40 MSTORE DUP1 SWAP3 SWAP2 SWAP1 DUP2 DUP2 MSTORE PUSH1 0x20 ADD PUSH1 0x0 SWAP1 JUMPDEST DUP3 DUP3 LT ISZERO PUSH2 0x17F2 JUMPI DUP4 DUP3 SWAP1 PUSH1 0x0 MSTORE PUSH1 0x20 PUSH1 0x0 KECCAK256 SWAP1 PUSH1 0x2 MUL ADD PUSH1 0x40 MLOAD DUP1 PUSH1 0x40 ADD PUSH1 0x40 MSTORE SWAP1 DUP2 PUSH1 0x0 DUP3 ADD SLOAD DUP2 MSTORE PUSH1 0x20 ADD PUSH1 0x1 DUP3 ADD SLOAD DUP2 MSTORE POP POP DUP2 MSTORE PUSH1 0x20 ADD SWAP1 PUSH1 0x1 ADD SWAP1 PUSH2 0x1AB2 JUMP JUMPDEST PUSH1 0x0 SLOAD PUSH1 0x1 PUSH1 0x1 PUSH1 0xA0 SHL SUB AND CALLER EQ DUP1 PUSH2 0x1B15 JUMPI POP PUSH2 0x1B15 CALLER PUSH2 0x160A JUMP JUMPDEST PUSH2 0x1B31 JUMPI PUSH1 0x40 MLOAD PUSH3 0x461BCD PUSH1 0xE5 SHL DUP2 MSTORE PUSH1 0x4 ADD PUSH2 0xA48 SWAP1 PUSH2 0x2F3D JUMP JUMPDEST PUSH1 0x12 DUP1 SLOAD PUSH1 0x1 PUSH1 0x1 PUSH1 0xA0 SHL SUB NOT AND PUSH1 0x1 PUSH1 0x1 PUSH1 0xA0 SHL SUB SWAP4 SWAP1 SWAP4 AND SWAP3 SWAP1 SWAP3 OR SWAP1 SWAP2 SSTORE PUSH1 0x11 SSTORE JUMP JUMPDEST PUSH1 0x0 PUSH2 0x1617 PUSH1 0x1 DUP4 PUSH2 0x29A7 JUMP JUMPDEST PUSH2 0x1B88 PUSH1 0x40 MLOAD DUP1 PUSH1 0x60 ADD PUSH1 0x40 MSTORE DUP1 PUSH1 0x0 DUP2 MSTORE PUSH1 0x20 ADD PUSH1 0x0 DUP2 MSTORE PUSH1 0x20 ADD PUSH1 0x0 DUP2 MSTORE POP SWAP1 JUMP JUMPDEST POP PUSH1 0x40 DUP1 MLOAD PUSH1 0x60 DUP2 ADD DUP3 MSTORE PUSH1 0xE SLOAD DUP2 MSTORE PUSH1 0xF SLOAD PUSH1 0x20 DUP3 ADD MSTORE PUSH1 0x10 SLOAD SWAP2 DUP2 ADD SWAP2 SWAP1 SWAP2 MSTORE SWAP1 JUMP JUMPDEST PUSH1 0x0 SLOAD PUSH1 0x1 PUSH1 0x1 PUSH1 0xA0 SHL SUB AND CALLER EQ DUP1 PUSH2 0x1BCA JUMPI POP PUSH2 0x1BCA CALLER PUSH2 0x160A JUMP JUMPDEST PUSH2 0x1BE6 JUMPI PUSH1 0x40 MLOAD PUSH3 0x461BCD PUSH1 0xE5 SHL DUP2 MSTORE PUSH1 0x4 ADD PUSH2 0xA48 SWAP1 PUSH2 0x2F3D JUMP JUMPDEST PUSH1 0x16 DUP1 SLOAD PUSH1 0x1 PUSH1 0x1 PUSH1 0xA0 SHL SUB SWAP1 SWAP3 AND PUSH2 0x100 MUL PUSH2 0x100 PUSH1 0x1 PUSH1 0xA8 SHL SUB NOT SWAP1 SWAP3 AND SWAP2 SWAP1 SWAP2 OR SWAP1 SSTORE JUMP JUMPDEST PUSH1 0x0 SLOAD PUSH1 0x1 PUSH1 0x1 PUSH1 0xA0 SHL SUB AND CALLER EQ PUSH2 0x1C38 JUMPI PUSH1 0x40 MLOAD PUSH3 0x461BCD PUSH1 0xE5 SHL DUP2 MSTORE PUSH1 0x4 ADD PUSH2 0xA48 SWAP1 PUSH2 0x303C JUMP JUMPDEST PUSH2 0x1830 PUSH1 0x1 DUP3 PUSH2 0x29B3 JUMP JUMPDEST PUSH1 0x0 SLOAD PUSH1 0x1 PUSH1 0x1 PUSH1 0xA0 SHL SUB AND CALLER EQ PUSH2 0x1C6D JUMPI PUSH1 0x40 MLOAD PUSH3 0x461BCD PUSH1 0xE5 SHL DUP2 MSTORE PUSH1 0x4 ADD PUSH2 0xA48 SWAP1 PUSH2 0x303C JUMP JUMPDEST PUSH1 0x40 MLOAD PUSH4 0xA9059CBB PUSH1 0xE0 SHL DUP2 MSTORE PUSH1 0x1 PUSH1 0x1 PUSH1 0xA0 SHL SUB DUP4 DUP2 AND PUSH1 0x4 DUP4 ADD MSTORE PUSH1 0x24 DUP3 ADD DUP4 SWAP1 MSTORE DUP5 AND SWAP1 PUSH4 0xA9059CBB SWAP1 PUSH1 0x44 ADD PUSH1 0x20 PUSH1 0x40 MLOAD DUP1 DUP4 SUB DUP2 PUSH1 0x0 DUP8 DUP1 EXTCODESIZE ISZERO DUP1 ISZERO PUSH2 0x1CB7 JUMPI PUSH1 0x0 DUP1 REVERT JUMPDEST POP GAS CALL ISZERO DUP1 ISZERO PUSH2 0x1CCB JUMPI RETURNDATASIZE PUSH1 0x0 DUP1 RETURNDATACOPY RETURNDATASIZE PUSH1 0x0 REVERT JUMPDEST POP POP POP POP PUSH1 0x40 MLOAD RETURNDATASIZE PUSH1 0x1F NOT PUSH1 0x1F DUP3 ADD AND DUP3 ADD DUP1 PUSH1 0x40 MSTORE POP DUP2 ADD SWAP1 PUSH2 0x1CEF SWAP2 SWAP1 PUSH2 0x2FB0 JUMP JUMPDEST POP POP POP POP JUMP JUMPDEST PUSH1 0x0 SLOAD PUSH1 0x1 PUSH1 0x1 PUSH1 0xA0 SHL SUB AND CALLER EQ DUP1 PUSH2 0x1D12 JUMPI POP PUSH2 0x1D12 CALLER PUSH2 0x160A JUMP JUMPDEST PUSH2 0x1D2E JUMPI PUSH1 0x40 MLOAD PUSH3 0x461BCD PUSH1 0xE5 SHL DUP2 MSTORE PUSH1 0x4 ADD PUSH2 0xA48 SWAP1 PUSH2 0x2F3D JUMP JUMPDEST PUSH1 0x4 SLOAD TIMESTAMP GT PUSH2 0x1D4F JUMPI PUSH1 0x40 MLOAD PUSH3 0x461BCD PUSH1 0xE5 SHL DUP2 MSTORE PUSH1 0x4 ADD PUSH2 0xA48 SWAP1 PUSH2 0x2F82 JUMP JUMPDEST PUSH1 0x13 SLOAD PUSH2 0x1D9E JUMPI PUSH1 0x40 MLOAD PUSH3 0x461BCD PUSH1 0xE5 SHL DUP2 MSTORE PUSH1 0x20 PUSH1 0x4 DUP3 ADD DUP2 SWAP1 MSTORE PUSH1 0x24 DUP3 ADD MSTORE PUSH32 0x73686172696E672072756C6573206D75737420626520636F6E66696775726564 PUSH1 0x44 DUP3 ADD MSTORE PUSH1 0x64 ADD PUSH2 0xA48 JUMP JUMPDEST PUSH1 0x6 SLOAD PUSH1 0x40 MLOAD PUSH4 0x70A08231 PUSH1 0xE0 SHL DUP2 MSTORE ADDRESS PUSH1 0x4 DUP3 ADD MSTORE PUSH1 0x0 SWAP2 PUSH1 0x1 PUSH1 0x1 PUSH1 0xA0 SHL SUB AND SWAP1 PUSH4 0x70A08231 SWAP1 PUSH1 0x24 ADD PUSH1 0x20 PUSH1 0x40 MLOAD DUP1 DUP4 SUB DUP2 DUP7 DUP1 EXTCODESIZE ISZERO DUP1 ISZERO PUSH2 0x1DE2 JUMPI PUSH1 0x0 DUP1 REVERT JUMPDEST POP GAS STATICCALL ISZERO DUP1 ISZERO PUSH2 0x1DF6 JUMPI RETURNDATASIZE PUSH1 0x0 DUP1 RETURNDATACOPY RETURNDATASIZE PUSH1 0x0 REVERT JUMPDEST POP POP POP POP PUSH1 0x40 MLOAD RETURNDATASIZE PUSH1 0x1F NOT PUSH1 0x1F DUP3 ADD AND DUP3 ADD DUP1 PUSH1 0x40 MSTORE POP DUP2 ADD SWAP1 PUSH2 0x1E1A SWAP2 SWAP1 PUSH2 0x2EC5 JUMP JUMPDEST PUSH1 0x7 SLOAD SWAP1 SWAP2 POP PUSH1 0x0 SWAP1 PUSH1 0x1 PUSH1 0x1 PUSH1 0xA0 SHL SUB AND PUSH2 0x1E37 JUMPI POP SELFBALANCE PUSH2 0x1EB5 JUMP JUMPDEST PUSH1 0x7 SLOAD PUSH1 0x40 MLOAD PUSH4 0x70A08231 PUSH1 0xE0 SHL DUP2 MSTORE ADDRESS PUSH1 0x4 DUP3 ADD MSTORE PUSH1 0x1 PUSH1 0x1 PUSH1 0xA0 SHL SUB SWAP1 SWAP2 AND SWAP1 PUSH4 0x70A08231 SWAP1 PUSH1 0x24 ADD PUSH1 0x20 PUSH1 0x40 MLOAD DUP1 DUP4 SUB DUP2 DUP7 DUP1 EXTCODESIZE ISZERO DUP1 ISZERO PUSH2 0x1E7A JUMPI PUSH1 0x0 DUP1 REVERT JUMPDEST POP GAS STATICCALL ISZERO DUP1 ISZERO PUSH2 0x1E8E JUMPI RETURNDATASIZE PUSH1 0x0 DUP1 RETURNDATACOPY RETURNDATASIZE PUSH1 0x0 REVERT JUMPDEST POP POP POP POP PUSH1 0x40 MLOAD RETURNDATASIZE PUSH1 0x1F NOT PUSH1 0x1F DUP3 ADD AND DUP3 ADD DUP1 PUSH1 0x40 MSTORE POP DUP2 ADD SWAP1 PUSH2 0x1EB2 SWAP2 SWAP1 PUSH2 0x2EC5 JUMP JUMPDEST SWAP1 POP JUMPDEST PUSH1 0xA SLOAD DUP2 LT ISZERO PUSH2 0x1FF3 JUMPI PUSH1 0x0 JUMPDEST PUSH1 0x13 SLOAD DUP2 LT ISZERO PUSH2 0x1529 JUMPI PUSH1 0x0 PUSH1 0x13 DUP3 DUP2 SLOAD DUP2 LT PUSH2 0x1EE1 JUMPI PUSH2 0x1EE1 PUSH2 0x2EDE JUMP JUMPDEST PUSH1 0x0 SWAP2 DUP3 MSTORE PUSH1 0x20 SWAP2 DUP3 SWAP1 KECCAK256 PUSH1 0x40 DUP1 MLOAD PUSH1 0x60 DUP2 ADD DUP3 MSTORE PUSH1 0x3 SWAP1 SWAP4 MUL SWAP1 SWAP2 ADD DUP1 SLOAD DUP4 MSTORE PUSH1 0x1 DUP2 ADD SLOAD PUSH1 0x1 PUSH1 0x1 PUSH1 0xA0 SHL SUB AND SWAP4 DUP4 ADD SWAP4 SWAP1 SWAP4 MSTORE PUSH1 0x2 SWAP1 SWAP3 ADD SLOAD SWAP2 DUP2 ADD SWAP2 SWAP1 SWAP2 MSTORE PUSH1 0x5 SLOAD SWAP1 SWAP2 POP PUSH2 0x1F34 SWAP1 DUP6 PUSH2 0x2950 JUMP JUMPDEST DUP2 MLOAD SWAP1 SWAP5 POP PUSH1 0x1 EQ DUP1 ISZERO PUSH2 0x1F48 JUMPI POP PUSH1 0x0 DUP5 GT JUMPDEST ISZERO PUSH2 0x1FE0 JUMPI PUSH1 0x6 SLOAD PUSH1 0x20 DUP3 ADD MLOAD PUSH1 0x40 MLOAD PUSH4 0xA9059CBB PUSH1 0xE0 SHL DUP2 MSTORE PUSH1 0x1 PUSH1 0x1 PUSH1 0xA0 SHL SUB SWAP2 DUP3 AND PUSH1 0x4 DUP3 ADD MSTORE PUSH1 0x24 DUP2 ADD DUP8 SWAP1 MSTORE SWAP2 AND SWAP1 PUSH4 0xA9059CBB SWAP1 PUSH1 0x44 ADD PUSH1 0x20 PUSH1 0x40 MLOAD DUP1 DUP4 SUB DUP2 PUSH1 0x0 DUP8 DUP1 EXTCODESIZE ISZERO DUP1 ISZERO PUSH2 0x1F9F JUMPI PUSH1 0x0 DUP1 REVERT JUMPDEST POP GAS CALL ISZERO DUP1 ISZERO PUSH2 0x1FB3 JUMPI RETURNDATASIZE PUSH1 0x0 DUP1 RETURNDATACOPY RETURNDATASIZE PUSH1 0x0 REVERT JUMPDEST POP POP POP POP PUSH1 0x40 MLOAD RETURNDATASIZE PUSH1 0x1F NOT PUSH1 0x1F DUP3 ADD AND DUP3 ADD DUP1 PUSH1 0x40 MSTORE POP DUP2 ADD SWAP1 PUSH2 0x1FD7 SWAP2 SWAP1 PUSH2 0x2FB0 JUMP JUMPDEST PUSH2 0x1FE0 JUMPI PUSH1 0x0 DUP1 REVERT JUMPDEST POP DUP1 PUSH2 0x1FEB DUP2 PUSH2 0x2F22 JUMP JUMPDEST SWAP2 POP POP PUSH2 0x1EC2 JUMP JUMPDEST DUP1 PUSH1 0x0 JUMPDEST PUSH1 0x13 SLOAD DUP2 LT ISZERO PUSH2 0x1CEF JUMPI PUSH1 0x0 PUSH1 0x13 DUP3 DUP2 SLOAD DUP2 LT PUSH2 0x2016 JUMPI PUSH2 0x2016 PUSH2 0x2EDE JUMP JUMPDEST PUSH1 0x0 SWAP2 DUP3 MSTORE PUSH1 0x20 SWAP2 DUP3 SWAP1 KECCAK256 PUSH1 0x40 DUP1 MLOAD PUSH1 0x60 DUP2 ADD DUP3 MSTORE PUSH1 0x3 SWAP1 SWAP4 MUL SWAP1 SWAP2 ADD DUP1 SLOAD DUP1 DUP5 MSTORE PUSH1 0x1 DUP1 DUP4 ADD SLOAD PUSH1 0x1 PUSH1 0x1 PUSH1 0xA0 SHL SUB AND SWAP6 DUP6 ADD SWAP6 SWAP1 SWAP6 MSTORE PUSH1 0x2 SWAP1 SWAP2 ADD SLOAD SWAP2 DUP4 ADD SWAP2 SWAP1 SWAP2 MSTORE SWAP1 SWAP3 POP EQ ISZERO PUSH2 0x210F JUMPI PUSH1 0x0 PUSH2 0x2072 PUSH1 0x5 SLOAD DUP8 PUSH2 0x2950 JUMP JUMPDEST SWAP1 POP DUP1 ISZERO PUSH2 0x210D JUMPI PUSH1 0x6 SLOAD PUSH1 0x20 DUP4 ADD MLOAD PUSH1 0x40 MLOAD PUSH4 0xA9059CBB PUSH1 0xE0 SHL DUP2 MSTORE PUSH1 0x1 PUSH1 0x1 PUSH1 0xA0 SHL SUB SWAP2 DUP3 AND PUSH1 0x4 DUP3 ADD MSTORE PUSH1 0x24 DUP2 ADD DUP5 SWAP1 MSTORE SWAP2 AND SWAP1 PUSH4 0xA9059CBB SWAP1 PUSH1 0x44 ADD PUSH1 0x20 PUSH1 0x40 MLOAD DUP1 DUP4 SUB DUP2 PUSH1 0x0 DUP8 DUP1 EXTCODESIZE ISZERO DUP1 ISZERO PUSH2 0x20CC JUMPI PUSH1 0x0 DUP1 REVERT JUMPDEST POP GAS CALL ISZERO DUP1 ISZERO PUSH2 0x20E0 JUMPI RETURNDATASIZE PUSH1 0x0 DUP1 RETURNDATACOPY RETURNDATASIZE PUSH1 0x0 REVERT JUMPDEST POP POP POP POP PUSH1 0x40 MLOAD RETURNDATASIZE PUSH1 0x1F NOT PUSH1 0x1F DUP3 ADD AND DUP3 ADD DUP1 PUSH1 0x40 MSTORE POP DUP2 ADD SWAP1 PUSH2 0x2104 SWAP2 SWAP1 PUSH2 0x2FB0 JUMP JUMPDEST PUSH2 0x210D JUMPI PUSH1 0x0 DUP1 REVERT JUMPDEST POP JUMPDEST PUSH1 0x0 PUSH2 0x2134 PUSH8 0xDE0B6B3A7640000 PUSH2 0x8F0 DUP5 PUSH1 0x40 ADD MLOAD DUP9 PUSH2 0x2925 SWAP1 SWAP2 SWAP1 PUSH4 0xFFFFFFFF AND JUMP JUMPDEST SWAP1 POP PUSH2 0x2140 DUP2 DUP6 PUSH2 0x2950 JUMP JUMPDEST SWAP1 POP DUP1 ISZERO PUSH2 0x222E JUMPI PUSH1 0x7 SLOAD PUSH1 0x1 PUSH1 0x1 PUSH1 0xA0 SHL SUB AND PUSH2 0x219B JUMPI DUP2 PUSH1 0x20 ADD MLOAD PUSH1 0x1 PUSH1 0x1 PUSH1 0xA0 SHL SUB AND PUSH2 0x8FC DUP3 SWAP1 DUP2 ISZERO MUL SWAP1 PUSH1 0x40 MLOAD PUSH1 0x0 PUSH1 0x40 MLOAD DUP1 DUP4 SUB DUP2 DUP6 DUP9 DUP9 CALL SWAP4 POP POP POP POP ISZERO DUP1 ISZERO PUSH2 0x2195 JUMPI RETURNDATASIZE PUSH1 0x0 DUP1 RETURNDATACOPY RETURNDATASIZE PUSH1 0x0 REVERT JUMPDEST POP PUSH2 0x222E JUMP JUMPDEST PUSH1 0x7 SLOAD PUSH1 0x20 DUP4 ADD MLOAD PUSH1 0x40 MLOAD PUSH4 0xA9059CBB PUSH1 0xE0 SHL DUP2 MSTORE PUSH1 0x1 PUSH1 0x1 PUSH1 0xA0 SHL SUB SWAP2 DUP3 AND PUSH1 0x4 DUP3 ADD MSTORE PUSH1 0x24 DUP2 ADD DUP5 SWAP1 MSTORE SWAP2 AND SWAP1 PUSH4 0xA9059CBB SWAP1 PUSH1 0x44 ADD PUSH1 0x20 PUSH1 0x40 MLOAD DUP1 DUP4 SUB DUP2 PUSH1 0x0 DUP8 DUP1 EXTCODESIZE ISZERO DUP1 ISZERO PUSH2 0x21ED JUMPI PUSH1 0x0 DUP1 REVERT JUMPDEST POP GAS CALL ISZERO DUP1 ISZERO PUSH2 0x2201 JUMPI RETURNDATASIZE PUSH1 0x0 DUP1 RETURNDATACOPY RETURNDATASIZE PUSH1 0x0 REVERT JUMPDEST POP POP POP POP PUSH1 0x40 MLOAD RETURNDATASIZE PUSH1 0x1F NOT PUSH1 0x1F DUP3 ADD AND DUP3 ADD DUP1 PUSH1 0x40 MSTORE POP DUP2 ADD SWAP1 PUSH2 0x2225 SWAP2 SWAP1 PUSH2 0x2FB0 JUMP JUMPDEST PUSH2 0x222E JUMPI PUSH1 0x0 DUP1 REVERT JUMPDEST PUSH2 0x2238 DUP5 DUP3 PUSH2 0x2944 JUMP JUMPDEST SWAP4 POP POP POP DUP1 DUP1 PUSH2 0x2247 SWAP1 PUSH2 0x2F22 JUMP JUMPDEST SWAP2 POP POP PUSH2 0x1FF7 JUMP JUMPDEST PUSH1 0x3 SLOAD TIMESTAMP LT ISZERO PUSH2 0x229A JUMPI PUSH1 0x40 MLOAD PUSH3 0x461BCD PUSH1 0xE5 SHL DUP2 MSTORE PUSH1 0x20 PUSH1 0x4 DUP3 ADD MSTORE PUSH1 0x16 PUSH1 0x24 DUP3 ADD MSTORE PUSH22 0x1D1A1A5CC81C1BDBDB081A5CC81B9BDD081CDD185C9D PUSH1 0x52 SHL PUSH1 0x44 DUP3 ADD MSTORE PUSH1 0x64 ADD PUSH2 0xA48 JUMP JUMPDEST PUSH1 0x4 SLOAD TIMESTAMP GT ISZERO PUSH2 0x22DF JUMPI PUSH1 0x40 MLOAD PUSH3 0x461BCD PUSH1 0xE5 SHL DUP2 MSTORE PUSH1 0x20 PUSH1 0x4 DUP3 ADD MSTORE PUSH1 0x10 PUSH1 0x24 DUP3 ADD MSTORE PUSH16 0x1D1A1A5CC81C1BDBDB081A5CC8195B99 PUSH1 0x82 SHL PUSH1 0x44 DUP3 ADD MSTORE PUSH1 0x64 ADD PUSH2 0xA48 JUMP JUMPDEST PUSH1 0x7 SLOAD PUSH1 0x1 PUSH1 0x1 PUSH1 0xA0 SHL SUB AND PUSH2 0x22FB JUMPI DUP1 CALLVALUE EQ PUSH2 0x22FB JUMPI PUSH1 0x0 DUP1 REVERT JUMPDEST PUSH1 0x16 SLOAD PUSH2 0x100 SWAP1 DIV PUSH1 0x1 PUSH1 0x1 PUSH1 0xA0 SHL SUB AND ISZERO DUP1 PUSH2 0x2394 JUMPI POP PUSH1 0x16 SLOAD PUSH1 0x40 MLOAD PUSH4 0x96BFC229 PUSH1 0xE0 SHL DUP2 MSTORE CALLER PUSH1 0x4 DUP3 ADD MSTORE PUSH2 0x100 SWAP1 SWAP2 DIV PUSH1 0x1 PUSH1 0x1 PUSH1 0xA0 SHL SUB AND SWAP1 PUSH4 0x96BFC229 SWAP1 PUSH1 0x24 ADD PUSH1 0x20 PUSH1 0x40 MLOAD DUP1 DUP4 SUB DUP2 DUP7 DUP1 EXTCODESIZE ISZERO DUP1 ISZERO PUSH2 0x235A JUMPI PUSH1 0x0 DUP1 REVERT JUMPDEST POP GAS STATICCALL ISZERO DUP1 ISZERO PUSH2 0x236E JUMPI RETURNDATASIZE PUSH1 0x0 DUP1 RETURNDATACOPY RETURNDATASIZE PUSH1 0x0 REVERT JUMPDEST POP POP POP POP PUSH1 0x40 MLOAD RETURNDATASIZE PUSH1 0x1F NOT PUSH1 0x1F DUP3 ADD AND DUP3 ADD DUP1 PUSH1 0x40 MSTORE POP DUP2 ADD SWAP1 PUSH2 0x2392 SWAP2 SWAP1 PUSH2 0x2FB0 JUMP JUMPDEST ISZERO JUMPDEST ISZERO PUSH2 0x2594 JUMPI PUSH1 0x12 SLOAD PUSH1 0x1 PUSH1 0x1 PUSH1 0xA0 SHL SUB AND ISZERO DUP1 ISZERO SWAP1 PUSH2 0x23BE JUMPI POP PUSH1 0x11 SLOAD ISZERO DUP1 PUSH2 0x23BE JUMPI POP PUSH1 0x11 SLOAD TIMESTAMP LT JUMPDEST ISZERO PUSH2 0x248A JUMPI PUSH1 0x12 SLOAD PUSH1 0x40 MLOAD PUSH4 0x96BFC229 PUSH1 0xE0 SHL DUP2 MSTORE CALLER PUSH1 0x4 DUP3 ADD MSTORE PUSH1 0x1 PUSH1 0x1 PUSH1 0xA0 SHL SUB SWAP1 SWAP2 AND SWAP1 PUSH4 0x96BFC229 SWAP1 PUSH1 0x24 ADD PUSH1 0x20 PUSH1 0x40 MLOAD DUP1 DUP4 SUB DUP2 DUP7 DUP1 EXTCODESIZE ISZERO DUP1 ISZERO PUSH2 0x2406 JUMPI PUSH1 0x0 DUP1 REVERT JUMPDEST POP GAS STATICCALL ISZERO DUP1 ISZERO PUSH2 0x241A JUMPI RETURNDATASIZE PUSH1 0x0 DUP1 RETURNDATACOPY RETURNDATASIZE PUSH1 0x0 REVERT JUMPDEST POP POP POP POP PUSH1 0x40 MLOAD RETURNDATASIZE PUSH1 0x1F NOT PUSH1 0x1F DUP3 ADD AND DUP3 ADD DUP1 PUSH1 0x40 MSTORE POP DUP2 ADD SWAP1 PUSH2 0x243E SWAP2 SWAP1 PUSH2 0x2FB0 JUMP JUMPDEST PUSH2 0x248A JUMPI PUSH1 0x40 MLOAD PUSH3 0x461BCD PUSH1 0xE5 SHL DUP2 MSTORE PUSH1 0x20 PUSH1 0x4 DUP3 ADD MSTORE PUSH1 0x18 PUSH1 0x24 DUP3 ADD MSTORE PUSH32 0x796F75206973206E6F7420696E207768697465206C6973740000000000000000 PUSH1 0x44 DUP3 ADD MSTORE PUSH1 0x64 ADD PUSH2 0xA48 JUMP JUMPDEST PUSH1 0xF SLOAD ISZERO PUSH2 0x24DB JUMPI PUSH1 0xF SLOAD DUP2 LT ISZERO PUSH2 0x24DB JUMPI PUSH1 0x40 MLOAD PUSH3 0x461BCD PUSH1 0xE5 SHL DUP2 MSTORE PUSH1 0x20 PUSH1 0x4 DUP3 ADD MSTORE PUSH1 0x14 PUSH1 0x24 DUP3 ADD MSTORE PUSH20 0x189D5E48185B5BDD5B9D081D1BDBC81CDB585B1B PUSH1 0x62 SHL PUSH1 0x44 DUP3 ADD MSTORE PUSH1 0x64 ADD PUSH2 0xA48 JUMP JUMPDEST PUSH1 0x10 SLOAD ISZERO PUSH2 0x252C JUMPI PUSH1 0x10 SLOAD DUP2 GT ISZERO PUSH2 0x252C JUMPI PUSH1 0x40 MLOAD PUSH3 0x461BCD PUSH1 0xE5 SHL DUP2 MSTORE PUSH1 0x20 PUSH1 0x4 DUP3 ADD MSTORE PUSH1 0x14 PUSH1 0x24 DUP3 ADD MSTORE PUSH20 0x62757920616D6F756E7420746F6F206C61726765 PUSH1 0x60 SHL PUSH1 0x44 DUP3 ADD MSTORE PUSH1 0x64 ADD PUSH2 0xA48 JUMP JUMPDEST PUSH1 0xE SLOAD ISZERO PUSH2 0x2594 JUMPI PUSH1 0xE SLOAD CALLER PUSH1 0x0 SWAP1 DUP2 MSTORE PUSH1 0xB PUSH1 0x20 MSTORE PUSH1 0x40 SWAP1 KECCAK256 SLOAD LT PUSH2 0x2594 JUMPI PUSH1 0x40 MLOAD PUSH3 0x461BCD PUSH1 0xE5 SHL DUP2 MSTORE PUSH1 0x20 PUSH1 0x4 DUP3 ADD MSTORE PUSH1 0x17 PUSH1 0x24 DUP3 ADD MSTORE PUSH32 0x6275792074696D6573206973206E6F7420656E6F756768000000000000000000 PUSH1 0x44 DUP3 ADD MSTORE PUSH1 0x64 ADD PUSH2 0xA48 JUMP JUMPDEST PUSH1 0x0 PUSH1 0x7 SLOAD PUSH1 0x1 PUSH1 0x1 PUSH1 0xA0 SHL SUB AND ISZERO PUSH2 0x26EB JUMPI PUSH1 0x7 PUSH1 0x0 SWAP1 SLOAD SWAP1 PUSH2 0x100 EXP SWAP1 DIV PUSH1 0x1 PUSH1 0x1 PUSH1 0xA0 SHL SUB AND PUSH1 0x1 PUSH1 0x1 PUSH1 0xA0 SHL SUB AND PUSH4 0x313CE567 PUSH1 0x40 MLOAD DUP2 PUSH4 0xFFFFFFFF AND PUSH1 0xE0 SHL DUP2 MSTORE PUSH1 0x4 ADD PUSH1 0x20 PUSH1 0x40 MLOAD DUP1 DUP4 SUB DUP2 DUP7 DUP1 EXTCODESIZE ISZERO DUP1 ISZERO PUSH2 0x25F5 JUMPI PUSH1 0x0 DUP1 REVERT JUMPDEST POP GAS STATICCALL ISZERO DUP1 ISZERO PUSH2 0x2609 JUMPI RETURNDATASIZE PUSH1 0x0 DUP1 RETURNDATACOPY RETURNDATASIZE PUSH1 0x0 REVERT JUMPDEST POP POP POP POP PUSH1 0x40 MLOAD RETURNDATASIZE PUSH1 0x1F NOT PUSH1 0x1F DUP3 ADD AND DUP3 ADD DUP1 PUSH1 0x40 MSTORE POP DUP2 ADD SWAP1 PUSH2 0x262D SWAP2 SWAP1 PUSH2 0x3071 JUMP JUMPDEST PUSH1 0xFF AND PUSH1 0x9 DUP2 SWAP1 SSTORE PUSH2 0x2652 SWAP1 PUSH2 0x2644 SWAP1 PUSH1 0xA PUSH2 0x3178 JUMP JUMPDEST PUSH1 0x8 SLOAD PUSH2 0x8F0 SWAP1 DUP6 SWAP1 PUSH2 0x2925 JUMP JUMPDEST PUSH1 0x7 SLOAD PUSH1 0x40 MLOAD PUSH4 0x23B872DD PUSH1 0xE0 SHL DUP2 MSTORE CALLER PUSH1 0x4 DUP3 ADD MSTORE ADDRESS PUSH1 0x24 DUP3 ADD MSTORE PUSH1 0x44 DUP2 ADD DUP6 SWAP1 MSTORE SWAP2 SWAP3 POP PUSH1 0x1 PUSH1 0x1 PUSH1 0xA0 SHL SUB AND SWAP1 PUSH4 0x23B872DD SWAP1 PUSH1 0x64 ADD PUSH1 0x20 PUSH1 0x40 MLOAD DUP1 DUP4 SUB DUP2 PUSH1 0x0 DUP8 DUP1 EXTCODESIZE ISZERO DUP1 ISZERO PUSH2 0x26A5 JUMPI PUSH1 0x0 DUP1 REVERT JUMPDEST POP GAS CALL ISZERO DUP1 ISZERO PUSH2 0x26B9 JUMPI RETURNDATASIZE PUSH1 0x0 DUP1 RETURNDATACOPY RETURNDATASIZE PUSH1 0x0 REVERT JUMPDEST POP POP POP POP PUSH1 0x40 MLOAD RETURNDATASIZE PUSH1 0x1F NOT PUSH1 0x1F DUP3 ADD AND DUP3 ADD DUP1 PUSH1 0x40 MSTORE POP DUP2 ADD SWAP1 PUSH2 0x26DD SWAP2 SWAP1 PUSH2 0x2FB0 JUMP JUMPDEST PUSH2 0x26E6 JUMPI PUSH1 0x0 DUP1 REVERT JUMPDEST PUSH2 0x270F JUMP JUMPDEST PUSH2 0x270C PUSH8 0xDE0B6B3A7640000 PUSH2 0x8F0 PUSH1 0x8 SLOAD DUP6 PUSH2 0x2925 SWAP1 SWAP2 SWAP1 PUSH4 0xFFFFFFFF AND JUMP JUMPDEST SWAP1 POP JUMPDEST PUSH1 0x0 DUP2 GT PUSH2 0x275F JUMPI PUSH1 0x40 MLOAD PUSH3 0x461BCD PUSH1 0xE5 SHL DUP2 MSTORE PUSH1 0x20 PUSH1 0x4 DUP3 ADD MSTORE PUSH1 0x17 PUSH1 0x24 DUP3 ADD MSTORE PUSH32 0x74786E20616D6F756E7420697320746F6F20736D616C6C000000000000000000 PUSH1 0x44 DUP3 ADD MSTORE PUSH1 0x64 ADD PUSH2 0xA48 JUMP JUMPDEST DUP1 PUSH1 0x5 PUSH1 0x0 DUP3 DUP3 SLOAD PUSH2 0x2771 SWAP2 SWAP1 PUSH2 0x3184 JUMP JUMPDEST SWAP1 SWAP2 SSTORE POP POP CALLER PUSH1 0x0 SWAP1 DUP2 MSTORE PUSH1 0xB PUSH1 0x20 MSTORE PUSH1 0x40 SWAP1 KECCAK256 SLOAD PUSH2 0x27CD JUMPI PUSH1 0xC DUP1 SLOAD PUSH1 0x1 DUP2 ADD DUP3 SSTORE PUSH1 0x0 SWAP2 SWAP1 SWAP2 MSTORE PUSH32 0xDF6966C971051C3D54EC59162606531493A51404A002842F56009D7E5CF4A8C7 ADD DUP1 SLOAD PUSH1 0x1 PUSH1 0x1 PUSH1 0xA0 SHL SUB NOT AND CALLER OR SWAP1 SSTORE JUMPDEST CALLER PUSH1 0x0 SWAP1 DUP2 MSTORE PUSH1 0xB PUSH1 0x20 MSTORE PUSH1 0x40 DUP2 KECCAK256 DUP1 SLOAD PUSH1 0x1 SWAP3 SWAP1 PUSH2 0x27ED SWAP1 DUP5 SWAP1 PUSH2 0x2F0A JUMP JUMPDEST SWAP1 SWAP2 SSTORE POP POP CALLER PUSH1 0x0 SWAP1 DUP2 MSTORE PUSH1 0xB PUSH1 0x20 MSTORE PUSH1 0x40 DUP2 KECCAK256 PUSH1 0x1 ADD DUP1 SLOAD DUP5 SWAP3 SWAP1 PUSH2 0x2814 SWAP1 DUP5 SWAP1 PUSH2 0x2F0A JUMP JUMPDEST SWAP1 SWAP2 SSTORE POP POP CALLER PUSH1 0x0 SWAP1 DUP2 MSTORE PUSH1 0xB PUSH1 0x20 MSTORE PUSH1 0x40 DUP2 KECCAK256 PUSH1 0x2 ADD DUP1 SLOAD DUP4 SWAP3 SWAP1 PUSH2 0x123B SWAP1 DUP5 SWAP1 PUSH2 0x2F0A JUMP JUMPDEST PUSH1 0x0 SLOAD PUSH1 0x1 PUSH1 0x1 PUSH1 0xA0 SHL SUB AND CALLER EQ PUSH2 0x2865 JUMPI PUSH1 0x40 MLOAD PUSH3 0x461BCD PUSH1 0xE5 SHL DUP2 MSTORE PUSH1 0x4 ADD PUSH2 0xA48 SWAP1 PUSH2 0x303C JUMP JUMPDEST PUSH1 0x1 PUSH1 0x1 PUSH1 0xA0 SHL SUB DUP2 AND PUSH2 0x28CA JUMPI PUSH1 0x40 MLOAD PUSH3 0x461BCD PUSH1 0xE5 SHL DUP2 MSTORE PUSH1 0x20 PUSH1 0x4 DUP3 ADD MSTORE PUSH1 0x26 PUSH1 0x24 DUP3 ADD MSTORE PUSH32 0x4F776E61626C653A206E6577206F776E657220697320746865207A65726F2061 PUSH1 0x44 DUP3 ADD MSTORE PUSH6 0x646472657373 PUSH1 0xD0 SHL PUSH1 0x64 DUP3 ADD MSTORE PUSH1 0x84 ADD PUSH2 0xA48 JUMP JUMPDEST PUSH1 0x0 DUP1 SLOAD PUSH1 0x40 MLOAD PUSH1 0x1 PUSH1 0x1 PUSH1 0xA0 SHL SUB DUP1 DUP6 AND SWAP4 SWAP3 AND SWAP2 PUSH32 0x8BE0079C531659141344CD1FD0A4F28419497F9722A3DAAFE3B4186F6B6457E0 SWAP2 LOG3 PUSH1 0x0 DUP1 SLOAD PUSH1 0x1 PUSH1 0x1 PUSH1 0xA0 SHL SUB NOT AND PUSH1 0x1 PUSH1 0x1 PUSH1 0xA0 SHL SUB SWAP3 SWAP1 SWAP3 AND SWAP2 SWAP1 SWAP2 OR SWAP1 SSTORE JUMP JUMPDEST PUSH1 0x0 PUSH2 0x2931 DUP3 DUP5 PUSH2 0x319B JUMP JUMPDEST SWAP4 SWAP3 POP POP POP JUMP JUMPDEST PUSH1 0x0 PUSH2 0x2931 DUP3 DUP5 PUSH2 0x31BA JUMP JUMPDEST PUSH1 0x0 PUSH2 0x2931 DUP3 DUP5 PUSH2 0x3184 JUMP JUMPDEST PUSH1 0x0 DUP2 DUP4 LT PUSH2 0x295F JUMPI DUP2 PUSH2 0x2931 JUMP JUMPDEST POP SWAP1 SWAP2 SWAP1 POP JUMP JUMPDEST PUSH1 0x1 PUSH1 0x1 PUSH1 0xA0 SHL SUB DUP2 AND PUSH1 0x0 SWAP1 DUP2 MSTORE PUSH1 0x1 DUP4 ADD PUSH1 0x20 MSTORE PUSH1 0x40 DUP2 KECCAK256 SLOAD ISZERO ISZERO PUSH2 0x2931 JUMP JUMPDEST PUSH1 0x0 PUSH2 0x2931 DUP4 PUSH1 0x1 PUSH1 0x1 PUSH1 0xA0 SHL SUB DUP5 AND PUSH2 0x29C8 JUMP JUMPDEST PUSH1 0x0 PUSH2 0x1617 DUP3 SLOAD SWAP1 JUMP JUMPDEST PUSH1 0x0 PUSH2 0x2931 DUP4 DUP4 PUSH2 0x2A17 JUMP JUMPDEST PUSH1 0x0 PUSH2 0x2931 DUP4 PUSH1 0x1 PUSH1 0x1 PUSH1 0xA0 SHL SUB DUP5 AND PUSH2 0x2A41 JUMP JUMPDEST PUSH1 0x0 DUP2 DUP2 MSTORE PUSH1 0x1 DUP4 ADD PUSH1 0x20 MSTORE PUSH1 0x40 DUP2 KECCAK256 SLOAD PUSH2 0x2A0F JUMPI POP DUP2 SLOAD PUSH1 0x1 DUP2 DUP2 ADD DUP5 SSTORE PUSH1 0x0 DUP5 DUP2 MSTORE PUSH1 0x20 DUP1 DUP3 KECCAK256 SWAP1 SWAP4 ADD DUP5 SWAP1 SSTORE DUP5 SLOAD DUP5 DUP3 MSTORE DUP3 DUP7 ADD SWAP1 SWAP4 MSTORE PUSH1 0x40 SWAP1 KECCAK256 SWAP2 SWAP1 SWAP2 SSTORE PUSH2 0x1617 JUMP JUMPDEST POP PUSH1 0x0 PUSH2 0x1617 JUMP JUMPDEST PUSH1 0x0 DUP3 PUSH1 0x0 ADD DUP3 DUP2 SLOAD DUP2 LT PUSH2 0x2A2E JUMPI PUSH2 0x2A2E PUSH2 0x2EDE JUMP JUMPDEST SWAP1 PUSH1 0x0 MSTORE PUSH1 0x20 PUSH1 0x0 KECCAK256 ADD SLOAD SWAP1 POP SWAP3 SWAP2 POP POP JUMP JUMPDEST PUSH1 0x0 DUP2 DUP2 MSTORE PUSH1 0x1 DUP4 ADD PUSH1 0x20 MSTORE PUSH1 0x40 DUP2 KECCAK256 SLOAD DUP1 ISZERO PUSH2 0x2B2A JUMPI PUSH1 0x0 PUSH2 0x2A65 PUSH1 0x1 DUP4 PUSH2 0x3184 JUMP JUMPDEST DUP6 SLOAD SWAP1 SWAP2 POP PUSH1 0x0 SWAP1 PUSH2 0x2A79 SWAP1 PUSH1 0x1 SWAP1 PUSH2 0x3184 JUMP JUMPDEST SWAP1 POP DUP2 DUP2 EQ PUSH2 0x2ADE JUMPI PUSH1 0x0 DUP7 PUSH1 0x0 ADD DUP3 DUP2 SLOAD DUP2 LT PUSH2 0x2A99 JUMPI PUSH2 0x2A99 PUSH2 0x2EDE JUMP JUMPDEST SWAP1 PUSH1 0x0 MSTORE PUSH1 0x20 PUSH1 0x0 KECCAK256 ADD SLOAD SWAP1 POP DUP1 DUP8 PUSH1 0x0 ADD DUP5 DUP2 SLOAD DUP2 LT PUSH2 0x2ABC JUMPI PUSH2 0x2ABC PUSH2 0x2EDE JUMP JUMPDEST PUSH1 0x0 SWAP2 DUP3 MSTORE PUSH1 0x20 DUP1 DUP4 KECCAK256 SWAP1 SWAP2 ADD SWAP3 SWAP1 SWAP3 SSTORE SWAP2 DUP3 MSTORE PUSH1 0x1 DUP9 ADD SWAP1 MSTORE PUSH1 0x40 SWAP1 KECCAK256 DUP4 SWAP1 SSTORE JUMPDEST DUP6 SLOAD DUP7 SWAP1 DUP1 PUSH2 0x2AEF JUMPI PUSH2 0x2AEF PUSH2 0x31DC JUMP JUMPDEST PUSH1 0x1 SWAP1 SUB DUP2 DUP2 SWAP1 PUSH1 0x0 MSTORE PUSH1 0x20 PUSH1 0x0 KECCAK256 ADD PUSH1 0x0 SWAP1 SSTORE SWAP1 SSTORE DUP6 PUSH1 0x1 ADD PUSH1 0x0 DUP7 DUP2 MSTORE PUSH1 0x20 ADD SWAP1 DUP2 MSTORE PUSH1 0x20 ADD PUSH1 0x0 KECCAK256 PUSH1 0x0 SWAP1 SSTORE PUSH1 0x1 SWAP4 POP POP POP POP PUSH2 0x1617 JUMP JUMPDEST PUSH1 0x0 SWAP2 POP POP PUSH2 0x1617 JUMP JUMPDEST POP DUP1 SLOAD PUSH1 0x0 DUP3 SSTORE PUSH1 0x3 MUL SWAP1 PUSH1 0x0 MSTORE PUSH1 0x20 PUSH1 0x0 KECCAK256 SWAP1 DUP2 ADD SWAP1 PUSH2 0x152C SWAP2 SWAP1 PUSH2 0x2B76 JUMP JUMPDEST POP DUP1 SLOAD PUSH1 0x0 DUP3 SSTORE PUSH1 0x2 MUL SWAP1 PUSH1 0x0 MSTORE PUSH1 0x20 PUSH1 0x0 KECCAK256 SWAP1 DUP2 ADD SWAP1 PUSH2 0x152C SWAP2 SWAP1 PUSH2 0x2BA7 JUMP JUMPDEST JUMPDEST DUP1 DUP3 GT ISZERO PUSH2 0x2BA3 JUMPI PUSH1 0x0 DUP1 DUP3 SSTORE PUSH1 0x1 DUP3 ADD DUP1 SLOAD PUSH1 0x1 PUSH1 0x1 PUSH1 0xA0 SHL SUB NOT AND SWAP1 SSTORE PUSH1 0x2 DUP3 ADD SSTORE PUSH1 0x3 ADD PUSH2 0x2B77 JUMP JUMPDEST POP SWAP1 JUMP JUMPDEST JUMPDEST DUP1 DUP3 GT ISZERO PUSH2 0x2BA3 JUMPI PUSH1 0x0 DUP1 DUP3 SSTORE PUSH1 0x1 DUP3 ADD SSTORE PUSH1 0x2 ADD PUSH2 0x2BA8 JUMP JUMPDEST DUP1 CALLDATALOAD PUSH1 0x1 PUSH1 0x1 PUSH1 0xA0 SHL SUB DUP2 AND DUP2 EQ PUSH2 0x2BD9 JUMPI PUSH1 0x0 DUP1 REVERT JUMPDEST SWAP2 SWAP1 POP JUMP JUMPDEST PUSH1 0x0 PUSH1 0x20 DUP3 DUP5 SUB SLT ISZERO PUSH2 0x2BF0 JUMPI PUSH1 0x0 DUP1 REVERT JUMPDEST PUSH2 0x2931 DUP3 PUSH2 0x2BC2 JUMP JUMPDEST PUSH1 0x0 PUSH1 0x20 DUP3 DUP5 SUB SLT ISZERO PUSH2 0x2C0B JUMPI PUSH1 0x0 DUP1 REVERT JUMPDEST POP CALLDATALOAD SWAP2 SWAP1 POP JUMP JUMPDEST PUSH1 0x0 DUP1 DUP4 PUSH1 0x1F DUP5 ADD SLT PUSH2 0x2C24 JUMPI PUSH1 0x0 DUP1 REVERT JUMPDEST POP DUP2 CALLDATALOAD PUSH8 0xFFFFFFFFFFFFFFFF DUP2 GT ISZERO PUSH2 0x2C3C JUMPI PUSH1 0x0 DUP1 REVERT JUMPDEST PUSH1 0x20 DUP4 ADD SWAP2 POP DUP4 PUSH1 0x20 DUP3 PUSH1 0x5 SHL DUP6 ADD ADD GT ISZERO PUSH2 0x2C57 JUMPI PUSH1 0x0 DUP1 REVERT JUMPDEST SWAP3 POP SWAP3 SWAP1 POP JUMP JUMPDEST PUSH1 0x0 DUP1 PUSH1 0x0 DUP1 PUSH1 0x0 DUP1 PUSH1 0x60 DUP8 DUP10 SUB SLT ISZERO PUSH2 0x2C77 JUMPI PUSH1 0x0 DUP1 REVERT JUMPDEST DUP7 CALLDATALOAD PUSH8 0xFFFFFFFFFFFFFFFF DUP1 DUP3 GT ISZERO PUSH2 0x2C8F JUMPI PUSH1 0x0 DUP1 REVERT JUMPDEST PUSH2 0x2C9B DUP11 DUP4 DUP12 ADD PUSH2 0x2C12 JUMP JUMPDEST SWAP1 SWAP9 POP SWAP7 POP PUSH1 0x20 DUP10 ADD CALLDATALOAD SWAP2 POP DUP1 DUP3 GT ISZERO PUSH2 0x2CB4 JUMPI PUSH1 0x0 DUP1 REVERT JUMPDEST PUSH2 0x2CC0 DUP11 DUP4 DUP12 ADD PUSH2 0x2C12 JUMP JUMPDEST SWAP1 SWAP7 POP SWAP5 POP PUSH1 0x40 DUP10 ADD CALLDATALOAD SWAP2 POP DUP1 DUP3 GT ISZERO PUSH2 0x2CD9 JUMPI PUSH1 0x0 DUP1 REVERT JUMPDEST POP PUSH2 0x2CE6 DUP10 DUP3 DUP11 ADD PUSH2 0x2C12 JUMP JUMPDEST SWAP8 SWAP11 SWAP7 SWAP10 POP SWAP5 SWAP8 POP SWAP3 SWAP6 SWAP4 SWAP5 SWAP3 POP POP POP JUMP JUMPDEST PUSH1 0x0 DUP1 PUSH1 0x0 PUSH1 0x60 DUP5 DUP7 SUB SLT ISZERO PUSH2 0x2D0D JUMPI PUSH1 0x0 DUP1 REVERT JUMPDEST POP POP DUP2 CALLDATALOAD SWAP4 PUSH1 0x20 DUP4 ADD CALLDATALOAD SWAP4 POP PUSH1 0x40 SWAP1 SWAP3 ADD CALLDATALOAD SWAP2 SWAP1 POP JUMP JUMPDEST DUP1 ISZERO ISZERO DUP2 EQ PUSH2 0x152C JUMPI PUSH1 0x0 DUP1 REVERT JUMPDEST PUSH1 0x0 PUSH1 0x20 DUP3 DUP5 SUB SLT ISZERO PUSH2 0x2D44 JUMPI PUSH1 0x0 DUP1 REVERT JUMPDEST DUP2 CALLDATALOAD PUSH2 0x2931 DUP2 PUSH2 0x2D24 JUMP JUMPDEST PUSH1 0x20 DUP1 DUP3 MSTORE DUP3 MLOAD DUP3 DUP3 ADD DUP2 SWAP1 MSTORE PUSH1 0x0 SWAP2 SWAP1 PUSH1 0x40 SWAP1 DUP2 DUP6 ADD SWAP1 DUP7 DUP5 ADD DUP6 JUMPDEST DUP3 DUP2 LT ISZERO PUSH2 0x2DA4 JUMPI DUP2 MLOAD DUP1 MLOAD DUP6 MSTORE DUP7 DUP2 ADD MLOAD PUSH1 0x1 PUSH1 0x1 PUSH1 0xA0 SHL SUB AND DUP8 DUP7 ADD MSTORE DUP6 ADD MLOAD DUP6 DUP6 ADD MSTORE PUSH1 0x60 SWAP1 SWAP4 ADD SWAP3 SWAP1 DUP6 ADD SWAP1 PUSH1 0x1 ADD PUSH2 0x2D6C JUMP JUMPDEST POP SWAP2 SWAP8 SWAP7 POP POP POP POP POP POP POP JUMP JUMPDEST PUSH1 0x0 DUP1 PUSH1 0x40 DUP4 DUP6 SUB SLT ISZERO PUSH2 0x2DC4 JUMPI PUSH1 0x0 DUP1 REVERT JUMPDEST PUSH2 0x2DCD DUP4 PUSH2 0x2BC2 JUMP JUMPDEST SWAP5 PUSH1 0x20 SWAP4 SWAP1 SWAP4 ADD CALLDATALOAD SWAP4 POP POP POP JUMP JUMPDEST PUSH1 0x0 DUP1 PUSH1 0x0 DUP1 PUSH1 0x40 DUP6 DUP8 SUB SLT ISZERO PUSH2 0x2DF1 JUMPI PUSH1 0x0 DUP1 REVERT JUMPDEST DUP5 CALLDATALOAD PUSH8 0xFFFFFFFFFFFFFFFF DUP1 DUP3 GT ISZERO PUSH2 0x2E09 JUMPI PUSH1 0x0 DUP1 REVERT JUMPDEST PUSH2 0x2E15 DUP9 DUP4 DUP10 ADD PUSH2 0x2C12 JUMP JUMPDEST SWAP1 SWAP7 POP SWAP5 POP PUSH1 0x20 DUP8 ADD CALLDATALOAD SWAP2 POP DUP1 DUP3 GT ISZERO PUSH2 0x2E2E JUMPI PUSH1 0x0 DUP1 REVERT JUMPDEST POP PUSH2 0x2E3B DUP8 DUP3 DUP9 ADD PUSH2 0x2C12 JUMP JUMPDEST SWAP6 SWAP9 SWAP5 SWAP8 POP SWAP6 POP POP POP POP JUMP JUMPDEST PUSH1 0x20 DUP1 DUP3 MSTORE DUP3 MLOAD DUP3 DUP3 ADD DUP2 SWAP1 MSTORE PUSH1 0x0 SWAP2 SWAP1 PUSH1 0x40 SWAP1 DUP2 DUP6 ADD SWAP1 DUP7 DUP5 ADD DUP6 JUMPDEST DUP3 DUP2 LT ISZERO PUSH2 0x2DA4 JUMPI DUP2 MLOAD DUP1 MLOAD DUP6 MSTORE DUP7 ADD MLOAD DUP7 DUP6 ADD MSTORE SWAP3 DUP5 ADD SWAP3 SWAP1 DUP6 ADD SWAP1 PUSH1 0x1 ADD PUSH2 0x2E64 JUMP JUMPDEST PUSH1 0x0 DUP1 PUSH1 0x0 PUSH1 0x60 DUP5 DUP7 SUB SLT ISZERO PUSH2 0x2E9E JUMPI PUSH1 0x0 DUP1 REVERT JUMPDEST PUSH2 0x2EA7 DUP5 PUSH2 0x2BC2 JUMP JUMPDEST SWAP3 POP PUSH2 0x2EB5 PUSH1 0x20 DUP6 ADD PUSH2 0x2BC2 JUMP JUMPDEST SWAP2 POP PUSH1 0x40 DUP5 ADD CALLDATALOAD SWAP1 POP SWAP3 POP SWAP3 POP SWAP3 JUMP JUMPDEST PUSH1 0x0 PUSH1 0x20 DUP3 DUP5 SUB SLT ISZERO PUSH2 0x2ED7 JUMPI PUSH1 0x0 DUP1 REVERT JUMPDEST POP MLOAD SWAP2 SWAP1 POP JUMP JUMPDEST PUSH4 0x4E487B71 PUSH1 0xE0 SHL PUSH1 0x0 MSTORE PUSH1 0x32 PUSH1 0x4 MSTORE PUSH1 0x24 PUSH1 0x0 REVERT JUMPDEST PUSH4 0x4E487B71 PUSH1 0xE0 SHL PUSH1 0x0 MSTORE PUSH1 0x11 PUSH1 0x4 MSTORE PUSH1 0x24 PUSH1 0x0 REVERT JUMPDEST PUSH1 0x0 DUP3 NOT DUP3 GT ISZERO PUSH2 0x2F1D JUMPI PUSH2 0x2F1D PUSH2 0x2EF4 JUMP JUMPDEST POP ADD SWAP1 JUMP JUMPDEST PUSH1 0x0 PUSH1 0x0 NOT DUP3 EQ ISZERO PUSH2 0x2F36 JUMPI PUSH2 0x2F36 PUSH2 0x2EF4 JUMP JUMPDEST POP PUSH1 0x1 ADD SWAP1 JUMP JUMPDEST PUSH1 0x20 DUP1 DUP3 MSTORE PUSH1 0x25 SWAP1 DUP3 ADD MSTORE PUSH32 0x4F776E61626C653A2063616C6C6572206973206E6F742074686520636F6E7472 PUSH1 0x40 DUP3 ADD MSTORE PUSH5 0x37B63632B9 PUSH1 0xD9 SHL PUSH1 0x60 DUP3 ADD MSTORE PUSH1 0x80 ADD SWAP1 JUMP JUMPDEST PUSH1 0x20 DUP1 DUP3 MSTORE PUSH1 0x14 SWAP1 DUP3 ADD MSTORE PUSH20 0x1D1A1A5CC81C1BDBDB081A5CC81B9BDD08195B99 PUSH1 0x62 SHL PUSH1 0x40 DUP3 ADD MSTORE PUSH1 0x60 ADD SWAP1 JUMP JUMPDEST PUSH1 0x0 PUSH1 0x20 DUP3 DUP5 SUB SLT ISZERO PUSH2 0x2FC2 JUMPI PUSH1 0x0 DUP1 REVERT JUMPDEST DUP2 MLOAD PUSH2 0x2931 DUP2 PUSH2 0x2D24 JUMP JUMPDEST PUSH1 0x20 DUP1 DUP3 MSTORE PUSH1 0x14 SWAP1 DUP3 ADD MSTORE PUSH20 0x1B195B99DD1A081B5D5CDD08189948195C5D585B PUSH1 0x62 SHL PUSH1 0x40 DUP3 ADD MSTORE PUSH1 0x60 ADD SWAP1 JUMP JUMPDEST PUSH1 0x20 DUP1 DUP3 MSTORE PUSH1 0x21 SWAP1 DUP3 ADD MSTORE PUSH32 0x746F74616C20726174696F206D75737420626520657175616C20746F20316531 PUSH1 0x40 DUP3 ADD MSTORE PUSH1 0x7 PUSH1 0xFB SHL PUSH1 0x60 DUP3 ADD MSTORE PUSH1 0x80 ADD SWAP1 JUMP JUMPDEST PUSH1 0x20 DUP1 DUP3 MSTORE DUP2 DUP2 ADD MSTORE PUSH32 0x4F776E61626C653A2063616C6C6572206973206E6F7420746865206F776E6572 PUSH1 0x40 DUP3 ADD MSTORE PUSH1 0x60 ADD SWAP1 JUMP JUMPDEST PUSH1 0x0 PUSH1 0x20 DUP3 DUP5 SUB SLT ISZERO PUSH2 0x3083 JUMPI PUSH1 0x0 DUP1 REVERT JUMPDEST DUP2 MLOAD PUSH1 0xFF DUP2 AND DUP2 EQ PUSH2 0x2931 JUMPI PUSH1 0x0 DUP1 REVERT JUMPDEST PUSH1 0x1 DUP2 DUP2 JUMPDEST DUP1 DUP6 GT ISZERO PUSH2 0x30CF JUMPI DUP2 PUSH1 0x0 NOT DIV DUP3 GT ISZERO PUSH2 0x30B5 JUMPI PUSH2 0x30B5 PUSH2 0x2EF4 JUMP JUMPDEST DUP1 DUP6 AND ISZERO PUSH2 0x30C2 JUMPI SWAP2 DUP2 MUL SWAP2 JUMPDEST SWAP4 DUP5 SHR SWAP4 SWAP1 DUP1 MUL SWAP1 PUSH2 0x3099 JUMP JUMPDEST POP SWAP3 POP SWAP3 SWAP1 POP JUMP JUMPDEST PUSH1 0x0 DUP3 PUSH2 0x30E6 JUMPI POP PUSH1 0x1 PUSH2 0x1617 JUMP JUMPDEST DUP2 PUSH2 0x30F3 JUMPI POP PUSH1 0x0 PUSH2 0x1617 JUMP JUMPDEST DUP2 PUSH1 0x1 DUP2 EQ PUSH2 0x3109 JUMPI PUSH1 0x2 DUP2 EQ PUSH2 0x3113 JUMPI PUSH2 0x312F JUMP JUMPDEST PUSH1 0x1 SWAP2 POP POP PUSH2 0x1617 JUMP JUMPDEST PUSH1 0xFF DUP5 GT ISZERO PUSH2 0x3124 JUMPI PUSH2 0x3124 PUSH2 0x2EF4 JUMP JUMPDEST POP POP PUSH1 0x1 DUP3 SHL PUSH2 0x1617 JUMP JUMPDEST POP PUSH1 0x20 DUP4 LT PUSH2 0x133 DUP4 LT AND PUSH1 0x4E DUP5 LT PUSH1 0xB DUP5 LT AND OR ISZERO PUSH2 0x3152 JUMPI POP DUP2 DUP2 EXP PUSH2 0x1617 JUMP JUMPDEST PUSH2 0x315C DUP4 DUP4 PUSH2 0x3094 JUMP JUMPDEST DUP1 PUSH1 0x0 NOT DIV DUP3 GT ISZERO PUSH2 0x3170 JUMPI PUSH2 0x3170 PUSH2 0x2EF4 JUMP JUMPDEST MUL SWAP4 SWAP3 POP POP POP JUMP JUMPDEST PUSH1 0x0 PUSH2 0x2931 DUP4 DUP4 PUSH2 0x30D7 JUMP JUMPDEST PUSH1 0x0 DUP3 DUP3 LT ISZERO PUSH2 0x3196 JUMPI PUSH2 0x3196 PUSH2 0x2EF4 JUMP JUMPDEST POP SUB SWAP1 JUMP JUMPDEST PUSH1 0x0 DUP2 PUSH1 0x0 NOT DIV DUP4 GT DUP3 ISZERO ISZERO AND ISZERO PUSH2 0x31B5 JUMPI PUSH2 0x31B5 PUSH2 0x2EF4 JUMP JUMPDEST POP MUL SWAP1 JUMP JUMPDEST PUSH1 0x0 DUP3 PUSH2 0x31D7 JUMPI PUSH4 0x4E487B71 PUSH1 0xE0 SHL PUSH1 0x0 MSTORE PUSH1 0x12 PUSH1 0x4 MSTORE PUSH1 0x24 PUSH1 0x0 REVERT JUMPDEST POP DIV SWAP1 JUMP JUMPDEST PUSH4 0x4E487B71 PUSH1 0xE0 SHL PUSH1 0x0 MSTORE PUSH1 0x31 PUSH1 0x4 MSTORE PUSH1 0x24 PUSH1 0x0 REVERT INVALID LOG2 PUSH5 0x6970667358 0x22 SLT KECCAK256 SUB EQ PUSH11 0xC2491441C6060C3CC1DAD0 SWAP13 CREATE2 0x4D DUP12 SSTORE 0x2F JUMPDEST PUSH30 0xCAACAD9D6572ACD68F1564736F6C63430008090033000000000000000000 "
				},
				"gasEstimates": {
					"creation": {
						"codeDepositCost": "2568000",
						"executionCost": "infinite",
						"totalCost": "infinite"
					},
					"external": {
						"addGovernment(address)": "infinite",
						"checkReleaseRules()": "infinite",
						"checkSharingRules()": "infinite",
						"checkTxnLimit()": "6828",
						"checkWhiteListInfo()": "4536",
						"claimRewards()": "infinite",
						"clear()": "infinite",
						"clearAll()": "infinite",
						"deletedGovernment(address)": "infinite",
						"earned(address)": "infinite",
						"getAccountsLength()": "2327",
						"getBuyRecord(address)": "9298",
						"getBuyRecordByIndex(uint256)": "13496",
						"getClaimOpen()": "2370",
						"getEndTime()": "2415",
						"getGovernment(uint256)": "4761",
						"getGovernmentLength()": "2471",
						"getPoolInfo()": "13463",
						"getPosition()": "2414",
						"getSoftCap()": "2327",
						"getTotalSupply()": "2370",
						"giveBack(uint256)": "infinite",
						"isGovernment(address)": "infinite",
						"owner()": "2410",
						"purchase(uint256)": "infinite",
						"renounceOwnership()": "30254",
						"resetEndTime(uint256)": "26822",
						"resetSoftCap(uint256)": "26845",
						"setClaimOpen(bool)": "infinite",
						"setReleaseRules(uint256[],uint256[])": "infinite",
						"setSeniorWhiteList(address)": "infinite",
						"setSharingRules(uint256[],address[],uint256[])": "infinite",
						"setTxnLimit(uint256,uint256,uint256)": "71128",
						"setWhiteListInfo(address,uint256)": "51196",
						"transferOwnership(address)": "30532",
						"withdraw(address,address,uint256)": "infinite",
						"withdrawBNB(address,uint256)": "infinite"
					}
				},
				"methodIdentifiers": {
					"addGovernment(address)": "80d87320",
					"checkReleaseRules()": "c7101837",
					"checkSharingRules()": "74df25ad",
					"checkTxnLimit()": "cc26c44e",
					"checkWhiteListInfo()": "04d43fc0",
					"claimRewards()": "372500ab",
					"clear()": "52efea6e",
					"clearAll()": "ebb689a1",
					"deletedGovernment(address)": "d5e46d3c",
					"earned(address)": "008cc262",
					"getAccountsLength()": "14f326a1",
					"getBuyRecord(address)": "0c7fd484",
					"getBuyRecordByIndex(uint256)": "6f9ce1f9",
					"getClaimOpen()": "eaefc546",
					"getEndTime()": "439f5ac2",
					"getGovernment(uint256)": "c9d41698",
					"getGovernmentLength()": "9ab8ded1",
					"getPoolInfo()": "60246c88",
					"getPosition()": "7398ab18",
					"getSoftCap()": "4d52a512",
					"getTotalSupply()": "c4e41b22",
					"giveBack(uint256)": "0d5847b0",
					"isGovernment(address)": "6c2b04fd",
					"owner()": "8da5cb5b",
					"purchase(uint256)": "efef39a1",
					"renounceOwnership()": "715018a6",
					"resetEndTime(uint256)": "a623dbe5",
					"resetSoftCap(uint256)": "1758b09d",
					"setClaimOpen(bool)": "7273df66",
					"setReleaseRules(uint256[],uint256[])": "c69ce8eb",
					"setSeniorWhiteList(address)": "d53890cd",
					"setSharingRules(uint256[],address[],uint256[])": "2483c291",
					"setTxnLimit(uint256,uint256,uint256)": "54d9ba1c",
					"setWhiteListInfo(address,uint256)": "c8ad7497",
					"transferOwnership(address)": "f2fde38b",
					"withdraw(address,address,uint256)": "d9caed12",
					"withdrawBNB(address,uint256)": "a97af1f2"
				}
			},
			"userdoc": {
				"kind": "user",
				"methods": {},
				"version": 1
			}
		}
	}
}